:02000004000AF0
:20E000000040022041EB0A0091EB0A0037E90A008FEB0A008FEB0A008FEB0A00000000002C
:20E020000000000000000000000000008FEB0A008FEB0A00000000008FEB0A008FEB0A00D0
:20E040008FEB0A008FEB0A008FEB0A008FEB0A008FEB0A008FEB0A008FEB0A008FEB0A00A0
:20E060008FEB0A008FEB0A008FEB0A008FEB0A008FEB0A008FEB0A008FEB0A008FEB0A0080
:20E080008FEB0A008FEB0A008FEB0A008FEB0A008FEB0A008FEB0A008FEB0A008FEB0A0060
:20E0A0008FEB0A008FEB0A008FEB0A008FEB0A008FEB0A008FEB0A008FEB0A008FEB0A0040
:18E0C0008FEB0A008FEB0A008FEB0A008FEB0A008FEB0A008FEB0A0030
:20E0D8002DE9F843089C0F461D461646214600F018FDDFF8C88004F12001404600F011FDFA
:20E0F800404604F14001203000F00BFD384604F1600100F006FD304604F1800100F001FD63
:20E11800274805602749006800F24C4900F2944700F5976600F2DC4500F58E682248086025
:20E13800234822490860244822490860244823490860254823490860254824490860254919
:20E15800032008700820C9F80000C8F800003860306004F12001286009F1040000F0DBFCD8
:20E1780008F1040004F1400100F0D5FC381D214600F0D1FC301D04F1600100F0CCFC281D7A
:20E1980004F1800100F0C7FC0095484641463A46334600F021F8BDE8F883C04660FF0A0003
:20E1B8003401002038010020D45702103C010020F8570210400100201C5802104401002052
:20E1D800405802102C01002064580210300100208858021048010020DFF800F005C8001012
:20E1F8002DE9F84F82463548A0F10809D9F800000E464169272088472F4C00256561A5745F
:20E21800278B2570B8193F2839D957B9304600F0ABFCD04604F110050746BB4607EB0800D0
:20E2380012E004F11008C7F1400B07EB080051465A46103000F076FA2583AAEB0700454624
:20E258004027403004F120086060A6EB0B06A66000F072FCE069002807BFD9F854008668A2
:20E27800D9F85400C66805F1500108223B464046B0470126E0696674C019E06116E0E01971
:20E2980051463246203000F04DFA208B80192083A56000F051FC012209486274001F40F806
:20E2B800042C016841F001010160826000F04AFC00F032F9BDE8F88F00030020B8010010CE
:20E2D800884702402D4A2DE9F04180462E4C5068800806D2106804F14D01000C40F0F00018
:20E2F800087028484FF001214FF08057C0F8041407F5F8760088D7F8F0019568204F016850
:20E3180028468847A80E03D2680E24BF02202070306842682946404690471F48F430006811
:20E33800C0F305313970410A39BF402184F823104021E174800900F0380040F46050A7F8F6
:20E358005C0030688168284688471049104A0AE0105C9478131D844299BF184410F8010CB7
:20E3780018444078086008684B689842FCD10228EED1084901200860BDE8F081AC4F00501B
:20E398000EB00C4000A00C400962084000600C4094EB0A0094046042181300502D4870B538
:20E3B800001D0468B4F1FF3F08BF002400F080FB052838D128481C4E002510380560306C05
:20E3D800806C80471948006820B1194800682046FFF778FF174818490560184C0A686FF3DF
:20E3F8005B4244EA0200086015490868C0F30130012806D10A681348104040F400320A6031
:20E418000860114D0124EC613068016A142088470E49086840F4E02008600D492C600868F1
:20E438000028FCD170BDFEE7B001001080012843800520438C21084048200340000039014E
:20E4580028000940EFFFFCFC00002443002009400C00684218130050940460422DE9FF41BC
:20E478002B4E80463068416927208847294C00276761A7740125257000F05EFBE369657445
:20E49800002B35D0228B4ABBD800002102AA04F1100582E803003946402205F1100000F08F
:20E4B800D5F92034042780202946207002A8C279C37885F848207F1E85F84C30A0F101002B
:20E4D80005F10105F3D150314046202200F02AF9706DC5680822402320460FE0706D9B188C
:20E4F800082704F16006056800923246019703E0706D228B4568082304F120004146A8479B
:20E5180000F020FB00F008F80090BDE8FF81C046B0010010000300202DE9F84F2B48DFF8A2
:20E53800A8B02B4CDFF89C8000254FF0FF3A00F14C090BF1020BD9F8000041692248884761
:20E55800D8F80860C8F800B000F0F6FAA77C87BBA768300826D23FB362683F2F04F1100147
:20E578000AD801F1100061683A4600F0DBF8208BA560C019208317E0384600F0F5FA0746C6
:20E59800D9F80000C66850313B4610460822B047A0686668E369C01BA060F0196060D81934
:20E5B800E06106E0C4F814A02078657408B1E561258300F0C7FA607C0028BCD16069BDE8E4
:20E5D800F88FC0468847024001000080B80100100003002070B500F0AFFA244E264C707C8A
:20E5F800A8B100F0A9FA707C78B121480125A4F1080305601868016A27208847002030839A
:20E61800F061B5746FF00203736100F09BFA002018493074F068086000F094FA00F08CFAD2
:20E6380070780125012808D02068816904208847042000F075F90228FAD12068016A4FF4A1
:20E65800806088472068816A4FF4806088472068016B4FF480608847084809490560086831
:20E678008008FCD300F06EFA70BDC046000300204047024034EF00E0B80100102820086038
:20E6980028200840F8B500F057FA214C04F110000078002839D10126267400256574A574F0
:20E6B80000F050FA2583E56100F046FA0420667000F036F901280AD0164800684169657089
:20E6D80004208847042000F02BF90128FAD14FF08057D7F8B801C1694FF480608847D7F87A
:20E6F800B801416A4FF480608847D7F8B801C16A4FF4806088470848084906600868800808
:20E71800FCD307490868E0600D6000F01BFAF8BD00030020B80100102820086028200840BF
:20E7380034EF00E0002A4AD05FEA000C8B071CD1830722D1102A08D370B4103A78C978C02D
:20E75800103AFBD270BC103238D0042A2CD3082A05D30C2A24BF08C908C008C908C008C9C1
:20E7780008C092072AD0920F22E00B780370491C401C521E22D08B07F7D1C30714D18307D7
:20E79800D8D0121F12D308C903801B0C4380001D121FF8D20AE008C903701B0A43701B0A22
:20E7B80083701B0AC370001D121FF4D2121D05D00B780370491C401C521EF9D16046704790
:20E7D8002DE9FE4F0C9C0D9D814604F108000190A86893469A4600210422074600F036F89C
:20E7F8004FF0FF3604F12808B9F1010F25D1FFF749FF50465946FFF7F3FC3846FFF72EFEC0
:20E81800FFF7E8FE0E4B641E0020A3F1080114F8012F095C914210D1401C0828F5DBA868AB
:20E83800203000902B68019942463846FFF748FC40B210F15B0F08BF00263046BDE8FE8F81
:20E8580060FF0A00002213460A46194671B510F0030F0BD0002A82BF00F8011BB2F10102D5
:20E8780010F0030FF6D1002A08BF71BD11F0FF0141EA0121042A18D341EA0141082A0FD3A0
:20E898000E46102A08D30C460D46B2F10F0312F00F0272C0103BFCD812F0080F18BF42C047
:20E8B80012F0040F18BF40F8041B12F0020F18BF20F8021B12F0010F18BF017071BD30B571
:20E8D8000C46082305460021ADF1940D6A4600F095F8684600F0C8F801281ED128460021C6
:20E8F8006A462C2300F08AF89DF81200A04214D1059800F0F9F880B19DF80C0003280CD1C9
:20E918009DF80D00012808D1069800EB4530B0F5302F02D8079800F01BF925B030BDFEE715
:20E938001149C8B570310A684E6D410806D302F0010106F0040600270E4300D0012781080B
:20E9580005D3002117B1930828BF01210F46C00805D3002017B1D10828BF01200746002F00
:20E9780014BF01200220C8BDD020084010B54FF0805000F5DC74D0F8B80141690420884775
:20E998000420FFF7CDFF0128FAD12068C1694FF4A060884701210548054A016010688008A2
:20E9B800FCD3044801604160816010BD2820086028200840141A4442B0B50C480C4DA84284
:20E9D80010D00C480C4CA0420CD0001B083CC71054F8080F017855F821206168401C904739
:20E9F8007F1EF5D100BF00BFB0BDC046B4EB0A00B0EB0A00BCEB0A00B4EB0A00F8B51F46F1
:20EA1800164601EB403500F097F8002400B101240020211C08BF012003E015F8011B06F859
:20EA3800011B39464A1E002997B2F6D108B100F089F8F8BD0B4880F308880949086840F457
:20EA58007000086000BF00BF00F091F808B1FFF7B3FF002000F01AF8012000F08AF8C046B3
:20EA780088ED00E00040022010B5074C0821083014F8012D10F8013D9A4218BF002002D128
:20EA9800491EF5D1012010BDA4EB0A0010B500200721FFF714FF012420460021FFF70FFFE4
:20EAB800641C582CF8DBFFF761FF00F057F8FCE7054800684BF677310001B1EB104F14BF82
:20EAD8004FF0FF300520704718130050D0F80300401EB0F1FF3F06D00022401E01F8012BD6
:20EAF800B0F1FF3FF9D17047002103E0421E491C1040C9B20028F9D181F0010000F00100B5
:20EB1800704700F11F02202012F80139401E01F8013BF9D170470246202011F8013B401E51
:20EB380002F8013BF9D1704708B5FFF737FCFFF781BFFFF7F4FE08BDEFF3108072B67047EC
:20EB580000207047EFF3108062B670470020704708B5D0F800D04068804708BD014940207B
:1AEB7800086070479020024020F03F0070470120704700BFFEE7FEE7FEE726
:10EB9400010200030200010343433236783252314A
:14EBA8000000000080000000E5EA0A00A8EB0A000003002040
:20FF5400014C0000B0177D511DEC108BD851BCA2ED3D9E19B733A52F33DA05404D13765069
:20FF74003D88DF5CD0E2F2583053C42AB92ABEEF665FECCF5616CC36EF2DC95E462B7C3B17
:0CFF940009C19956D9AF958163237BE722
:04FFA000D9E70A0093
:20FFA80000008001100080FFFDFF58003AFFBBF3FFFFFFFFFFFFFFFFFFFFFFFFFFFFFFFFFE
:20FFC800FFFFFFFFFFFFFFFFFFFFFFFFFFFFFFFFFFFFFF00FFFFFFFF00FFFFFF00C5C5FFAA
:18FFE800000000FF00E00A00FFFFFFFFFFFFFFFFFFFFFFFFFFFFFFFF28
:00000001FF
