S02B00002F6D6E742F726169642F776F726B7370616365732F77732E62363247316B5249572F6F7665726C6178
S214006000008000200D6400000964000009640000A0
S214006010716600000964000009640000096400005D
S21400602009640000096400000964000009640000B7
S21400603009640000096400000964000009640000A7
S2140060400964000009640000096400000964000097
S2140060500964000009640000096400000964000087
S2140060600964000009640000096400000964000077
S2140060700964000009640000096400000964000067
S2140060800964000009640000096400000964000057
S2140060900964000009640000096400000964000047
S2140060A00964000009640000096400000964000037
S2140060B009640000C5F700000964000081010100C2
S2140060C0490101004501010081F900007D01010040
S2140060D04D0101005501010051010100E1010100DF
S2140060E061E40000C5E40000C1010100096400008D
S2140060F009640000096400000964000009640000E7
S21400610009640000096400000964000009640000D6
S21400611009640000096400000964000009640000C6
S21400612009640000096400000964000009640000B6
S21400613009640000096400000964000009640000A6
S21400614010B5054C237833B9044B13B1044800E06E
S21400615000BF0123237010BD900200200000000045
S2140061602067010008B5034B1BB10349034800E054
S21400617000BF08BD00000000940200202067010058
S214006180A3F5803A704700BF174B002B08BF134B90
S2140061909D46FFF7F5FF00218B460F461348144A2D
S2140061A0121A0BF0F8FD0E4B002B00D098470D4B43
S2140061B0002B00D098470020002104000D000D4859
S2140061C0002802D00C4800E000BF0BF081FD200044
S2140061D0290000F013F80BF067FD00BF0000080070
S2140061E00000000000000000008000209002002058
S2140061F0A81B0020000000000000000030B59DB085
S21400620001F06CFC08B901F0DFFC042400F0C2F9D0
S21400621004F096FC002335200DEB040203A903933B
S2140062208DF8044001F054FD06238DF80530039BDD
S2140062308DF80640DB0340F1A08005A800F091FB36
S214006240624B05AA5A60614800F063FB01233E20BA
S21400625002AA0DF107018DF8083001F039FD18B1DA
S2140062609DF8070000F060FB11230DF1090207A955
S21400627036208DF8093001F02BFD20230CAC21468A
S21400628039200DF10A028DF80A3001F021FD98BB85
S2140062904F4B9DF8092018681B790C902371002A33
S2140062A000F086801B2A28BF1B22531D8DF80A305B
S2140062B007A9531C0DF135008DF833300BF044FD63
S2140062C014A800F045FB434A9DF80A3012881CA922
S2140062D0E2529A1C51FA82F29DF856101498C1F3B5
S2140062E0000102F8401CBDF85410093342F83F0C78
S2140062F022F83B1C8DF80A3020233A200DF10B02C1
S21400630014A98DF80B3001F0E3FC48B9324B1A881B
S2140063109B78ADF850208DF8523003238DF80B3063
S2140063202E4800F0A9F92D4800F02AFB9DF8092018
S214006330002A48D007A9294800F052FB274800F059
S214006340B1FB264800F0FAFA20469DF80A1000F045
S214006350FBFA9DF80B1014A800F0F8FA012000F0E4
S214006360EFFA1F4D1F4C2B780BB100F0DFFA2369B4
S21400637023F00403236130BFF5E72C200DF105025E
S21400638005A901F0A5FC00283FF45DAF3C200DF107
S214006390060204A901F09CFC18B19DF8100000F05C
S2140063A001009DF81A3060F300038DF81A3047E7B5
S2140063B008238DF80A300C4B1A889B78ADF83520E8
S2140063C08DF837307CE703220749B4E7AC0200209B
S2140063D0681F0100721F0100751F0100B80200202F
S2140063E0B402002000ED00E06E1F01000122014B08
S2140063F01A707047B40200200022024B1A7000F098
S21400640043BF00BFB4020020FEE7000008B500F05E
S2140064102DF8124B12498B4212D30020114B124911
S2140064208B4218D3FFF7B0FE186850F82240586821
S21400643040F82240013298688242F5D30C33EAE7EE
S2140064400022F8E71C6844F8220001325C68A24289
S214006450F8D30833E4E70022F8E700BF2C67010012
S2140064603867010038670100386701004FF40041C3
S2140064704FF0FF30124B134A10B59A60D3F88820BD
S21400648042F47002C3F888200F4A916601F18841F1
S21400649001F5005210664FF6DF7050660220C3F812
S2140064A0D000BFF34F8FBFF36F8F08244FF44033F5
S2140064B00648C0F88041D36004600B6110BD00BF81
S2140064C000ED00E0006000000090005000E100E0F9
S2140064D0014B1868704700BF14000020084B1B6F64
S2140064E003F00703022B04D0032B05D0012B05D0A5
S2140064F0FEE7044B18687047034BFBE703487047FA
S214006500008000501400002018000020002D3101EB
S21400651008B5FFF7E3FF054B1B6FC3F303330133E7
S214006520B0FBF3F0024B186008BD00BF00800050BF
S214006530100000200048704700B4C404014B1868DF
S214006540704700BF180000200020704700487047C2
S214006550002D31014FF4004070474FF47A707047B9
S214006560014B1868704700BF1C000020BFF35F8F08
S214006570074B5A6A22F480325A62D3F8942022F0EB
S2140065800102C3F89420BFF34F8FBFF36F8F70479D
S21400659000ED00E070B52648264CFFF7E7FF844282
S2140065A008BF4FF08043244A18BF20F01F03D2F8DC
S2140065B0C01018BF203B21F0FF0141F0A001B3F14D
S2140065C0005FC2F8C0100CD31C4D1D4E296843F066
S2140065D00103C2F898100131C2F89C60C2F8A030DE
S2140065E02960844210D01548164B0268124923F0E1
S2140065F01F0343F00303C1F89820C1F89C30124BE8
S2140066000132C1F8A0300260BFF35F8F05220A4B4B
S214006610C3F894205A6A42F480325A62BFF34F8F0E
S214006620BFF36F8FBFF34F8FBFF36F8F70BD00BF89
S214006630D40000208402002000ED00E0C00200200C
S21400664003000020A3020020E1FFFF3FBFF34F8FAF
S2140066500549064BCA6802F4E0621343CB60BFF3F9
S2140066604F8F00BFFDE700BF00ED00E00400FA0515
S21400667008B5FFF7EBFF08BD0023036043607047D3
S2140066804FF6FE7201608280704700001FB50A79DF
S214006690064B02920A6808310192022200920CCB45
S2140066A000F016F905B05DF804FB00BFDC1F010022
S2140066B030B50B7985B00333029301F1440301939F
S2140066C002230C460546114A009314310CCA00F00A
S2140066D0FFF8238A04F12C010293E368284601930D
S2140066E0237A009394E80C0000F0F2F80546237A2B
S2140066F0A4F845002279216884F8443004F1470064
S2140067000BF022FB284605B030BD00BFD41F0100A9
S2140067101FB50B8A0293CB6801930B7A009391E81E
S2140067200C00143100F0D4F805B05DF804FB00004E
S214006730024610B500B3114B1968888890421BD3E7
S21400674098880024904281BF01200968988099604B
S2140067509868998828B904B198604FF6FF729A80B5
S21400676009E08A4204D001310124006889B2F1E7C9
S2140067700CB19A80986010BD0020FCE7C40200208F
S214006780036937B514460D46828A63B14FF6FE712B
S2140067908A4208D1002069460090ADF80400984768
S2140067A028B103B030BD2B6000202280F9E7009BA3
S2140067B02B60BDF804302380F3E700004FF6FF722D
S2140067C0014B18609A807047C402002010B50C4632
S2140067D0FFF7AEFF28B1D0E9010184E803000020EE
S2140067E010BD0120FCE72DE9FF416D46044685E813
S2140067F00C000E460A9FBDF82C80FFF799FF054651
S2140068000DB1B44205D94FF6FF74204604B0BDE87A
S214006810F0812B7A9DF804209A4219D10099686875
S2140068200BF082FAA0B9002FEFD028460DF10A022D
S21400683003A9FFF7A5FF58B9039949B1BDF80A3077
S214006840434505D1424638460BF06EFA0028DCD0A8
S21400685001342D68A4B2D3E737B515461C46FFF7BA
S21400686067FF70B1036973B14FF6FE72818A914279
S21400687009D1694601200095ADF80440984703B059
S21400688030BD0120FBE70E20F9E710B50C46FFF7F8
S2140068904FFF40B1037B1C4207D114F00C0F14BF0E
S2140068A00320022010BD0120FCE70020FAE738B5DF
S2140068B015461C46FFF73CFF40B122462946FFF727
S2140068C05FFF10B92B6803B9208038BD0120FCE7B4
S2140068D013B5044602A800E90C00081D80E80C0069
S2140068E09DF810300B73059B0B61BDF818308B823A
S2140068F000230B60236853B11A461B68002BFBD19C
S2140069001160A388013398B2A08002B010BD216048
S214006910F7E708B501F062FE01F04CFD01F04AFA17
S214006920BDE8084002F03CBF02F0C4B908B501F06B
S21400693035FE00B908BD01F0A7FDF8E7FFF73EBF3A
S21400694001F00CBE01F00FBE01F004BE01F004BE63
S21400695010B5044604F0D0F8A3796FF30003A371D2
S21400696010BD10B50446062104F0D8F8637963F02C
S2140069703F036371A37943F00103A37110BD0000C8
S21400698038B50546124B134CD4E9020183E80300E0
S21400699019462846FFF77AFED4E9040110220E4B6A
S2140069A083E80300194628461A72FFF781FED4E9E9
S2140069B006010222094B20341A7283E80300DC60C9
S2140069C0194628461A82BDE83840FFF7A1BE00BF28
S2140069D0CC030020F01F01002803002080030020C5
S2140069E0F8B504460D4B0E4D0F46D5E9090183E870
S2140069F00300194620461646FFF748FED5E90B0168
S214006A000222084B1A7283E80300DF60194620460C
S214006A101E82BDE8F840FFF74BBE00BFAC03002067
S214006A20F01F0100D002002010B50C4648B901F056
S214006A3091F8054B10B1426B126A1A60236004236A
S214006A40A380002010BD00BFEC0300201FB50C463D
S214006A5040B901A800F0A4FC044B029A1A60236017
S214006A600423A380002004B010BD00BFF003002064
S214006A7001280B4604D1898821B1186800F04CBC67
S214006A80002070470D20704701280B4605D18988E5
S214006A90012904D1186800F06BBC002070470D2057
S214006AA0704700002DE9F74306466D464FF008098B
S214006AB0404C414B414F94E8030083E803001946DD
S214006AC03046FFF7E3FDD4E9020187E803002846D5
S214006AD03B4987F80890FFF7D3FD95E8030007F1D8
S214006AE00C0383E8030039463046FFF7E1FDD4E99E
S214006AF004010C234FF00208324F87E803002846B3
S214006B0031493B72FFF7BCFD95E8030007F10C0323
S214006B1083E8030039463046FFF7CAFDD4E906018C
S214006B202A4B2B4A83E803001946304683F8088030
S214006B30DA60A3F81090FFF7BBFDD4E90801254BF7
S214006B40254A264FDA60012283E8030019463046BC
S214006B501A8283F80880FFF7ABFDD4E90A0187E8BC
S214006B60030028461E4987F80880FFF789FD95E848
S214006B70030007F10C0383E803003946194F30463B
S214006B80FFF796FDD4E90C0187E80300284616496E
S214006B9087F80880FFF774FD95E8030007F10C03FB
S214006BA083E803003946304603B0BDE8F043FFF7FC
S214006BB07FBD00BF9C20010004060020FC040020CE
S214006BC0896A000054050020716A00004C04002009
S214006BD0D4200100AC050020DC200100A404002025
S214006BE04D6A0000F4030020296A00002DE9F341F5
S214006BF090464C4C4C4A4D4EA41A4D4A33681444A9
S214006C0024F4FF54C31A4B4D24F01F04A3422B60F8
S214006C1003D28722484B1A7079E000EB08070191EF
S214006C2001F048F8874275D83068019900EB0807EC
S214006C30B7F5806F02D982223F4BECE73F4C4246C5
S214006C40DFF8048120440BF07FF8D8F80030376076
S214006C5023B9332F5BD9636BC8F80030D8F80030FF
S214006C602A68934221D3B9188B421ED203F1100032
S214006C7088424CD89B1A2344314A03F1100153F83A
S214006C80040B8B4242F8040BF9D12D4800F040FF6C
S214006C9010B98422284BBEE7D8F800002B681022D3
S214006CA0C01AFF2120440BF076F82B683468DFF812
S214006CB09C80244A07F003071C44D8F80000E41B15
S214006CC0144060B903EA0200C0F50051214400F008
S214006CD0CFFEC8F8004040B18522174B9BE7A04284
S214006CE003D2211A00F50050F1E732681349D21B8F
S214006CF0286800F06FFE044632682B68D21B1344E7
S214006D000A490E482B6000F0CFFA002CE4D102B0FE
S214006D10BDE8F0812B68A342FFF47BAF8322064BCD
S214006D2079E700BF8C02002010000020680A0020CF
S214006D3077870100340600207D0E002068060020BC
S214006D405406002000E0FFFF640600206C0A0020C6
S214006D502DE9F047944E954D33788CB0022B2AD00F
S214006D602B68032B01D8002040E0914C204600F011
S214006D7017FB22788F4B012A1B6830D16268110EF0
S214006D80012903D1C2F307420A2A34D98A4A934218
S214006D9040F08780A368DA032BD50223337000F017
S214006DA08FFC002005A900F059FD844B059A1A6057
S214006DB0834B069A1A60834E2B683278082A01D0D5
S214006DC0402A4DD1804F7E493868096803F0030891
S214006DD0C218A2EB08028A420FD9832004E0764844
S214006DE083420CBF86208420784B18700CB0BDE818
S214006DF0F0878620F8E78820F6E7704ADFF8DC910F
S214006E0014681C440444A4EB0804D9F8000024F4D5
S214006E10FF5424F01F04A04209D2211A00F50050A6
S214006E2000F026FE08B18520DEE7C9F800402B6892
S214006E30604A3968A3EB0803002000F01DFD0446F5
S214006E402A683B68A2EB08021344584959483B603D
S214006E5000F02AFA002CE6D13378002B83D100E02C
S214006E600ABB2B687F2B7FF67EAF594FDFF87091F9
S214006E703B6833B900F0C2FAC9F800000AF04CFFCC
S214006E803860D9F80010386800F05CFC0028CAD1D9
S214006E9003AB00932A684749386805AB00F090FCBE
S214006EA0F8B18420A0E7484949480A6800681A44AF
S214006EB00A60404A474900F061FC2A6804463B499C
S214006EC03C4800F0F1F940F203239C4203D1012232
S214006ED0414B1A7047E740F201239C42BCD0802009
S214006EE082E79DF8143033701BB9039B0BB1402327
S214006EF0337000F02FFE044640B3D0F83480337869
S214006F00002B3FF430AF00230493042335200DF10B
S214006F100B0204A98DF80B3000F0DAFE049BDB07A9
S214006F2019D53378082B13D0B8F1000F13D0C2460A
S214006F30102208A90AF128000AF0F6FE20B9DAF8AD
S214006F402030069A9A4206D889204DE78046D6E732
S214006F50DFF890A0ECE794B14FF40051204600F023
S214006F6087FD00287FF45FAF28F4FF504FF40051F0
S214006F7020F01F0000F07CFD00287FF454AF33782B
S214006F80082B01D0402B2FD10C4B144A18684FF415
S214006F90005120F4FF5323F01F03136000F068FD38
S214006FA000283FF4E0AE3EE77E0E0020780E00207C
S214006FB028060020780A0020EB17A603700A002097
S214006FC0740A002024060020380600207D0E0020CB
S214006FD04C0600203C0600207C0E00206C0A002098
S214006FE0500600207C1F0100104E114BD9F80010EF
S214006FF03868736000F0A6FB00287FF414AF3146B3
S2140070002B680C4A386800F0B9FB2A6806460A491D
S214007010084800F049F940F203239E423FF457AF78
S21400702040F201239E423FF49EAE58E73C06002005
S214007030ED6B0000780A0020780E002008B50023CB
S2140070400B4A13600B4A13600B4A13600B4A13601B
S2140070500B4A13700B4A13600B4A13600B4A1370EB
S2140070600B4B1B78022B01D100F04CFB002008BD17
S214007070700A002034060020640600206C0A0020F7
S2140070802406002038060020680A00202506002076
S2140070907E0E00202DE9F041634B1B78082B01D0B3
S2140070A0402B5ED1614F386870B90021084600F069
S2140070B06DFC00284FD100F005FC002849D10122C4
S2140070C05B4B1A70BDE8F08110F003051CBFC5F1DC
S2140070D00405EDB200EB0508B8F5806F00F2A2805B
S2140070E0544B2A46FF211844534E0AF054FE534A86
S2140070F03368126808EB03019142C7F8008000F27B
S2140071008B804F4A14681C444444DFF8548124F4AE
S214007110FF54D8F8000024F01F04A04207D2211A1A
S21400712000F5005000F0A4FC98B9C8F800403B6891
S214007130404A3168002000F09FFB044633683A68F6
S2140071403A4913445D1B3B48356000F0ADF8002C0F
S214007150ABD08520B6E741F2080290425ED0802090
S214007160B0E7002B5CD0374B1B78002BF7D0364DA2
S2140071702B68002B44D013F003021CBFC2F104029C
S214007180D2B29F18B7F5806F4CD83048FF2118440C
S2140071900AF001FE2E4C2F4B2F4EE41A2F4BDFF831
S2140071A0CC801C44336804EA0804A3422F6001D252
S2140071B0872087E71F4400F07DFD8742336829D883
S2140071C02C68274F2344386803EA0804A04207D2F5
S2140071D0211A00F5005000F04BFC0028B9D13C60A5
S2140071E02A681A49306800F0F5FB044633682A68B6
S2140071F0154913441548336000F056F8002CA8D102
S214007200184B10221849186800F0E4FB00283FF4D9
S21400721059AF9EE7A342CBD3832053E7862051E79E
S21400722084204FE782204DE724060020780E0020B9
S21400723025060020780A002038060020740A002060
S214007240700A00207C0E0020680A002068060020D5
S2140072508C020020100000203406002077870100F2
S2140072606C0A0020640600205406002000E0FFFFA1
S21400727010B5044C2378022B01D100F043FA00230A
S214007280237010BD7E0E002008B5064B187828B176
S21400729000F016FABDE8084000F098B8BDE80840CF
S2140072A000F008BC2506002038B50C4611462568B7
S2140072B00144AD1A2A460AF054FD256038BD000088
S2140072C010B50024064B1C60064B1C70FFF7B6FE7C
S2140072D0B0FA80F3044A5B091370044B1C7010BDAF
S2140072E0780E00207D0E00207E0E00207C0E0020F2
S2140072F010B5074B1C782CB9064B1B7833B1FFF73B
S214007300C9FE0446FFF7B4FF204610BD8124F9E706
S2140073107D0E00207E0E002038B50A460F49034633
S2140073200978C1B10E49087850B90E4C24783CB99A
S2140073300D4C20681518B5F5806F02D982200870AC
S21400734038BD1946094B18440AF0FEFC2560BDE816
S2140073503840FFF7FDBC8120F2E700BF7E0E00201C
S2140073607D0E00207C0E0020780E0020780A00207B
S214007370012908B512D103781BB9BDE80840FFF70C
S2140073809FBF032B03D1BDE80840FFF7B1BF042B16
S21400739004D11320FFF7D6FA002008BD0620FCE72C
S2140073A000239B6AB3F5C04F03D21968064A914280
S2140073B003D00023037083607047012202709A682E
S2140073C09B694260F7E700BF07B0CD5E4FF0005301
S2140073D0074A1A60BFF34F8F0649074BCA6802F484
S2140073E0E0621343CB60BFF34F8F00BFFDE700BFE3
S2140073F002020FF000ED00E00400FA051FB50020C1
S214007400836AB3F5C04F13D20123CDE9020001A869
S2140074108DF80430FFF7C4FF029B1A0E10D0012A25
S21400742009D1C3F307430A2B05D809D14FF40370DB
S21400743005B05DF804FB00239B6A9B6B9847F7E753
S2140074404FF4C070F4E730B50024A36A87B0B3F5F4
S214007450C04F054601910FD2012303A88DF80C30CA
S214007460CDE90444FFF79CFF059B5B0504D5A36AA2
S21400747028461B6C0199984707B030BD37B54E4B70
S21400748004461A781AB102221A7003B030BDCDE94C
S21400749000220028F9D001251D7009F026FD474B73
S2140074A0186006F0B3FF464B5A6E22619B6E454A43
S2140074B063614FF40043936603F188435968A16102
S2140074C041499960196E2160596E6160196CA1601E
S2140074D0596CE1603D49086C1864496C59644FF476
S2140074E00051556691661A6E55043FD53849CA68EC
S2140074F0D407FCD45B6E5A043DD5364AD36B13F0E2
S214007500430FFBD1344B1A68531C3AD04FF4001388
S2140075109340324A13660423304C23664FF480634C
S214007520236600F07BFA01300BD000F077FA40F2C9
S214007530011398421FBF4FF4804323664FF4004365
S21400754023661023254C684623664FF400532366B3
S2140075504FF0804323664FF4804301A96366FFF72C
S21400756072FF009B2366019B63668EE71C49CA6810
S214007570D007FCD4BEE71B4AD36B13F0430FFBD1F6
S214007580C0E7194B1B78002BC5D14FF480720D4B0A
S2140075905A66164A52681AB94FF400110F4A116615
S2140075A04FF400725A66124B5B68002BB3D14FF44F
S2140075B080020A4B1A66AEE79D0E0020A00E002041
S2140075C0008000500090005055CEAC0000C0005423
S2140075D0000004400000024C200000200090004400
S2140075E0000004500000025C9C0E002000C0055005
S2140075F000000650F8B5274D04462F78012F02D01C
S21400760001232B70F8BD0028FCD000F007FA0130EB
S214007610214E0AD000F002FA40F20113984204D03C
S2140076201E4A7766D368DF07FCD44FF400531C4924
S214007630B366CA6B12F04302FBD12168194B196678
S21400764061685966A1681964E1685964A169C80748
S21400765048BF9A60144B1A6801320DD1134A12784B
S21400766052B913494968C90748BF1A60114A526897
S214007670D20744BF01221A6022690F4B5A6662691C
S2140076809A6606F0DFFE0D4B186809F032FC002300
S214007690B7E700BF9D0E00200090004000000440A9
S2140076A00000024C00800044200000209C0E0020B9
S2140076B000C005500000065000800050A00E0020BC
S2140076C070B50024A36AB3F5C04F13D20B4E3378BF
S2140076D013F0FD050CD10A48FFF7D0FEAB6ADB6954
S2140076E0984704460648FFF785FF0CB90123337018
S2140076F0204670BD4FF48174FAE700BF9C0E002050
S214007700800E002038B50024A36AB3F5C04F12D20D
S2140077100A4D2B78012B0CD10948FFF7AFFEA36A60
S2140077201B6A9847044608B902232B700448FFF7E3
S21400773061FF204638BD4FF48174FAE79C0E0020A6
S214007740800E002037B50025AB6A0446B3F5C04F5F
S21400775001910ED20848FFF791FEAB6A20469B6A5D
S2140077600199984704460448FFF744FF204603B0B3
S21400777030BD40F20224F9E7800E002030B5002527
S2140077800446A86A85B0B0F5C04FCDE90221019342
S21400779010D20A48FFF772FEDDE90132A86A0399A3
S2140077A0C56A2046A84704460448FFF723FF20463C
S2140077B005B030BD40F20224F9E700BF800E00207D
S2140077C02DE9F0419846002317469A6A0546B2F519
S2140077D0C04F0E4686B005D340F20224204606B0BF
S2140077E0BDE8F081012203A8CDE904338DF80C2012
S2140077F0FFF7D6FD049C230EEED0012B03D1C4F375
S21400780007440A2CE8D90948FFF738FE00230C9AEB
S2140078109B6A00925C6B3A46434631462846A04730
S21400782004460248FFF7E6FED8E700BF800E0020B9
S21400783038B50024A36A0546B3F5C04F0AD20648F9
S214007840FFF71CFEA36A28465B6A98470446024870
S214007850FFF7D0FE204638BD800E002000239B6A2E
S214007860B3F5C04F05D21B6BB3F5C04F01D29B6872
S21400787018474FF48170704730B500250446A86A53
S21400788085B0B0F5C04FCDE90221019315D2006B4B
S214007890B0F5C04F11D20A48FFF7F0FDDDE901321E
S2140078A0A86A0399006B05692046A8470446044861
S2140078B0FFF7A0FE204605B030BD4FF48174F9E70F
S2140078C0A40E002013B50024A36A0190B3F5C04FA0
S2140078D013D21B6BB3F5C04F0FD20948FFF7CEFD8E
S2140078E0A36A01211B6B01A89B69984704460448BC
S2140078F0FFF780FE204602B010BD4FF48174F9E712
S214007900A40E002037B50025AB6A0446B3F5C04F79
S214007910CDE9002112D21B6B83B10A48FFF7AEFDFA
S214007920DDE90021AB6A20461B6B5B6A984704467C
S2140079300448FFF75FFE204603B030BD4FF40174E5
S214007940F9E700BFA40E002037B50025AB6A044651
S214007950B3F5C04F019113D21B6BB3F5C04F0FD2D6
S2140079600948FFF78BFDAB6A20461B6B01999B6AA3
S214007970984704460448FFF73DFE204603B030BD56
S2140079804FF40174F9E700BFA40E0020002370B581
S2140079909B6A0D46B3F5C04FADF50E7D17D24FF47A
S2140079A00E726946FFF7AEFF044660B940F2012644
S2140079B029466846FFF7C8FFB042F9D040F20323D5
S2140079C0984218BF044620460DF50E7D70BD4FF454
S2140079D00174F8E737B50025AB6A0446B3F5C04F27
S2140079E0CDE9002114D21B6BB3F5C04F10D20A4864
S2140079F0FFF744FDDDE90021AB6A20461B6B9B6B5D
S214007A00984704460448FFF7F5FD204603B030BD0E
S214007A1040F20114F9E700BFA40E00201FB50023B2
S214007A209A6AB2F5C04F04D340F2011005B05DF873
S214007A3004FB126BB2F5C04FF6D2012201A8CDE9C5
S214007A4002338DF80420FFF7ABFC039BDB03EBD57A
S214007A50029B1A0EE8D0012A03D1C3F307430A2B70
S214007A60E2D900239B6A1B6B1B6C9847DEE700007D
S214007A7037B50025AB6A0446B3F5C04F019113D263
S214007A801B6BB3F5C04F0FD20948FFF7F7FCAB6A84
S214007A9020461B6B0199DB6B984704460448FFF7AA
S214007AA0A9FD204603B030BD40F20114F9E700BF3F
S214007AB0A40E00204FF000531860BFF34F8F054907
S214007AC0054BCA6802F4E0621343CB60BFF34F8FE6
S214007AD000BFFDE700ED00E00400FA050A4BD3F80E
S214007AE0940010F0400008D04FF0005318680228A9
S214007AF008D0064BC31A584258414FF00053002294
S214007B001A6070470120F8E70040005003020FF0AB
S214007B107FB503466D460E4A02F110062C461068E5
S214007B205168083203C4B2422546F7D15A1E0DF1F9
S214007B300F010F3311F8010912F8014F844204D1E6
S214007B409A42F7D1012004B070BD0020FBE700BFC9
S214007B50DD200100F8B5174E306830BB164B174CC9
S214007B60174FE41A174B1C4424F4FF5424F01F0448
S214007B70FB689BB2B4EB832F16D2656BB5B1FB687E
S214007B809BB2B5EB832F11D2FA6805F1500392B27F
S214007B90B3EB822F0AD82846FFF7BAFF30B1EB695D
S214007BA033F0080302D034603068F8BD04F50054A2
S214007BB0DEE700BFC00E0020100000208C02002070
S214007BC00080E00F7787010010B500F013F870B161
S214007BD003F014F8FFF7BEFF0446FFF7BBFF044BA5
S214007BE0986023689D466368BDE81040184710BD3E
S214007BF000ED00E030B585B001A8FFF7D1FBFFF738
S214007C00A9FF68B3456BFFF75BFD039B5B0705D5D4
S214007C10FFF7A0FFFFF70CFE044601E02DB9002495
S214007C20FFF770FD204605B030BD0E4AD3689BB204
S214007C30B5EB832FF3D2D26805F1500392B2B3EBC3
S214007C40822FECD82846FFF763FF04460028E6D0CC
S214007C506B69002BE4D09DF80430012BE0D1D7E708
S214007C600446DFE70080E00F38B50E4B0E4C0F4D94
S214007C70E41A0F4B1C4424F4FF5424F01F04EB6852
S214007C809BB2B4EB832F02D30024204638BD204697
S214007C9002F0C8FE02F0EBFE0028F6D104F5005410
S214007CA0EDE700BF100000208C0200200080E00FEF
S214007CB07787010008B5FFF7D7FF28B9034BD868C8
S214007CC080B28002A0F5005008BD00BF0080E00F23
S214007CD000232DE9F041264F8AB002933B780446F4
S214007CE00E46154603F0FF08F3B9FFF7BDFF214B1C
S214007CF0DB6838B39BB2C0EB8323A3F50053049331
S214007D001D4B0622059340F26C73CDE906231B4BF0
S214007D10039009931A4B03A91868CDF8208002F047
S214007D20D9FA78B901233B7044F48021144C02AB95
S214007D30206803AA019102F0EBFB019940B10023F1
S214007D40984600E0002340462B700AB0BDE8F0815C
S214007D50029B2A789A42F2D33246206802F08AFBC7
S214007D600028ECD14FF001089DF80830EBE700BF83
S214007D70F40E00200080E00FC40E00206C260100E8
S214007D802C0000207FB500230130CDE9043380B2FB
S214007D90054BCDE90101694604200093039200F0EB
S214007DA00FFB07B05DF804FBFA0E00200EB403B01C
S214007DB0704770471B22014B1A807047F60E002052
S214007DC0F7B50346CDE9001207460E4615464FF4B2
S214007DD08040094A0949FFF7E9FF002201231146BE
S214007DE00420074C237067706680257103B0BDE8D9
S214007DF0F040FFF7C7BF00BF8E220100EE20010053
S214007E00FA0E0020034610B5094A044609494FF405
S214007E108040FFF7CBFF0322074B02201A70002298
S214007E20A3F801401146BDE81040FFF7ABBF00BF06
S214007E307722010022210100FA0E002030B50C4600
S214007E4085B004A901E90C00054603460A4A4FF42A
S214007E5080400A490094FFF7A9FF05220320084B3B
S214007E6002991A709DF80C205D705C8005B0BDE824
S214007E703040FFF787BF00BF5C2201002E210100C3
S214007E80FA0E002037B5034605460C4600914FF41F
S214007E908040094A0949FFF789FF0722084B04205A
S214007EA01A7000221146A3F80150A3F8034003B04D
S214007EB0BDE83040FFF766BF4122010052210100B5
S214007EC0FA0E002038B5094A05460C460B464FF414
S214007ED080400749FFF76AFF0B22064B29461A70B7
S214007EE000202246BDE83840FFF74CBF3122010093
S214007EF077210100FA0E002008B54FF48040074AAB
S214007F000749FFF753FF1322064B1A700022BDE8FD
S214007F10084011461046FFF735BF00BF202201007B
S214007F2086210100FA0E002073B503461446054666
S214007F300E4600924FF48040084A0949FFF736FF84
S214007F400922084B31461A70A21C5A70032022469A
S214007F505D8002B0BDE87040FFF714BF0A22010042
S214007F608C210100FA0E00202DE9F3411C469046B4
S214007F70CDE9001307460E4603460A4A4FF48040F2
S214007F800949FFF713FF1123224641460520074DF6
S214007F902B70231D6B706F80AE8002B0BDE8F04181
S214007FA0FFF7F0BEEF210100AA210100FA0E002023
S214007FB070B50D4603780C4A04460C494FF48040D1
S214007FC0FFF7F4FE00230A4E691E204689B273802E
S214007FD000F010F8024628B171882078BDE870409D
S214007FE0FFF7EEBE70BD00BFE7210100D4210100FF
S214007FF0F60E00202DE9F04704780546122C0E46B2
S21400800088B017D8012C18D9A31E102B15D8DFE876
S21400801013F0160014002F0014005A0014000E016E
S21400802014009F00140014001400140014005101E2
S2140080301400CC00522C00F0DE8006243FE002291B
S21400804040F0B681B0F80130B34A4FF48040B349EF
S214008050FFF7ACFEB5F80140B4F5007F28BF4FF43B
S21400806000742046FFF7CEFEAD4B1C80002426E0B1
S214008070042924D1B0F80330AA4A0093B0F801309E
S214008080A9494FF48040FFF791FEB5F8017006ADA0
S214008090BEB229463046FEF799FB044618B1A04BFF
S2140080A05F800A240BE09DF81C303146022B08BF87
S2140080B0012095E80C0018BF0220FFF7BFFE2046FF
S2140080C008B0BDE8F08702278E1FB6B20196B0F85A
S2140080D00330964A0093B0F8013095494FF480403B
S2140080E0FFF764FE05F10508EB1D019600938DF879
S2140080F01470CDF810804246059BB5F80310B5F80D
S2140081000100FEF770FB4FF6FF76B042044606D13C
S214008110AA786B7843EA0223814A5380C1E700239A
S214008120CDE90033CDF818808DF81C7008AB01300F
S214008130314613E90C0080B2FEF755FB0146B0420B
S2140081401CBF00F1FF3189B22046FFF79BFE8DE78A
S214008150022940F02D81B0F80130764A4FF4804075
S2140081607549FFF723FE3146B5F80100FEF78DFB93
S2140081706B4E044628B16B78AA7843EA02237380D4
S2140081809DE733880146013BADF81030B5F8010095
S21400819004AB06AAFEF78BFB04460028EBD1BDF81D
S2140081A010100698FFF78EFE89E78E1EB6B2009670
S2140081B0B0F80130614A4FF480406149FFF7F6FDA0
S2140081C00821B5F80100FEF760FB044630B1AA7836
S2140081D06B7843EA0223524A538070E701463346DF
S2140081E0B5F80100EA1CFEF737FB04460028EED17E
S2140081F0FFF782FE63E78E1EB6B20096B0F8013037
S214008200504A4FF480404E49FFF7D0FD0421B5F8A0
S2140082100100FEF73AFB044600287FF427AF01462C
S2140082203346B5F80100EA1CFEF716FB47E70E1FBB
S214008230B6B2022E02D0102E40F0BA800024B5F856
S21400824003304FF480400093B5F801303E4A36497B
S214008250FFF7ACFDCDE900446B1D06938DF81C605E
S21400826008AB13E90C00B5F80310B5F80100FEF7EB
S214008270BAFA4FF6FF7398420646294F05D16B7837
S214008280AA7843EA02237B800BE73B882146043B1F
S214008290ADF80E3004AA0DF10E03FEF708FB0446F7
S2140082A008B17E800BE73046BDF80E200499FFF734
S2140082B03BFE04E70E1FB6B2022E01D0102E77D179
S2140082C00024B5F803304FF480400093B5F8013031
S2140082D01E4A1549FFF76AFDCDE9004405F1050A77
S2140082E0F6B28DF81460CDF810A05246059BB5F88E
S2140082F00310B5F80100FEF776FA4FF6FF79484509
S2140083000746DFF81C8023D16B78AA7843EA02235D
S214008310A8F80230C5E600BF5A230100222101005A
S214008320F60E0020472301009F220100342301009F
S214008330BD2201002C230100E622010023230100B8
S2140083408C2101001A2301000C230100F9220100F0
S214008350CDE90044CDF818A006AC8DF81C600130BD
S21400836094E80C00494680B2FEF73DFA0546B8F898
S21400837000304845A3F1060318BF00F1FF3522463A
S214008380ADF80E304FF0000138460DF10E0318BF61
S214008390ADB2FEF78CFA044610B1A8F802708EE66D
S2140083A029463846BDF80E30069AFFF7DDFD86E60C
S2140083B0042484E60022014B1A607047081100204E
S2140083C00023F7B501F1080421461A46ADF804303B
S2140083D0ADF8060051F8080C083198B90BB1ADF8A5
S2140083E00420042501270DEB05062A4631463846AB
S2140083F000F0DEF80028F8D02D1AADB206445DB1C4
S2140084000027F2E751F80C3C1A4492B20123E1E748
S21400841034F8045C35B9083454F8086C002EF7D1EB
S21400842003B0F0BD2A463146002000F0C1F800280F
S214008430F0D02D1AADB20644ECE7000003291FB5B4
S2140084401CD90288131D994218D304D84388042BDC
S21400845003D0062B06D0012011E011460430FFF7AA
S214008460A7FDF8E70022CDE90222064A69460092F7
S214008470022218460192FFF7A3FFECE7002005B0A2
S2140084805DF804FB2400002037B500220DF107003C
S214008490114600F06DF89DF807300C4C0BB1002328
S2140084A0236021680A4DC1F5017292B229440DF18C
S2140084B0070000F05DF82168014428462160FFF7B8
S2140084C0BDFF08B10023236003B030BD08110020B3
S2140084D0040F002010B504464FF4807300210E4AA6
S2140084E00E4801F069F84FF4807300210C4A0D48DD
S2140084F001F062F8204600F05BFB00F031F900F076
S21400850067FD02F079FB830705D500F0A5FCBDE802
S214008510104000F063BA10BD3C1200202412002068
S214008520241100200C11002008B513460A46014607
S214008530024801F000F9C0B208BD00BF24120020B6
S21400854008B5034801F041F8003818BF012008BDFF
S2140085502412002000F0A4BD00F0B4BD08B500F061
S21400856051FD002008BD08B500F078FE002008BDCB
S21400857073B50E460446019208F0B0FC2146054647
S2140085803246019B044801F0D6F80446284608F017
S214008590A9FC204602B070BD0C11002008B50348A7
S2140085A001F013F8003818BF012008BD0C11002098
S2140085B073B50E460446019208F090FC2146054627
S2140085C03246019B044801F081F80446284608F02C
S2140085D089FC204602B070BD24120020FFF77ABF47
S2140085E010B50C460146044801F0CFF8A04234BF4F
S2140085F00020012010BD00BF0C11002073B50E46F0
S214008600114605460192FFF7EBFF044628B13246B5
S2140086102946019B024801F059F8204602B070BD79
S2140086200C110020FDF7E2BEFDF7E6BE10B5034CC8
S214008630A07900F025FE0023236010BD3C13002027
S2140086401FB50B4C0B4AA37A0B490393637A4FF47E
S21400865080500293237A0193E3790093A379FFF77E
S214008660A5FBA01D00F090FD0023236004B010BD04
S2140086703C1300201E250100692301001FB5104C85
S214008680104AB4F80D304FF480500293B4F8093015
S2140086900D490193A3790093B4F80730FFF786FBE2
S2140086A0B4F80710A07900F0A1FDB4F80D10B4F8E6
S2140086B0090000F0AFFD0023236004B010BD00BF2A
S2140086C03C130020F024010092230100014B998006
S2140086D0186070473C1300200022014B1A60704758
S2140086E03C130020034A13681BB19288824200D1D3
S2140086F0184770473C130020014B18701846704707
S21400870050130020013100F09DBD0000162838B53A
S21400871003464FF0020514BF034613230B4C0C4AC6
S2140087204FF480500B4963702570FFF73FFB2946D6
S214008730204600F087FD00F0E3FE074B074A0530B1
S2140087401A60627898809A7138BD00BF5013002076
S214008750B8240100C92301003C1300202D86000028
S2140087607047000030B5044603787B4A4FF48050CB
S2140087707A4985B0FFF71AFB23780C2B0AD80C2B06
S2140087800BD8DFE803F05A3F790A0A0A0A0A890A70
S2140087900A0A1600142B00F0A880204600F024F9E0
S2140087A0002867D1072223786D48022102704370A3
S2140087B023E0A3884FF4805001936388694A0093AE
S2140087C063786949FFF7F2FA4FF0FF32644C0C23E6
S2140087D0A2700222E270002223706271012340F22E
S2140087E0FF2263702371604900924FF480505F4A05
S2140087F00193FFF7DBFA0621204605B0BDE83040BE
S21400880000F020BDE3885A4A5A494FF48050FFF7DB
S214008810CDFAE179A379584A43EA012393801346B7
S214008820564943F8061BD4F80110C2F80610B4F8EF
S21400883005209A80E2799A711CE06389504A4D4976
S2140088404FF48050FFF7B2FAE27AA37A4A4943EA35
S21400885002238B800B464B4A43F8062BD4F80120A4
S214008860C1F80620D4F805205A60B4F809201A8109
S214008870E27A9A7205B030BD6378434A4FF480506E
S2140088804249FFF793FA00F03BFE3B4B404A053067
S2140088901A6098806278CEE7D4F80530D4F80120C4
S2140088A03C49CDE900234FF480503B4AFFF77EFA5F
S2140088B000F09EFAD4F80130294C034003F0FF0381
S2140088C020F0FF00184309252346002203F8015B29
S2140088D0C4F801002F495A60CDE900024FF48050D9
S2140088E02E4AFFF763FA294686E7B4F807302C4A83
S2140088F00293B4F805304FF480500193B4F8033077
S21400890028490093B4F80130FFF750FAB4F8031082
S214008910B4F8010000F08CFC1523114C6FF0270210
S21400892023700723E2702371E271237200216FF037
S21400893004004FF4FB62FB236070A1706071A171AC
S2140089404FF48050CDE9013216490092164AFFF7DF
S2140089502DFA092150E700BFAF240100DF230100F4
S21400896050130020A4240100F02301004625010036
S21400897038250100212401003C1300204186000018
S2140089800A2501007D860000E3240100C9230100BA
S2140089902D86000031240100D8240100C9240100DE
S2140089A09A2401004A2401008C24010010B5084BCB
S2140089B04FF480509C79074A23460749FFF7F6F99B
S2140089C0204600F02FFCBDE81040FFF785BE00BF34
S2140089D03C130020B3250100552501000122014B60
S2140089E01A7070475C130020244B73B51E7804463B
S2140089F02EB10378162B05D0182B27D0002630462C
S214008A0002B070BD83781E4A009343781D494FF428
S214008A108050FFF7CBF96378A47817201C4004F049
S214008A200304022C18BF0124FFF766FE05464470B7
S214008A30847023464FF48050134A12490094FFF77F
S214008A40B5F902212846FFF75DFED8E7B0F80330F7
S214008A500E4A019383780E49009343784FF4805072
S214008A60FFF7A4F9B4F803100A48FFF72FFED4F86E
S214008A700120094BC3F80620C1E700BF5C130020A5
S214008A80DE25010065250100D3250100C62501006D
S214008A9085250100AD8900003C13002013B50D4B61
S214008AA001281B880C4CADF80030ADF8043002BF2E
S214008AB002238DF8003004236946206808BF8DF82D
S214008AC0043002F063FC206801A902F075FC02B0D5
S214008AD010BD00BFE52501006013002070B5334CC3
S214008AE011464FF4867086B01E461546FFF761F9AC
S214008AF0236933B929464FF48370FFF75AF906B055
S214008B0070BDA5F10802324321D101AA03212068D5
S214008B1002F0C8FC636860615B7A04F11801237692
S214008B209DF804300220DA1F53425341627E63F3FD
S214008B300002039B6276E361BDF806306383236917
S214008B40984701220021206802F0B2FCD7E705F121
S214008B507F42324305D10021012006B0BDE87040B7
S214008B60184715F4A04209D04FF480714FF4817075
S214008B70FFF71FF9002103202369EEE705F4A06341
S214008B801A4308D001214FF48170FFF712F9002133
S214008B90FF202369E1E705F0A042134319BF012136
S214008BA040F2011029464FF48370EEE76013002070
S214008BB0F0B58BB0064601F0BDFF3748374B0021B5
S214008BC00360374B374C436002F0C6F830A3D3E956
S214008BD00023CDE900234FF0FF334FF0FF32206033
S214008BE002F0ECFB02224FF0FF31206802F0EBFBB4
S214008BF03C2394220027CDE90332059396232A4D81
S214008C0003A92068CDE907770997069302F09CF937
S214008C10294620682F7002F000FC28B1012329465F
S214008C2020682B7002F0F9FB206802F07EFC2978A1
S214008C30B6F90020206802F01FF80146206802F00E
S214008C40D9FB7568194BD5B9184601F055FFA37BBB
S214008C5065F30003A373202310222384144B83F8A8
S214008C60212383F8222383F8262383F8252383F8F9
S214008C70232383F8202383F824230BB0F0BD286831
S214008C80A060A988AA7999809A71E4E7AFF300807A
S214008C90085500510000000090130020DD8A0000F7
S214008CA08413002060130020260000206813002094
S214008CB000E100E0024B0146186801F091BF00BFDA
S214008CC0601300200A46014602484FF4007300680D
S214008CD002F0C9BB60130020F0B50446164D174AD3
S214008CE06B68807A5B7A85B0D75C0E46FFF7D6FE57
S214008CF0237AB9B2022B0CD1002328681A4602F058
S214008D0055F8A8B10021FF20334605B0BDE8F04075
S214008D101847002220688DF80C30029000922868D0
S214008D2002ABADF80D208DF80F2002F04DF8E8E705
S214008D302E6105B0F0BD00BF60130020E7250100DE
S214008D402DE9F04104461D4D1D4A6B680E465B7AC0
S214008D5086B0D15C807A0191FFF7A0FE237A4FF0AF
S214008D600108022B02BF0023029301238DF80C306A
S214008D70636818BF226803F164030493637A4FF0B4
S214008D80000418BF029201998DF8143002AA2346F7
S214008D9028688DF815808DF8164002F03BF80746D7
S214008DA042462146286802F083FB2FB12146FF2069
S214008DB0B04706B0BDE8F0812E61FAE760130020E8
S214008DC0E725010008B500214FF48570FEF7F1FF96
S214008DD00022044B03211A6118680122BDE80840EE
S214008DE001F0E0BF601300200048704768130020C1
S214008DF0014B188C704700BF601300207FB502231C
S214008E008DF80A30064B5A8B59690332ADF80820A4
S214008E10186801AA02F04AFB019807B05DF804FB47
S214008E206013002008B5014640F20510FEF7C1FFAA
S214008E3008BD0000002313B5064C0093437AD0E922
S214008E4000216060206802F09EFB00F00DF802B082
S214008E5010BD00BF60130020024A138C43F48073D9
S214008E60138470476013002038B50D4C238CDB0547
S214008E700CD563680B4D1B7A2A789A4206D0012BD4
S214008E8005D0022B07D063681B7A2B7038BD20688C
S214008E9002F04EFBF7E7206802F050FBF3E700BF56
S214008EA060130020A01300201FB5124C1148637AEF
S214008EB00133DBB2272B88BF25236372FFF7BAFF87
S214008EC00023CDE90233E368627C01930123617DD0
S214008ED0D207094801F102018DF80C3048BF8DF821
S214008EE00E30FFF7EFFE054901A8FFF7F5FE04B0C8
S214008EF010BD00BFA4130020B81300202D8F000063
S214008F0038B50D460446FFF76FFF8379014603F038
S214008F100103AB4207D10622204608F005FFB0FA4F
S214008F2080F0400938BD0020FCE70000022810B59C
S214008F301BD002D8012805D0FEE7032843D0FF281F
S214008F4041D0F9E7214C637C990707D5FFF73AFF34
S214008F50FFF7AAFF637C6FF341036374637CDA0751
S214008F6030D4BDE81040FFF79FBF4B78DB072AD50B
S214008F704C68217801F00F03032B11D0052B22D16A
S214008F80C90904F10800FFF7BBFFD8B1FFF71AFFC5
S214008F90FFF734FF01462046BDE8104000F0B6BAA1
S214008FA0C90904F10800FFF7ABFF58B1074C94F865
S214008FB03D1004F13C000231FFF784FE637C43F071
S214008FC00203637410BDFFF7FDFECAE7A41300207A
S214008FD010B5094C00215C2204F1080008F0DBFE05
S214008FE042F210730549E360054BC4E9001342F2F0
S214008FF00153238110BD00BFA4130020D6BE898E66
S2140090005555550038B50446FFF7DCFE002C3FD01A
S214009010204C257C627CB5FA85F35B0963F300027D
S2140090206274FFF7E1FE837905F00F05C3F30003D2
S21400903045EA8315237D23F04F031D43637D257585
S2140090400BB9062363750368C4F816308288124B82
S2140090509A80FFF7C9FE837994F83C20C3F3000397
S2140090609B0143F0040322F04F02134384F83C3084
S21400907094F83D3013B9062384F83D300368C4F8ED
S2140090803E308288054B9A80BDE83840FFF70CBF1B
S21400909038BD00BFA4130020BA130020E21300203E
S2140090A020290A4608B509D8054B063159750146E8
S2140090B003F11C0008F048FE002008BD1220FCE763
S2140090C0A413002020290A4608B50AD8064B063104
S2140090D083F83D10014603F1440008F035FE0020F9
S2140090E008BD1220FCE700BFA41300200A20D0B55C
S2140090F00B4CE38C584308F0ABF90646A08C0F46A1
S21400910008F0A6F90022074B08F00CFA02460B46B8
S2140091103046394608F030FB08F016FC2083D0BDF8
S214009120081400200000F43F1FB5154C40F601005F
S2140091302189FEF73EFEA37E5A061FD423F00703BE
S21400914043F001032089A376FFF7CCFAA37A04F153
S2140091500C00234493F82A306375FFF76BFED4E9BE
S2140091600032A3EB520103EB520302934FF4803319
S214009170019101A803490393FFF7E2FD04B010BD77
S214009180081400200D9300000022134630B58BB063
S214009190D910415C03F007042141CC0742BF02F11D
S2140091A02801694401F8283C03F1010348BF013255
S2140091B0252BEDD100230C4CD910415C03F007059C
S2140091C02941C9075FBFB3FBF2F102FB1131283119
S2140091D069444CBFD9B211F8281C0133252B04F87A
S2140091E0011BE9D10BB030BD3214002010B540F29F
S2140091F0E244074A6043136800F5807004FB0131BF
S214009200536801EB500118441160506010BD00BF58
S21400921008140020024B9884D984FFF767BF00BF6C
S21400922008140020014B1875704700BF0814002072
S214009230C908884228BF0846014B1885704700BFFA
S21400924008140020044B5A6D22B95865A3F858102C
S21400925001207047002070470814002010B504460F
S2140092600346054A4FF400600449FEF79FFD20467A
S214009270BDE81040FFF74ABA5B2601000F26010042
S21400928010B504460346084A4FF400600749FEF747
S2140092908DFD074A2046BDE81040937E43F040030C
S2140092A09376FFF7C1B900BF4C2601000F260100D8
S2140092B00814002010B5144CA37E5B0623D4FFF7D9
S2140092C081FD40F2E243A18C226803FB0122A37ACF
S2140092D0226094F84F2013442522B3FBF2F002FBE1
S2140092E010332289A372013222810A22636802FBAC
S2140092F001336360238B5A1E228323B9BDE81040D6
S2140093000820FFF7BDBF10BD0814002002282DE975
S214009310F74380460E460BD003D8012800F0DC80C9
S214009320FEE7032800F0DE80FF2800F0DB80F7E78A
S2140093304F78714C17F0010763D14FF0FF3140F6BC
S2140093400300FEF736FD3D46A37E6C4F13F0200F5C
S21400935012D0616D6FF34513A376002900F09E804E
S2140093603B7894F8582043F003033B707A70B81C9F
S21400937008F0EAFC00236365FFF7E2F8A37E60F3DB
S2140093804103C3F30012C3F3C001920042EAC102D4
S214009390A37642EA00133A7803F01C0322F01C027C
S2140093A013433B7040F602003988FEF702FD7978D9
S2140093B052480231C9B2FFF785FCA37E7668D9070A
S2140093C009D56FF30003A37600236360FFF716FD4D
S2140093D02060FFF78BFE002D00F08B80337803F0C3
S2140093E00303022B05D0032B6FD0012B40F08180A6
S2140093F0002528467278B11C03B0BDE8F043FFF79D
S214009400FDB8D1F8049040F60300B9F80010FEF756
S214009410D0FC99F80030A27EC3F3001363F38202F7
S21400942099F80030A276C3F3C001C2F3001291424D
S2140094302FD103F00303022B29D0032B08D0012BD6
S21400944027D1002099F8011031B3FFF7C9F8074675
S2140094503D46A27E99F80010C2F3C003C1F3800116
S214009460994208D083F00103DB0043F0200322F08A
S21400947028021343A376002F3FF466AFA37EC3F300
S214009480001282F0010262F30413A3765CE738460A
S214009490D8E700252F46DCE70D46DAE794F82820C3
S2140094A0B91C0DF10700FFF73FF858B19DF80730DB
S2140094B0002B08BF4FF001083B78787068F3010373
S2140094C03B7059E74FF00108F6E77178B01C03B01F
S2140094D0BDE8F043FFF746B9074B9B7E9A0708D4D2
S2140094E05B0706D4FFF7E6FE03B0BDE8F043FFF7E0
S2140094F01BBE03B0BDE8F0830814002064140020EF
S214009500014B1889704700BF08140020F7B5274D97
S21400951004460E465C220021284608F03CFC202328
S214009520AB7605232B83627E237E012743EA022344
S214009530AB84627F237F04F11E0043EA0223EB84A0
S21400954094F82330C3F3040385F84F3094F823309F
S214009550C3F3421385F850301B232B85FFF714FE08
S214009560D4F80E30E27CEB60A37C2E6043EA022344
S214009570227D2F7543EA02432B6195F84F30607DBC
S214009580AB72E18A3944FFF731FEFFF7CDFDEB8C75
S214009590074A084900934FF40060AB8CFEF706FCC0
S2140095A02046FFF73FF8384603B0F0BD0814002009
S2140095B03F2601002226010083820023C0E9002204
S2140095C0826081750382C3757047837DDB0701D592
S2140095D0808A7047D0E901239B1A44BF828A9B1871
S2140095E098B27047014608B5FFF7EFFF8B8A181A46
S2140095F080B208BD2DE9F04116460546FFF7E5FFA7
S214009600B04228BF304686B20F46B046B8F1000FCB
S21400961009D12EB1AB7DDA0744BF23F00103AB7549
S2140096203046BDE8F0812B68AC8A69681C44641A31
S214009630A4B2444528BF44463846224608F084FB78
S2140096406A682B68A98A224419448A4238BF13469E
S2140096502744A8EB04041FFA84F86B60D6E72DE9CC
S214009660F041164605460F46FFF7BCFFB04228BF3E
S214009670304686B2B046B8F1000F0BD13EB1D5E900
S21400968001329A4202BFAB7D43F00103AB75304610
S214009690BDE8F0812B68AC8AA8681C44241AA4B2E2
S2140096A0444528BF44463946224608F04DFBAA6882
S2140096B02B68A98A224419448A4238BF1346274495
S2140096C0A8EB04041FFA84F8AB60D4E7F8B50446A8
S2140096D016461F46F9B1FFF785FF012829D9E37D15
S2140096E063B1E068658A05702D0A07D02268A38AF0
S2140096F001301344984228BF1046F4E700236382E3
S214009700A3680222E360204604F11201FFF7A7FFD8
S214009710E37D0133E3753A4631462046FFF79FFF67
S214009720638A03446382E37D13B9238A0344238256
S214009730F8BD0020FCE7F8B51F46038A0446164627
S214009740EBB9C57DDDB10123013D0B700222C57565
S21400975000F11001FFF74EFFE37D9BB1228A3146F0
S214009760BA4228BF3A462046FFF744FF238A1B1A10
S2140097702382E37D13B9638A1B1A6382F8BD002334
S2140097800B70EBE7638A2382E8E710B50C46FFF719
S21400979029FF24B1022892BF0020023880B210BDF3
S2140097A070474369406CDA1C1438B2FBF0F203EBE6
S2140097B0C203CA1DB2FBF0F20333B3FBF0F301326F
S2140097C0023301EBC20100FB0310704738B50546B3
S2140097D044692146FFF7E5FF6B6CE11D143BB1FBC6
S2140097E0F3F1013104EBC104204438BDF7B5074658
S2140097F00E4600257C6CA819644280EA06031C40CD
S21400980003D02C46204603B0F0BDFB6B01225B69FB
S21400981001A99847019B0133F4D10435EAE713B553
S2140098200446019100F0BCFFE36B0198DB6802B0D0
S214009830BDE81040184770B50025044686B005629E
S214009840E369AB4202D8206A06B070BD666C206839
S214009850E36B05225B6901A906FB0500984701A892
S21400986001F0E0F801F003F910B1236A0133236236
S2140098700135E5E738B50446456C006804F1400359
S21400988005FB0101E06B01F0FFF805462046FFF7F7
S214009890D2FF284638BDF0B50546002687B0EC69ED
S2140098A0013CB44203D80C46204607B0F0BD01B1D7
S2140098B04C1E6F6C2868EB6B05225B6901A907FBE1
S2140098C00400984701A801F0ADF801F0D0F8002890
S2140098D0EAD121460136E2E7F0B504460D46466C6D
S2140098E0E36B006887B005225B6901A906FB0500EB
S2140098F0984701A801F096F801F0B9F820B101A840
S21400990001F067F807B0F0BD29462046FFF7C3FF11
S2140099100646676C2068E36B05225B6901A907FBB6
S2140099200600984701A801F054F8431CEAD0B54257
S21400993038BF0130E6E72DE9F0434FF6FF79D0F85F
S214009940248004460E46C84514BF45460025002719
S21400995087B0E369BB4202D807B0BDE8F083E26B8C
S2140099602368606CD2F814C000FB0530052201A9FC
S214009970E04701A801F056F8022806D0C8450CD1E9
S214009980721C29462046FFF775FFE3690135B5FBD3
S214009990F3F2013703FB1255DBE729462046FFF7B3
S2140099A09BFFB0F1FF3F14BF024632460132E8E7A4
S2140099B0F0B504680646091B446C0025B1FBF4F4B8
S2140099C087B0F36937685A1E9542706C08D3706C7E
S2140099D0336800FB043007B0BDE8F04001F052B831
S2140099E00134B4FBF3F103FB1144F36B05225B690E
S2140099F001A900FB0470984701A801F013F801F0D4
S214009A0036F80028E3D10135DBE710B423F0030471
S214009A1022449B070A44436C18BF04325B4281EA27
S214009A200204234203D05DF8044BFFF7C1BF104683
S214009A305DF8044B7047F0B5002504462E4687B007
S214009A40E369B34202D8284607B0F0BD636C2768C6
S214009A50052203FB0677E36B01A95B693846984746
S214009A6001A800F0DFFF01F002F858B1384601F017
S214009A7009F801462046FFF7B9FE636C143B8342A3
S214009A8008BF01350136DBE708B508301346D1E9D3
S214009A90001200F0B3FD012008BD00002DE9F04FD4
S214009AA0144607460E469B46C36B89B001225B6987
S214009AB004A960689847FB6B01225B6905A93046DC
S214009AC0984704A800F0ABFE054648B100254FF0C5
S214009AD0FF33A5756575A360284609B0BDE8F08F0D
S214009AE005A800F0A9FE0123A375237E04EBC3039B
S214009AF0DE611D846368B3420ED1206005A800F0C5
S214009B00BDFE4FF0FF332075A360237D043B022B80
S214009B1027D80023A375DFE72368834218BFA575FF
S214009B2005A800F0ABFE237D834218BF002305A8DE
S214009B3018BFA37500F084FE804604A800F080FEDF
S214009B40804518BF002305A818BFA37500F080FE47
S214009B50804604A800F07CFE80451CBF0023A37549
S214009B60D3E705A800F06CFE78B1FB6B0222304606
S214009B705B6906A9984706A800F071FE237D032BB3
S214009B805ED8DFE803F05D5D040905A8F4E7CC21A4
S214009B90227E04EBC2021184184600F089FE129B56
S214009BA0187005A894F8188000F03EFE04EBC8086C
S214009BB088F82200237E05A804EBC303B3F82090A0
S214009BC093F8228000F03CFE039005A800F040FECB
S214009BD0039B8246002B38D0FB6B022230465B6923
S214009BE006A9984706A800F0FFFD6075637D002B68
S214009BF02FD10023A375A27D12B123694B442361A4
S214009C003449237E097899425ED901332376BBF125
S214009C10000F5BD0002A59D0E37D002B56D0002DD4
S214009C2054D1B8F1030F51D0A1684B1C4ED0129BF3
S214009C302246009338460123FFF730FFA07545E023
S214009C40227E04EBC2021084A6E705A800F0B7FD4A
S214009C50CBE7A27D002ACED0B9F1000F0CD1B8F127
S214009C60000F1DD00123617EE37519BB984529D1ED
S214009C700D4684F8198015E07B6C06EB0A00594205
S214009C8086EA000C1CEA010F1CBF0021A175591EB4
S214009C9001405B1A9945ACD8A37D002BDFD1AAE71B
S214009CA0E37DABB94B46524631463846FFF7ADFE2C
S214009CB0A060A0E7B8F1010F0AD0B8F1030FF1D108
S214009CC0A376EFE71546EDE70023A375A57D03E72A
S214009CD0154690E78826010013B50C460021009330
S214009CE02176134661682246FFF7D8FE18B1E37D59
S214009CF003B1A07EA075A07D02B010BD2DE9F04F87
S214009D002DED028B0E4600258BB004464FF0FF313A
S214009D101046984617468DF8135000F0B3FDC6F36C
S214009D2013039E42019340F08F80314605AA04F14A
S214009D30080000F049FC451C014600F087803846C4
S214009D4000F0A0FD0122394620460DF11303FFF76F
S214009D50C3FF00287AD09DF8133088F80030002022
S214009D6078E0E56A681C37D12046616AFFF793FD04
S214009D700546B31C18BF012308EE103ADFF8E8903A
S214009D80636A626C0293236805A902FB053AE36BDB
S214009D9005225B695046984705A800F043FE00F090
S214009DA066FE504600F06EFE4FF0000B82460146FF
S214009DB04A1C05D0636C81EA0A025B42134211D04A
S214009DC029462046FFF767FD029BAB422DD0BBF12C
S214009DD0000F2DD10546D3E720682D1A606CB5FB21
S214009DE0F0F5C6E7484600F04DFD0DF1130318EEFA
S214009DF0102A49462046FFF76FFF034690B1B11C74
S214009E0003D0D9F80020B2420CD19DF8132003935A
S214009E10134B88F8002049461A68384607F094FF26
S214009E20039B9B46D9F80810C2E7BBF1000F10D081
S214009E30019B9E4293D1314698F800307A6804F12F
S214009E40080000F0DBFB8AE7B31C8AD0237C002BDB
S214009E5087D104480BB0BDEC028BBDE8F08F00BF85
S214009E608C2601000BE000F0141600202DE9F341CB
S214009E700446174698460E46184D816AE36A8B429A
S214009E8001D04B1C02D102B0BDE8F081284600F09C
S214009E90F9FC0122294620460DF10703FFF71CFFB7
S214009EA038B14346294620469DF80720B847002883
S214009EB0E9D0A9684A1C04D169682046FFF778FDF6
S214009EC00146012EDAD16B6881EA0302636C5B42BD
S214009ED01A4218BF4FF0FF31D0E700BF40160020EF
S214009EE02DE9F04F9B4689B09DF848301646524AF9
S214009EF00093136980465B450D46C0F09780D946AF
S214009F00D2F804A0B9F1000F00F08C80D8F83C30ED
S214009F1001225B6905A95046984705A800F08CFC0D
S214009F20454B1B68984240F0848005A800F090FCE2
S214009F300428074614D105A800F091FC009B0446AF
S214009F400AEB0700002B3ED1A64212D9361B1C4650
S214009F5051464046FFF72CFDA9EB04098246D1E79F
S214009F60D8F83C30022250465B6906A9984706A8F6
S214009F70E2E7A41B5C4528BF5C46032C00EB060703
S214009F80ABEB040B1DD9D8F83C30294638465B6944
S214009F90A208984724F0030304F003061F441D4458
S214009FA0002ED5D0D8F83C3001225B6906A9384689
S214009FB098473246284606A9354407F0C5FE0026CF
S214009FC0C6E72646ECE7274604F0030301932B1961
S214009FD0029303190393029BDD1B039BD81B019B73
S214009FE09F420FD1002FB3D0D8F83C30012206A9EB
S214009FF05B6998473A46284606A907F095FE78B961
S21400A0003D44A5E7D8F83C30012206A95B6998478D
S21400A0100422284606A907F087FE08B9043FDAE7B7
S21400A020DFF81890484609B0BDE8F08FDFF81090CA
S21400A030F8E7DFF81090F5E7BC15002012E000F016
S21400A04011E000F022E000F008B5C3680020984751
S21400A050BDE8084000F0ACBB2DE9F04F4FF0FF33F1
S21400A0604FF6FF720025044600F10806C0E90923F2
S21400A07087B0C362056205633046884600F08EFAF4
S21400A0802046FFF7D8FB68BB20464146FFF753FC47
S21400A0902046FFF7D0FB68BB894D2046FFF7CBFC78
S21400A0A0CFE02368E26B606C576900FB0530052241
S21400A0B001A9B84701A800F0B5FC012807460CD155
S21400A0C029462046FFF708FC012F024600D1013240
S21400A0D029462046FFF7CEFB03E000F0CDFC002823
S21400A0E0EED10135E3699D42DBD32046FFF7A3FBA3
S21400A0F00028C9D000254FF0FF394FF6FF73CA4637
S21400A100A846C4E90853E36998450AD3A5EB0905B0
S21400A110012D2CD84FF6FF72636A93423CD1694DED
S21400A120BBE72368E26B606C576900FB08300522CA
S21400A13001A9B84701A800F075FC834601A800F005
S21400A14048FC0746584600F092FC68B1574538BFB1
S21400A150C4F82480B94528BFB946BD4238BF3D463D
S21400A160BA46236A0133236208F10108CBE74FF6AB
S21400A170FF7300256362E3699D42CBD2676C20685B
S21400A180E36B052207FB05005B6901A9984701A858
S21400A19000F01FFC0135EEE7E26B676C206801A952
S21400A1A007FB030055690522A84701A800F011FC2B
S21400A1B0626A2368606C444D00FB023000F062FC6B
S21400A1C04FF0FF33A062E3622A466FF0010120469B
S21400A1D00DF10303FFF792FD002836D1AD6829463E
S21400A1E02046E562FFF702FB206320B92046E16ABD
S21400A1F0FFF7DEFBE06229462046FFF7D9FB05465F
S21400A200A36A9D4223D16369656C2046A5F11402BA
S21400A210DD1CB5FBF2F503EBC5050335B5FBF2F522
S21400A220FFF709FC0235A84280463ED22046616A06
S21400A230FFF731FB0027064604F1400AAF4218D369
S21400A240224D284607B0BDE8F08FA56AC7E7294625
S21400A2502046FFF7CBFA236B2946034407462363C1
S21400A2602046FFF7A5FB0546002FC9D1C4E90B071A
S21400A270C6E7474512D3626C236801A902FB06397C
S21400A280E36B05225B694846984701A800F0A1FBEE
S21400A290534602464946E06B00F0F6FB3146204640
S21400A2A0FFF7F9FA01370646C8E7304600F076F9B8
S21400A2B0002320461946064AFFF7D8FD0025ECE69F
S21400A2C003E000F016E000F0E815002013E000F0D0
S21400A2D0899A00002DE9F04100255E4B0E46D3F822
S21400A2E0008004461D6018B95B4D2846BDE8F08125
S21400A2F090F8347007B30A6803689A4240F09F806B
S21400A3004A6843689A4240F09A808A6883689A420C
S21400A31040F09580CA68C3689A4240F090800A6907
S21400A32043699A4240F08B808A69C36B9A4240F038
S21400A33086804B698361D8E750223946856B07F0E3
S21400A3402AFDD6E90212336804F108002360736818
S21400A350A5636360336963617369A36100F030F9D4
S21400A360B36904F14000E3639B68984720B9676CC3
S21400A37017B16368B3FBF7F794F84330E761002B37
S21400A380B2D0656C002D62D0002F60D02368B3FB7E
S21400A390F5F205FB1233002B53D16668B6FBF5F3D6
S21400A3A005FB1363002B4CD12046FFF70FFAA36979
S21400A3B0043303449E4246D340F634726369CC3B72
S21400A3C0934242D8B5F5007F41D303212046FFF7DC
S21400A3D026FAD4E90001E36B1B6898470546E36B51
S21400A3E00220DB689847DDB941462046FFF734FE79
S21400A3F01A4B0546984204D141462046FFF72CFEEC
S21400A40005466DB9636C266A143B20465E43FFF72B
S21400A410DDF9A369124A043303449E4238BF154649
S21400A420002D0CBF0123002384F8343003D1D4E977
S21400A430000100F0C3F9E06BFFF706FE55E7094D93
S21400A44053E7094D51E7064D4FE7084D4DE7084DD8
S21400A4504BE700BF6415002009E000F013E000F0B1
S21400A46002E000F008E000F001E000F005E000F097
S21400A47004E000F02DE9FF410C4616461F4605464F
S21400A48090B390F834308BB3C1F3130399422FD1B5
S21400A490DFF878800121FFF7C2F9214642462846B8
S21400A4A00DF10F03FFF72AFC044670B99DF80F3034
S21400A4B0012B11D1D8F81030BB4213D102460090C0
S21400A4C031462846FFF70CFD0446E86BFFF7BCFD57
S21400A4D0204604B0BDE8F081064C0748022B18BFA2
S21400A4E00446F2E7054CF0E7054CF1E7054CEFE7CC
S21400A4F0054CEDE70CE000F00BE000F011E000F09A
S21400A50009E000F007E000F00AE000F0BC150020CB
S21400A5102DE9F3411E4600230C46174605463360D8
S21400A52058B390F8343053B3C1F31303994228D18B
S21400A530DFF864800121FFF772F92146424628467B
S21400A5400DF10703FFF7DAFB0446A0B99DF80730C4
S21400A550032B10D0022B03BF01233B600423D8F843
S21400A560103018BF38603360E86BFFF76DFD20468B
S21400A57002B0BDE8F081044CF6E7044CF7E7044C63
S21400A580F5E7044CF3E700BF0BE000F009E000F04D
S21400A59007E000F00AE000F0BC15002000234FF0B2
S21400A5A0FF3230B544689C4202D10023037230BDAE
S21400A5B0016801EBC30541F833206A600133F2E716
S21400A5C0C0E90012FFF7EABF0023F0B545689D42D8
S21400A5D002D14FF0FF300EE00468DE0054F833403E
S21400A5E0671C09D0C4F31307B94205D1240D1470B3
S21400A5F0036833445868F0BD0133E8E72DE9F043BB
S21400A6004668002E45D0056898464FF0000CA946CF
S21400A610AE4655F83C400CF1010CC4F31307013468
S21400A62001D0B94217D0B4450EF1080EF1D12F462D
S21400A630002403E0B44207F1080712D055F834307E
S21400A64001340133F6D1C1F3130141EA0851C7E9D9
S21400A6500012BDE8F08341EA0851CEE90012BDE8D9
S21400A660F083B8F1030F14D0002303E0B34209F1DE
S21400A67008090ED055F833400133C4F30754032CB1
S21400A680F4D1C1F3130343EA0853C9E90032BDE825
S21400A690F08301230372BDE8F08300BF704700001B
S21400A6A037B5920004460D46019207F055FC431C50
S21400A6B00BD060B929462046019A07F035FB0028E2
S21400A6C0044808BF002003B030BD0348FBE703483A
S21400A6D0F9E700BF10E000F021E000F024E000F011
S21400A6E013B5044601A806F04FFD9DF8063001227A
S21400A6F023804FF4807300206380054B9B680A33E9
S21400A70003F01F0302FA03F3636002B010BD00BF3C
S21400A7100080E00F06F026BD08B506F013FD002009
S21400A72008BD10B5044644EA010313F003030846C7
S21400A73009D1934201D1002010BD54F8231040F8EF
S21400A74023100133F5E72146920007F0FDFAF2E701
S21400A75010B5044607F0F8FB431C15D0B0B90C4BF7
S21400A76020469B680A3303F01F020123934023F020
S21400A77003032344984201D1002010BD50F8042B57
S21400A7800132F7D00348F8E70348F6E70348F4E752
S21400A7900080E00F0EE000F021E000F024E000F082
S21400A7A008B506F09BFB014B186008BDB8150020E5
S21400A7B0014B186806F096BBB8150020704713B515
S21400A7C00023044601461B220DF107008DF80730D2
S21400A7D000F074F922689DF80730B3EBD26F0CBF17
S21400A7E00120002002B010BD13B500230446014628
S21400A7F020220DF107008DF8073000F05FF90DF10B
S21400A80007001A22211D00F059F962689DF80730EA
S21400A810B3EB926F0CBF0120002002B010BD0068A1
S21400A820431C584258417047006810F07E0F0CBF1A
S21400A830C0F3C160002070470068C0F3D3107047B3
S21400A840006800F07F0001288CBF002001207047C0
S21400A850036813F07E0F0CBF0820042070470368BF
S21400A86013F07E0F03D1406820F07C40704713F051
S21400A87078001CBF03F07F03D81F7047006800F005
S21400A8807F00704738B5094B0D461A68002104460C
S21400A89007F081FA00234FF0FF322361C4E9002558
S21400A8A0A260E3822383A37638BD00BF8C26010016
S21400A8B006289ABF014B185C0120704790260100BD
S21400A8C02DE9F0410746154600240E46596888B023
S21400A8D0490A012922464FEA510104F10104F8D839
S21400A8E0DC78997824031B88C90201F4006104F41B
S21400A8F080540C43C3F30A032344540304F4604413
S21400A9004FF000081C44284B6FEA0444039325F0DC
S21400A9107843ED4302A90DF107001B2202938DF840
S21400A920078000F0CBF89DF80720029B02A943EAB7
S21400A930C2630DF107001B2225F0784504930295AB
S21400A9408DF8078000F0BAF89DF80720029B6FEAA2
S21400A950144443EAC26305934FF0FF33079406930B
S21400A96007A9BB69012206F110009847BB6905A933
S21400A9700446012206F108009847BB69404518BF07
S21400A980044604A90122301D98470122404518BFFD
S21400A9900446BB69304603A99847404508BF204691
S21400A9A008B0BDE8F08100BF01009AB237B5054691
S21400A9B001F10C0443696946012220469847BDF818
S21400A9C00030012201932046AB6901A9984703B0E5
S21400A9D030BD37B5044600251B22011D0DF10700CA
S21400A9E08DF8075000F06AF860689DF80720B2EB13
S21400A9F0D06F03D120F0784003B030BD0DF10700D2
S21400AA001B2204F108018DF8075000F057F8A068E3
S21400AA109DF80730B3EBD06F01D1C043EAE74FF0A3
S21400AA20FF30E9E74BF29A22036810B5B2EB134FFA
S21400AA30044613D19BB2012B13D1FFF7CAFF013096
S21400AA400CD04FF6FF72E068B2EB104F4FEA10439F
S21400AA5009D180B2C01A18BF012010BD2368013387
S21400AA6003D00420F9E70220F7E70320F5E70128E2
S21400AA708CBF002001207047033801288CBF0020BF
S21400AA80012070471430704730B5046985B005461C
S21400AA9008460191CDE90232A0470199044638B92B
S21400AAA0DDE902322846FFF70BFF0199044610B194
S21400AAB02846FFF77BFF204605B030BD1F2A0B68EF
S21400AAC09EBF4FF0FF3191408B43590801F055313E
S21400AAD05B1A03F033319B0803F033330B440178E1
S21400AAE003EB13130A444FF0013103F00F334B43CB
S21400AAF0A2EB136303707047074B9A6CDB6C110A6A
S21400AB000270120C82701A0AC2701A0C1B0E417068
S21400AB1002714371704700BF0080E00F044B014490
S21400AB20884200D170471A6E00F8012BF8E700BF84
S21400AB3000C001B8014800F08FB800BFC826010069
S21400AB40214B30B51B688DB0C3F30743012B0ED1E4
S21400AB501E4B04205A6E4FF480231D49520358BFE3
S21400AB601C4A4B6601F51041086258BF53666B4697
S21400AB70194C02AD20686168083403C30023684698
S21400AB808DF8003006F04CFA0FCC0FC50FCC0FC571
S21400AB9094E8030085E8030002A805F0FDFE032103
S21400ABA0802006F00DF80121302005F05BFD102214
S21400ABB0064B9A660122C3F88022084B5A60024A66
S21400ABC0126C1A660DB030BD0080E00F0080005099
S21400ABD00090005000A000509826010000C001B868
S21400ABE0002307B5CDE900338DF80210694600F062
S21400ABF0E7FB03B05DF804FB032070474FF0FF311E
S21400AC00124B03F5805211664FF6FF715166002114
S21400AC100F4AC2F8D010BFF34F8FBFF36F8F0820D4
S21400AC200C49C1F88000BFF34F8FBFF36F8F4FF40E
S21400AC30403203F500531A61C1F88001DA604FF420
S21400AC40004203F140639A66704700BF00800044EC
S21400AC5000ED00E000E100E038B50446054D00F0E8
S21400AC60EDFB0FCC0FC594E8030085E80300002039
S21400AC7038BD00BF6C16002047F6FF739A42F0B549
S21400AC8063D0022963D8334BCF0003EBC10013F81F
S21400AC9031108478012913D10025C3781B1B9D42EF
S21400ACA002D3E018C0B2F0BD591B4668A3EB5101B1
S21400ACB036F911609642D4BF0D4601F1FF33EEE738
S21400ACC040680028EFD0B0F90010914204DBB0F9DC
S21400ACD002109142B8BF114682883B44FF2A19BF32
S21400ACE0C8222826B0F90620B0F90860A2EB0102B7
S21400ACF00CBF0125002592FBF6F25F782A447B1EE6
S21400AD00934228BF13464FF47A7E00EBC305AE6825
S21400AD10EA88AC4611FB02621E4622EAE272013362
S21400AD2002F5FA729F42B2FBFEF204D9BCF80CC0E0
S21400AD3008359445EBD200EBC6008088904228BFC9
S21400AD401046A04238BF2046ACE7FF20ABE7002005
S21400AD50A9E700BF6C160020F8B50D4610B9002410
S21400AD602046F8BD0E4F3E68002EF8D100F090F851
S21400AD7004460028F3D0386000F0BEF8204600F005
S21400AD80B0F838B130463E6000F0B6F8204600F025
S21400AD90A3F8E4E7002DE3D02046A847E0E700BF8D
S21400ADA0841600200846114600F0B8B810B501F029
S21400ADB00DFE044618B9034B01215B6898472046F0
S21400ADC010BD00BF3C000020F7B5114D04460F46ED
S21400ADD06E6801210020CDE90032B047DDE900327F
S21400ADE006463946204601F0FAFD044618B9012009
S21400ADF02B68984704463EB100F0D8FB00B91CB15A
S21400AE0000216B6808469847204603B0F0BD00BF97
S21400AE103C000020F7B5104D04460F466B68012134
S21400AE2000200192984739460646019A204600F0CF
S21400AE30CCFA044618B901202B68984704463EB160
S21400AE4000F0B4FB00B91CB100216B6808469847B7
S21400AE50204603B0F0BD00BF3C0000207047000055
S21400AE60431E033306D8044B984228BF184664286E
S21400AE7038BF6420704700BF40420F00431E012BBE
S21400AE8003D9031F584258417047012070470000FD
S21400AE90F8B5054606F022F807460E4B1E6826B99A
S21400AEA0384606F01FF8344610E0B46884B1237CB8
S21400AEB09C46DB070CD44CF0010C95E80F0084F898
S21400AEC010C084E80F00384606F00CF82046F8BD9F
S21400AED03668E4E7300000204FF4C872002106F020
S21400AEE05ABF10B50446002100F080FA2046BDE89F
S21400AEF0104001F0A7BB000010B5044618B9054B7A
S21400AF00054A136010BD00F0F3FCD4F8C830002BDF
S21400AF10F6D1F4E75DAE00003400002010B50C4614
S21400AF2000F0FCFC1CB100F05BFD0128FBD1BDE885
S21400AF301040024B002103205B6818473C000020AD
S21400AF4000F05EBE00F072BE08B502460868FFF765
S21400AF5087FF08604868FFF783FF48608868FFF748
S21400AF607FFF8860C868FFF77BFF0B69C860581CC6
S21400AF7003D00B48834228BF03460B614B69581C1D
S21400AF8003D00748834228BF034688694B61FFF712
S21400AF9067FFBDE808408861104601F09BBB00BF14
S21400AFA040420F002DE9F84FD0F8C03007460E4655
S21400AFB013B1038B8B4276D0D7F8BCB0BBF1000F31
S21400AFC042D0DBF80830002B3ED0DBF80C20002AFD
S21400AFD03AD0D7F8D0A0BAF1000F38D04FF0000919
S21400AFE04D46C84601E0DBF8083003EB4514E3891C
S21400AFF00135B34216D8238AB34213D3B4F91230BC
S21400B000B7F9241003EAE372994253DD384697F8FD
S21400B0100C11FFF731FE7B7D81468342A04606D9A0
S21400B020DBF80C209542DED3B8F1000F27D00023C2
S21400B030424638461946D04700203E83C7F8C080AF
S21400B04087F81591BDE8F88F0320BDE8F88FD14644
S21400B05047F6FF745546514603EB4518B8F80E30D0
S21400B060B3421AD8B8F81030B34216D3B8F9122043
S21400B070A24202EAE27204D14FF0FF09DCE70120A7
S21400B080E0E7384697F80C11FFF7F6FD7B7D814622
S21400B0908342D1D94146DBF80C200135AA4205D9B6
S21400B0A0DBF80830D8E70020BDE8F88F0029E6D0A6
S21400B0B08846C1E7A046BAE72DE9F04182B09DF880
S21400B0C020C0D0F8D08004460D4616461F468DF8A0
S21400B0D007C0B8F1000F2ED000220DF1070311466D
S21400B0E0C047D4F8BC20194B20461A60184BD4F839
S21400B0F0C0201A60174B1D6000F020FF05461EB9E1
S21400B100284602B0BDE8F081B0FA80F04FF44A72EB
S21400B1103321400900F0E4F93946204601F014FADC
S21400B12005460D4B20461B68D4F8C01098472846A5
S21400B13002B0BDE8F081417D90F815316246994233
S21400B14028BF194600F076FECBE700BF8C1600201D
S21400B1509016002088160020340000202DE9F043C9
S21400B16085B005460F4614461E4601F045FC01F024
S21400B1704DFC00283BD1DFF82481D8F800301BB105
S21400B180D5F8BC2093421FD000F02AFC012838D105
S21400B190D8F800308BB31A687AB3D5F8BC100968B3
S21400B1A08A4246D0D5F8C0301A68284601F0C0F961
S21400B1B038B9012433462246394628460096FFF71A
S21400B1C07BFF05B0BDE8F083304B1B68002BDBD05F
S21400B1D0D5F8C0209342D7D12D4B1B689F4222D072
S21400B1E000F0FEFB0128E5D04FF001090BE000223D
S21400B1F0264B1A6001F002FCBDE7D5F8BC30196892
S21400B200D0E74FF00009012000F088FB00F0E8FBD3
S21400B2100128FBD11F4B002103205B689847B9F13A
S21400B220000FB5D0C6E706B174B9002005B0BDE87A
S21400B230F083164A1268D2B11168D5F8C020126899
S21400B2409142B6D05968B0E70122D5F8D0408DF8C3
S21400B2500F2084B10022284611460DF10F03A047A7
S21400B2600D4B28461B68D5F8C0109847DDE7D5F883
S21400B270C0201268E6E7697D95F8153128469942A0
S21400B28028BF194600F0D6FDEAE700BF901600205A
S21400B290881600203C000020340000208C16002079
S21400B2A0F8B50E46054605F019FE3146074628460F
S21400B2B0FFF778FE044620B1384605F013FE204618
S21400B2C0F8BD0346024631462846FFF747FF0446C8
S21400B2D0384605F007FE2046F8BD00BFF8B506461E
S21400B2E00C4649B30B6843B11B68013324D0CB68C6
S21400B2F01BB18B68003B18BF01231846CF224121A3
S21400B30000F0EEF8204602F097F800234FF6FF72A2
S21400B31086F81831C6E92F43E768D8B287420DD8B9
S21400B320154600230B4A294613600B4A3046136025
S21400B330FFF7B6FF2846F8BD0023DEE7A16801EB5D
S21400B3404011CD89954202D2002DEAD02A4601331B
S21400B350E3E700BF8C16002090160020008B704795
S21400B3600A7838B505461046FFF788FD60B14C7878
S21400B3702046FFF783FD38B12243530704D42846FE
S21400B380BDE8384000F088BC012038BDFFF7E8BFB4
S21400B39010B504460878FFF771FD58B14A78104694
S21400B3A0FFF76CFD30B1042A04D02046BDE81040FB
S21400B3B000F0A8BC012010BDFFF7EABF00F056BAA7
S21400B3C0084601F0EFBC00F0A9BB37B504460D46B1
S21400B3D00192FFF765FF38B929462046019A03B067
S21400B3E0BDE8304003F0EEBF03B030BD01F016BB41
S21400B3F003F0F2BA13B504460020019102F01AF8E1
S21400B400D4F8D03033B92046019902B0BDE81040D8
S21400B41000F04EBD022002B010BD38B50446488884
S21400B4200D4602F007F8D4F8D0302BB9294620464E
S21400B430BDE8384000F0AEBC022038BD01F0FBBFCE
S21400B44038B505460C4605F049FD296BEB6A0C40FD
S21400B4502343EB6205F046FD00200CB9002138BD01
S21400B4604FF40071FBE700F0F5BF01F018B80000DC
S21400B4704FF4007307B50A490DF10602ADF8063021
S21400B480FFF7F3FFBDF80630B3F5007F05D10228BD
S21400B49008BF002003B05DF804FB0120FAE700BFF8
S21400B4A0281800200846114601F008BF00F0BEBF6D
S21400B4B038B50446154609B101F011F825B1204605
S21400B4C0BDE8384001F00EB838BD0000024B1960E8
S21400B4D0024B1860FEE700BF380000202C1A002040
S21400B4E008B550B90548064B01601A60054B1A6846
S21400B4F0054B1A601868FFF7E9FF08BD3800002002
S21400B500281A0020841600202C1A0020437C03B141
S21400B51008470220704710B5044601F055FB204648
S21400B520BDE81040032100F071BAFFF7F4BF000039
S21400B5300149FFF7EBBF00BF9DCB00000149FFF7B5
S21400B540E5BF00BF71CB000013B5427C0C46C2B10C
S21400B550053A012A8CBF002201224968019201F0B7
S21400B5606DFB206890FAA0F0000A02F03BFFA17A7B
S21400B5702089019A81F0010101F090FB002002B0C1
S21400B58010BD0220FBE71FB5ADF80C309DF8183053
S21400B590CDE9011201A98DF80E30FFF7D5FF05B0F1
S21400B5A05DF804FB0020704700207047014B1878B8
S21400B5B0704700BF301A0020024BD868C0F3036003
S21400B5C0704700BF000002B870470000431C07D059
S21400B5D06FF0FF02034B10405A62A3F58053586287
S21400B5E0704700BF00E000B8426B0E4B02F06002EE
S21400B5F0402A12D0602A03D0202A11D1012206E068
S21400B60071B10A68012A0BD94A6942F00102C3F8EF
S21400B61088208022044B1A61704740F20112F6E738
S21400B6200022F4E7003F00B0000002B808B5094A5F
S21400B630FFF7C2FF0B2806D00C2809D0092814BF34
S21400B6400020022008BD106C10F48030F0D1F9E71D
S21400B6500220F7E7000002B84FF03A430121D3F882
S21400B6601821596352074FF4005148BF042203F5CE
S21400B6700053196344BFA3F58053C3F818217047DD
S21400B68037B50C46204D41B90A46072104F0DEFDC9
S21400B6901E4B6C665C6003B030BD0722114604F09A
S21400B6A0D5FD07221A4B0121DA60237901A885F817
S21400B6B064306379019304F02FFE019BC2B2D3403D
S21400B6C000F00F0040EA031085F86500A27985F8BF
S21400B6D06620E27985F867202268AA6601932BB176
S21400B6E002EB430132F8023B8A4207D12279013A43
S21400B6F01344084A136204F0C9FDCCE732F8020B83
S21400B700834228BF0346EFE7003F00B0643F00B027
S21400B710006000B8004000B800F01803182B074B74
S21400B72003D10022C3F88C207047010701D50122FF
S21400B730F8E7C206F5D540F20112F3E7003F00B085
S21400B7403E4B2DE9F3411D6840F2022317460B409D
S21400B75000F00102134306460C4642D0880709D57E
S21400B760374BD3F8083F03F0C003402B02BF02213B
S21400B770344B99604FF000084AB3002300220120A2
S21400B7800021CDE9008803F0CBFB4FF0FF312846BF
S21400B79002F0D4FD414668830120FFF7BFFB2A4B29
S21400B7A01B6C590208D46B6B13F0800F4FF4001318
S21400B7B014BF264A264A136226490868FFF706FF82
S21400B7C04FF0FF330B602B7C43F008032B74A2056D
S21400B7D007D501212846FFF733FE24F400740643FC
S21400B7E00C43D5E94C233240234052EA030103D0F0
S21400B7F01949284609688847FB070FD51749184A8C
S21400B80008680021136811600121164A117003B1FF
S21400B8109847154B002102205B68984717F00E0FDB
S21400B82008D040F27D123B21002002B0BDE8F04176
S21400B830FFF756BE02B0BDE8F08100BF84160020B8
S21400B840003000B0001002B8000002B8005001B886
S21400B850006001B84800002044000020501A002074
S21400B8604C1A0020481A00203C000020F7B5D0E90A
S21400B8704CC70446DDE908658CEA060087EA050140
S21400B8801040194080EA0C007940C4E94C0123F4CA
S21400B890004105EA0103002522F0010043F400738D
S21400B8A006EA000243F00203CDE9005503F038FB38
S21400B8B0237C9A0717D5D4F834319B0513D54FF45B
