:02000004000AF0
:20E000000040022083E70A00C3E70A00BFE70A00C1E70A00C1E70A00C1E70A0000000000B0
:20E02000000000000000000000000000C1E70A00C1E70A0000000000C1E70A00C1E70A0018
:20E04000C1E70A00C1E70A00C1E70A00C1E70A00C1E70A00C1E70A00C1E70A00C1E70A0030
:20E06000C1E70A00C1E70A00C1E70A00C1E70A00C1E70A00C1E70A00C1E70A00C1E70A0010
:20E08000C1E70A00C1E70A00C1E70A00C1E70A00C1E70A00C1E70A00C1E70A00C1E70A00F0
:20E0A000C1E70A00C1E70A00C1E70A00C1E70A00C1E70A00C1E70A00C1E70A00C1E70A00D0
:18E0C000C1E70A00C1E70A00C1E70A00C1E70A00C1E70A00C1E70A001C
:20E0D8002DE9F04F0C460823ADF14C0D00216A46109000F095FA684600F0C8FA012840F0B6
:20E0F800B880109800216A462C2300F089FA9DF81200A04240F0AD80059800F01FFB0028E0
:20E1180000F0A7809DF80C00032840F0A2809DF80D00012840F09D809DF81100FC2800F0E0
:20E1380098809DF81210072940F09080FF2840F08D80FE20484E8DF83800069F3068002F47
:20E15800824672D0B7F5302F6FD8109C604300F0AFFA7F1EB7FBFAF64FF0FF35B7FBFAF015
:20E178000119C9B200191191C0B206FB0AF1A042A7EB010707F101071FFA87F952DB001B6C
:20E1980000F1010B1198A04207D15FFA99F619F0FF0F1CBF761CF6B201E05FFA9AF6002EFB
:20E1B8003BD00AFB04F0B04600270F90B81BB0F1FF3F05D11198A04202D119F0FF0001D1C7
:20E1D8004FF480701099A1420ABF002F00220C22904217DD2249801A5118491E11F8012F4C
:20E1F8004FEA152C554005F0FF0508226B0832BF6D081A4B83EA5505521EF7D1401E85EACB
:20E218000C05EBD10F9800EB072000F5807000F04FFA7F1CB8F10108C8D1641CBBF1010B24
:20E23800E4B2AFD185F0FF3500E000250298A84204D110980EA900F02BFA07E0FC208DF8AD
:20E25800380010980EA900F023FA02E0079800F0A0FA13B0BDE8F08F000400202083B8EDA4
:20E27800000300202DE9F047344F814657F80C0C15468846800824BF31483860334E3149C5
:20E29800DFF8C4A0002034680860DAF80000A169272088472F4C2E4804F13002116823461B
:20E2B8000840106003F17800006820F48070A0673068016B4FF4806088473068016B4FF472
:20E2D800816088473068016B4FF4C0608847224901200860C4F88081206057F80C0C800820
:20E2F80005D2B5F1FF3F08BF4FF040453D60DAF80000E0698008FCD3072000F0FDF802287B
:20E31800FAD1B9F1010F13D0306A144D8168284688470428F8D0012804D1306A4268032102
:20E3380028469047D4F8180220F00300C4F818023068806B8047BDE8F087C0461C000940E0
:20E35800FD0000400C4009402C200940B8010010FFFFFEFE0C2008402820086000400340D4
:20E378002D4A2DE9F04180462E4C5068800806D2106804F14D01000C40F0F00008702848A0
:20E398004FF001214FF08057C0F8041407F5F8760088D7F8F0019568204F0168284688475A
:20E3B800A80E03D2680E24BF02202070306842682946404690471F48F4300068C0F30531C5
:20E3D8003970410A39BF402184F823104021E174800900F0380040F46050A7F85C0030684B
:20E3F8008168284688471049104A0AE0105C9478131D844299BF184410F8010C18444078F7
:20E41800086008684B689842FCD10228EED1084901200860BDE8F081AC4F00500EB00C4084
:20E4380000A00C400962084000600C40C4E70A0094046042181300502D4870B5001D0468EC
:20E45800B4F1FF3F08BF002400F040F9052838D128481C4E002510380560306C806C80477C
:20E478001948006820B1194800682046FFF778FF174818490560184C0A686FF35B4244EA26
:20E498000200086015490868C0F30130012806D10A681348104040F400320A600860114D95
:20E4B8000124EC613068016A142088470E49086840F4E02008600D492C6008680028FCD122
:20E4D80070BDFEE7B001001080012843800520438C21084048200340000039012800094032
:20E4F800EFFFFCFC00002443002009400C00684218130050940460420246134898B5703053
:20E518000168476D01F00103002007F004071F4318BF0120930802EA000006D301F00204FE
:20E538000023204318BF01231846D20806D301F004010022084318BF01221046002814BF83
:20E558000120022098BDC046D0200840B0B50C480C4DA84210D00C480C4CA0420CD0001B6C
:20E57800083CC71054F8080F017855F821206168401C90477F1EF5D100BF00BFB0BDC046AE
:20E59800E4E70A00E0E70A00ECE70A00E4E70A00B0B54FF0805000F5EC74D0F8D801094D4B
:20E5B800816828468847C7B257B12068426800212846904720688168284688470028F9D164
:20E5D8003846B0BD0040034010B50B480B49006800F00F008002086000200721FFF770FD4D
:20E5F800012420460021FFF76BFD641C582CF8DB00F0B1F8002010BD3024034000040020E1
:20E61800F8B51F46164601EB403500F0B6F8002400B101240020211C08BF012003E015F846
:20E63800011B06F8011B39464A1E002997B2F6D108B100F0A8F8F8BD0B4880F308880949C6
:20E65800086840F47000086000BF00BF00F0A7F808B1FFF77BFF0020FFF7B6FF012000F014
:20E67800A0F8C04688ED00E00040022010B5074C0821083014F8012D10F8013D9A4218BF81
:20E69800002002D1491EF5D1012010BDD4E70A0070B50D460446FFF77BFF0646610301228A
:20E6B8001131284600F020F8304600F039F870BD054B4FF4807101E0425C5A540A46511E56
:20E6D800002A89B2F8D1704700030020054800684BF677310001B1EB104F14BF4FF0FF303F
:20E6F800052070471813005008B5044B1B689B699847034A0021116008BDC046A8010010D6
:20E7180084046042D0F80300401EB0F1FF3F06D00022401E01F8012BB0F1FF3FF9D17047D4
:20E7380008B530B1044830300068426801480121904708BD00400340A8010010002103E01E
:20E75800421E491C1040C9B20028F9D181F0010000F00100704708B500F00FF800204FF0F2
:20E77800FF320146FFF77EFD08BD08B5FFF764FEFFF762BF00F017F808BDEFF3108072B649
:20E79800704700207047EFF3108062B670470020704708B5D0F800D04068804708BD012011
:0CE7B800704700BFFEE7FEE7FEE7FEE74B
:10E7C400010200030200010343433236783252311E
:14E7D80000000000040100001DE70A00D8E70A00000300202E
:20FFA80000008001100080FFFDFF58003AFFBBF3FFFFFFFFFFFFFFFFFFFFFFFFFFFFFFFFFE
:20FFC800FFFFFFFFFFFFFFFFFFFFFFFFFFFFFFFFFFFFFF00FFFFFFFF00FFFFFF00C5C5FFAA
:18FFE800000000FF00E00A00FFFFFFFFFFFFFFFFFFFFFFFFFFFFFFFF28
:00000001FF
