:02000004000AF0
:20E00000004002203FE40A008BE40A0073E40A0089E40A0089E40A0089E40A000000000032
:20E0200000000000000000000000000089E40A0089E40A000000000089E40A0089E40A0004
:20E0400089E40A0089E40A0089E40A0089E40A0089E40A0089E40A0089E40A0089E40A0008
:20E0600089E40A0089E40A0089E40A0089E40A0089E40A0089E40A0089E40A0089E40A00E8
:20E0800089E40A0089E40A0089E40A0089E40A0089E40A0089E40A0089E40A0089E40A00C8
:20E0A00089E40A0089E40A0089E40A0089E40A0089E40A0089E40A0089E40A0089E40A00A8
:18E0C00089E40A0089E40A0089E40A0089E40A0089E40A0089E40A007E
:20E0D8002D4A2DE9F04180462E4C5068800806D2106804F14D01000C40F0F0000870284843
:20E0F8004FF001214FF08057C0F8041407F5F8760088D7F8F0019568204F016828468847FD
:20E11800A80E03D2680E24BF02202070306842682946404690471F48F4300068C0F3053167
:20E138003970410A39BF402184F823104021E174800900F0380040F46050A7F85C003068ED
:20E158008168284688471049104A0AE0105C9478131D844299BF184410F8010C1844407899
:20E17800086008684B689842FCD10228EED1084901200860BDE8F081AC4F00500EB00C4027
:20E1980000A00C400962084000600C408CE40A0094046042181300502D4870B5001D0468CA
:20E1B800B4F1FF3F08BF002400F022F9052838D128481C4E002510380560306C806C80473D
:20E1D8001948006820B1194800682046FFF778FF174818490560184C0A686FF35B4244EAC9
:20E1F8000200086015490868C0F30130012806D10A681348104040F400320A600860114D38
:20E218000124EC613068016A142088470E49086840F4E02008600D492C6008680028FCD1C4
:20E2380070BDFEE7B001001080012843800520438C210840482003400000390128000940D4
:20E25800EFFFFCFC00002443002009400C006842181300509404604230B50C4608230546D8
:20E278000021ADF13C0D6A4600F06CF8684600F09BF8012818D1284600216A462C2300F0B9
:20E2980061F89DF81200A0420ED1059800F0BEF850B19DF80C00032806D19DF80D000128F3
:20E2B80002D1079800F0D3F80FB030BD1149C8B570310A684E6D410806D302F0010106F0BC
:20E2D800040600270E4300D00127810805D3002117B1930828BF01210F46C00805D30020A9
:20E2F80017B1D10828BF01200746002F14BF01200220C8BDD020084010B54FF0805000F545
:20E31800DC74D0F8B8014169042088470420FFF7CDFF0128FAD12068C1694FF4A0608847D9
:20E3380001210548054A016010688008FCD3044801604160816010BD28200860282008409B
:20E35800141A4442F8B51F46164601EB403500F072F8002400B101240020211C08BF012089
:20E3780003E015F8011B06F8011B39464A1E002997B2F6D108B100F064F8F8BD084880F3C2
:20E3980008880849086840F47000086000BF00BF00F06AF8002000F019F8012000F066F8A8
:20E3B8000040022088ED00E010B5074C0821083014F8012D10F8013D9A4218BF002002D1EF
:20E3D800491EF5D1012010BD9CE40A0010B500200721FFF741FF012420460021FFF73CFF60
:20E3F800641C582CF8DBFFF787FF00F037F8FCE7054800684BF677310001B1EB104F14BF43
:20E418004FF0FF300520704718130050002103E0421E491C1040C9B20028F9D181F0010027
:20E4380000F00100704708B5FFF7B6FEFFF7A6BF00F013F808BDEFF3108072B67047002029
:20E458007047EFF3108062B670470020704708B5D0F800D04068804708BDFEE701494020BD
:14E4780008607047902002400120704700BFFEE7FEE7FEE739
:10E48C000102000302000103434332367832523159
:20FFA80000008001100080FFFDFF58003AFFBBF3FFFFFFFFFFFFFFFFFFFFFFFFFFFFFFFFFE
:20FFC800FFFFFFFFFFFFFFFFFFFFFFFFFFFFFFFFFFFFFF00FFFFFFFF00FFFFFF00C5C5FFAA
:18FFE800000000FF00E00A00FFFFFFFFFFFFFFFFFFFFFFFFFFFFFFFF28
:00000001FF
