S02B0000626F6F746C6F616465722D73746F726167652D737069666C6173682D73696E676C652D313032346BF2
S315080000000010002001020008B10100088D06000852
S31508000010B1010008B1010008B1010008B1010008EA
S31508000020B1010008B10100089C3E0008B1010008B2
S31508000030B1010008E43E0008B1010008B10100085A
S31508000040B1010008B1010008B1010008B1010008BA
S31508000050B1010008B1010008B1010008B1010008AA
S31508000060B1010008B1010008B1010008B10100089A
S31508000070B1010008B1010008B1010008B10100088A
S31508000080B1010008B1010008B1010008B10100087A
S31508000090B1010008B1010008B1010008B10100086A
S315080000A0B1010008B1010008B1010008B10100085A
S315080000B0B1010008B1010008B1010008B10100084A
S315080000C0B1010008B1010008B1010008B10100083A
S315080000D0B1010008B1010008B1010008B10100082A
S315080000E0B1010008B1010008B1010008B10100081A
S315080000F0B1010008B1010008B1010008B10100080A
S31508000100B1010008B1010008B1010008B1010008F9
S31508000110B1010008B1010008B1010008B1010008E9
S31508000120B1010008B1010008B1010008B1010008D9
S31508000130B1010008B1010008B1010008B1010008C9
S31508000140B1010008B1010008B1010008B1010008B9
S31508000150B1010008B1010008B1010008B1010008A9
S31508000160B1010008B1010008B1010008B101000899
S3150800017010B5054C237833B9044B13B1044800E095
S3150800018000BF0123237010BD1810002000000000D6
S31508000190EC40000808B5034B1BB10349034800E0CF
S315080001A000BF08BD000000001C100020EC4000083D
S315080001B0FEE70000064B0748DA1C121AC11E22F099
S315080001C00302994288BF0022034903F021BE00BFFB
S315080001D01810002008100020F8400008064B0748B1
S315080001E0DA1C121AC11E22F00302994288BF0022A5
S315080001F0002103F034BE00BFB45D002018100020B3
S3150800020008B5084B83F30A88074B084AC3E9002256
S3150800021000F00EF800F086FAFFF7CCFFFFF7DEFFD6
S3150800022000F038FA0000002000100020A5EDF5FEC9
S31508000230044B054A9A60D3F8882042F47002C3F842
S315080002408820704700ED00E0000000084FF0984352
S315080002505A6CD202FCD5586D00F470207047C0F372
S315080002600C032DE9F04105460F4616460BB900F07A
S315080002708DFB05F5005424F4FF5424F01F0405EB08
S315080002800608A04507D8324639462846BDE8F04153
S31508000290022300F089BB204600F078FB04F50054E1
S315080002A0EFE770B44FF00065AD6A03462E698642E3
S315080002B006D86C6913449C4202D370BCFFF7CFBFC3
S315080002C070BC70471FB500F1006303F50043039344
S315080002D0104B144698421BD8039A0F4B9A4217D2D2
S315080002E0039A9B1AA34213D358B94FF000639B6A2B
S315080002F00A4A5869904204D91869019100F046FBE8
S3150800030001992246039804B0BDE81040FFF7A7BF3D
S3150800031004B010BDFF7FFFF700E017080080000853
S315080003207FB56FF0006200F17841914203461AD218
S315080003306D460E4A02F110062C46106851680832BE
S3150800034003C4B2422546F7D15A1E0DF10F010F33E9
S3150800035011F8010912F8014F844204D19A42F7D1E3
S31508000360012004B070BD0020FBE700BF883E0008EE
S31508000370036913F0FE0F0CBF01200020704738B543
S3150800038004460D46FFF7CCFF48B16369012B09D136
S315080003902046FFF7EDFF08B1A3692B6038BD0120A1
S315080003A02C60FBE70020F9E72DE9F04103680446D5
S315080003B003F16043B3F5802FA0B034D84FF0006343
S315080003C09B6A42681E6996422DD8394B9A422AD8AA
S315080003D0456B06F14002AA4268D89D4266D828466F
S315080003E0FFF79EFF002861D02846FFF7C1FF80B1BE
S315080003F06B6973B1022B0FD1AB69C4F104011944BF
S315080004004FF0FF32204602F08BFB2A4BC31A5842A4
S31508000410584120B0BDE8F08140F2046328460493B1
S31508000420FFF77EFF08B90020F3E72846FFF7A0FF8D
S315080004300028F8D04FF00067D7F834804046FFF719
S315080004406FFF0028EFD0503EB045ECD8284605A9E6
S31508000450FFF795FF0028E6D0BA6A059B12699A420B
S31508000460E1D89C42DFD8124A9342DCD806A802F0AB
S315080004702BFC059A2146121B06A802F035FC06A895
S3150800048002F034FC059C02F035FC039002F050FCA7
S3150800049021460090039B04F1200206A802F094FB73
S315080004A004900498B0FA80F04009B2E70120B0E75A
S315080004B000001808E320BBDE70B54FF0FF3290B09D
S315080004C005460C4602F02CFB1B4B984231D14FF4E3
S315080004D080621A4B00219A6601A81C2203F0BFFC11
S315080004E0174B29466846009303F0C5FA2146684625
S315080004F003F0C1FA684603F0C7FAFFF7A7FE0646F7
S31508000500B8B940F2022000F0F2F91C22314609A8D7
S3150800051003F0A5FC0B4B294608A8089303F0ABFA91
S3150800052008A8214603F0A7FA08A803F0ADFAFFF7D2
S315080005308DFE002010B070BDE320BBDE00900040A9
S3150800054001000543010006434FF4806230B50446B6
S31508000550154B91B09A6600211C2201A803F07FFC76
S31508000560124B21466846009303F085FA684603F065
S315080005708BFAFFF76BFE054698B940F2022000F0A9
S31508000580B6F91C22294609A803F069FC084B08A8F5
S315080005902146089303F06FFA08A803F075FAFFF7E7
S315080005A055FE002011B030BD009000400000024307
S315080005B0000003434FF4806210B50F4B8CB004461D
S315080005C09A6600211C2205A803F049FC0B4B0194EE
S315080005D00493012302930A4B01A904A8039303F089
S315080005E040FA04A803F050FAFFF730FEB0FA80F09C
S315080005F040090CB010BD00BF009000400000084341
S31508000600040000204FF0FF3313B5044601A80193F8
S31508000610FFF7D0FF20B1019BA3422CBF0020012089
S3150800062002B010BD004870470080000802F021BFE4
S3150800063003F0BFB837B50C460546E0B1D9B100237B
S315080006400B60114B036003F046F8013018BF2B68A6
S3150800065001A81CBF43F4C0432B604FF0FF3301933E
S3150800066003F03CF8019B43B92B68184328602368BC
S3150800067043F40023236003B030BD012B02BF236877
S3150800068018432060F3E700BF0C1200084FF401700E
S3150800069000F052B94FF04023D3F8842013B5110661
S315080006A006D44FF400621A67D3F88420D206FBD426
S315080006B0FFF7BCFF00F00FF908B900F0FAF802F0EE
S315080006C0EBFC044658B900F006F908B100F0FDF84D
S315080006D040F2012000F030F94FF4017018E000F004
S315080006E0FAF808B900F0EBF800F00CF9012802D97D
S315080006F000F0DFF8FEE700F00FF9094B0193019BC4
S31508000700002B0ADC40F205439C42E5D140F2032067
S3150800071000F012F9002002B010BD019B013BEDE785
S3150800072000350C0013B501244FF040238DF8064020
S315080007308DF80740D3F894305B0610D500F010F911
S31508000740A0F2022080B2072809D804FA00F010F0B7
S31508000750C90F1EBF00238DF806308DF80730194BD8
S315080007605B68013308D14FF4027000F0C0F800232B
S315080007708DF806308DF807309DF807305BB11148C3
S31508000780FFF712FE8DF806009DF806301BB94FF4E8
S31508000790027000F0ACF89DF8063083B100F09BF8C3
S315080007A008B100F092F8074B074A936018460168AB
S315080007B081F3088881F3098840688746FEE702B016
S315080007C010BD00BF0060000800ED00E0B1F50D7F28
S315080007D010B504460FD34FF40D72002103F03FFB0A
S315080007E004F5DE7204F5AA7104F12C000023BDE8B5
S315080007F0104001F02FBD40F2052010BD13B5044688
S31508000800009101462C3001F061FDC4F8300218B1A0
S3150800081041F20703984209D1A3784BB140F203206D
S3150800082040F20223E278002A08BF184602B010BD3B
S3150800083040F20120FAE72DE9F04387B00DF10809E7
S3150800084004460E4617460021102248461D46DDF886
S31508000850388003F004FB00211C22C8F80010284643
S3150800086003F0FDFA32463B462146CDF8009004F1E6
S315080008702C0001F02BFD23789A0744BF6268C8F85C
S315080008800020DB0709D504F1080304F1240253F814
S31508000890041B934245F8041BF9D1237840F206401D
S315080008A0002B18BF002007B0BDE8F0834FF40D7089
S315080008B070474FF000534CF23C325A8070474FF065
S315080008C000534AF6C0325A8070474FF000534FF231
S315080008D00F025A8070474FF000534AF6C0305B88C3
S315080008E023F00F039BB21B1A5842584170474FF02A
S315080008F0005208B51080FFF7EEFF10B94FF20F034C
S31508000900538008BD08B5FFF7E6FF20B14FF0005346
S31508000910588800F00F0008BD08B5FFF7DCFF50B196
S315080009204FF00052538803F00F010F2914BF01330B
S3150800093023F00F03538008BD08B5FFF7D8FFBFF3B0
S315080009404F8F0549054BCA6802F4E0621343CB6032
S31508000950BFF34F8F00BFFDE700ED00E00400FA0586
S315080009604FF000534FF20F015A888A4201D1188876
S3150800097070473AB91B8840F20220012B18BF4FF482
S31508000980007070474FF40070704700004FF48032D3
S3150800099008B5044B9A6602F0B9FFB0FA80F0400930
S315080009A008BD00BF00900040072BF8B506460F4665
S315080009B014461D4601D90020F8BD0121202002F069
S315080009C007FF0121212002F003FF8CB144EA060348
S315080009D09B07F0D14FF48032064B31469A6628467B
S315080009E023463A4602F0BAFFB0FA80F04009E3E738
S315080009F00120E1E70090004010B5044600F0DEF85B
S31508000A00074BB0FBF3F304FB03F0022806D9BDE855
S31508000A1010400323B0FBF3F003F092B810BD00BFFB
S31508000A2040420F004FF08062024B5A664FF4007244
S31508000A305A6670470090004010B5FFF7F3FF012192
S31508000A4000230422022002F0F7FE022200231146A8
S31508000A50104602F0F1FE002304220321022002F0D0
S31508000A60EBFE042201231146022002F0E5FE0122D4
S31508000A70174C04F580535A6040F6AA636361002355
S31508000A80144A2361E36404F500539A6440F201436F
S31508000A90A36041F20503E36000F090F80E4B0138BD
S31508000AA0B0FBF3F010230002E0610C4A63610C4BC3
S31508000AB0C3F838274FF00212C3F8302702F5803200
S31508000AC0C3F834271C22C3F820270523636110BD09
S31508000AD000C00540FFFF01000050C30002000100EE
S31508000AE000C0034008B50146FFF79CFFBDE8084073
S31508000AF0014803F013B800BF00C0054038B50546E5
S31508000B000D4CC0F307412046FFF78CFF03F010F8A1
S31508000B102046C5F3072103F00BF8E9B2204603F097
S31508000B2007F8204602F0F4FF204602F0F1FF2046BF
S31508000B30BDE8384002F0ECBF00C0054008B5FFF735
S31508000B4071FFBDE80840FF21014802F0E7BF00BF7A
S31508000B5000C0054038B50B4DFF212846FFF762FF58
S31508000B6002F0E6FFFF21284602F0E2FF284602F0DF
S31508000B70CFFF000284B2284602F0CAFF204380B2A3
S31508000B8038BD00BF00C0054008B5FFF74BFF10226F
S31508000B90014BC3F8A02008BD00E0034008B5FFF7E5
S31508000BA041FF1022014BC3F8A02008BD00D0034026
S31508000BB0002303604FF480107047000030B51C4BCB
S31508000BC087B001AA03F11005144618685968083356
S31508000BD003C4AB422246F7D11B782370154B1B6F13
S31508000BE003F00703032B1FD04FF48022124B5A66DB
S31508000BF0124A9368C3F30443102B17D818336B446F
S31508000C0013F8143C0E480F4943438B4203D19268AC
S31508000C10C2F30162D340074A106FC0F303300130B4
S31508000C20B3FBF0F007B030BD074BF4E7074BF2E72C
S31508000C30343F00080080004000900040000001405A
S31508000C4040420F0000093D0000F04902C0EA2101B8
S31508000C500A4B186830B9B1F5205F0DD8012208484B
S31508000C601A607047012806D1B1F5005F03D8022241
S31508000C7004481A6070470020704700BF34100020EF
S31508000C80AC300020A810002031B1044A1368002BAC
S31508000C90C4BF03F1FF331360704700BF3410002050
S31508000CA002232DE9F04F8046894600278BB0DFF8EE
S31508000CB0C8A0DFF8C8B004928DF81F309DF81F2031
S31508000CC0022A08D0049B002B49D041F20231012A9E
S31508000CD018BF0F4643E0DAF80010244DC1F54073FB
S31508000CE00893DBF80030224809930DF11F0302939D
S31508000CF00023019309AB009308AA1E4B294401F06F
S31508000D007BF850BB9DF81F306BB3089BDAF80040A0
S31508000D1029461C4424F0030632464B46404601F059
S31508000D2043FAB4420746A4EB060205D02846A91999
S31508000D30059203F07AF8059A0999CAF80020DBF8B3
S31508000D4000208A42A2EB010404D90A48224601443B
S31508000D5003F06BF8CBF80040B0E741F203373846AA
S31508000D600BB0BDE8F08F41F20237F8E7B05A002021
S31508000D7038100020AC580020B05D0020AC5A002086
S31508000D8008B570220021064803F069F80122002000
S31508000D90044B1A70044B1860044B186008BD00BF5A
S31508000DA038100020A8300020B05D0020AC5A002082
S31508000DB02DE9F843804658680F461446994620B3ED
S31508000DC01C4B1D787DB100221A7051F8043B052290
S31508000DD0C8F860301848194B01F0B4F830BB16480B
S31508000DE000F0E8FE1125164E641B3368C3F5007340
S31508000DF0A3420CD3D6F800801248224679194044FB
S31508000E0003F006F8002044443460BDE8F883002265
S31508000E1049464046FFF744FF0028F6D13368C3F534
S31508000E200073A342E6D241F20430EEE741F2053000
S31508000E30EBE700BFA830002038100020081000207B
S31508000E40AC5A0020AC580020436D002B0CBF112073
S31508000E5001207047F8B54C6806460D46ECB10122EC
S31508000E60FFF71EFF0446C0B90E4B186888B10E4F2F
S31508000E700428C0F104024FF0FF0188BF002238445D
S31508000E8002F0EDFF2B4604223946304601F08CF974
S31508000E9028B90649064801F026F82046F8BD044652
S31508000EA0FBE700BFB05D0020B05A00200810002004
S31508000EB038100020826CF0B5531EB3F5887F18D819
S31508000EC0D0E9093CD0E90B47C91A914228BF114617
S31508000ED04569866B2FB9C768A7EB040E8E4598BF80
S31508000EE007630C44521AC462826419448B4201D1C6
S31508000EF04362F0BDB34234BF644600249A1B2A44B9
S31508000F00125DEA540133F1E72DE9F04F93B00891E9
S31508000F100E92036BD0F82CB00793436A0093079B95
S31508000F20002B40F09D80C368089A0099A3EB0B0339
S31508000F30521A9A4240F294800B444FF0FF37D0E998
S31508000F400DA98568099307FA05F5ED430F954568D8
S31508000F50C36B07FA05F5ED43109500250193036C5D
S31508000F6004690293436C0C950393036804F2446581
S31508000F700D934369026A0493836A05950693D0E93B
S31508000F8006360F9DB6F1807F05EA0B084FEA0A156B
S31508000F900A9508EB0A1C3CBF13F8015B360234F8C5
S31508000FA01C7038BF45EA0222F50A7D43954240F295
S31508000FB0B480C7F5006607EB561624F81C60079E32
S31508000FC004F66C6C56EA0B0115D0109E00990BEAD4
S31508000FD006070D9EB740002944D1069E013E049996
S31508000FE08E5D0D99C1F1080E46FA0EF637444FF498
S31508000FF0C06606FB07CCBAF1060F0BF1010B3DD80C
S315080010000126BAF1030F94BFAAEB0A0AAAF1030A4A
S31508001010B5F1807F38BF13F801EB4FEA460638BFB3
S315080010202D023CF8067038BF4EEA02224FEAD52E4A
S3150800103007FB0EFE96450CEB060816D9C7F50065A4
S3150800104007EB55177546BFB2FF2EA8F80070DFD913
S315080010500499009FCE5539462E4601310091A1E1EB
S31508001060089B6AE700994E1EB9E7A7EB5717A5EB49
S315080010700E05A2EB0E02BFB20136E5E70099069F00
S31508001080A1EB0906494528BF00270499BAF10A0FBA
S315080010900E44F15D34BF032606264FF48078AAEB8A
S315080010A0060A01260A910A99B5F1807F4FEA41019D
S315080010B008EB06070A9101EA080138BF13F801EBA5
S315080010C00F4438BF2D020B910CEB47013CF8177003
S315080010D038BF4EEA02224FEAD52E07FB0EFE96458A
S315080010E011914FEA46060DD9C7F5006507EB551766
S315080010F075460B99BFB228EA01081199FF2E0F8091
S31508001100D1D9A5E7A7EB5717DDF82C80A5EB0E0577
S31508001110A2EB0E02BFB20136EFE7761BA7EB571715
S31508001120B6F1807F24F81C70A2EB05020AF1C00E06
S315080011303CBF13F8015B360234F81E7038BF45EA27
S315080011400222F50A7D4395424FEA4E0C40F2D380BF
S315080011500399C7F500660B91029907EB561603919A
S31508001160019924F81E60CDE901910AF10C0A04F2EE
S315080011706467B5F1807F3CBF13F8016B2D02B7F8A1
S3150800118000C038BF46EA0222EE0A0CFB06F6964273
S3150800119040F279814FF0000ECCF500650CEB551541
S315080011A03D8007EB081704374FF008094FF0010C8C
S315080011B0B6F1807F38BF13F8018B4FEA4C0C38BF65
S315080011C0360237F80C5038BF48EA02224FEAD628CA
S315080011D005FB08F8904507EB0C0140F28481C5F53C
S315080011E0006605EB56154646ADB2CC450D80DFD3F5
S315080011F0AEEB090E0EEB0C01BAF10B0F0A9140F299
S31508001200A582032988BF4FF49C6E4FF001059CBF49
S315080012104FEAC11E0EF5587EB6F1807F4FEA4505A6
S3150800122038BF13F801CB05EB0E0838BF360234F881
S31508001230087038BF4CEA02224FEAD62C07FB0CFC92
S31508001240944540F25A81C7F5006607EB561766467D
S31508001250BFB23F2D24F80870DED9403D032D3BD997
S3150800126005F0010C0D2D4FEA55074CF0020C00F263
S315080012705A814FF0010EC5F10049013F0CFA07FCEF
S3150800128009F2AF29E1444FEA49016546F1460B9157
S315080012900B99B6F1807F4FEA4E0E38BF13F8018BD3
S315080012A0714438BF360234F801C038BF48EA022212
S315080012B04FEAD6280CFB08F8904540F22781CCF572
S315080012C000660CEB561C46461FFA8CFC013F24F8B8
S315080012D001C04FEA4909DBD1079905F1010900293F
S315080012E040F02082AB4500F22082009B4362012039
S315080012F013B0BDE8F08F0799A7EB571751EA0B0112
S31508001300A6EB0506A2EB050224F81E70EFD0B6F18F
S31508001310807F38BF13F8015B0CF1180E38BF360210
S3150800132034F80E7038BF45EA0222F50A7D43954225
S315080013305BD9C7F500660A9907EB561624F80E60BE
S31508001340B5F1807F01F1F00E38BF13F8016BC64482
S3150800135038BF2D0234F81E7038BF46EA0222EE0A5C
S315080013607E43964228D9C7F50065009907EB5515BF
S31508001370069F24F81E50494528BF0027A1EB0905FA
S315080013800499BAF1070F0D44ED5D009F38BF4FF081
S31508001390090ACD55394628BF4FF00B0A013100918D
S315080013A00BF1010B0999009DA94240F281810E9922
S315080013B099423FF6E6AD7BE1AD1B921B019ECDF847
S315080013C00490B146A7EB571724F81E700399BAF193
S315080013D0070F0B91029934BF4FF0080A4FF00B0A1A
S315080013E0CDE9029104F66827C3E6761BA7EB5717E3
S315080013F0B6F1807F24F80E70A2EB05020CF1300ED0
S315080014003CBF13F8015B360234F80E7038BF45EA64
S315080014100222F50A7D43954206D9C7F5006607EB11
S31508001420561624F80E60D1E7761BA7EB5717B6F1C8
S31508001430807F24F80E70A2EB05020CF1480C3CBF25
S3150800144013F8015B360234F80C7038BF45EA0222FD
S31508001450F50A7D4395420AD9C7F5006607EB561685
S3150800146024F80C60DDE9016101910296AEE7039963
S31508001470521B751B019E01910299A7EB571724F879
S315080014800C700391F1E7AD1BACEB5C1CB5F1807FEA
S31508001490A7F800C0A2EB06023CBF13F8016B2D02A9
S315080014A0B7F802C038BF46EA0222EE0A0CFB06F677
S315080014B096420BD9CCF500650CEB55157D8007EBEC
S315080014C008174FF0080E07F582776DE6ACEB5C1C43
S315080014D0921BA7F802C04FF0100E4FF4807907F55B
S315080014E00177AE1B62E6A5EB5515A6EB0806A2EB3F
S315080014F00802ADB20CF1010C77E6A7EB5717A6EB7D
S315080015000C06A2EB0C02BFB20135A2E6ACEB5C1CE2
S31508001510A6EB0806A2EB08021FFA8CFC0EF1010ED8
S3150800152045EA0905D2E6053FB6F1807F3EBF13F8C6
S31508001530015B360245EA02227608921B4FEA4C0CFA
S315080015400CF1010C06EAE275013F0CEBE27C2A4439
S31508001550EAD1B6F1807F38BF3602B4F846E64FEADC
S315080015600C154FEAD62C0EFB0CFC3CBF13F8017B7E
S3150800157047EA022294455ED90227CEF500660EEBAD
S31508001580561E1FFA8EFE0599BCF1807FA4F846E622
S3150800159031F817E04FEA470601EB47083EBF13F854
S315080015A0017B4FEA0C2C47EA02224FEADC270EFBA6
S315080015B007F797424BD9CEF5006C0EEB5C1E1FFA67
S315080015C08EFE0599A8F800E0B7F1807F31F816C0BD
S315080015D04FEA460E01EB46083EBF13F8016B3F0281
S315080015E046EA0222FE0A0CFB06F696423AD9CCF5E2
S315080015F000670CEB571C1FFA8CFC0599B6F1807F27
S31508001600A8F800C031F81E704FEA4E0C3EBF13F81A
S3150800161001EB36024EEA02224FEAD62E07FB0EFEF1
S3150800162096452AD90599C7F5006607EB561621F897
S315080016300C60764650E6AEEB5E1EA2EB0C02032764
S315080016401FFA8EFE45F00105A6EB0C0C9BE7AEEBE8
S315080016505E1ED21B1FFA8EFE013645F00205ACEB64
S315080016600707AEE7ACEB5C1C921B1FFA8CFC0EF16D
S31508001670010E45F00405BE1BBFE70599A7EB5717F2
S3150800168045F0080521F80C70691CA6EB0E06A2EBBE
S315080016900E027FF421AE0A99AAF10C0A01F58971A6
S315080016A00C91DDE901910191039902910B9903913E
S315080016B0B6F1807F3CBF13F8014B3602C0E9063607
S315080016C00C9B38BF44EA02228364009B0262436291
S315080016D0019BC0F82CB0C363029BC0F83890036422
S315080016E0039BC0F834A04364036B1BB9C3685B450E
S315080016F098BF03630899FFF7DDFB436A089A93428C
S31508001700836C07D282690E998A4203D2B3F5897F20
S31508001710FFF4FFABB3F5897F02D94FF4897383646D
S315080017200020E5E50799A942DDE5BAF1130F34BFB4
S315080017304FF0070A4FF00A0A0A99009D01F1020CB8
S315080017400999B1EB050809D12B46CFE5DDE90191E9
S315080017500191039902910B990391EDE7E04528BFA2
S31508001760E0460099069FA1EB0905494528BF0027D1
S31508001770ACEB08010C9106993D444F1BB8450499FA
S31508001780009FC3440F440CD8009907EB080C6D1A48
S315080017904144009117F805E007F801EBBC45F9D17B
S315080017A000E608EB070C049911F805E0069907F816
S315080017B001EB0135A94208BF0025BC45F3D10099C4
S315080017C041444BE42DE9F047D0E9075301278468E3
S315080017D0D0F82C80A740D0F834C0013F066907EA44
S315080017E0080707EB0C1EB5F1807F36F81E900A44F1
S315080017F007D2914280F0DC8111F8014B2D0244EAB0
S315080018000323EC0A09FB04F4A34278D2076B06F615
S315080018106C6658EA070519D0D0E900E70125BD40EE
S31508001820013D05EA080505FA0EF7456AD0F8148061
S3150800183005B9856A013D18F80550CEF1080E45FA36
S315080018400EF53D444FF4C06707FB0566BCF1060F6D
S3150800185020D801204000B4F1807F375A07D2914240
S3150800186080F0A68111F8015B240245EA0323E50A04
S315080018707D43AB4229BF01302C46641B5B1BFF2806
S31508001880E8D90120B4F1807F80F02281914228BFF7
S3150800189000201DE1876BD0F824C04569BC45ACEB38
S315080018A0070E2CBF0027876A05EB0E0010F807C045
S315080018B001204FF480774FEA4C0C07EA0C0E3D18CE
S315080018C07544B4F1807F36F8158007D2914280F0CE
S315080018D06F8111F8015B240245EA0323E50A08FB38
S315080018E005F54000AB422BBF01302C46774627EA68
S315080018F00E0724BF641B5B1BFF28DCD9C1E7281B26
S315080019000CF1C00CB0F1807FA3EB04034FEA4C0442
S3150800191036F81CC007D2914280F04A8111F8015B63
S31508001920000245EA0323C50A0CFB05F5AB4280F025
S31508001930A08002204FF0000E06F2646CB5F1807F9D
S31508001940BCF8008007D2914280F0328111F8014B31
S315080019502D0244EA0323EC0A08FB04F4A34280F0B0
S31508001960EB800CEB071707F1040C00274FF008096A
S315080019704FF001084FEA4808B4F1807F3CF808A008
S3150800198007D2914280F0148111F8015B240245EADE
S315080019900323E50A0AFB05F5AB4229BF08F101084E
S315080019A02C46641B5B1BC845E4D3BEF1030F3FF608
S315080019B069AFA7EB09074744032F88BF4FF49C6715
S315080019C04FF001059CBFFF0107F558776D0006EB40
S315080019D0050CB4F1807F3CF807E007D2914280F00D
S315080019E0E78011F801CB24024CEA03234FEAD42CF2
S315080019F00EFB0CFC634529BF01356446A4EB0C04B9
S31508001A00A3EB0C033F2DE1D9403D032D7FF63AAFFA
S31508001A100D2D4FEA550700F2B18005F0010C013F84
S31508001A204CF0020CC5F100450CFA07FC05F2AF258F
S31508001A30654406EB45064FF0010C4FEA4C0CB4F131
S31508001A40807F36F80CE007D2914280F0B18011F819
S31508001A50015B240245EA0323E50A0EFB05F5AB42C2
S31508001A6031BF2C46641B5B1B0CF1010C013FE4D112
S31508001A7008E7401B3444B0F1807FB4F818C0A3EBE4
S31508001A80050307D2914280F0938011F8015B0002AA
S31508001A9045EA0323C50A0CFB05F5AB4222D20EF133
S31508001AA0F00EB5F1807F36F81E4006D291427FD2FD
S31508001AB011F8010B2D0240EA0323E80A604383422A
S31508001AC008D2B0F1807F71D2914234BF0320002042
S31508001AD0BDE8F0872D1A1B1A03204FF00C0E06F6E8
S31508001AE0682C2BE7401BB0F1807FB4F830C0A3EB1D
S31508001AF0050306D291425BD211F8015B000245EA62
S31508001B000323C50A0CFB05F5AB42E5D3401BB0F130
S31508001B10807FB4F84840A3EB050306D2914247D22A
S31508001B2011F8015B000245EA0323C50A6543AB4287
S31508001B3024BF5B1B451BCFE72D1BB5F1807FBCF887
S31508001B400280A3EB040306D2914231D211F8014B6D
S31508001B502D0244EA0323EC0A08FB04F4A34205D247
S31508001B600CEB071707F5827C0827FFE61B1B1027D7
S31508001B704FF480790CF5017C2C1BF9E6053FB4F18E
S31508001B80807F06D2914213D211F8015B240245EAFE
S31508001B90032364081D1BED0F013D2540013FA3EB00
S31508001BA00503ECD1042706F2446644E703208FE7D1
S31508001BB000208DE700230122C0E90B33C0E9123269
S31508001BC043628365026570472DE9F04F9846002504
S31508001BD0044685B09DF83830DDF83CB0D8F800707A
S31508001BE0C8F8005007EE901A16460293FFF762F9F6
S31508001BF08BF80050A36CB3F5897F09D1236A13B912
S31508001C0001238BF80030256A003D18BF01251EE028
S31508001C10E36C4BB3A36DA7B1042B04D994F85C30DD
S31508001C20CBB1012513E05A1CA26516F8012B2344F3
S31508001C3083F85C20D8F80030013F0133C8F800303B
S31508001C40E8E7042BEAD8032300258BF8003028465A
S31508001C5005B0BDE8F08FD4F85D20E36412BA2262BD
S31508001C604FF0FF32A365E26117EE902A636A93424A
S31508001C700DD3A36C002B40F0B180256A002D40F0EF
S31508001C80B58004238BF80030E1E70223DCE7002364
S31508001C900193236D9BB1D4E900321A444FF4407383
S31508001CA093400022216903F23673934225D8012313
S31508001CB0C4E91033C4E90E33002363632365D4F8FB
S31508001CC05890B9F1000F5DD1132F01D9019B03B3C9
S31508001CD03A4631462046FFF775FD054698B93A4615
S31508001CE0314604F15C0002F093F8A765D8F8003095
S31508001CF03B44C8F800300323C4E74FF4806021F85A
S31508001D0012000132D1E7019A0AB102286AD1324695
S31508001D1002E0A7F11402324417EE901A2046A66193
S31508001D20FFF7F2F800287FF47CAFA169D8F80030F5
S31508001D308E1B3344C8F80030BF1B0E465AE716F808
S31508001D400A2009F1010903F809200AF1010AB9F183
S31508001D50130F01D8BA45F2D1B9F1130FC4F8589048
S31508001D6004F15C0301D9019AAAB119464A462046EC
S31508001D700393FFF727FD039B054640B9D8F80030C3
S31508001D805344B6E74FF0000A04F15B03DFE7019915
S31508001D9009B1022826D11A4617EE901A2046A361E1
S31508001DA00193FFF7B1F800287FF43BAFA269019BC6
S31508001DB0D31A994510D3A9EB030292450CD3D8F848
S31508001DC000205344A3EB09010A444F44C8F80020F5
S31508001DD03144FF1AA065B0E70B2538E7029B002BB4
S31508001DE03FF453AF02238BF800301AE7029B002B0F
S31508001DF03FF44BAF01234BE72DE9F04F89B09946E5
S31508001E009DF84C3004460393002388461646DDF8B1
S31508001E1048A01768DAF800B01360CAF80030D4E9A9
S31508001E2009318B4204BF00236362656A149A4B1B0F
S31508001E30BB4232BF0023039B7919CDE90032204605
S31508001E404A4607ABCDF81CB0FFF7BEFE079ADAF88C
S31508001E50003061691344CAF80030636A0290294465
S31508001E6040469144ABEB020B5A1B0593049201F0D2
S31508001E70CFFF059B049AED1A3368904413443360E8
S31508001E80029B2F4413B90AB1002FC8D1029809B092
S31508001E90BDE8F08F10B504464B6808462169984797
S31508001EA00023236110BD70B5D1E900532B444FF4CC
S31508001EB040759D4003690446164605F2367523B1FA
S31508001EC0436DAB4201D1002070BD31462046FFF775
S31508001ED0E1FF304633686900984765652061002848
S31508001EE0F1D10220F0E738B504460D46FFF7D2FFD8
S31508001EF06B682846616998470023636138BD042AE0
S31508001F0001D804207047D1F80130B3F5805F38BF97
S31508001F104FF48053C3600A78E02AF2D80923B2FB4B
S31508001F20F3F303EBC301521AD2B202600522B3FBE4
S31508001F30F2F2826002EB82029B1ADBB24360002057
S31508001F40704700002DE9F04385B0E8460446404650
S31508001F509946FFF7D4FF054670BB4A4641462046D8
S31508001F60FFF7A1FF054638BB039FB7F1804F27D27D
S31508001F7040F6FF76164BB7F5800F28BF1E46F319B5
S31508001F8023EA06066169B74238BF374611B1A36A24
S31508001F90BB4217D04846D9F804309847002339463B
S31508001FA063614846D9F800309847606150B9494698
S31508001FB02046FFF76FFF0225284605B0BDE8F083E7
S31508001FC0044EDCE798E80F00A76284E80F00F3E701
S31508001FD0FFFF0F00FFFF3F000068024BC31A58427D
S31508001FE058417047FD0707FD034A044B90420CBF52
S31508001FF018460020704700BFFD0707FD483F000848
S3150800200070B5D1E90152AA4205D290F840302B4466
S315080020109B1A402B10D9002012E00A6890F840401D
S31508002020D65C90F841200133224402F03F02013485
S3150800203086548B6080F840408B689D42EDD801201D
S3150800204070BD2DE9F8431D461746D1E901329B1AA2
S3150800205090F84020044613449D420E469DF8209071
S315080020609DF8248056D9FFF7CBFF00285CD11423AE
S3150800207041F2020084F84630BDE8F88394F841201E
S31508002080A25CFA5494F841200133013202F03F026F
S3150800209084F8412094F84020013A84F8402094F8C6
S315080020A040200AB19D42E9D1D6E90121914201D2E7
S315080020B09D4231D89D42DAD129463846D4F888203F
S315080020C000F02EFDC4F88800B9F1000F04D02A46A6
S315080020D03946E06C00F008FEB8F1000F08D094F815
S315080020E043308BB12B463A463946A06C00F05AFD70
S315080020F094F8433043B1E36DA26D2B449342E365F4
S3150800210024BF002384F84330636D41F203002B4457
S315080021106365B1E70023C2E73268525CFA54B268D5
S3150800212001330132B260BFE70020A5E77FB500237F
S31508002130CDE90033082315460DEB03020446FFF7E5
S3150800214080FF41F203039842064626D194F84330AD
S3150800215063B10822E06C0DEB020100F0C5FD08230F
S315080021600DEB03021146A06C00F01CFD039A029BBE
S315080021706A6094F843202B605AB9094A934208D0FA
S31508002180084A934205D00822E06C0DEB020100F0E4
S31508002190ABFD6B68236500236365304604B070BDEC
S315080021A0F70A0AF7FC0404FC2DE9F74304465868C5
S315080021B00E4617469846002841D08B0742D14FF065
S315080021C000639B6A206E1B6902EB000C1D1D6545AA
S315080021D01CD81C33984219D28542294638BF014675
S315080021E09C4594BFC1EB0C02C1EB0302081AC5F16A
S315080021F0680506EB0009681820444946019201F073
S3150800220007FEFF214846019A01F029FE226E0F4B70
S315080022109A420AD80E49B818884206D39B1AF25829
S31508002220C4F880204FF0FF32F2503A46D8E900351C
S31508002230206E3146A8470020226E3A44226603B033
S31508002240BDE8F08341F20200F9E700BF0480000808
S31508002250088000082DE9F04100254FF0FF370446B5
S315080022608846164603F0200380F842301822FF21DC
S31508002270C0E91855A0F8405080F84350A0F84450DB
S3150800228080F84650C0F88870683001F0E8FD88226A
S315080022902946C4E91286C4F88070C4F8847004F12B
S315080022A0900001F0DCFD40F20113A4F8243101236B
S315080022B0C4E9475784F8185184F8263116B13046D0
S315080022C000F002FD0020BDE8F08100002DE9F04F86
S315080022D0A7B0CDE913230293002304460E46309D8A
S315080022E0DFF8B4931593159A029B9A4201D30020FE
S315080022F0C7E094F84630142BF6D8DFE813F06700E9
S31508002300AE00A800520039002E00530239004B02D5
S315080023103900020239004B029B03090415008C019F
S3150800232041034103D30209044FF00008636D0F2BE4
S3150800233000F291800127102316AA2046CDF80480C2
S31508002340009713A9FFF77DFE41F203030990099A46
S315080023509A4200F05281099B44E00127D4E91432DD
S31508002360934200F25E8184F8467041F2030339E035
S315080023704FF00108D4E91437BB426CD9DB1BDDE901
S315080023801472BF1A94F84020032B174440F20E82A9
S31508002390032F00F20E82204613A9FFF731FE002311
S315080023A020E00127636D072BDFD8082316AA2046ED
S315080023B0CDE9007713A9FFF744FE41F203030C9019
S315080023C00C9A9A4200F0B2810C9B0BE016AA2046A2
S315080023D013A9FFF7ABFE41F203020690069B934250
S315080023E002D0069B059345E0179A169922650022A6
S315080023F062659E4A914240F0A681022284F84620F0
S31508002400F0E7012316AA009320460823019713A98B
S31508002410FFF717FE41F203030790079A9A4201D085
S31508002420079BDFE7169B03F07F43B3F1407F05D098
S31508002430142384F8463041F20903D3E7179BD807DB
S3150800244006D594F8423043F0010384F84230002759
S31508002450636D072BD5D90123A1E1204616AA13A936
S31508002460FFF764FE41F203030890089F9F420BD0D2
S31508002470089F059741F20303059A9A423FF433AF42
S31508002480059827B0BDE8F08F94F84420169B2AB12A
S31508002490774A934240F087800D2336E094F842202D
S315080024A0D10741D594F84320002A3DD171498B4282
S315080024B033D022D8704A934275D014D86F4A9342C3
S315080024C000F0888004D8694A93426CD04B456AD09C
S315080024D0142316A884F84630FFF77EFD002865D138
S315080024E041F20807C5E7664A934279D0F0D8654AAB
S315080024F0934258D0644A9342E9E75D4A9342CBD067
S3150800250006D8624A9342E3D10F2384F84630B0E7EF
S315080025105F4A934247D05F4AEDE7102384F8463076
S31508002520236DC4E91632A4E7574A93424AD02BD8FA
S31508002530514A934244D022D84B453FD04F4A934202
S3150800254044D016A8FFF748FD00284BD01323169849
S3150800255084F84630C4F88C00FFF746FD94F84230FC
S315080025609A0686D5002884D04368002B81D0204659
S3150800257098470890089B002B3FF47BAF16E0414A2A
S315080025809342DED10323C0E7414A93421CD010D8B8
S315080025903B4A934220D0364A9342D2D194F84330EC
S315080025A0002B3FF479AF142384F8463041F2010733
S315080025B05FE7384A9342C4D10823A6E70A23A4E76B
S315080025C00523A2E70623A0E70C239EE794F84330E9
S315080025D0002BE8D1112398E794F84330002BE2D179
S315080025E0122392E7142384F8463094F84330002BDC
S315080025F03FF476AF41F204073BE7D4F848A000F071
S31508002600B5FB80230221CDE9000317AA3B465046B5
S3150800261000F09EFA8AE6012384F8433084F84630AF
S3150800262061E616AA2046CDE9007713A9FFF709FD4A
S3150800263041F203030A900A9A9A4201D00A9BD1E60C
S315080026400DF1580C06F108030DF1700E624603CA27
S31508002650724518605960944603F10803F6D110686C
S315080026601860337843F00103337077E6EB17A60357
S31508002670FC0404FCF90707F9F40A0AF4F30B0BF354
S31508002680F70A0AF7F50909F5F60808F6FA0606FA42
S31508002690FD0303FDFE0101FEEB17A65E337843F04A
S315080026A004033370199BB36273785B0726D5EB2353
S315080026B08DF8583017238DF85930A6238DF85A30DF
S315080026C05E2300208DF85B30236D6066C4F8843085
S315080026D094F8453043F0020384F84530EF686FB14B
S315080026E004222B6816A9B8470822606E2B68EF6883
S315080026F018A91044B847636E103363660B2384F831
S315080027004630636D072B3FF630AE012318AACDE994
S3150800271000332046082313A9FFF793FC41F203036D
S315080027200B900B9A9A42B9D00B9B5BE6337843F031
S3150800273002033370169B7360236D083B7362179B05
S31508002740B3F1006F05D0142384F8463041F2010333
S3150800275048E6042384F8463094F8453043F00103EC
S3150800276084F84530002363661CE6042316AA20462F
S31508002770CDE9007713A9FFF764FC41F203030D9036
S315080027800D9A9A4201D00D9B2CE6236D042B02D993
S31508002790169B23660127636D032BE6D9092384F864
S315080027A04630E2E500236366072337E79F42FFF4D6
S315080027B0F2AD402B28BF40239F4228BF1F46032F58
S315080027C088BF27F003073B4616AA2046CDE90088AE
S315080027D013A9FFF736FC41F203030E900E9A9A42AC
S315080027E001D00E9BFEE594F846B0BBF1070F04D165
S315080027F0D5F808A0BAF1000F1BD1042FC7F1040AB7
S3150800280088BF4FF0000A16AB5246FF21D81901F0CF
S3150800281026FBBBF1090FBA4414D12B465246204673
S3150800282016A9FFF7C1FC0E900E9B002B3FF4A2AD34
S31508002830D7E73A462B68606E16A9D047626E3A44C7
S31508002840626697E5BBF1040F20D173789F077FF581
S3150800285091ADEB68002B3FF48DAD626E042A0BD860
S315080028600AEB0203062B07D917AB9B1A1A68C4F89A
S3150800287084204FF0FF321A60EF6852462B68606E6C
S3150800288016A9B847676E5744676673E5BBF10B0F21
S315080028907FF470AD737858077FF56CADEF68002F3D
S315080028A0EBD167E594F8427017F0200707D0D4F803
S315080028B08C00FFF799FB074600283FF447AF4FF017
S315080028C0010A42E04BB347B33B6933B32046984706
S315080028D0DDE9143294F840809B1A43448342FFF49E
S315080028E05AADD4E91421A2EB0108B8F1400F28BF6C
S315080028F04FF04008984528BF984616AA43462046F2
S31508002900CDE900AA13A9FFF79CFB41F203030F9038
S315080029100F9A9A4203D00F9B64E50120D8E794F8F2
S315080029204230990611D5002F3FF410AFD7F808B0FA
S31508002930BBF1000F3FF40AAF2B464246204616A9C4
S31508002940D8470F900F9B002BE5D1D4E9142194F8B2
S315080029504230914203F02003B4D3002B3FF47BAD01
S31508002960002F3FF478ADFB68002B3FF474AD294681
S31508002970204698470F900F9B002B3FF46CADCAE793
S315080029804FF000618A6A496B1269503A91423FF6E4
S31508002990DDAE112B0FD194F81831002B7FF45BAD07
S315080029A041F206031093109A9A4202D1142384F82E
S315080029B04630109B16E594F84430002B7FF44BAD57
S315080029C0CDE9003316AA4023204613A9FFF739FBA1
S315080029D041F203031090109A9A42EAD1E06C00F093
S315080029E085F994F81831A3B104F1B403E06C0093A7
S315080029F01EAA04F1940316A900F0E6F81090109B9D
S31508002A009BB10023F370142384F8463041F2060381
S31508002A10E8E4E76C00F06EF9039000F089F9039B8F
S31508002A2000901EAA384616A9E6E70123F37084F833
S31508002A30443010E5002316AACDE9003320460423C6
S31508002A4013A9FFF7FEFA41F203031190119A9A426D
S31508002A5002D0119B059313E5D4F888202E4B9A4291
S31508002A6005D0142384F8463041F20503F2E7012322
S31508002A70F37094F84530DA0707D5EF682FB10422CA
S31508002A802B68104604F18401B84794F845309B0733
S31508002A9007D5EF682FB104222B68104604F184018C
S31508002AA0B847236E6BB36F685FB34FF0FF3304F11B
S31508002AB08001042212A81293029101F099F920B11B
S31508002AC004222B6802991548B84704F168090422BC
S31508002AD0494612A801F08CF998B14FF000639B6A39
S31508002AE01422D3F8108004F16C0108F10800D5E926
S31508002AF00037B847D5E900370422494608EB0200F3
S31508002B00B8470123B3700E2384F846300023A1E7A3
S31508002B1041F20700B5E400BFE320BBDE04800008ED
S31508002B2030B50824094B00255C66012403F5FE230D
S31508002B305C6001449D601A61DC60884201D1586A74
S31508002B4030BD10F8012B1A62F7E700BF009000406D
S31508002B50F7B516464FF480621D46114B04469A6631
S31508002B6020300F46019000F0FFFFDDE908120198BA
S31508002B7000F0FEFF002384F8587063643368C4F8D5
S31508002B8059307368C4F85D30B368C4F861302B0CEB
S31508002B906DBA84F86530A4F8665003B0F0BD00BF7E
S31508002BA0009000401FB50C46194600F14803CDE9D0
S31508002BB00142009300F1440200F15803203001F06D
S31508002BC053F804B010BD00002DE9F04315464FF444
S31508002BD080621C46364B99B0DDF880900E46074653
S31508002BE09A66002861D000295FD0002D5DD0002CA0
S31508002BF058D0304B304AB9F1000F14BF984690466A
S31508002C001C22002111A801F02AF92C4B414610A8D4
S31508002C10109300F030FF202110A800F02CFF0122AD
S31508002C20274B019402920393CDF8109005920693D0
S31508002C3054B1B9F1000F07D001A910A800F007FF99
S31508002C4004A910A800F003FF079701271C4C07A941
S31508002C5010A80897099400F0FAFE0AA910A80A967F
S31508002C600B970C940D950E970F9400F0F0FE0DA996
S31508002C7010A800F0ECFE10A800F006FF114B009318
S31508002C804FF098435A6CD202FCD55B6D40F2046053
S31508002C9003F470230093009B002B08BF002019B093
S31508002CA0BDE8F083DFF81080AAE740F20160F6E796
S31508002CB0009000401F2400801F24FC8400000106A9
S31508002CC020000020785634124FF4806210B504466E
S31508002CD0044B9A6600F002F92046BDE81040002130
S31508002CE000F000B90090004000F001B9014600F07C
S31508002CF00BB900004FF4806200B50B4B91B09A6691
S31508002D006946002340224FF4807000F0DBFEB0F5E0
S31508002D10A02F07D0B0F5302F044818BF002011B0F7
S31508002D205DF804FB0148FAE7009000404CE31708F9
S31508002D304FF4806200B50B4B91B09A666946002342
S31508002D4040224FF4807000F0BDFEB0F5A02F07D0EA
S31508002D50B0F5302F044818BF002011B05DF804FB09
S31508002D600148FAE7009000406CE3170800487047EE
S31508002D7086E217082DE9F34799460A9B0C46196817
S31508002D8005463F29164642D85A68002A41D0224AA3
S31508002D90002E14BFB046904601F03F07091928BF18
S31508002DA05A68196024BF01325A60AFB1C7F1400AA8
S31508002DB0A24521D82946524609EB070001F028F812
S31508002DC00123414600934A463346002000F0A4F802
S31508002DD0B046403C55443C443F2C0CD9A3092A46EE
S31508002DE0009341463346002000F096F824F03F034E
S31508002DF01D4404F03F0400272CB12246294609EB5E
S31508002E00070001F005F8002002B0BDE8F0879046FB
S31508002E10C2E7DFF80480BFE75C3F000830B4054628
S31508002E20084611461A46DDE9023425B931B102943D
S31508002E3030BCFFF79FBF024830BC70470846FBE727
S31508002E4080AFFFFF2DE9F0411746146886B01E468D
S31508002E50E3008DF80F30630952688DF80E30630B66
S31508002E608DF80D30630D8DF80C30D30003EB5473D9
S31508002E708DF80B3004F03F045309372C8DF80A30CF
S31508002E804FEA52334FEA525205468DF808208846D3
S31508002E9094BFC4F13802C4F17802CDE900178DF861
S31508002EA009300D4903460020FFF7B8FF08214346BD
S31508002EB02A4600970DEB0100FFF75CFF284605F14F
S31508002EC0200350F8042B984246F8042BF9D1002029
S31508002ED006B0BDE8F08100BF7C3F000868220021EB
S31508002EE000F0BDBF0023C0E900331846704707B598
S31508002EF000F128030190009300F108030020FFF772
S31508002F008DFF03B05DF804FB02460B4600F128016D
S31508002F100830FFF797BF0000F0B517464FF48062F8
S31508002F201D46254B93B00E469A660446202200217C
S31508002F300AA800F094FF01204FF000520197029072
S31508002F400392049605900692079508900992002C1C
S31508002F502FD1189C194BA40121460AA80A9300F000
S31508002F608AFD03990AA80C430394069B04A943F017
S31508002F7020030693099B43F02003099300F067FD9D
S31508002F8001A90AA800F063FD07A90AA800F069FDCF
S31508002F900AA800F079FD4FF098435A6CD202FCD586
S31508002FA05B6D13F4702F0CBF00206FF06F0013B029
S31508002FB0F0BD6FF07100FAE70090004000040103CD
S31508002FC010B500244A1EA1424FEA82024FF0FF01C3
S31508002FD008BF224640F8044B00F041FF204610BDCA
S31508002FE0036840F204500133022B38BF00207047B3
S31508002FF040F20250704770477047000010B5ADF5B3
S315080030000E7D4FF40D72002001A900F067F940F219
S315080030100124002101A800F098F8A042F9D040F256
S31508003020032398421FD19DF8043059070CD49DF804
S3150800303004309A071CD4DB0715D504998A9800F042
S31508003040BFF980B1002010E00B98FDF7DBFA0028E5
S31508003050EDD08A9800F072F90028E8D00D48FDF7FF
S3150800306073FA0028E3D140F205400DF50E7D10BD38
S315080030704FF00062926A029992689142DBD98A9867
S3150800308000F07AF90028EED00A990248FDF714FAFA
S31508003090E9E700BF00800008FFF7B0BF31B10A4B6F
S315080030A05A68824205D80023C1E9003340F201403C
S315080030B07047013053F8302003EBC00043680A60BC
S315080030C000204B60704700BFDC40000801221A70E0
S315080030D07047000070B40C4611460C4A5568854284
S315080030E00DD9013002EBC0067668E518B5420AD854
S315080030F052F830001A46204470BC00F075BA40F207
S31508003100014070BC704740F20240FAE7DC40000814
S3150800311030B504460D46A3B0D0F82C1202AA802377
S31508003120D0F82402FFF7D6FF80232146009502AA8D
S3150800313004F12C00FFF7CAF8D4F82C32C4F8300290
S315080031408033C4F82C3223B030BD1FB50023CDE937
S315080031500033CDE90213D0F83032044693B9D0E9EA
S315080031608A329A420ED26946FFF7D2FFD4F8300265
S3150800317098B141F2070240F20123904208BF18466F
S3150800318004B010BDA3785BB140F2022040F20323DD
S31508003190E278002A18BF1846F2E740F20120EFE766
S315080031A040F20220ECE7000070B50D46002186B01B
S315080031B00DF1070302931F4B044616461160284675
S315080031C01C22CDE903338DF80710059300F047FE5E
S315080031D094F87230132B28D0D4F830322BBBD4E9AC
S315080031E08A21914207D2204602A9FFF791FF9DF84E
S315080031F00730002BECD02278910744BF6168316014
S31508003200D20709D504F1080204F1240152F8040B87
S315080032108A4245F8040BF9D14BB9237840F20640A7
S31508003220002B18BF002006B070BD0023E3E700207E
S31508003230F9E700BFCD30000870B40C4611460C4AB9
S31508003240556885420DD9013002EBC0067668E51847
S31508003250B5420AD852F830001A46204470BC00F02D
S31508003260E5B940F2014070BC704740F20240FAE707
S31508003270DC400008074B5A68824207D9013003EB45
S31508003280C002516853F8300000F02ABA40F20140F3
S31508003290704700BFDC40000870B5054688B0C0B16D
S315080032A04FF4403200236C46C0E900230A4B05F16F
S315080032B014061A785B680272C360684600F01AF949
S315080032C00FCC0FC694E80F0086E80F0005F114032B
S315080032D02B6108B070BD00BFDC40000837B50C464E
S315080032E0054611462046FDF771FA48B9694628464B
S315080032F0FFF7D4FE20B9019BC4F82452C4F828323B
S3150800330003B030BD38B500F5DE7204460D462023FD
S3150800331000F5AA712C30FEF79DFFD4F830321BB9A0
S31508003320D4E98A329A4203D3A07800B1E07838BD4E
S3150800333029462046FFF7ECFEEFE7000000B5ADF59D
S31508003340137D4FF40D7205A9FFF7C8FF78B904235A
S315080033508DF81530074BCDE90100039001A905A8A2
S315080033600493FFF7CFFF0DF5137D5DF804FB0020EE
S31508003370F9E700BFC50200084FF0006300B59B6A75
S31508003380ADF5137D9B688B4204D300200DF5137DA4
S315080033905DF804FB4FF40D7205A9FFF79FFF00289F
S315080033A0F3D102238DF81530044BCDE901000390C3
S315080033B001A905A80493FFF7A5FFE7E7C5020008DA
S315080033C000B5ADF5137D4FF40D7205A9FFF786FF1D
S315080033D078B901238DF81530074B0190CDE90230F5
S315080033E0049001A905A8FFF78DFF0DF5137D5DF87B
S315080033F004FB0020F9E700BFA302000838B5FDF773
S31508003400C3FB9F20FDF76EFBFDF798FB0546FDF70E
S31508003410A1FB0446FDF7C2FB9D2D17D0C22D03D094
S315080034201F2D0CD0002038BD42F614039C4214D040
S3150800343042F6160084420CBF0A200020F3E748F241
S31508003440014084420CBF0E200020ECE744F2130032
S3150800345084420CBF17200020E5E70720E3E708B5FC
S31508003460FDF792FB0620FDF73DFBBDE80840FDF79A
S3150800347095BB08B5FDF7E0FAFFF7BDFD42F21070FF
S31508003480FDF7BAFAFDF780FBAB20FDF72BFBFDF73E
S3150800349085FB47F23050FDF7AFFAFFF7AFFF88B16B
S315080034A00C38C0B201280BD8FFF7D9FFFDF76CFB23
S315080034B00120FDF717FB0020FDF714FBFDF76EFB57
S315080034C0002001E040F2011008BD10B5FDF75CFBD5
S315080034D00520FDF707FBFDF731FB0446FDF75EFB0C
S315080034E004F0010010BD08B5FFF7EFFF0028FBD177
S315080034F008BD000070B588B00646FFF7F4FF202225
S315080035000021684600F0ABFCFFF778FF0E2820D0B4
S315080035100CD807280FD00A2818D035466C460FCC89
S315080035200FC594E80F0085E80F000CE01728F4D1C2
S315080035303446094D01E03446084D0FCD0FC495E8D1
S315080035400F0084E80F00304608B070BD3446044DBD
S31508003550F3E73446034DF0E77C400008BC4000081A
S315080035609C4000085C40000810B50446FFF7BBFF06
S3150800357054B9FFF743FF0138C0B2162896BF064B69
S31508003580002053F8200010BD20780028F3D1FFF75B
S3150800359035FF2070EFE700BF0040000838B5054644
S315080035A010460C46FFF7E0FFA04207D3A84205D312
S315080035B02C4484428CBF0020012038BD0020FCE743
S315080035C013B50C460190FFF78EFFFFF748FFFDF78E
S315080035D0DBFA0198FDF786FA2046FDF78FFA02B066
S315080035E0BDE81040FDF7DABA70B514460D4600225C
S315080035F021460646FFF7D2FFA8B1FFF774FFFDF78D
S31508003600C3FA0320FDF76EFA3046FDF777FA2C4425
S31508003610A54203D1FDF7C2FA002070BDFDF78EFA68
S3150800362005F8010BF4E740F20240F6E72DE9F04110
S3150800363014460F46002221460646FFF7AFFF00282C
S3150800364046D0FFF750FFFDF79FFA0320FDF74AFA29
S315080036503046FDF753FA25468DB9FDF79FFAF3B2C2
S3150800366053B326F0FF0505F580753319AB4232BF13
S315080036702546AD1BADB25CB92046BDE8F081FDF725
S315080036805DFAFF2805F1FF35E6D040F20340F4E77E
S31508003690FFF729FFFFF7E3FEFDF776FA0220FDF7AD
S315080036A021FA3046FDF72AFA07EB0508B8450AD18C
S315080036B0FDF774FA641B2E44B4F5807F254628BFAF
S315080036C04FF48075D7E717F8010BFDF70BFAEDE70E
S315080036D040F20240D1E74FF0FF307047FDF768BA75
S315080036E000232DE9F34105460DF107008DF8073053
S315080036F00C46FFF739FF9DF807300646A3F10F027F
S31508003700032A2CD9133BDBB2012B47F6FF734FF67E
S31508003710FF778EBF4FF480381F464FF4004840F6B7
S31508003720FF7344EA05021A423DD1214628460DF1A7
S315080037300702FFF733FFC8B30DB9A64215D02544D3
S315080037402E1BECB137421FD1444524D22644311BE7
S31508003750B4B12020FFF734FFA4F58054F7E74FF6FD
S31508003760FF774FF480383B46DBE7FFF7BCFEFFF7F1
S3150800377076FEFDF709FAC720FDF7B4F9FDF70EFA4C
S31508003780002002B0BDE8F08131462020FFF718FF7F
S31508003790A4F58054D4E73146D820FFF711FF4644F4
S315080037A0A4EB0804D0E740F20440EAE740F20240FE
S315080037B0E7E708B5FFF797FEFDF7E6F9B920FDF745
S315080037C091F9FDF7EBF9FFF717FC002008BD00009B
S315080037D0430905D0012B0DD0022B094B18BF002336
S315080037E000F01F0041B103F58053012202FA00F0F0
S315080037F018607047034BF3E703F50053F5E700BF7E
S315080038006880004064800040EFF3108072B670470D
S3150800381000B962B6704770B5054614460E46FFF7FE
S31508003820F3FF296881EA040202EA06044C402C6088
S31508003830BDE87040FFF7ECBF2DE9F04105460F469D
S315080038401E4690464AB101233022194C8B4002FB92
S3150800385000443EB304F5825423600F21072F05EB7D
S31508003860450388BFA7F108044FEA0313114895BF1B
S31508003870BC00A40004330C3308FA04F2A14018442F
S31508003880FFF7C9FFB8F1000F0AD101213020084A15
S3150800389001FA07F700FB05223EB102F582521760CE
S315080038A0BDE8F08104F50154D6E702F50152F6E7C2
S315080038B000C0034030C00340F0B5114A114C124E07
S315080038C000F00105E3695F0713D40DB9334213D13C
S315080038D003EA00078F4207D10B4A1A40002A14BF91
S315080038E06FF001000020F0BD013AEBD16FF0020045
S315080038F0F9E74FF0FF30F6E76FF00100F3E700BF96
S315080039008096980000000340020001004FF48032C0
S3150800391038B50E4B0E4C9A66E56941F6713315407B
S315080039200122E3630B4B0021DA6002236061212048
S315080039302361FFF7C1FF10B92120FFF7BDFF012260
S31508003940054BDA600DB10023E36338BD00900040F3
S315080039500000034000100340002003402DE9F04F0B
S3150800396006464FF430250120B400DFF8C0C004F144
S31508003970402404F58024CCF8040065603025002432
S315080039804FF48037DFF8A8E0DFF8A89005FB06E5D6
S31508003990EC652C662C67234CDFF89CA0A76641F6DD
S315080039A0713704F51C34D4F81C80E763E76800FA1D
S315080039B006F60743E7604BB9E26818F4803F22F041
S315080039C00102E26000D0E363184628E001F50050E2
S315080039D000EA0900401A984228BF18466161D4F8DF
S315080039E01CB087081BF0040F17D1013F3F0147F0B1
S315080039F060576F66AA66C5F86CA0CCF82460DEF836
S31508003A0034703E42FBD0084F01447E630427CCF84D
S31508003A102860024427611B1ACDE74FF0FF30BDE846
S31508003A20F08F00BF009000400020044000100440C2
S31508003A300000044000E0FFFF180003404FF09843E1
S31508003A405A6CD202FCD5586D00F470207047436852
S31508003A5013B9416070475B685A68012AFBD15960FF
S31508003A607047836813B9816070475B685A68012A92
S31508003A70FBD159607047C369032B9FBF00EB8302D4
S31508003A800133D160C3617047C369042B15D84FF061
S31508003A909842116CC902FCD504339B001365016872
S31508003AA0103B116041680C30116050F8041C034447
S31508003AB011604FF09842984200D1704750F8041BA5
S31508003AC01160F8E7F0B507460F4D10488DB0002B8A
S31508003AD008BF05460E46144600211C2205A800F01C
S31508003AE0BEF9012304A801A93D4344F000540196F8
S31508003AF0049502930394FFF7B4FFFFF7C5FFFFF79A
S31508003B009DFF0DB0F0BD00BF01000AFF010008FFD0
S31508003B1083691B06FCD5406AC0B2704783695A069A
S31508003B20FCD5C16383699B06FCD5406AC0B2704761
S31508003B3083695B06FCD5C16370470000000000007E
S31508003B40013800D0FCE770474FF48062014B002033
S31508003B509A667047009000404FF48062014B00203F
S31508003B609A66704700A000402422002100F077B929
S31508003B7070B515460E4624220021044600F06FF95A
S31508003B8025F04003802B02D0B5F5807F08D120466A
S31508003B90314640F8045BEA0800F03AF9002070BDA7
S31508003BA06FF01F00FBE700002DE9F04104681E4690
S31508003BB024F04003802B05468846174692B002D06B
S31508003BC0B4F5807F43D11C2200210BA800F047F9E9
S31508003BD0224A234B0121B8F1010F18BF13460A9355
S31508003BE02B1D0193E4081F4B44F0005402910AA8C8
S31508003BF003940497059106930796089101A90993DA
S31508003C00FFF725FF04A90AA8FFF721FF07A90AA8B5
S31508003C10FFF727FF29680AA8C908FFF72CFF102114
S31508003C200AA8FFF728FFFFF78FFF98B90AA8FFF73A
S31508003C302BFF4FF098435A6CD202FCD55C6DFFF708
S31508003C408BFF04F47024204612B0BDE8F0816FF0B3
S31508003C507100F9E74FF0FF30F6E700BF00010104F5
S31508003C6000010004100000202DE9F04F9BB0074624
S31508003C70894698461646DDF894B072B115683B68D1
S31508003C8023F04002802A03D0B3F5807F40F0A68057
S31508003C900BEB0903002400930DE01546EFE795B1F9
S31508003CA0249A1BF80430525D01355340269A05F0D4
S31508003CB00F05135501344C45F1D3002E00F09180C1
S31508003CC00020356067E0A9EB040ABAF10F0F57D94F
S31508003CD01C22294613A800F0C2F8434B3A681293EF
S31508003CE03B1D03930123D20842F000520493059228
S31508003CF03E4A2699CDF818802AF00F0A07930892AB
S31508003D00CDF824800A930B920BEB04020C92214403
S31508003D104AF000520D9312A80E920F9103A9109320
S31508003D201192FFF794FE06A912A8FFF790FE0CA9B8
S31508003D3012A8FFF78CFE0FA912A8FFF792FE09A991
S31508003D4012A8FFF78EFE396812A8C908FFF793FE76
S31508003D50514612A8FFF78FFEFFF7F6FEC8B912A85C
S31508003D60FFF792FE4FF098435A6CD202FCD55B6D72
S31508003D70544403F470230193FFF7EEFE019B5BBBEB
S31508003D80269B0BEB040A1C44009B9A4506D14C461D
S31508003D9091E74FF0FF301BB0BDE8F08F8DB9424672
S31508003DA001213846249BFFF7FFFE0028F3D108F1CE
S31508003DB0100212F8013D0133DBB213700BB99045BE
S31508003DC0F7D1249A1AF8013B525D0135534004F89D
S31508003DD0013B05F00F05D7E71846DCE76FF01F0033
S31508003DE0D9E73046D7E700BF0303000410000020D8
S31508003DF00139024410B5904201D1002005E003784C
S31508003E0011F8014FA34201D0181B10BD0130F2E78B
S31508003E100A44431E914200D1704710B511F8014B70
S31508003E20914203F8014FF9D110BD884210B501EB54
S31508003E30020402D98442234607D8431EA14208D069
S31508003E4011F8012B03F8012FF8E7024401468A42CC
S31508003E5000D110BD13F8014D02F8014DF7E70244F1
S31508003E600346934200D1704703F8011BF9E70000A7
S31508003E70F8B500BFF8BC08BC9E467047F8B500BF49
S31508003E80F8BC08BC9E467047B814B6F1E0CFF3AD4F
S31508003E90B7DD25C9FA79B7130000000007B0CD5E73
S31508003EA002000000000001020C410000006000084A
S31508003EB000001808F00401002D0600083106000865
S31508003EC0A9030008CD070008FD070008BC3F000845
S31508003ED037080008AD08000800000000350600088D
S31508003EE02506000813B779FAC925DDB7ADF3CFE083
S31508003EF0F1B614B8010200000000000008410000F5
S31508003F004000000000000102000000000000000060
S31508003F100000000000000000000000000000000093
S31508003F200000000000000000000000000000000083
S31508003F30000000000400000700000D1013001A20FE
S31508003F402630384050000000FD0707FD810D0008A7
S31508003F50B10D0008550E0008490E00086A09E66703
S31508003F60BB67AE853C6EF372A54FF53A510E527F8C
S31508003F709B05688C1F83D9AB5BE0CD1980000000D8
S31508003F800000000000000000000000000000000023
S31508003F900000000000000000000000000000000013
S31508003FA00000000000000000000000000000000003
S31508003FB000000000000000000000000000010000F2
S31508003FC0993200089D300008D530000839320008BB
S31508003FD075320008E12F0008C12F0008F12F0008EC
S31508003FE0DD3200084B310008A9310008CB3400083F
S31508003FF0E93500082D360008E1360008D7360008EE
S31508004000000010000000040000001000000004007A
S31508004010000008000000100000001000000020004A
S31508004020000020000000400000008000000008009A
S31508004030000010000000080000000400000008004E
S3150800404000001000000020000080000000000100B1
S31508004050000002000000040000000800010203003E
S315080040609A0100000030000000100000000008005F
S315080040700000000001000000000200000102030029
S315080040809A010000000C0000001000000000080063
S31508004090000000000100000001000000010203000A
S315080040A09A01000000E00100001000000000400036
S315080040B000000000010000000020000001020300CB
S315080040C09A010000007800000010000000001000AF
S315080040D000000000010000000000010000000000D0
S311080040E0010000000000000000001000B5
S311080040ECF840000808100020040000003E
S315080040F8510C0008890C0008950100087101000890
S70508000201EF
