S0490000626F6F746C6F616465722D73746F726167652D737069666C6173682D73696E676C652D313032346B2D42524434333034412D6773646B342E312D636F6D62696E65642E733337E1
S3150FE100000F4880F308880F48004700008105E10F8C
S3150FE100108105E10F8105E10F8105E10F8105E10F12
S3150FE100208105E10F8105E10F9C05E10F8105E10FE7
S3150FE100308105E10F8105E10F8105E10F8105E10FF2
S3150FE10040004000203505E10F10B5054C237833B993
S3150FE10050044B13B10448AFF300800123237010BDA5
S3150FE100601001002000000000B005E10F08B5034BB9
S3150FE100701BB103490348AFF3008008BD0000000040
S3150FE1008014010020B005E10F044B054A9A60D3F83D
S3150FE10090882042F47002C3F88820704700ED00E033
S3150FE100A00000E10F094A0A4BD969C90705D512B90B
S3150FE100B06FF002007047013AF6E7002AF8D0012205
S3150FE100C01861DA60D86940F380007047809698002E
S3150FE100D000000E4070B5C1B10E4A0023082550F855
S3150FE100E0234094610C4CD5600133D669F60705D5EB
S3150FE100F014B96FF0020009E0013CF6E7002CF8D0E5
S3150FE10100D469A40703D49942E9D1002070BD6FF0F9
S3150FE101100100FBE700000E40809698002DE9F843B9
S3150FE101201C4B884641F671311D6C19641A49074615
S3150FE1013048684968996841F00101ADB2996096083E
S3150FE101404FF00009B14501D3002005E007EB890423
S3150FE101502046FFF7A7FF48B10E4B9A6822F001023E
S3150FE101609A600DB100221A64BDE8F883C4F30A045C
S3150FE10170C4F50064A408A6EB0901A14228BF2146F4
S3150FE101804046FFF7A7FF0028E6D1894408EB81082F
S3150FE10190D8E700BF00000E4000300E40234B41F67A
S3150FE101A071311A6C10B5196421494C68496899681F
S3150FE101B041F00101996001211861D960D9694C07B4
S3150FE101C092B209D5996821F0010199600AB100222D
S3150FE101D01A644FF0FF3026E00221D9601549D8693C
S3150FE101E0C00700D569B9D86910F002000BD099683C
S3150FE101F021F0010199600AB100221A646FF0010042
S3150FE1020011E00139EBE741B9986820F001009860F8
S3150FE1021002B119646FF0020005E0996821F001015E
S3150FE1022099600AB1186410BD1046FCE700000E4054
S3150FE1023000300E4080969800FFF770BF08B50A4B65
S3150FE102401A680A4B1A600A4B40221A615A6852031E
S3150FE10250FCD400F07DF80028FBD040F2022000F03C
S3150FE10260C9F8002008BD00BF0401002000010020ED
S3150FE1027000300E4010B5104C104BA36000F0D8F8CB
S3150FE102800F4B5B68B3F5803F09D040F209239842E3
S3150FE1029002D0B0F5007F02D100F016F850B9094B44
S3150FE102A0A3601846016881F3088881F309884068DD
S3150FE102B08746FEE710BD00BF00ED00E00000E10F4D
S3150FE102C000500E400008E10F2DE9F041DFF87C8088
S3150FE102D0D8F828201069D568836AAB4202D200208C
S3150FE102E0BDE8F08105F510429A42F8D95B1BC618B5
S3150FE102F0C758144B9F42F2D1F1684FF0FF3200F02D
S3150FE10300FFF8114B98420446E9D1D8F82838A3F102
S3150FE103107E62A2F58432B2F5104F10D21A68BA4254
S3150FE103200DD1B1689A68914209D8D9684FF0FF3279
S3150FE10330284600F0E5F8001B18BF0120D0E70120A1
S3150FE10340CEE700BF07B0CD5EE320BBDE0000E10FD5
S3150FE10350F8B5194B9B6AD3E90347BB6A1B1BFD181B
S3150FE103602646EA68A318B3421DD83946204600F05F
S3150FE1037092F8B8B1104BD3F82838A3F17E62A2F503
S3150FE103808432B2F5104F14D219680C4A914210D14A
S3150FE10390D9684FF0FF32204600F0B2F8084BC31A86
S3150FE103A058425841F8BD304600F06EF806F5006642
S3150FE103B0D7E70020F6E700BF0000E10F07B0CD5EFB
S3150FE103C0E320BBDE4FF000534AF6C0305B8823F0E3
S3150FE103D00F039BB21B1A5842584170474FF0005218
S3150FE103E008B51080FFF7EEFF10B94FF20F035380F8
S3150FE103F008BD000008B5FFF7F1FF0A4A136823F4B9
S3150FE10400E06343F400731360BFF34F8F0649074B65
S3150FE10410CA6802F4E0621343CB60BFF34F8F00BFAC
S3150FE10420FDE700BF00500E4000ED00E00400FA05C5
S3150FE104304FF000534FF20F015A888A4201D11888C3
S3150FE1044070473AB91B88012B40F2022018BF4FF4CF
S3150FE10450007070474FF40070704707B503469B076E
S3150FE1046053BF6FEA01414FF6FF7343EA01416FEA6A
S3150FE1047011410422019120F003000DEB0201FFF778
S3150FE10480DBFE03B05DF804FB08B5FFF787FEB0FAB4
S3150FE1049080F0400908BDF8B505460E4614460AB97F
S3150FE104A00120F8BD42EA0003DA0701D50020F8E79B
S3150FE104B0830721D50988FFF7D0FF0028F6D1023C43
S3150FE104C0032C05F1020506F102060BD924F0030709
S3150FE104D03A4631462846FFF7AFFE0028E6D13E44BD
S3150FE104E03D44E41B002CDBD031882846FFF7B5FFEE
S3150FE104F0B0FA80F04009D4E7032CE7D8F4E700001F
S3150FE1050010B50A4CD4F8B03043F04003C4F8B0301C
S3150FE10510074B01241C6001449A605C60884201D15B
S3150FE10520D86910BD10F8012B9A61F7E700400E402C
S3150FE1053000C001400B4880470B4880470B490C4AE6
S3150FE105400C4B9A42BEBF51F8040B42F8040BF8E785
S3150FE1055009490A4A00209142BCBF41F8040BFAE768
S3150FE10560FFF76CFE8900E10F7502E10FB405E10FAC
S3150FE105700001002010010020100100202C010020B5
S3150FE10580FEE700BFF8B500BFF8BC08BC9E46704752
S3150FE10590F8B500BFF8BC08BC9E467047AD1007B072
S3150FE105A00100000000000C010008E10F00800000CF
S3150FE105B000000000C0EA2101C0EA21016D00E10F50
S3090FE105C04900E10F08
S3150FE10800001000209D09E10F4D09E10F0F0CE10FDB
S3150FE108104D09E10F4D09E10F4D09E10F4D09E10FCA
S3150FE108204D09E10F4D09E10F144BE10F4D09E10FB1
S3150FE108304D09E10F5C4BE10F4D09E10F4D09E10F59
S3150FE108404D09E10F4D09E10F4D09E10F4D09E10F9A
S3150FE108504D09E10F4D09E10F4D09E10F4D09E10F8A
S3150FE108604D09E10F4D09E10F4D09E10F4D09E10F7A
S3150FE108704D09E10F4D09E10F4D09E10F4D09E10F6A
S3150FE108804D09E10F4D09E10F4D09E10F4D09E10F5A
S3150FE108904D09E10F4D09E10F4D09E10F4D09E10F4A
S3150FE108A04D09E10F4D09E10F4D09E10F4D09E10F3A
S3150FE108B04D09E10F4D09E10F4D09E10F4D09E10F2A
S3150FE108C04D09E10F4D09E10F4D09E10F4D09E10F1A
S3150FE108D04D09E10F4D09E10F4D09E10F4D09E10F0A
S3150FE108E04D09E10F4D09E10F4D09E10F4D09E10FFA
S3150FE108F04D09E10F4D09E10F4D09E10F4D09E10FEA
S3150FE109004D09E10F4D09E10F4D09E10F10B5054C09
S3150FE10910237833B9044B13B10448AFF300800123B5
S3150FE10920237010BD1010002000000000004EE10FF3
S3150FE1093008B5034B1BB103490348AFF3008008BD6C
S3150FE109400000000014100020004EE10FFEE700004A
S3150FE10950064B0748DA1C121AC11E22F0030299420E
S3150FE1096088BF0022034904F08FB800BF10100020A2
S3150FE10970001000200C4EE10F064B0748DA1C121A45
S3150FE10980C11E22F00302994288BF0022002104F022
S3150FE10990A3B800BFAC5D00201010002008B500F031
S3150FE109A009F800F0AFF9FFF7D3FFFFF7E5FF00F026
S3150FE109B033F90000044B054A9A60D3F8882042F4D4
S3150FE109C07002C3F88820704700ED00E00008E10FE0
S3150FE109D0C0F30A032DE9F04105460F4616460BB95A
S3150FE109E000F0E1FA05F5006424F4FF6424F007044E
S3150FE109F005EB0608A04507D83246394628460223B5
S3150FE10A00BDE8F04100F0D6BA204600F0CCFA04F585
S3150FE10A100064EFE770B4084DD5F828582E69864281
S3150FE10A20034606D86C6913449C4202D370BCFFF7A8
S3150FE10A30CFBF70BC704700BF0000E10F30B5144661
S3150FE10A40154A936A1D68154B9D4285B021D100F574
S3150FE10A50004310F5004F03931BD2039BB3F5801FA1
S3150FE10A6017D2039BC3F58013A34212D350B9D2F821
S3150FE10A7028385A69B2F5004F04D91869019100F087
S3150FE10A8092FA01990398224605B0BDE83040FFF787
S3150FE10A909FBF05B030BD00BF0000E10FAD1007B03D
S3150FE10AA0F0B5421ED11C85B0034619D80D4C6E46E2
S3150FE10AB004F1100720686168354603C50834BC4266
S3150FE10AC02E46F7D10DF10F010F3311F8010912F887
S3150FE10AD0014F844204D19A42F7D1012005B0F0BD0E
S3150FE10AE00020FBE7004BE10F036913F0FE0F0CBF8C
S3150FE10AF00120002070470000F0B5036803F1604361
S3150FE10B00B3F5802FA1B0044662D8334A4368D2F8D1
S3150FE10B10282816699E425BD8B3F5801F58D8456BD6
S3150FE10B2006F14003AB4255D8B5F5801F52D828469A
S3150FE10B30FFF7B6FF00284DD02846FFF7D5FF80B166
S3150FE10B406F6977B1022F0ED1AB69C4F10401194474
S3150FE10B504FF0FF32204602F03FFA204BC31A5842BC
S3150FE10B60584121B0F0BD40F2046328460593FFF7E3
S3150FE10B7097FF0028F5D02846FFF7B6FF0028F0D0FB
S3150FE10B80012F25D1AD69AE4222D8AC4220D8B5F5B9
S3150FE10B90801F1DD806A802F0ABFA2A1B214606A82C
S3150FE10BA002F0B0FA06A802F0AFFA02F0B1FA03903A
S3150FE10BB002F0B2FA039B009005F12002294606A83E
S3150FE10BC002F056FA05900598B0FA80F04009C8E7A9
S3150FE10BD00020C6E70120C4E70000E10FE320BBDEFA
S3150FE10BE008B54FF0FF3202F0F7F9044B984203D103
S3150FE10BF040F2092000F08CF9002008BDE320BBDEAE
S3150FE10C004FF40040704703F030BA03F0CCBB4FF41A
S3150FE10C10017000F07DB90000354B012213B55A641E
S3150FE10C20344BD3F8FC20344B120E12D14AF6E8516D
S3150FE10C30C3F89011D3F8981141F00401C3F8981154
S3150FE10C40C3F89021D3F8642142F40052C3F864212A
S3150FE10C5001E0012AF6D0294A136A23F4441343F437
S3150FE10C6088131362A2F58042136843F4807313600D
S3150FE10C70214BD3F8A42142F4F842C3F8A4215B68CF
S3150FE10C80FFF7C1FF00F013F908B900F0FEF803F022
S3150FE10C901FF8044658B900F00AF908B100F001F956
S3150FE10CA040F2012000F034F94FF4017018E000F042
S3150FE10CB0FEF808B900F0EFF800F010F9012802D9B3
S3150FE10CC000F0E3F8FEE700F013F90D4B0193019BFA
S3150FE10CD0002B0ADC40F205439C42E5D140F20320AA
S3150FE10CE000F016F9002002B010BD019B013BEDE7C4
S3150FE10CF000000E400081E00F00300E4000400E4034
S3150FE10D0000350C0013B5254B01248DF806408DF8FF
S3150FE10D1007405B685B0510D500F018F9A0F20220D9
S3150FE10D2080B2072809D804FA00F010F0C90F1EBFE8
S3150FE10D3000238DF806308DF8073000246368013300
S3150FE10D4007D14FF4027000F0BEF88DF806408DF82A
S3150FE10D5007409DF807305BB10020FFF7CDFE8DF818
S3150FE10D6006009DF806301BB94FF4027000F0ABF8A0
S3150FE10D709DF8063083B100F09AF808B100F091F8CA
S3150FE10D80074A002393601846016881F3088881F3C7
S3150FE10D90098840688746FEE702B010BD00500E4055
S3150FE10DA000ED00E0B1F5BC7F10B504460FD34FF46B
S3150FE10DB0BC72002103F090FE04F5807204F1B801D4
S3150FE10DC004F128000023BDE8104001F041BD40F2D7
S3150FE10DD0052010BD13B5044600910146283001F0F8
S3150FE10DE061FDC4F8740118B141F20703984209D1C4
S3150FE10DF0A3784BB1E27840F2032040F20223002AB6
S3150FE10E0008BF184602B010BD40F20120FAE72DE9FE
S3150FE10E10F04387B00DF108090446DDF838800E4638
S3150FE10E2017460021102248461D4603F055FE0021C4
S3150FE10E30C8F800101C22284603F04EFE32463B4608
S3150FE10E40CDF80090214604F1280001F02BFD23781F
S3150FE10E509A0744BF6268C8F80020DB0709D504F199
S3150FE10E60080304F1240253F8041B45F8041B9342CB
S3150FE10E70F9D12378002B40F2064018BF002007B0C6
S3150FE10E80BDE8F0834FF4BC7070474FF000534CF25E
S3150FE10E903C325A8070474FF000534AF6C0325A80BF
S3150FE10EA070474FF000534FF20F025A8070474FF0E1
S3150FE10EB000534AF6C0305B8823F00F039BB21B1A2F
S3150FE10EC05842584170474FF0005208B51080FFF76E
S3150FE10ED0EEFF10B94FF20F03538008BD08B5FFF7C8
S3150FE10EE0E6FF20B14FF00053588800F00F0008BD20
S3150FE10EF008B5FFF7DCFF50B14FF00052538803F00E
S3150FE10F000F010F2914BF013323F00F03538008BDDF
S3150FE10F1008B5FFF7D8FF0A4A136823F4E06343F4F1
S3150FE10F2000731360BFF34F8F0649074BCA6802F48C
S3150FE10F30E0621343CB60BFF34F8F00BFFDE700BF06
S3150FE10F4000500E4000ED00E00400FA054FF00053AB
S3150FE10F504FF20F015A888A4201D1188870473AB980
S3150FE10F601B88012B40F2022018BF4FF40070704727
S3150FE10F704FF40070704713B504460B461046A207AF
S3150FE10F8053BF6FEA03434FF6FF7242EA03436FEA39
S3150FE10F9013430193042324F003010DEB030203F042
S3150FE10FA0C5FB02B010BD08B503F072FBB0FA80F0D5
S3150FE10FB0400908BD072B2DE9F04105460E461446BB
S3150FE10FC01F4602D90020BDE8F08101214FF4AA4066
S3150FE10FD003F004FA0CB90120F5E744EA0503DA0751
S3150FE10FE0F0D4AB0726D531883A462846FFF7C3FF3B
S3150FE10FF00028E7D1023C032C05F1020506F10206B2
S3150FE110000DD924F00308434632462946384603F004
S3150FE110108DFB0028D6D146444544A4EB0804002CA9
S3150FE11020D9D031883A462846FFF7A5FFB0FA80F0C6
S3150FE110304009C8E7032CE4D8F3E7000010B50446EE
S3150FE1104000F0CAF8064BB0FBF3F304FB03F00328F9
S3150FE1105004D9BDE81040800803F0FABB10BD00BF0C
S3150FE1106040420F0008B50548012103F0B7F9BDE885
S3150FE1107008400348012103F0B1B900BF00350A006A
S3150FE110800052040010B5FFF7EDFF002304220621FD
S3150FE11090022003F0C1FA022210460023072103F0D2
S3150FE110A0BBFA002304220821022003F0B5FA042239
S3150FE110B0124C01231146002003F0AEFA40F6AA6363
S3150FE110C0E3600023A360E3640D4BA36440F20143A5
S3150FE110D0236041F20503636000F07EF8094B0138A6
S3150FE110E0B0FBF3F0102300026061E3600B2363674B
S3150FE110F003F10B23A3670523E36010BD0004014051
S3150FE11100F9FF01000050C30007B50190FFF7AAFFF1
S3150FE111100199034803B05DF804EB03F083BB00BF0D
S3150FE111200004014038B50E4C0546FFF79BFFC5F3AA
S3150FE111300741204603F080FBC5F30721204603F064
S3150FE111407BFBE9B2204603F077FB204603F064FB15
S3150FE11150204603F061FB2046BDE8384003F05CBB57
S3150FE111600004014008B5FFF77DFFBDE808400248DE
S3150FE11170FF2103F057BB00BF0004014038B50B4D0B
S3150FE11180FFF770FF2846FF2103F056FBFF212846A4
S3150FE1119003F052FB284603F03FFB000284B22846D8
S3150FE111A003F03AFB204380B238BD00BF0004014093
S3150FE111B008B5FFF757FF024B1022DA6008BD00BFF3
S3150FE111C000A0004408B5FFF74DFF024B1022DA608D
S3150FE111D008BD00BF00A0004630B51B4B87B001AA82
S3150FE111E003F1100518685968144603C40833AB4276
S3150FE111F02246F7D11B78154A2370D2F8943003F0C3
S3150FE112000703022B1BD01369C3F30443102B18D822
S3150FE1121018336B440E4813F8143C0E4943438B4283
S3150FE1122003D11269C2F34162D340084AD2F80001F1
S3150FE11230C0F304200130B3FBF0F007B030BD064B2D
S3150FE11240F3E7064BF1E700BFAC4BE10F00400E4071
S3150FE1125040420F0000093D0000F04902C0EA2101BA
S3150FE112600A4B186830B9B1F5205F0DD8012208484D
S3150FE112701A607047012806D1B1F5005F03D8022243
S3150FE1128004481A6070470020704700BF2C100020F9
S3150FE11290A4300020A010002031B1044A1368002BBE
S3150FE112A0C4BF03F1FF331360704700BF2C1000205A
S3150FE112B02DE9F04F8BB00223DFF8CCA0DFF8CCB0ED
S3150FE112C00492804689468DF81F3000279DF81F202E
S3150FE112D0022A08D0049B002B49D041F20231012AA0
S3150FE112E018BF0F4643E0DAF80010244D2448C1F544
S3150FE112F040730893DBF8003009930DF11F03029356
S3150FE113000023019309AB009308AA1E4B294401F070
S3150FE1131072F850BB9DF81F306BB3089BDAF80040AB
S3150FE113201C4424F0030632464B462946404601F05B
S3150FE1133039FAB4420746A4EB060205D0A9192846A5
S3150FE11340059203F0AFFB059A0999CAF80020DBF87D
S3150FE1135000208A42A2EB010404D90A48224601443D
S3150FE1136003F0A0FBCBF80040B0E741F20337384674
S3150FE113700BB0BDE8F08F41F20237F8E7A85A00202B
S3150FE1138030100020A4580020A85D0020A45A0020A8
S3150FE1139008B570220021064803F09EFB054B01229A
S3150FE113A01A70054B00201860044B186008BD00BF8A
S3150FE113B030100020A0300020A85D0020A45A0020A4
S3150FE113C02DE9F843804658680F461446994620B3EF
S3150FE113D01C4B1D787DB100221A7051F8043BC8F8F9
S3150FE113E060301948194B052201F0AAF830BB1648AF
S3150FE113F000F0DFFE1125164E3368641BC3F500734B
S3150FE11400A3420CD3D6F800801248224679194044FC
S3150FE11410444403F039FB34600020BDE8F883002231
S3150FE1142049464046FFF744FF0028F6D13368C3F536
S3150FE114300073A342E6D241F20430EEE741F2053002
S3150FE11440EBE700BFA0300020301000200010002095
S3150FE11450A45A0020A4580020436D002B0CBF112085
S3150FE1146001207047F8B54C6806460D46ECB10122EE
S3150FE11470FFF71EFF0446C0B90E4B186888B10E4F31
S3150FE114800428C0F104024FF0FF0188BF002238445F
S3150FE1149003F022FB2B4604223946304601F082F94E
S3150FE114A028B90649064801F01DF82046F8BD04465D
S3150FE114B0FBE700BFA85D0020A85A0020001000201E
S3150FE114C030100020826C531EB3F5887FF0B518D823
S3150FE114D0D0E9093CD0E90B47C91A91424569866BB8
S3150FE114E028BF11462FB9C768A7EB040E8E4598BFE3
S3150FE114F007630C44521AC462826419448B4201D1C8
S3150FE115004362F0BD9A1BB34234BF644600242A44BA
S3150FE11510125DEA540133F1E72DE9F04F93B00891EB
S3150FE115200E92036B0793436A0093079BD0F82CB097
S3150FE11530002B40F09C80C368089A0099A3EB0B033C
S3150FE11540521A9A4240F293800B44856809934FF001
S3150FE11550FF37C36B019307FA05F5036C0293ED436E
S3150FE11560436C0F954568039303680D9307FA05F5E9
S3150FE11570436904690493ED43836A06931095D0E9B1
S3150FE115800DA90025D0E906360C95026A04F24465E9
S3150FE1159005950F9D05EA0B08B6F1807F4FEA0A150F
S3150FE115A008EB0A1C0A9538BF13F8015B34F81C7077
S3150FE115B03CBF360245EA0222F50A7D43954240F2E7
S3150FE115C0B280C7F5006607EB561624F81C60079E36
S3150FE115D056EA0B0104F66C6C15D0109E00990BEAD6
S3150FE115E006070D9EB740002943D1069E013E049999
S3150FE115F08E5D0D99C1F1080E46FA0EF637444FF49A
S3150FE11600C06606FB07CCBAF1060F0BF1010B3CD80E
S3150FE11610BAF1030F94BFAAEB0A0AAAF1030A01264C
S3150FE11620B5F1807F4FEA460638BF13F801EB3CF878
S3150FE1163006703CBF2D024EEA02224FEAD52E07FB7A
S3150FE116400EFE96450CEB060816D9C7F5006507EBB6
S3150FE116505517BFB27546FF2EA8F80070E0D9049969
S3150FE11660009FCE5539462E460131009198E1089BF0
S3150FE116706BE700994E1EBAE7A7EB5717A5EB0E05D9
S3150FE11680A2EB0E02BFB20136E5E70099069FA1EB89
S3150FE116900906494528BF002704990E44BAF10A0FF6
S3150FE116A0F15D0A9134BF03260626AAEB060A4FF42B
S3150FE116B0807801260A99490008EB06070A9101EAA3
S3150FE116C00801B5F1807F0F4438BF13F801EB0B9199
S3150FE116D038BF2D020CEB47013CF81770119138BF5B
S3150FE116E04EEA02224FEAD52E07FB0EFE96454FEA4A
S3150FE116F046060DD9C7F500650B9907EB5517BFB22E
S3150FE1170028EA010875461199FF2E0F80D2D9A6E76F
S3150FE11710A7EB5717DDF82C80A5EB0E05A2EB0E0212
S3150FE11720BFB20136EFE7A7EB5717761B24F81C700C
S3150FE11730B6F1807F0AF1C00EA2EB050238BF13F8AE
S3150FE11740015B34F81E703CBF360245EA0222F50A08
S3150FE117507D4395424FEA4E0C40F2CD8003990B91B2
S3150FE11760029903910199C7F5006607EB5616CDE984
S3150FE11770019124F81E600AF10C0A04F26467B5F1CF
S3150FE11780807F38BF13F8016BB7F800C03CBF2D025D
S3150FE1179046EA0222EE0A0CFB06F6964240F2718108
S3150FE117A0CCF500650CEB55153D8007EB08170437B3
S3150FE117B04FF0000E4FF008094FF0010CB6F1807FA4
S3150FE117C04FEA4C0C38BF13F8018B37F80C503CBF7E
S3150FE117D0360248EA02224FEAD62805FB08F8904579
S3150FE117E007EB0C0140F27D81C5F5006605EB561559
S3150FE117F0ADB24646CC450D80E0D3AEEB090E0EEB0E
S3150FE118000C01BAF10B0F0A9140F2A08203299ABF9C
S3150FE118104FEAC11E0EF5587E4FF49C6E01256D0001
S3150FE11820B6F1807F05EB0E0838BF13F801CB34F81C
S3150FE1183008703CBF36024CEA02224FEAD62C07FB70
S3150FE118400CFC944540F25781C7F5006607EB561736
S3150FE11850BFB266463F2D24F80870E0D9403D032D0F
S3150FE118603AD905F0010C0D2D4FEA55074CF0020C54
S3150FE1187000F25781C5F10049013F0CFA07FC09F265
S3150FE11880AF29E1444FEA49014FF0010E0B9165464D
S3150FE11890F1460B994FEA4E0EB6F1807F714438BF90
S3150FE118A013F8018B34F801C03CBF360248EA022235
S3150FE118B04FEAD6280CFB08F8904540F22581CCF586
S3150FE118C000660CEB561C1FFA8CFC4646013F24F8CA
S3150FE118D001C04FEA4909DCD1079905F10109002950
S3150FE118E040F02082AB4500F22082009B436201204B
S3150FE118F013B0BDE8F08F0799A7EB571751EA0B0124
S3150FE1190024F81E70A6EB0506A2EB0502EFD0B6F1A1
S3150FE11910807F0CF1180E38BF13F8015B34F80E70A7
S3150FE119203CBF360245EA0222F50A7D4395425AD972
S3150FE11930C7F500660A9907EB561624F80E6001F112
S3150FE11940F00EB5F1807FC64438BF13F8016B34F85A
S3150FE119501E703CBF2D0246EA0222EE0A7E439642F4
S3150FE1196028D9C7F50065009907EB5515069F24F8A9
S3150FE119701E50494528BF0027A1EB090504990D44DF
S3150FE11980BAF1070FED5D009FCD55394601F1010122
S3150FE1199000910BF1010B34BF4FF0090A4FF00B0A1F
S3150FE119A00999009DA94240F282810E9999423FF62B
S3150FE119B0F0AD7CE1AD1B921BA7EB5717019E24F807
S3150FE119C01E70CDF80490B14603990B910299BAF1C5
S3150FE119D0070FCDE9029134BF4FF0080A4FF00B0A1A
S3150FE119E004F66827CBE6A7EB5717761B24F80E709C
S3150FE119F0B6F1807F0CF1300EA2EB050238BF13F87A
S3150FE11A00015B34F80E703CBF360245EA0222F50A55
S3150FE11A107D43954206D9C7F5006607EB561624F8BE
S3150FE11A200E60D1E7A7EB5717761B24F80E70B6F1C8
S3150FE11A30807F0CF1480CA2EB050238BF13F8015B6E
S3150FE11A4034F80C703CBF360245EA0222F50A7D43B3
S3150FE11A5095420AD9C7F5006607EB561624F80C60CE
S3150FE11A60DDE9016101910296AEE70399521BA7EBFE
S3150FE11A705717751B019E0191029924F80C7003917A
S3150FE11A80F1E7AD1BACEB5C1CB5F1807FA7F800C0AD
S3150FE11A90A2EB060238BF13F8016BB7F802C03CBFE1
S3150FE11AA02D0246EA0222EE0A0CFB06F696420BD906
S3150FE11AB0CCF500650CEB55157D8007EB081707F59F
S3150FE11AC082774FF0080E75E6ACEB5C1C921BA7F81C
S3150FE11AD002C0AE1B07F501774FF0100E4FF4807978
S3150FE11AE06AE6A5EB5515A6EB0806A2EB0802ADB221
S3150FE11AF00CF1010C7EE6A7EB5717A6EB0C06A2EB52
S3150FE11B000C02BFB20135A5E6ACEB5C1CA6EB0806F1
S3150FE11B10A2EB08021FFA8CFC0EF1010E45EA09054C
S3150FE11B20D4E6053FB6F1807F3EBF13F8015B36027F
S3150FE11B3045EA02227608921B4FEA4C0C0CF1010C96
S3150FE11B4006EAE275013F0CEBE27C2A44EAD1B6F1F3
S3150FE11B50807F38BF13F8017BB4F846E638BF36020B
S3150FE11B604FEA0C154FEAD62C38BF47EA02220EFB95
S3150FE11B700CFC94455ED9CEF500660EEB561E1FFAA8
S3150FE11B808EFE02270599A4F846E6BCF1807F31F86F
S3150FE11B9017E04FEA470601EB47083EBF13F8017B13
S3150FE11BA04FEA0C2C47EA02224FEADC270EFB07F736
S3150FE11BB097424BD9CEF5006C0EEB5C1E1FFA8EFEEB
S3150FE11BC00599A8F800E0B7F1807F31F816C04FEA22
S3150FE11BD0460E01EB46083EBF13F8016B3F0246EA9C
S3150FE11BE00222FE0A0CFB06F696423AD9CCF50067BD
S3150FE11BF00CEB571C1FFA8CFC0599A8F800C0B6F13F
S3150FE11C00807F31F81E704FEA4E0C3EBF13F801EBA1
S3150FE11C1036024EEA02224FEAD62E07FB0EFE964514
S3150FE11C202AD90599C7F5006607EB561621F80C6018
S3150FE11C30764651E6AEEB5E1EA2EB0C021FFA8EFE66
S3150FE11C4045F00105A6EB0C0C03279BE7AEEB5E1EF9
S3150FE11C50D21B1FFA8EFE013645F00205ACEB0707E4
S3150FE11C60AEE7ACEB5C1C921B1FFA8CFC0EF1010E7E
S3150FE11C7045F00405BE1BBFE70599A7EB571745F0DE
S3150FE11C80080521F80C70691CA6EB0E06A2EB0E02F5
S3150FE11C907FF422AE0A9901F589710C91DDE9019183
S3150FE11CA00191039902910B990391AAF10C0AB6F1ED
S3150FE11CB0807F38BF13F8014BC0F82CB038BF36021E
S3150FE11CC0C0E906360C9B8364009B4362019BC363A9
S3150FE11CD0029B0364039B4364036BC0F8389038BFE0
S3150FE11CE044EA02220262C0F834A01BB9C3685B451D
S3150FE11CF098BF03630899FFF7E5FB436A089A934296
S3150FE11D00836C07D282690E998A4203D2B3F5897F32
S3150FE11D10FFF407ACB3F5897F02D94FF48973836476
S3150FE11D200020E5E50799A942DDE5BAF1130F34BFC6
S3150FE11D304FF0070A4FF00A0A0A99009D01F1020CCA
S3150FE11D400999B1EB050809D12B46CFE5DDE90191FB
S3150FE11D500191039902910B990391EDE70099069F82
S3150FE11D60E04528BFE046A1EB0905494528BF002715
S3150FE11D70ACEB08010C9106993D444F1BB84504990C
S3150FE11D80009FC3440F440CD800996D1A414407EBE9
S3150FE11D90080C009117F805E007F801EBBC45F9D1FE
S3150FE11DA0FEE508EB070C049911F805E007F801EBDE
S3150FE11DB006990135A94208BF0025BC45F3D1009923
S3150FE11DC0414452E42DE9F0478468D0F82C80D0F8ED
S3150FE11DD034C006690127A740D0E90753013F07EA57
S3150FE11DE0080707EB0C1EB5F1807F36F81E900A4403
S3150FE11DF007D2914280F0DB8111F8014B2D0244EAC3
S3150FE11E000323EC0A09FB04F4A34279D2076B58EAE0
S3150FE11E10070506F66C6619D0D0E900E70125BD4046
S3150FE11E20013D05EA080505FA0EF7456AD0F8148073
S3150FE11E3005B9856A013DCEF1080E18F8055045FA48
S3150FE11E400EF53D444FF4C06707FB0566BCF1060F7F
S3150FE11E5020D801204000B4F1807F375A07D2914252
S3150FE11E6080F0A58111F8015B240245EA0323E50A17
S3150FE11E707D43AB4223BF0130641B5B1B2C46FF281E
S3150FE11E80E8D90120B4F1807F80F02181914228BF0A
S3150FE11E9000201CE1876BD0F824C04569ACEB070E37
S3150FE11EA0BC4534BF876A002705EB0E0010F807C063
S3150FE11EB001204FF480774FEA4C0C07EA0C0E3D18E0
S3150FE11EC07544B4F1807F36F8158007D2914280F0E0
S3150FE11ED06E8111F8015B240245EA0323E50A08FB4B
S3150FE11EE005F5AB424FEA40002DBF013027EA0E0759
S3150FE11EF02C46641B24BF5B1B7746FF28DBD9C0E763
S3150FE11F00281B0CF1C00CB0F1807FA3EB04034FEA61
S3150FE11F104C0436F81CC007D2914280F0488111F883
S3150FE11F20015B000245EA0323C50A0CFB05F5AB424B
S3150FE11F3080F09E8006F2646C02204FF0000EB5F140
S3150FE11F40807FBCF8008007D2914280F0308111F892
S3150FE11F50014B2D0244EA0323EC0A08FB04F4A342E6
S3150FE11F6080F0E9800CEB071707F1040C00274FF01F
S3150FE11F7008094FF001084FEA4808B4F1807F3CF8B1
S3150FE11F8008A007D2914280F0128111F8015B240279
S3150FE11F9045EA0323E50A0AFB05F5AB4223BF08F140
S3150FE11FA00108641B5B1B2C46C845E4D3BEF1030F46
S3150FE11FB03FF668AFA7EB09074744032F9ABFFF0127
S3150FE11FC007F558774FF49C6701256D0006EB050C75
S3150FE11FD0B4F1807F3CF807E007D2914280F0E780C9
S3150FE11FE011F801CB24024CEA03234FEAD42C0EFB62
S3150FE11FF00CFC634523BF0135A4EB0C04A3EB0C03E7
S3150FE1200064463F2DE1D9403D032D7FF63BAF0D2DC4
S3150FE120104FEA550700F2B18005F0010C013F4CF094
S3150FE12020020CC5F100450CFA07FC05F2AF25654434
S3150FE1203006EB45064FF0010C4FEA4C0CB4F1807FED
S3150FE1204036F80CE007D2914280F0B18011F8015BCE
S3150FE12050240245EA0323E50A0EFB05F5AB4223BF4E
S3150FE12060641B5B1B0CF1010C2C46013FE4D109E724
S3150FE12070401B3444B0F1807FB4F818C0A3EB0503DD
S3150FE1208007D2914280F0938011F8015B000245EA95
S3150FE120900323C50A0CFB05F5AB4222D20EF1F00E76
S3150FE120A0B5F1807F36F81E4006D291427FD211F804
S3150FE120B0010B2D0240EA0323E80A6043834208D26B
S3150FE120C0B0F1807F71D2914234BF03200020BDE889
S3150FE120D0F0872D1A1B1A06F6682C03204FF00C0E0B
S3150FE120E02DE7401BB0F1807FB4F830C0A3EB0503B9
S3150FE120F006D291425BD211F8015B000245EA032356
S3150FE12100C50A0CFB05F5AB42E5D3401BB0F1807F69
S3150FE12110B4F84840A3EB050306D2914247D211F832
S3150FE12120015B000245EA0323C50A6543AB4224BFBF
S3150FE121305B1B451BCFE72D1BB5F1807FBCF80280FA
S3150FE12140A3EB040306D2914231D211F8014B2D02D2
S3150FE1215044EA0323EC0A08FB04F4A34205D20CEB91
S3150FE12160071707F5827C082701E71B1B0CF5017C96
S3150FE121702C1B10274FF48079FBE6053FB4F1807FE6
S3150FE1218006D2914213D211F8015B240245EA0323E9
S3150FE1219064081D1BED0F013D2540013FA3EB050330
S3150FE121A0ECD106F24466042744E703208FE70020CB
S3150FE121B08DE700230122C0E91232C0E90B334362F6
S3150FE121C08365026570472DE9F04F85B09846DDF8D6
S3150FE121D03CB09DF83830D8F8007002930025C8F866
S3150FE121E0005007EE901A16460446FFF76BF98BF887
S3150FE121F00050A36CB3F5897F09D1236A13B9012383
S3150FE122008BF80030256A003D18BF01251EE0E36C0F
S3150FE122104BB3A36DA7B1042B04D994F85C30CBB1C2
S3150FE12220012513E05A1CA265234416F8012B83F806
S3150FE122305C20D8F800300133C8F80030013FE8E7F9
S3150FE12240042BEAD803238BF800300025284605B086
S3150FE12250BDE8F08FD4F85D20E36412BA22624FF045
S3150FE12260FF32E261A365636A17EE902A93420DD3BB
S3150FE12270A36C002B40F0B180256A002D40F0B580AC
S3150FE1228004238BF80030E1E70223DCE70023019317
S3150FE12290236D9BB1D4E900321A444FF44073934056
S3150FE122A0216903F236730022934225D80123C4E94B
S3150FE122B01033C4E90E33002363632365D4F85890D2
S3150FE122C0B9F1000F5DD1132F01D9019B03B33A4643
S3150FE122D031462046FFF776FD054698B93A4631462F
S3150FE122E004F15C0002F0D0FBA765D8F800303B445F
S3150FE122F0C8F800300323C4E74FF4806021F81200D9
S3150FE123000132D1E7019A0AB102286AD1324602E0D7
S3150FE12310A7F11402324417EE901AA6612046FFF791
S3150FE12320FBF800287FF47CAFA169D8F800308E1B4B
S3150FE123303344C8F80030BF1B0E465AE709F10109CD
S3150FE1234016F80A2003F809200AF1010AB9F1130F69
S3150FE1235001D8BA45F2D1B9F1130FC4F8589004F187
S3150FE123605C0301D9019AAAB119464A46204603935D
S3150FE12370FFF728FD039B054640B9D8F800305344D3
S3150FE12380B6E74FF0000A04F15B03DFE7019909B104
S3150FE12390022826D117EE901AA3611A462046019319
S3150FE123A0FFF7BAF800287FF43BAFA269019BD31A76
S3150FE123B0994510D3A9EB030292450CD3D8F8002027
S3150FE123C05344A3EB09010A444F44C8F800203144B2
S3150FE123D0FF1AA065B0E70B2538E7029B002B3FF408
S3150FE123E053AF02238BF800301AE7029B002B3FF421
S3150FE123F04BAF01234BE72DE9F04F89B09946DDF855
S3150FE1240048A09DF84C30039300231768DAF800B023
S3150FE124101360044688461646CAF80030D4E90931F6
S3150FE124208B4204BF00236362656A149ACDF81CB030
S3150FE124304B1BBB422ABF039B00237919CDE900321F
S3150FE1244020464A4607ABFFF7BEFE079ADAF8003099
S3150FE12450616902901344CAF80030636A059329440F
S3150FE1246040469144ABEB020B5A1B049202F00CFB74
S3150FE12470059B049AED1A336813443360029B90442B
S3150FE124802F4413B90AB1002FC8D1029809B0BDE89C
S3150FE12490F08F10B504464B6808462169984700232B
S3150FE124A0236110BD70B5D1E900532B444FF440754C
S3150FE124B09D4003690446164605F2367523B1436D11
S3150FE124C0AB4201D1002070BD31462046FFF7E1FF57
S3150FE124D03368690030469847656520610028F1D178
S3150FE124E00220F0E738B504460D46FFF7D2FF6B68D9
S3150FE124F06169284698470023636138BD042A01D8EC
S3150FE1250004207047D1F80130B3F5805F38BF4FF43F
S3150FE125108053C3600A78E02AF2D80923B2FBF3F3BA
S3150FE1252003EBC301521AD2B202600522B3FBF2F2F8
S3150FE12530826002EB82029B1ADBB243600020704796
S3150FE125402DE9F04385B0E846044640469946FFF744
S3150FE12550D5FF054670BB4A4641462046FFF7A2FF27
S3150FE12560054638BB039FB7F1804F27D2174B40F68D
S3150FE12570FF76B7F5800F28BF1E46F31923EA060645
S3150FE125806169B74238BF374611B1A36ABB4217D06B
S3150FE12590D9F8043048469847002363613946D9F89C
S3150FE125A0003048469847606150B949462046FFF7E3
S3150FE125B070FF0225284605B0BDE8F083044EDCE73F
S3150FE125C098E80F00A76284E80F00F3E7FFFF0F001B
S3150FE125D0FFFF3F000068024BC31A5842584170474C
S3150FE125E0FD0707FD034A044B90420CBF1846002036
S3150FE125F0704700BFFD0707FDC04BE10F70B5D1E98D
S3150FE126000152AA4205D290F840302B449B1A402B37
S3150FE1261010D9002012E00A6890F84040D65C90F895
S3150FE126204120224402F03F020133013486548B608C
S3150FE1263080F840408B689D42EDD8012070BD2DE9B1
S3150FE12640F8431D461746D1E901329B1A90F840200F
S3150FE126509DF820909DF8248013449D4204460E4632
S3150FE1266056D9FFF7CBFF00285CD1112384F846300A
S3150FE1267041F20200BDE8F88394F84120A25CFA54D6
S3150FE1268094F84120013202F03F0284F8412094F898
S3150FE126904020013A84F84020013394F840200AB1F2
S3150FE126A09D42E9D1D6E90121914201D29D4231D82C
S3150FE126B09D42DAD1D4F888202946384600F08CFCC1
S3150FE126C0C4F88800B9F1000F04D0E06C2A46394608
S3150FE126D000F018FDB8F1000F08D094F843308BB134
S3150FE126E0A06C2B463A46394600F0B0FC94F84330DD
S3150FE126F043B1E36DA26D2B449342E36524BF0023FF
S3150FE1270084F84330636D2B44636541F20300B1E70F
S3150FE127100023C2E73268525CFA54B2680132B26002
S3150FE127200133BFE70020A5E77FB50023CDE90033ED
S3150FE12730082315460DEB03020446FFF780FF41F22E
S3150FE1274003039842064626D194F8433063B1082233
S3150FE127500DEB0201E06C00F0D5FC08230DEB030253
S3150FE12760A06C114600F072FC039A6A6094F843205C
S3150FE12770029B2B605AB9094A934208D0084A934201
S3150FE1278005D00822E06C0DEB020100F0BBFC6B6893
S3150FE12790236500236365304604B070BDF70A0AF777
S3150FE127A0FC0404FC2DE9F743044658680E46174628
S3150FE127B09846002843D08B0744D1244B206ED3F89B
S3150FE127C028381B6902EB000C1D1D65451CD81C330F
S3150FE127D0984219D28542294638BF0146081AC5F1F2
S3150FE127E0680506EB000968189C4594BFC1EB0C021E
S3150FE127F0C1EB030220444946019202F045F9019AE1
S3150FE12800FF21484602F068F9226E48F204039A4224
S3150FE128100BD8B81848F20701884206D99B1AF25825
S3150FE12820C4F880204FF0FF32F250206E3A46D8E9D5
S3150FE1283000353146A847226E3A442266002003B09E
S3150FE12840BDE8F08341F20200F9E700BF0000E10FB6
S3150FE128502DE9F04103F02003002504464FF0FF3840
S3150FE12860C0E918550F461646A0F8405080F8435078
S3150FE12870A0F8445080F8465080F84230C0F888807E
S3150FE128801822FF21683002F027F9C4E91276C4F85D
S3150FE128908080C4F8848016B1304600F029FC002010
S3150FE128A0BDE8F0812DE9F04FA5B0CDE911230293F3
S3150FE128B02E9DDFF85093002304460F461393139A88
S3150FE128C0029B9A4201D30020C5E094F84630112BC2
S3150FE128D0F6D8DFE813F06500AC00A6004F0036002E
S3150FE128E02B00F0013600E8013600E8010B037A030D
S3150FE128F012006E01D30265027A034FF00008636D91
S3150FE129000F2B00F292800126102314AACDF8048032
S3150FE12910009611A92046FFF792FE0890089A41F218
S3150FE1292003039A4200F03781089B45E00126D4E97B
S3150FE129301432934200F2438184F8466041F2030375
S3150FE129403AE04FF00108D4E9146296426DD9B61A0E
S3150FE12950DDE91223D21A94F84030032E1A4440F2DD
S3150FE12960AE81032A00F2AE8111A92046FFF746FE9A
S3150FE12970002321E0994E636D072BDFD80123CDE9C3
S3150FE12980003314AA082311A92046FFF758FE0A902F
S3150FE129900A9A41F203039A4200F04C810A9B0BE03B
S3150FE129A014AA11A92046FFF7BFFE0590059B41F238
S3150FE129B00302934202D0059B049345E0159A2265E3
S3150FE129C0002214996265864A914240F045810222BE
S3150FE129D084F84620F0E70123009314AA0823019611
S3150FE129E011A92046FFF72BFE0690069A41F2030343
S3150FE129F09A4201D0069BDFE7149B03F07F43B3F1C5
S3150FE12A00407F05D0112384F8463041F20903D3E71D
S3150FE12A10159BD90706D594F8423043F0010384F8A4
S3150FE12A2042300026636D072BD5D9012340E114AA65
S3150FE12A3011A92046FFF778FE0790079E41F203039F
S3150FE12A409E420BD0079E0496049A41F203039A42E3
S3150FE12A503FF435AF049825B0BDE8F08F94F84420E4
S3150FE12A60149B22B15F4A93421AD10B2338E094F8B3
S3150FE12A704220D2073ED594F84320002A3AD15A494B
S3150FE12A808B4230D014D84B4579D018D8574A934258
S3150FE12A9006D00BD8524A934202D0554A93420ED1F1
S3150FE12AA0112384F8463041F20106CCE7514AF5E7A6
S3150FE12AB04C4A9342D9D00DD84F4A93420FD01123A6
S3150FE12AC084F8463014A8FFF785FD0028EBD141F2D3
S3150FE12AD00806B8E7494A9342E2D0494ADEE70D23B1
S3150FE12AE084F84630AFE70E2384F84630236DC4E908
S3150FE12AF01632A8E74B453ED025D83C4A934230D013
S3150FE12B003C4A934231D03A4A93422CD014A8FFF76C
S3150FE12B1061FD002835D01023149884F84630C4F8A7
S3150FE12B208C00FFF75FFD94F842309B068BD50028AA
S3150FE12B3089D04368002B86D0204698470790079B9C
S3150FE12B40002B80D0AFE72D4A934212D02C4A934205
S3150FE12B500DD0244A9342D9D194F84330002B84D037
S3150FE12B609EE70323BCE70523BAE70623B8E7082365
S3150FE12B70B6E70A23B4E794F84330002B90D10F233D
S3150FE12B80AEE7112384F8463094F84330002B9ED0FC
S3150FE12B9041F2040657E7D4F848A000F0C1FA8023C2
S3150FE12BA0CDE9000315AA33460221504600F02EFA6D
S3150FE12BB0A5E6012384F8433084F846307FE614AA6C
S3150FE12BC0CDE9006611A92046FFF739FD0990099A6B
S3150FE12BD041F203039A4217D0099BEDE60000E10F9C
S3150FE12BE0EB17A603FC0404FCF90707F9F50909F548
S3150FE12BF0F40A0AF4F60808F6FA0606FAFD0303FDE7
S3150FE12C00FE0101FEF70A0AF70DF1500C07F1080371
S3150FE12C100DF1680E624603CA724518605960944613
S3150FE12C2003F10803F6D1106818603B7843F001030E
S3150FE12C303B707CE63B78AC48159A43F002033B7058
S3150FE12C40149B7B60236D083B7B62B36A19688142F3
S3150FE12C5005D1DB68934205D0112384F8463041F262
S3150FE12C600103A9E6042384F8463094F8453043F08E
S3150FE12C70010384F84530002363667CE6042314AA36
S3150FE12C80CDE9006611A92046FFF7D9FC0B900B9A07
S3150FE12C9041F203039A4201D00B9B8DE6236D042B80
S3150FE12CA002D9149B23660126636D032BE6D909230B
S3150FE12CB084F8463042E60023636607237CE79642B3
S3150FE12CC03FF652AE402E28BF4026964228BF164603
S3150FE12CD0032E88BF26F00306334614AACDE90088F2
S3150FE12CE011A92046FFF7ABFC0C900C9A41F20303B6
S3150FE12CF09A4201D00C9B5FE694F846B0BBF1070F01
S3150FE12D0004D1D5F808A0BAF1000F1BD1042EC6F1F4
S3150FE12D10040A14AB88BF4FF0000A5246FF219819F7
S3150FE12D2001F0DAFEBBF1090FB24414D12B4652463C
S3150FE12D3014A92046FFF736FD0C900C9B002B3FF4B0
S3150FE12D4002AED7E732462B68606E14A9D047626EA2
S3150FE12D5032446266F7E5BBF1040F7FF4F4AD7B789D
S3150FE12D6098077FF5F0ADEB68002B3FF4ECAD626EA3
S3150FE12D70042A0BD80AEB0203062B07D915AB9B1ACC
S3150FE12D801A68C4F884204FF0FF321A60EE682B6898
S3150FE12D90606E524614A9B047666E56446666D2E532
S3150FE12DA094F8426016F0200607D0D4F88C00FFF7AE
S3150FE12DB019FC064600283FF452AF4FF0010A42E0F4
S3150FE12DC04BB346B3336933B320469847DDE9123245
S3150FE12DD094F840809B1A43448342FFF4C5ADD4E98E
S3150FE12DE01421A2EB0108B8F1400F28BF4FF04008BC
S3150FE12DF0984528BF9846434614AACDE900AA11A9DA
S3150FE12E002046FFF71CFC0D900D9A41F203039A42FF
S3150FE12E1003D00D9BD0E50120D8E794F8423099060F
S3150FE12E2011D5002E3FF41BAFD6F808B0BBF1000F5A
S3150FE12E303FF415AF2B46424614A92046D8470D90CD
S3150FE12E400D9B002BE5D1D4E9142194F84230914240
S3150FE12E5003F02003B4D3002B3FF4E7AD002E3FF48C
S3150FE12E60E4ADF368002B3FF4E0AD294620469847E1
S3150FE12E700D900D9B002B3FF4D8ADCAE794F8446053
S3150FE12E80002E7FF4D2AD402314AACDE9006611A935
S3150FE12E902046FFF7D4FB0E900E9A41F203039A42B6
S3150FE12EA001D00E9B88E5E06C00F02EF9D4F84C804A
S3150FE12EB000F02EF9039000F02FF9039B00901CAA66
S3150FE12EC014A9404600F0D4F80E900E9B33B11123AE
S3150FE12ED0FE7084F8463041F206036DE50123FB707F
S3150FE12EE084F84430A1E500BFAD1007B00023CDE96A
S3150FE12EF0003314AA042311A92046FFF7A0FB0F9074
S3150FE12F000F9A41F203039A4202D00F9B0493A1E574
S3150FE12F10D4F888202E4B9A4205D0112384F84630F7
S3150FE12F2041F20503F2E70123FB7094F84530DA0726
S3150FE12F3007D5EE682EB104222B6804F18401104601
S3150FE12F40B04794F845309B0707D5EE682EB10422BA
S3150FE12F502B6804F184011046B047236E73B36E6894
S3150FE12F6066B34FF0FF3304F18001042210A81093EA
S3150FE12F70029101F079FD28B12B680299042248F2FA
S3150FE12F800400B04704F168090422494610A801F08C
S3150FE12F906BFD98B10F4BD3F82838D3F81080142274
S3150FE12FA0D5E9003604F16C0108F10800B0470422B7
S3150FE12FB0D5E90036494608EB0200B0470123BB705D
S3150FE12FC00C2384F846300023A0E741F2070042E5DF
S3150FE12FD0E320BBDE0000E10F10B50A4CD4F8B030A8
S3150FE12FE043F04003C4F8B030074B01241C600144A1
S3150FE12FF09A605C60884201D1D86910BD10F8012B47
S3150FE130009A61F7E700400E4000C00140F8B504466B
S3150FE1301016461D460F4601F01FFCDDE90612204656
S3150FE1302001F01EFC0023636284F838703368C4F83C
S3150FE1303039307368C4F83D30B368C4F841302B0CAE
S3150FE130406DBA84F84530A4F84650F8BD30B585B071
S3150FE130500D46194600F12803CDE90152009300F11F
S3150FE13060240200F1380301F019FC05B030BD000070
S3150FE130702DE9F041A2B00E46DDF8A08015461F46B8
S3150FE13080044670B369B362B35BB3B8F1000F28D0EE
S3150FE130901548012101F0A2F94022002102A801F011
S3150FE130A01BFD394602A800F001FB12AF41460AA803
S3150FE130B000F0FCFA40220021384601F00DFD3146C1
S3150FE130C0384600F0F3FA29461AA800F0EFFA074856
S3150FE130D0009702AB2022214600F0FAFA22B0BDE8B2
S3150FE130E0F08140F20160F9E700050A0000000F40A8
S3150FE130F010B5044600F0E2FC20460021BDE8104081
S3150FE1310000F0E0BC00F0E3BC014600F0EDBC0000CE
S3150FE13110004870474A43E00F004870476A43E00FA3
S3150FE13120004870478642E00F2DE9F04104461D46FF
S3150FE131300F46904600211C22181D01F0CDFC0123FC
S3150FE131402B6001F08BF94146064604F5807001F0DC
S3150FE13150DAF9394604F5827004F5847701F0D3F98B
S3150FE131602946384601F0CFF9304601F07BF90D4E8D
S3150FE131700D4B0E4A0E490F4823656369DB010BD5EB
S3150FE1318001F06CF929460446384601F0C4F92046A8
S3150FE13190BDE8F04101F066B922656165A065E665B6
S3150FE131A0EBE700BF3938010039398401D02484FCBB
S3150FE131B01C82FED88B1C81A02DE9F04F2DED028BE1
S3150FE131C08BB004469A460D46164601F047F904F5CB
S3150FE131D0827705F14002114604F5867B8046384633
S3150FE131E0019201F090F93146584601F08CF904F558
S3150FE131F08873184606F12001009301F084F94046E1
S3150FE1320001F030F943492165434961650126434997
S3150FE13210A165E66501F022F929468146384601F0B6
S3150FE1322072F904F5847805F120031946404608EE54
S3150FE13230103A01F068F9019A009B1146184601F020
S3150FE1324062F9484601F00EF9354B2365354B636557
S3150FE13250A66501F003F904F5807900900AF14001C2
S3150FE13260484601F058F902A9404601F054F9009B8E
S3150FE13270184601F0F7F801F0F1F8294600905846A3
S3150FE1328001F041F9009B184601F0ECF8264B236556
S3150FE13290264B63656FF42672A3F5FE231344A365EC
S3150FE132A0E66501F0DBF818EE101A0546384601F02F
S3150FE132B02AF9284601F0D6F81D4B23651D4B6365A8
S3150FE132C0A66501F0CBF851460546404601F023F9D4
S3150FE132D0284601F0C7F801F0C1F802A905463846BC
S3150FE132E001F011F9284601F0BDF8134B2365134B95
S3150FE132F06365A66501F0B2F80AF120010446484676
S3150FE1330001F009F9204601F0ADF80BB0BDEC028BE7
S3150FE13310BDE8F08F8AD11C81D91C83D11C81E11CB8
S3150FE13320D01482CB1481E11C8CE11C811C84D91C45
S3150FE13330E014D8141482E11C84D31482D11CE01456
S3150FE133402DE9F041044690B00F46244E05219046F3
S3150FE1335001F03AF900232360236363630FCE08ADCF
S3150FE133600FC596E80F0085E80F0008AA6B4607F12F
S3150FE1337040012046FFF7D8FE01F070F804F5867696
S3150FE133800546694604F5827001F0BDF839463046C7
S3150FE1339001F0B9F807F1200104F5887001F0B3F8EF
S3150FE133A0284601F05FF80E4B23650E4B63650E4B16
S3150FE133B0A3650123E36501F051F808F12001054604
S3150FE133C004F5807001F0A7F84146304601F0A3F805
S3150FE133D0284601F047F810B0BDE8F081E04BE10F68
S3150FE133E08AD11C81D91C83D11C81E11C03685BB98D
S3150FE133F003461C2053F8042F0AB90438FAD10028E2
S3150FE13400CCBF002001207047002070472DE9F04F17
S3150FE13410A5B01D460446CDE9001205A81C220021E0
S3150FE1342001F05AFB4FF0010820220021284605F151
S3150FE134302007CDF8108005F1400A01F04DFB20225F
S3150FE134400021384601F048FB20220021504601F0C9
S3150FE1345043FB0521204601F0B7F800232360FF2641
S3150FE13460236363637211019906F01F0351F822106A
S3150FE1347008FA03F30B42324606F1FF3601D0164640
S3150FE1348001E0002EEED100F0E9FF04F58273394633
S3150FE1349080461846029301F036F8404600F0E2FF07
S3150FE134A0764B774A23656265764AA26500F0D6FFC9
S3150FE134B004F5807914A98046484601F02CF8404678
S3150FE134C000F0D0FF00F0CAFF29468046484601F0DA
S3150FE134D01AF8404600F0C6FF6B4A6C4B22654FF473
S3150FE134E086726365A26500F0B9FF04F586788346B7
S3150FE134F00CA9404601F00FF81CA9484601F00BF85C
S3150FE13500584600F0AFFF00F0A9FF029B0393514627
S3150FE135108346184600F0F7FF584600F0A3FF5C4BD1
S3150FE1352023650123636500F099FF04F5847B294642
S3150FE135300290584600F0E7FF029A104600F092FF1C
S3150FE13540544A226502F1D94202F5DE1202F595627D
S3150FE135506265A2F586120123A2F2BA42A265E3657C
S3150FE1356000F07CFF1CA90290584600F0CCFF0CA995
S3150FE13570404600F0C8FF029A104600F073FF464A34
S3150FE135802265464A6265464AA26500F067FF29460B
S3150FE13590029004F5887000F0BEFF029A104600F023
S3150FE135A061FF00F05BFF039B02903946184600F07E
S3150FE135B0AAFF5846514600F0A6FF14A9404600F06F
S3150FE135C0A2FF029A104600F04DFF364B2365364BAC
S3150FE135D0636500F043FF51468346484600F09BFF83
S3150FE135E03946404600F097FF584600F03BFF012170
S3150FE135F006F01F0301FA03F37211019951F8222024
S3150FE13600134211D02846FFF7F1FE38B13846FFF7DE
S3150FE13610EDFE18B15046FFF7E9FE58B9009A2B4671
S3150FE1362029462046FFF7C8FD013EBFF42CAF25B072
S3150FE13630BDE8F08F009BAC4603F1200E1868596880
S3150FE13640624603C2083373459446F7D1BC4603F18C
S3150FE13650200E18685968624603C2083373459446CB
S3150FE13660F7D10DF1100EBEE80F0005F1400CACE8F5
S3150FE136700F009EE80F008CE80F00D5E78AD11C8179
S3150FE13680821CC00C0C0C0100C00C0C83D91C83D816
S3150FE136908AD11C83DA0C81148CE11CD01484E314D7
S3150FE136A082D11C01D81483D11CC00C0138B520225C
S3150FE136B004460D46002101F00FFA05F12003601EC5
S3150FE136C013F8012D00F8012FAB42F9D138BD0000F7
S3150FE136D02DE9F04FBBB00D460446002193460AA8EB
S3150FE136E06022449E994601F0F7F96022002122A853
S3150FE136F001F0F2F9002D00F01C81B9F1000F00F095
S3150FE137001881002E00F01581BBF1000F40F31181F6
S3150FE137100023236023636363636843F010036360ED
S3150FE137200C21204600F050FF6368DFF824C223F432
S3150FE13730406343F400636360636823F4407343F4C7
S3150FE1374000736360BCE80F002AAF0FC79CE80F0058
S3150FE1375087E80F0000F082FE04F584788246314651
S3150FE13760404604F5867700F0CEFE2AA9384600F0EA
S3150FE13770CAFE504600F076FE6F4A22650123636565
S3150FE137806369DA0104D440F202603BB0BDE8F08F21
S3150FE13790311F082351F8040F002800F0C28000F012
S3150FE137A05DFE06F1200A01905146404600F0ABFE60
S3150FE137B02AA9384600F0A7FE019B184600F052FEF3
S3150FE137C001235D4A226563656369DB01DBD55246F9
S3150FE137D0082352F8041B002900F0A78020220021BC
S3150FE137E032A801F079F9BBF1200FA8BF4FF0200BFA
S3150FE137F00BF1FF32013D22F0030303F594736B44A2
S3150FE1380002F0030C15F8010F53F8601C4FEACC0CCC
S3150FE1381000FA0CF00843013A43F8600CEBD200F0E2
S3150FE138201DFE32A90546404600F06DFE284600F022
S3150FE1383019FE424B236500F011FE04F5807B054628
S3150FE1384032A9584600F067FE284600F00BFE2AAA79
S3150FE1385002AB51462046FFF767FC00F0FFFD04F58A
S3150FE13860887A054602A904F5827000F04CFE32A96A
S3150FE13870504600F048FE3146384600F044FE2846F1
S3150FE1388000F0F0FD2E4B236503F1FA43A3F5006338
S3150FE13890636500F0E3FD32A90546504600F03BFEB5
S3150FE138A002A9584600F037FE284600F0DBFD254910
S3150FE138B00AAB32AA2046FFF7A9FD22AB02AA494677
S3150FE138C02046FFF7A3FD0AAA11462046FFF738FD6A
S3150FE138D022AB19460AAA2046FFF76EFC22AA114629
S3150FE138E02046FFF72DFD00F0B9FD0C2105462046D8
S3150FE138F000F06AFE22A9404600F005FE3146384641
S3150FE1390000F001FE284600F0ADFD0F4B23650F4B8E
S3150FE139106365636913F0807F40F2046018BF00208E
S3150FE1392033E7013B7FF436AF2DE7013B7FF451AF30
S3150FE1393029E740F2016028E73035DA1030D00C0183
S3150FE1394030E11C84204CE10F3035DA1439380100AF
S3150FE13950004CE10F2DE9F34799460A9B0C4619688E
S3150FE139603F290546164642D85A68002A41D0224ACF
S3150FE13970002E14BFB046904601F03F07091928BF44
S3150FE139805A68196024BF01325A60AFB1C7F1400AD4
S3150FE13990A24521D82946524609EB070001F074F8F2
S3150FE139A001230093414633464A46002000F0A4F82E
S3150FE139B0403C55443C44B0463F2C0CD9A3090093F7
S3150FE139C02A4633464146002000F096F824F03F039D
S3150FE139D01D4404F03F0400272CB12246294609EB8A
S3150FE139E0070001F051F8002002B0BDE8F0879046DC
S3150FE139F0C2E7DFF80480BFE7604CE10F30B405465C
S3150FE13A00084611461A46DDE9023425B931B1029469
S3150FE13A1030BCFFF79FBF024830BC70470846FBE753
S3150FE13A2080AFFFFF2DE9F041146886B01E46E30033
S3150FE13A308DF80F30630917468DF80E305268630B18
S3150FE13A408DF80D30630D8DF80C30D30003EB547305
S3150FE13A508DF80B3004F03F045309372C8DF80A30FB
S3150FE13A604FEA52334FEA525205468DF80820CDE917
S3150FE13A70001794BFC4F13802C4F1780288468DF875
S3150FE13A8009300D4903460020FFF7B8FF08214346E9
S3150FE13A9000972A460DEB0100FFF75CFF284605F17B
S3150FE13AA0200350F8042B46F8042B9842F9D1002055
S3150FE13AB006B0BDE8F08100BF804CE10F682200211E
S3150FE13AC001F00AB80023C0E900331846704707B57D
S3150FE13AD000F128030190009300F108030020FFF79E
S3150FE13AE08DFF03B05DF804FB02460B4600F128019A
S3150FE13AF00830FFF797BF00002DE9F04F99B0054663
S3150FE13B00884691461F4600F08BFF0446002D7DD176
S3150FE13B10042303604560C56443686A4623F4406342
S3150FE13B20436008F11C010563A8F104034563904660
S3150FE13B3053F8040F00BA8B4242F8040BF8D100F0A8
S3150FE13B408DFC4146054604F5827000F0DCFC284603
S3150FE13B5000F088FC2F4B23654FF0000A09F00306AE
S3150FE13B60229A924527D1BB0704F5807643D000F020
S3150FE13B7075FC41460546304600F0CDFC284600F07F
S3150FE13B8071FC08AD3A46434603CBAB421060516038
S3150FE13B90984602F10802F6D1204600F04BFF3B1F93
S3150FE13BA01C3753F8042F12BABB421A60F9D1002021
S3150FE13BB019B0BDE8F08F09EB8A1566B10DF1200C4E
S3150FE13BC005F1400E28686968624603C208357545F6
S3150FE13BD09446F7D108AD00F041FC2946834604F53A
S3150FE13BE0D27000F0A0FC584600F03CFC0A4B23656E
S3150FE13BF00AF1010AB4E700F031FC394605463046D1
S3150FE13C0000F089FC284600F02DFCC5E76FF0710046
S3150FE13C10CEE700BF888AC801070D810110B50024E0
S3150FE13C20A14201F1FF324FEA820240F8044B08BF8D
S3150FE13C302246FF2100F050FF204610BD03680133F5
S3150FE13C40022B40F2045038BF0020704740F2025079
S3150FE13C50704770477047000010B5DEB04FF4BC7285
S3150FE13C606946002000F056F940F20124002168462A
S3150FE13C7000F087F8A042F9D040F20323984217D11A
S3150FE13C809DF8003003F00302022A11D09A0713D5EB
S3150FE13C900E4A0199D2F82828926891420CD95A987E
S3150FE13CA000F068F920B109994FF40040FCF798FF4D
S3150FE13CB040F205405EB010BDDB07F9D503995A987E
S3150FE13CC000F07CF90028F3D00020F3E70000E10FC4
S3150FE13CD0FFF7C2BF31B10A4B5A68824205D80023BA
S3150FE13CE0C1E9003340F201407047013053F830200B
S3150FE13CF00A6003EBC00043684B600020704700BFCA
S3150FE13D00E04DE10F01221A707047000070B40C46C6
S3150FE13D1011460C4A556885420DD9013002EBC006B2
S3150FE13D20E5187668B5420AD852F830001A462044AB
S3150FE13D3070BC00F055BA40F2014070BC704740F2DA
S3150FE13D400240FAE7E04DE10F30B5A3B004460D4668
S3150FE13D5002AAD0F87011D0F868018023FFF7D6FFD9
S3150FE13D600095802302AA214604F12800FEF79AFD69
S3150FE13D70D4F87031C4F874018033C4F8703123B0CC
S3150FE13D8030BD1FB50023CDE90033CDE90213D0F8DD
S3150FE13D907431044693B9D0E95B329A420ED2694641
S3150FE13DA0FFF7D2FFD4F8740198B141F2070240F25E
S3150FE13DB00123904208BF184604B010BDA3785BB14A
S3150FE13DC0E27840F2022040F20323002A18BF184698
S3150FE13DD0F2E740F20120EFE740F20220ECE70000C4
S3150FE13DE070B586B00DF107030D46029300211F4B07
S3150FE13DF011600446164628461C22CDE903338DF899
S3150FE13E000710059300F068FE94F86E30102B28D05A
S3150FE13E10D4F874312BBBD4E95B21914207D202A9C5
S3150FE13E202046FFF791FF9DF80730002BECD0227863
S3150FE13E30910744BF61683160D20709D504F10802E1
S3150FE13E4004F1240152F8040B45F8040B8A42F9D127
S3150FE13E504BB92378002B40F2064018BF002006B07D
S3150FE13E6070BD0023E3E70020F9E700BF053DE10F51
S3150FE13E7070B40C4611460C4A556885420DD901308E
S3150FE13E8002EBC006E5187668B5420AD852F830005B
S3150FE13E901A46204470BC00F0C5B940F2014070BC2F
S3150FE13EA0704740F20240FAE7E04DE10F074B5A68DF
S3150FE13EB0824207D9013003EBC00253F83000516853
S3150FE13EC000F008BA40F20140704700BFE04DE10F44
S3150FE13ED070B5054688B0C0B14FF440320023C0E952
S3150FE13EE000230B4B1A785B680272C3606C46684617
S3150FE13EF000F0FCF80FCC05F114060FC694E80F009D
S3150FE13F0086E80F0005F114032B6108B070BD00BF01
S3150FE13F10E04DE10F37B50C46054611462046FCF755
S3150FE13F2041FF48B969462846FFF7D4FE20B9019B00
S3150FE13F30C4F86851C4F86C3103B030BD38B500F53B
S3150FE13F40807204460D46202300F1B8012830FEF7B2
S3150FE13F507FFCD4F874311BB9D4E95B329A4203D3AF
S3150FE13F60A07800B1E07838BD29462046FFF7ECFE90
S3150FE13F70EFE700000F4B00B5D3F828389B688B426B
S3150FE13F80E3B003D3002063B05DF804FB4FF4BC72DA
S3150FE13F9004A9FFF7BFFF0028F4D10223CDE9000002
S3150FE13FA08DF811300290044B0393694604A8FFF78D
S3150FE13FB0C5FFE8E70000E10F3D0AE10F00B5E3B009
S3150FE13FC04FF4BC7204A9FFF7A5FF70B901238DF871
S3150FE13FD01130074B0090CDE901300390694604A8F3
S3150FE13FE0FFF7ACFF63B05DF804FB0020FAE700BF13
S3150FE13FF0150AE10F38B5FDF7DBF89F20FDF784F8D9
S3150FE14000FDF7B0F80546FDF7B9F80446FDF7DAF81E
S3150FE140109D2D17D0C22D03D01F2D0CD0002038BDFA
S3150FE1402042F614039C4214D042F6160084420CBFAA
S3150FE140300A200020F3E748F2014084420CBF0E202C
S3150FE140400020ECE744F2130084420CBF1720002056
S3150FE14050E5E70720E3E708B5FDF7AAF80620FDF740
S3150FE1406053F8BDE80840FDF7ADB808B5FDF70AF816
S3150FE14070FFF7EFFD42F21070FCF7E0FFFDF798F85E
S3150FE14080AB20FDF741F8FDF79DF847F23050FCF70D
S3150FE14090D5FFFFF7AFFF88B10C38C0B201280BD8B7
S3150FE140A0FFF7D9FFFDF784F80120FDF72DF8002082
S3150FE140B0FDF72AF8FDF786F8002001E040F201103E
S3150FE140C008BD10B5FDF774F80520FDF71DF8FDF7EE
S3150FE140D049F80446FDF776F804F0010010BD08B57E
S3150FE140E0FFF7EFFF0028FBD108BD000070B588B0E0
S3150FE140F00646FFF7F4FF20220021684600F0ECFCAC
S3150FE14100FFF778FF0E2820D00CD807280FD00A2802
S3150FE1411018D06C460FCC35460FC594E80F0085E8ED
S3150FE141200F000CE01728F4D1094D344601E0094D93
S3150FE1413034460FCD0FC495E80F0084E80F003046E3
S3150FE1414008B070BD044D3446F3E7044D3446F0E74D
S3150FE14150804DE10FC04DE10FA04DE10F604DE10F35
S3150FE1416010B50446FFF7BBFF54B9FFF743FF01381C
S3150FE14170C0B2162896BF064B002053F8200010BD9B
S3150FE1418020780028F3D1FFF735FF2070EFE700BF66
S3150FE14190044DE10F38B5054610460C46FFF7E0FF33
S3150FE141A0A04207D3A84205D32C4484428CBF0020FA
S3150FE141B0012038BD0020FCE713B50C460190FFF74F
S3150FE141C08EFFFFF748FFFCF7F3FF0198FCF79CFF23
S3150FE141D02046FCF7A7FF02B0BDE81040FCF7F2BF9F
S3150FE141E070B514460D46002221460646FFF7D2FF6B
S3150FE141F0A8B1FFF774FFFCF7DBFF0320FCF784FFA1
S3150FE142003046FCF78FFF2C44A54203D1FCF7DAFFCA
S3150FE14210002070BDFCF7A6FF05F8010BF4E740F2AD
S3150FE142200240F6E72DE9F04114460F4600222146FA
S3150FE142300646FFF7AFFF002846D0FFF750FFFCF722
S3150FE14240B7FF0320FCF760FF3046FCF76BFF25460F
S3150FE142508DB9FCF7B7FFF3B253B326F0FF0505F5BA
S3150FE1426080753319AB4226BFAD1BADB225465CB99E
S3150FE142702046BDE8F081FCF775FFFF2805F1FF3514
S3150FE14280E6D040F20340F4E7FFF729FFFFF7E3FE3D
S3150FE14290FCF78EFF0220FCF737FF3046FCF742FFB3
S3150FE142A007EB0508B8450AD1FCF78CFF641B2E44D2
S3150FE142B0B4F5807F254628BF4FF48075D7E717F809
S3150FE142C0010BFCF721FFEDE740F20240D1E74FF09A
S3150FE142D0FF3070472DE9F341002305460DF1070045
S3150FE142E08DF807300C46FFF73BFF9DF80730A3F13A
S3150FE142F00F02032A06462CD9133BDBB2012B47F6F5
S3150FE14300FF734FF6FF778EBF4FF480381F464FF49A
S3150FE14310004840F6FF7344EA05021A423DD10DF11A
S3150FE14320070221462846FFF735FFC8B30DB9A64266
S3150FE1433015D025442E1BECB137421FD1444524D26B
S3150FE143402644311BB4B12020FFF736FFA4F5805484
S3150FE14350F7E74FF6FF774FF480383B46DBE7FFF79A
S3150FE14360BEFEFFF778FEFCF723FFC720FCF7CCFE76
S3150FE14370FCF728FF002002B0BDE8F081314620208E
S3150FE14380FFF71AFFA4F58054D4E73146D820FFF79B
S3150FE1439013FF4644A4EB0804D0E740F20440EAE7F2
S3150FE143A040F20240E7E708B5FFF799FEFCF700FF99
S3150FE143B0B920FCF7A9FEFCF705FFFFF74BFC002040
S3150FE143C008BD0000044BD3F84421D20703D4D3F838
S3150FE143D040211042FBD1704700400E4038B5C0F383
S3150FE143E00323013B092B16D8DFE803F02616151533
S3150FE143F005191C151F23124C0023C0F3043513B105
S3150FE144001846FFF7DFFF04F1424404F5801405EB8C
S3150FE14410C404A400216038BD0A4C0023EDE70A4C21
S3150FE144200123EAE7094C1023E7E7094C4FF4803300
S3150FE14430E3E7084C0023E0E7074C0023DDE700BF85
S3150FE14440B0400E40C0400E40E0400E40E8400E4006
S3150FE14450F0400E4050410E4000400E40EFF3108009
S3150FE1446072B6704700B962B6704730B5D1E902232B
S3150FE14470D1E90054056004600260036030BD30B5D8
S3150FE144800568046802680368C1E90054C1E90223BB
S3150FE1449030BD7FB58B07044611D00B466D4601F152
S3150FE144A01006186859682A4603C20833B3421546FF
S3150FE144B0F7D169462046FFF7D8FF04B070BD0091EA
S3150FE144C0009904B0BDE87040FFF7CFBF30B58B0759
S3150FE144D085B00C4610D06946FFF7D1FF0D4623464E
S3150FE144E004AC2A4603CAA24218605960154603F185
S3150FE144F00803F6D105B030BD0091009905B0BDE8CE
S3150FE145003040FFF7BCBF10B5FFF7AFFFBDE8104076
S3150FE145101031FFF7AABF10B5FFF7B1FFBDE81040A5
S3150FE145201031FFF7ACBF10B5FFF79FFF0C46103107
S3150FE14530FFF79BFF04F12001FFF797FF04F130012D
S3150FE14540BDE81040FFF791BF00F1424303F5801339
S3150FE14550102A4FEA431305D101221A6000F588703C
S3150FE14560FFF7D1BF00221A602430FFF77EBFF0B507
S3150FE145700B46990789B0054614461ED0082A6E46A2
S3150FE1458010D103F1100718685968324603C2083390
S3150FE14590BB421646F7D1224669462846FFF7D4FFB6
S3150FE145A009B0F0BD03F1200718685968324603C216
S3150FE145B00833BB421646F7D1EDE70093009909B0F0
S3150FE145C0BDE8F040FFF7C0BF436823F01F030E2994
S3150FE145D00BD8DFE801F008080808080B0B0B0808F1
S3150FE145E008080B0B0B00194341607047194341F063
S3150FE145F01001F9E770B505460E461446FFF72EFF93
S3150FE14600296881EA040202EA06044C402C60BDE8FF
S3150FE146107040FFF727BF000000EB4000F8B50D46ED
S3150FE146201F46040116463AB1164801238B40204432
S3150FE14630CFB100F1C0600360072D4FF00F0115D820
S3150FE14640AB00114806FA03F299402044FFF7D2FF77
S3150FE1465046B90C4A012101FA05F5224477B102F177
S3150FE14660C0621560F8BD00F18060E4E7A5F10803CB
S3150FE146709B00064806FA03F29940E6E702F18062EB
S3150FE14680EFE700BF0CA0004004A0004008A00040E7
S3150FE14690234B41F671311A6C10B5196421494C68F7
S3150FE146A04968996841F00101996001211861D96062
S3150FE146B0D9694C0792B209D5996821F00101996040
S3150FE146C00AB100221A644FF0FF3026E00221D960C9
S3150FE146D01549D869C00700D569B9D86910F0020044
S3150FE146E00BD0996821F0010199600AB100221A6491
S3150FE146F06FF0010011E00139EBE741B9986820F05D
S3150FE147000100986002B119646FF0020005E0996843
S3150FE1471021F0010199600AB1186410BD1046FCE75A
S3150FE1472000000E4000300E40809698002DE9F04FC4
S3150FE14730054602F16040B0F5802F03D94FF0FF3007
S3150FE14740BDE8F08FDFF8C4C02E4CDFF8C490DFF878
S3150FE14750C480302606FB05C64FF44010C6F880002C
S3150FE147600020C6F88400C6F88800C6F8980041F61E
S3150FE147707130D4F840A02064A0684FF0010E40F0EC
S3150FE147800100A0600EFA05F55BB90422E260A268AA
S3150FE1479022F00102A2601FFA8AF202B123641846DF
S3150FE147A0CEE701F50060216100EA0900C4F80CE0EB
S3150FE147B0401AD4F81CB0984228BF18461BF0040FD4
S3150FE147C04FEA9007BAD1013F3F0147F06057C6F86C
S3150FE147D08C700D4FC6F89020C6F89470DCF82070F7
S3150FE147E02F43CCF820701027E760DCF828703D42A4
S3150FE147F0FBD0C8F828500144C8F8205002441B1AD0
S3150FE14800C2E700BF00000E4018000E4000200E4028
S3150FE1481000F8FFFF00200E4403691B06FCD5C069B3
S3150FE14820C0B2704703695A06FCD5416303699B061B
S3150FE14830FCD5C069C0B2704703695B06FCD541631D
S3150FE1484070470000000000000000000000000000BB
S3150FE14850013800D0FCE770472422002100F03CB973
S3150FE1486070B515460E4624220021044600F034F9B0
S3150FE14870C02D0DD0B5F5807F01D0802D0BD120460F
S3150FE14880EA0840F8045B314600F0FEF8002070BDFF
S3150FE148906FF07100FBE76FF01F00F8E72DE9F04FBE
S3150FE148A02DED028B85B008EE903A01908B461646B8
S3150FE148B052B11568019B1B68802B03D0B3F5807F3E
S3150FE148C040F0A98000270DE01546F3E7B5B1119B3E
S3150FE148D0109ADB5D525D5340129A0135D35505F0BF
S3150FE148E00F0501375F45F1D3002E00F09780356054
S3150FE148F0002005B0BDEC028BBDE8F08F00F090F81B
S3150FE149004FF44043456003600446FFF7A7FD019965
S3150FE1491051F8043B802B0CBF08221022804620461B
S3150FE14920FFF725FE04F18403184618EE901A08EEF8
S3150FE14930103AFFF7AEFD4046FFF794FD119BABEB47
S3150FE14940070803EB0709129B28F00F0803EB070A89
S3150FE1495009EB080291451DD1119BB84403EB0809F8
S3150FE14960129B9844119B052203EB0B0A0323D145B6
S3150FE1497031D1FFF773FD18EE901A074618EE100ABC
S3150FE14980FFF7A4FD3846FFF76DFD204600F052F81C
S3150FE149905F46A7E74823A3600523A3602369990729
S3150FE149A0FCD40323A3600392FFF758FD4946029017
S3150FE149B004F1A000FFF76DFD514604F18000FFF70A
S3150FE149C085FD029B1846FFF74DFD09F11009039A84
S3150FE149D00AF1100ABEE79DB94821A160A2602169DB
S3150FE149E08A07FCD4A360FFF739FD1099074604F156
S3150FE149F08000FFF76BFD3846FFF734FD05220323F1
S3150FE14A00109819F8011B405D0135414008F8011B6B
S3150FE14A1005F00F05ABE76FF020006AE7304668E770
S3150FE14A20024B03480122C3F8002670470010C84322
S3150FE14A3000000F40094B98420ED003F58063984270
S3150FE14A4009D10122064B03EBC2035A68054B134406
S3150FE14A509B0000221A6070470022F3E700000F4027
S3150FE14A60F04DE10F8005F21010B501390244904285
S3150FE14A7001D1002005E0037811F8014FA34201D0DF
S3150FE14A80181B10BD0130F2E70A44914200F1FF33E2
S3150FE14A9000D1704710B511F8014B03F8014F914260
S3150FE14AA0F9D110BD884210B501EB020402D9844257
S3150FE14AB0234607D8431EA14208D011F8012B03F86C
S3150FE14AC0012FF8E7024401468A4200D110BD13F8DF
S3150FE14AD0014D02F8014DF7E702440346934200D137
S3150FE14AE0704703F8011BF9E7F8B500BFF8BC08BC3E
S3150FE14AF09E467047F8B500BFF8BC08BC9E467047A6
S3150FE14B00B814B6F1E0CFF3ADB7DD25C9FA79B7132E
S3150FE14B100000000007B0CD5E0200000000000102B8
S3150FE14B20204600000000000000001000F000010028
S3150FE14B30070CE10F0B0CE10FF90AE10FA50DE10FE0
S3150FE14B40D50DE10FC04CE10F0F0EE10F850EE10F11
S3150FE14B500000000000000000010CE10F13B779FA25
S3150FE14B60C925DDB7ADF3CFE0F1B614B80102000008
S3150FE14B70020000001C4EE10F4000000000000102A0
S3150FE14B80000000000000000000000000000000002F
S3150FE14B90000000000000000000000000000000001F
S3150FE14BA00000000000000000000000000400000704
S3150FE14BB000000D1013001A2026303840480000007F
S3150FE14BC0FD0707FD9113E10FC113E10F6514E10F26
S3150FE14BD05914E10F2000000000010000050C000050
S3150FE14BE0FFFFFFFFFFFFFFFFFFFFFFFF00000000DB
S3150FE14BF0000000000000000001000000FFFFFFFFC2
S3150FE14C00512563FCC2CAB9F3849E17A7ADFAE6BC78
S3150FE14C10FFFFFFFFFFFFFFFF00000000FFFFFFFFAA
S3150FE14C2096C298D84539A1F4A033EB2D817D037750
S3150FE14C30F240A463E5E6BCF847422CE1F2D1176BEB
S3150FE14C40F551BF376840B6CBCE5E316B5733CE2BBE
S3150FE14C50169E0F7C4AEBE78E9B7F1AFEE242E34FED
S3150FE14C606A09E667BB67AE853C6EF372A54FF53A07
S3150FE14C70510E527F9B05688C1F83D9AB5BE0CD1933
S3150FE14C8080000000000000000000000000000000AE
S3150FE14C90000000000000000000000000000000001E
S3150FE14CA0000000000000000000000000000000000E
S3150FE14CB000000000000000000000000000000000FE
S3150FE14CC000010000D13EE10FD53CE10F0D3DE10FB3
S3150FE14CD0713EE10FAD3EE10F3D3CE10F1D3CE10FB2
S3150FE14CE04D3CE10F153FE10F833DE10FE13DE10F53
S3150FE14CF0C340E10FE141E10F2542E10FD542E10F5B
S3150FE14D00CF42E10F00001000000004000000100088
S3150FE14D100000040000000800000010000000100071
S3150FE14D20000020000000200000004000000080008D
S3150FE14D300000080000001000000008000000040059
S3150FE14D4000000800000010000000200000800000B5
S3150FE14D50000001000000020000000400000008004E
S3150FE14D60100203009A01000000300000001000005D
S3150FE14D700000080000000000010000000002000032
S3150FE14D80100203009A010000000C00000010000061
S3150FE14D900000080000000000010000000100000013
S3150FE14DA0100203009A01000000E00100001000006C
S3150FE14DB0000040000000000001000000002000009C
S3150FE14DC0100203009A0100000078000000100000B5
S3150FE14DD000001000000000000100000000000100CB
S3150FE14DE000000000010000000000000000001000BC
S3150FE14DF000000F400000000000040F40010000001A
S3150FE14E000C4EE10F00100020040000006112E10FCB
S3150FE14E109912E10F3109E10F0D09E10FB2BA7B23C7
S50304BF39
S70500000000FA
