S02B00002F6D6E742F726169642F776F726B7370616365732F77732E62363247316B5249572F6F7665726C6178
S2140040000000012001440000FD430000FD430000C5
S214004010E1460000FD430000FD430000FD430000B4
S214004020FD430000FD430000FD430000FD4300008B
S214004030FD430000FD430000FD430000FD4300007B
S214004040FD430000FD430000FD430000FD4300006B
S214004050FD430000FD430000FD430000FD4300005B
S214004060FD430000FD430000FD430000FD4300004B
S214004070FD430000FD430000FD430000FD4300003B
S214004080FD430000FD430000FD430000FD4300002B
S214004090FD430000FD430000FD430000FD4300001B
S2140040A0FD430000FD430000FD430000FD4300000B
S2140040B0FD430000C1DB0000FD43000065E5000095
S2140040C019E5000015E5000051DD000061E500007F
S2140040D01DE5000025E5000021E500006DC9000093
S2140040E0A5E50000FD430000FD430000FD43000081
S2140040F0FD430000FD430000FD430000FD430000BB
S214004100FD430000FD430000FD430000FD430000AA
S214004110FD430000FD430000FD430000FD4300009A
S214004120FD430000FD430000FD430000FD4300008A
S214004130FD43000010B5054C237833B9044B13B18A
S214004140044800E000BF0123237010BD8802002051
S21400415000000000042A010008B5034B1BB1034908
S214004160034800E000BF08BD000000008C020020ED
S214004170042A0100A3F5803A704700BF174B002BB6
S21400418008BF134B9D46FFF7F5FF00218B460F46F1
S2140041901348144A121A0BF064FD0E4B002B00D085
S2140041A098470D4B002B00D09847002000210400B4
S2140041B00D000D48002802D00C4800E000BF0BF0B0
S2140041C0EDFC2000290000F013F80BF0D3FC00BF34
S2140041D000000800000000000000000000000120B1
S2140041E088020020C01B0020000000000000000025
S2140041F030B59DB001F06CFC08B901F0DFFC04247A
S21400420000F000FA04F094FC002335200DEB0402C5
S21400421003A903938DF8044001F054FD06238DF89E
S2140042200530039B8DF80640DB0340F1A08005A80F
S21400423000F0CFFB624B05AA5A60614800F0A1FB74
S21400424001233E2002AA0DF107018DF8083001F087
S21400425039FD18B19DF8070000F09EFB11230DF103
S214004260090207A936208DF8093001F02BFD20231E
S2140042700CAC214639200DF10A028DF80A3001F007
S21400428021FD98BB4F4B9DF8092018681B790C90B0
S2140042902371002A00F086801B2A28BF1B22531D8C
S2140042A08DF80A3007A9531C0DF135008DF8333010
S2140042B00BF0B0FC14A800F083FB434A9DF80A30CC
S2140042C012881CA9E2529A1C51FA82F29DF85610E6
S2140042D01498C1F3000102F8401CBDF854100933CD
S2140042E042F83F0C22F83B1C8DF80A3020233A2077
S2140042F00DF10B0214A98DF80B3001F0E3FC48B960
S214004300324B1A889B78ADF850208DF85230032334
S2140043108DF80B302E4800F0E7F92D4800F068FBCA
S2140043209DF80920002A48D007A9294800F090FBEC
S214004330274800F0EFFB264800F038FB20469DF8A3
S2140043400A1000F039FB9DF80B1014A800F036FB9D
S214004350012000F02DFB1F4D1F4C2B780BB100F0F9
S2140043601DFB236923F00403236130BFF5E72C20EF
S2140043700DF1050205A901F0A5FC00283FF45DAF8C
S2140043803C200DF1060204A901F09CFC18B19DF832
S214004390100000F001009DF81A3060F300038DF85D
S2140043A01A3047E708238DF80A300C4B1A889B789A
S2140043B0ADF835208DF837307CE703220749B4E79F
S2140043C0A402002038FE000042FE000045FE000069
S2140043D0B0020020AC02002000ED00E03EFE00002F
S2140043E00122014B1A707047AC0200200022024BDB
S2140043F01A7000F081BF00BFAC020020FEE700008C
S21400440008B500F02DF8124B12498B4212D300204B
S214004410114B12498B4218D3FFF7B0FE186850F8BC
S2140044202240586840F82240013298688242F5D30C
S2140044300C33EAE70022F8E71C6844F82200013251
S2140044405C68A242F8D30833E4E70022F8E700BF2E
S214004450102A01001C2A01001C2A01001C2A010047
S2140044606FF00100104B114A10B59A60D3F88820FF
S2140044700F4942F47002C3F8882001F50052106616
S21400448041F2FF7050660220C3F8D000BFF34F8F92
S214004490BFF36F8F08244FF440330648C0F88041BE
S2140044A0D36004600B6110BD00ED00E0004000002A
S2140044B00080004400E100E0014B1868704700BF30
S2140044C014000020084B1B6F03F00703022B04D0D8
S2140044D0032B05D0012B05D0FEE7044B1868704768
S2140044E0034BFBE703487047008000501400002091
S2140044F018000020002D310108B5FFF7E3FF054B3B
S2140045001B6FC3F301330133B0FBF3F0024B1860AB
S21400451008BD00BF00800050100000200048704713
S21400452000B4C404014B1868704700BF1800002090
S2140045300020704700487047002D3101174B9868DF
S214004540C0F304400C2822D8DFE800F0092121211E
S2140045502121071719211B1D1F00114870479B6852
S21400456003F04073B3F1807F13D0B3F1007F12D015
S2140045700C4A002B08BF104670470B4870470B4884
S21400458070470B4870470B4870470B487047002031
S21400459070470A4870470A48704700BF0040015AF3
S2140045A0405DC60000093D000024F400C0EA210179
S2140045B080BA8C010048E801005A620280841E001E
S2140045C040420F004FF4004070474FF47A70704737
S2140045D0014B1868704700BF1C000020BFF35F8FB8
S2140045E0074B5A6A22F480325A62D3F8942022F09B
S2140045F00102C3F89420BFF34F8FBFF36F8F70474D
S21400460000ED00E070B52648264CFFF7E7FF844231
S21400461008BF4FF08043244A18BF20F01F03D2F88B
S214004620C01018BF203B21F0FF0141F0A001B3F1FC
S214004630005FC2F8C0100CD31C4D1D4E296843F015
S2140046400103C2F898100131C2F89C60C2F8A0308D
S2140046502960844210D01548164B0268124923F090
S2140046601F0343F00303C1F89820C1F89C30124B97
S2140046700132C1F8A0300260BFF35F8F05220A4BFB
S214004680C3F894205A6A42F480325A62BFF34F8FBE
S214004690BFF36F8FBFF34F8FBFF36F8F70BD00BF39
S2140046A0E00000207C02002000ED00E0B8020020C0
S2140046B0030000209B020020E1FFFF3FBFF34F8F67
S2140046C00549064BCA6802F4E0621343CB60BFF3A9
S2140046D04F8F00BFFDE700BF00ED00E00400FA05C5
S2140046E008B5FFF7EBFF08BD002303604360704783
S2140046F04FF6FE7201608280704700001FB50A798F
S214004700064B02920A6808310192022200920CCBF4
S21400471000F016F905B05DF804FB00BFACFE000023
S21400472030B50B7985B00333029301F1440301934E
S21400473002230C460546114A009314310CCA00F0B9
S214004740FFF8238A04F12C010293E36828460193BC
S214004750237A009394E80C0000F0F2F80546237ADA
S214004760A4F845002279216884F8443004F1470013
S2140047700BF050FA284605B030BD00BFA4FE00007E
S2140047801FB50B8A0293CB6801930B7A009391E8CE
S2140047900C00143100F0D4F805B05DF804FB0000FE
S2140047A0024610B500B3114B1968888890421BD397
S2140047B098880024904281BF0120096898809960FB
S2140047C09868998828B904B198604FF6FF729A8065
S2140047D009E08A4204D001310124006889B2F1E779
S2140047E00CB19A80986010BD0020FCE7BC02002047
S2140047F0036937B514460D46828A63B14FF6FE71DB
S2140048008A4208D1002069460090ADF80400984717
S21400481028B103B030BD2B6000202280F9E7009B52
S2140048202B60BDF804302380F3E700004FF6FF72DC
S214004830014B18609A807047BC02002010B50C46E9
S214004840FFF7AEFF28B1D0E9010184E8030000209D
S21400485010BD0120FCE72DE9FF416D46044685E8C2
S2140048600C000E460A9FBDF82C80FFF799FF054600
S2140048700DB1B44205D94FF6FF74204604B0BDE82A
S214004880F0812B7A9DF804209A4219D10099686825
S2140048900BF0B0F9A0B9002FEFD028460DF10A02B0
S2140048A003A9FFF7A5FF58B9039949B1BDF80A3027
S2140048B0434505D1424638460BF09CF90028DCD02B
S2140048C001342D68A4B2D3E737B515461C46FFF76A
S2140048D067FF70B1036973B14FF6FE72818A914229
S2140048E009D1694601200095ADF80440984703B009
S2140048F030BD0120FBE70E20F9E710B50C46FFF7A8
S2140049004FFF40B1037B1C4207D114F00C0F14BFBD
S2140049100320022010BD0120FCE70020FAE738B58E
S21400492015461C46FFF73CFF40B122462946FFF7D6
S2140049305FFF10B92B6803B9208038BD0120FCE763
S21400494013B5044602A800E90C00081D80E80C0018
S2140049509DF810300B73059B0B61BDF818308B82E9
S21400496000230B60236853B11A461B68002BFBD14B
S2140049701160A388013398B2A08002B010BD2160F8
S214004980F7E708B501F024FE01F00EFD01F00CFA81
S214004990BDE8084002F0FCBE02F084B908B501F09C
S2140049A0F7FD00B908BD01F069FDF8E7FFF73EBF67
S2140049B001F0CEBD01F0D1BD01F0C6BD01F0C6BD0F
S2140049C010B5044604F090F8A3796FF30003A371C2
S2140049D010BD10B50446062104F098F8637963F01C
S2140049E03F036371A37943F00103A37110BD000078
S2140049F038B50546124B134CD4E9020183E8030090
S214004A0019462846FFF77AFED4E9040110220E4B19
S214004A1083E80300194628461A72FFF781FED4E998
S214004A2006010222094B20341A7283E80300DC6078
S214004A30194628461A82BDE83840FFF7A1BE00BFD7
S214004A40C4030020C0FE00002003002078030020DE
S214004A50F8B504460D4B0E4D0F46D5E9090183E81F
S214004A600300194620461646FFF748FED5E90B0117
S214004A700222084B1A7283E80300DF6019462046BC
S214004A801E82BDE8F840FFF74BBE00BFA40300201F
S214004A90C0FE0000C802002010B50C4648B901F060
S214004AA053F8054B10B1426B126A1A602360042358
S214004AB0A380002010BD00BFE40300201FB50C46F5
S214004AC040B901A800F0A4FC044B029A1A602360C7
S214004AD00423A380002004B010BD00BFE80300201C
S214004AE001280B4604D1898821B1186800F04CBC17
S214004AF0002070470D20704701280B4605D1898895
S214004B00012904D1186800F06BBC002070470D2006
S214004B10704700002DE9F74306466D464FF008093A
S214004B20404C414B414F94E8030083E8030019468C
S214004B303046FFF7E3FDD4E9020187E80300284684
S214004B403B4987F80890FFF7D3FD95E8030007F187
S214004B500C0383E8030039463046FFF7E1FDD4E94D
S214004B6004010C234FF00208324F87E80300284662
S214004B7031493B72FFF7BCFD95E8030007F10C03D3
S214004B8083E8030039463046FFF7CAFDD4E906013C
S214004B902A4B2B4A83E803001946304683F80880E0
S214004BA0DA60A3F81090FFF7BBFDD4E90801254BA7
S214004BB0254A264FDA60012283E80300194630466C
S214004BC01A8283F80880FFF7ABFDD4E90A0187E86C
S214004BD0030028461E4987F80880FFF789FD95E8F8
S214004BE0030007F10C0383E803003946194F3046EB
S214004BF0FFF796FDD4E90C0187E80300284616491E
S214004C0087F80880FFF774FD95E8030007F10C03AA
S214004C1083E803003946304603B0BDE8F043FFF7AB
S214004C207FBD00BF6CFF0000FC050020F4040020E0
S214004C30F94A00004C050020E14A00004404002028
S214004C40A4FF0000A4050020ACFF00009C04002088
S214004C50BD4A0000EC030020994A00002DE9F3410C
S214004C6090464C4C4C4A4D4EA41A4D4A3368144458
S214004C7024F4FF54C31A4B4D24F01F04A3422B60A8
S214004C8003D28722484B1A7079E000EB080701919F
S214004C9001F00AF8874275D83068019900EB0807DA
S214004CA0B7F5806F02D982223F4BECE73F4C424675
S214004CB0DFF8048120440AF0ADFFD8F800303760F2
S214004CC023B9332F5BD9636BC8F80030D8F80030AF
S214004CD02A68934221D3B9188B421ED203F11000E2
S214004CE088424CD89B1A2344314A03F1100153F8EA
S214004CF0040B8B4242F8040BF9D12D4800F002FF5A
S214004D0010B98422284BBEE7D8F800002B68102282
S214004D10C01AFF2120440AF0A4FF2B683468DFF88D
S214004D209C80244A07F003071C44D8F80000E41BC4
S214004D30144060B903EA0200C0F50051214400F0B7
S214004D4091FEC8F8004040B18522174B9BE7A04271
S214004D5003D2211A00F50050F1E732681349D21B3E
S214004D60286800F031FE044632682B68D21B1344D4
S214004D700A490E482B6000F0CFFA002CE4D102B0AE
S214004D80BDE8F0812B68A342FFF47BAF8322064B7D
S214004D9079E700BF8402002010000020600A00208F
S214004DA05B4A01002C060020750E002060060020DD
S214004DB04C06002000E0FFFF5C060020640A00208E
S214004DC02DE9F047944E954D33788CB0022B2AD0BF
S214004DD02B68032B01D8002040E0914C204600F0C1
S214004DE017FB22788F4B012A1B6830D16268110EA0
S214004DF0012903D1C2F307420A2A34D98A4A9342C8
S214004E0040F08780A368DA032BD50223337000F0C6
S214004E1051FC002005A900F01BFD844B059A1A6082
S214004E20834B069A1A60834E2B683278082A01D084
S214004E30402A4DD1804F7E493868096803F0030840
S214004E40C218A2EB08028A420FD9832004E07648F3
S214004E5083420CBF86208420784B18700CB0BDE8C7
S214004E60F0878620F8E78820F6E7704ADFF8DC91BE
S214004E7014681C440444A4EB0804D9F8000024F485
S214004E80FF5424F01F04A04209D2211A00F5005056
S214004E9000F0E8FD08B18520DEE7C9F800402B6881
S214004EA0604A3968A3EB0803002000F0DFFC0446E4
S214004EB02A683B68A2EB08021344584959483B60ED
S214004EC000F02AFA002CE6D13378002B83D100E0DC
S214004ED00ABB2B687F2B7FF67EAF594FDFF87091A9
S214004EE03B6833B900F0C2FAC9F800000AF07AFE4F
S214004EF03860D9F80010386800F01EFC0028CAD1C7
S214004F0003AB00932A684749386805AB00F052FCAB
S214004F10F8B18420A0E7484949480A6800681A445E
S214004F200A60404A474900F023FC2A6804463B4989
S214004F303C4800F0F1F940F203239C4203D10122E1
S214004F40414B1A7047E740F201239C42BCD08020B8
S214004F5082E79DF8143033701BB9039B0BB14023D6
S214004F60337000F0F1FD044640B3D0F83480337857
S214004F70002B3FF430AF00230493042335200DF1BB
S214004F800B0204A98DF80B3000F09CFE049BDB0797
S214004F9019D53378082B13D0B8F1000F13D0C246BA
S214004FA0102208A90AF128000AF024FE20B9DAF82F
S214004FB02030069A9A4206D889204DE78046D6E7E2
S214004FC0DFF890A0ECE794B14FF40051204600F0D3
S214004FD049FD00287FF45FAF28F4FF504FF40051DE
S214004FE020F01F0000F03EFD00287FF454AF337819
S214004FF0082B01D0402B2FD10C4B144A18684FF4C5
S214005000005120F4FF5323F01F03136000F02AFD25
S21400501000283FF4E0AE3EE7760E0020700E00203B
S21400502020060020700A0020EB17A603680A00205E
S2140050306C0A00201C06002030060020750E00209A
S2140050404406002034060020740E0020640A002067
S214005050480600204CFE0000104E114BD9F80010F8
S2140050603868736000F068FB00287FF414AF3146A0
S2140050702B680C4A386800F07BFB2A6806460A490B
S214005080084800F049F940F203239E423FF457AF28
S21400509040F201239E423FF49EAE58E734060020BD
S2140050A05D4C0000700A0020700E002008B500233A
S2140050B00B4A13600B4A13600B4A13600B4A1360CB
S2140050C00B4A13700B4A13600B4A13600B4A13709B
S2140050D00B4B1B78022B01D100F00EFB002008BD05
S2140050E0680A00202C0600205C060020640A0020C7
S2140050F01C06002030060020600A00201D06002046
S214005100760E00202DE9F041634B1B78082B01D06A
S214005110402B5ED1614F386870B90021084600F018
S2140051202FFC00284FD100F0C7FB002849D10122F0
S2140051305B4B1A70BDE8F08110F003051CBFC5F18B
S2140051400405EDB200EB0508B8F5806F00F2A2800A
S214005150544B2A46FF211844534E0AF082FD534A08
S2140051603368126808EB03019142C7F8008000F22A
S2140051708B804F4A14681C444444DFF8548124F45E
S214005180FF54D8F8000024F01F04A04207D2211ACA
S21400519000F5005000F066FC98B9C8F800403B687F
S2140051A0404A3168002000F061FB044633683A68E4
S2140051B03A4913445D1B3B48356000F0ADF8002CBF
S2140051C0ABD08520B6E741F2080290425ED0802040
S2140051D0B0E7002B5CD0374B1B78002BF7D0364D52
S2140051E02B68002B44D013F003021CBFC2F104024C
S2140051F0D2B29F18B7F5806F4CD83048FF211844BC
S2140052000AF02FFD2E4C2F4B2F4EE41A2F4BDFF8B3
S214005210CC801C44336804EA0804A3422F6001D201
S214005220872087E71F4400F03FFD8742336829D870
S2140052302C68274F2344386803EA0804A04207D2A4
S214005240211A00F5005000F00DFC0028B9D13C6092
S2140052502A681A49306800F0B7FB044633682A68A3
S214005260154913441548336000F056F8002CA8D1B1
S214005270184B10221849186800F0A6FB00283FF4C7
S21400528059AF9EE7A342CBD3832053E7862051E74E
S21400529084204FE782204DE71C060020700E002079
S2140052A01D060020700A0020300600206C0A002030
S2140052B0680A0020740E0020600A002060060020A5
S2140052C084020020100000202C0600205B4A01000B
S2140052D0640A00205C0600204C06002000E0FFFF69
S2140052E010B5044C2378022B01D100F005FA0023F8
S2140052F0237010BD760E002008B5064B187828B12E
S21400530000F0D8F9BDE8084000F098B8BDE80840BD
S21400531000F0CABB1D06002038B50C4611462568AD
S2140053200144AD1A2A460AF082FC256038BD00000A
S21400533010B50024064B1C60064B1C70FFF7B6FE2B
S214005340B0FA80F3044A5B091370044B1C7010BD5E
S214005350700E0020750E0020760E0020740E0020C1
S21400536010B5074B1C782CB9064B1B7833B1FFF7EA
S214005370C9FE0446FFF7B4FF204610BD8124F9E7B6
S214005380750E0020760E002038B50A460F490346F3
S2140053900978C1B10E49087850B90E4C24783CB94A
S2140053A00D4C20681518B5F5806F02D9822008705C
S2140053B038BD1946094B18440AF02CFC2560BDE898
S2140053C03840FFF7FDBC8120F2E700BF760E0020D4
S2140053D0750E0020740E0020700E0020700A00204B
S2140053E0012908B512D103781BB9BDE80840FFF7BC
S2140053F09FBF032B03D1BDE80840FFF7B1BF042BC6
S21400540004D11320FFF7D6FA002008BD0620FCE7DB
S21400541000239B6AB3F5804F03D21968064A91426F
S21400542003D00023037083607047012202709A68DD
S2140054309B694260F7E700BF07B0CD5E4FF00053B0
S214005440074A1A60BFF34F8F0649074BCA6802F433
S214005450E0621343CB60BFF34F8F00BFFDE700BF92
S21400546002020FF000ED00E00400FA051FB5002070
S214005470836AB3F5804F13D20123CDE9020001A859
S2140054808DF80430FFF7C4FF029B1A0E10D0012AD5
S21400549009D1C3F307430A2B05D809D14FF403708B
S2140054A005B05DF804FB00239B6A9B6B9847F7E703
S2140054B04FF4C070F4E730B50024A36A87B0B3F5A4
S2140054C0804F054601910FD2012303A88DF80C30BA
S2140054D0CDE90444FFF79CFF059B5B0504D5A36A52
S2140054E028461B6C0199984707B030BD13B53A4B58
S2140054F004461A781AB102221A7002B010BDCDE91D
S21400550000220028F9D001221A7009F034FD334B2E
S214005510186007F0E9F9324B5A68A260314A9A607F
S2140055201A6E22605A6E62601B6E5C0435D52E4A77
S214005530D368D807FCD42D4B1A68531C32D04FF4CE
S214005540801393402A4A13660423294C23664FF49B
S2140055508063236600F05CFA01300BD000F058FA46
S21400556040F2011398421FBF4FF4804323664FF466
S2140055700043236610231E4C4FF0804223664FF4F0
S21400558000536846236601A922666366FFF793FF09
S214005590009B2366019B6366AFE7164AD368D9076C
S2140055A0FCD4C8E7144B1B78002BCDD1134B5A689C
S2140055B00F4B12B94FF480121A66114A526812B98C
S2140055C04FF400121A660F4B5B68002BBCD14FF4E9
S2140055D08002074B1A66B7E7850E0020880E00206B
S2140055E00080004455CEAC0000000440200000209F
S2140055F00090004400000450840E002000800550F7
S21400560000C005500000065038B5214D04462B78E2
S214005610012B02D001232B7038BD0028FCD000F0EF
S214005620F7F9013009D000F0F3F940F2011398427F
S21400563003D0184AD368DB07FCD42268164B1A66D8
S21400564062685A66A268D40744BF00229A60134B69
S2140056501A68013213D1124A127882B91149496880
S214005660C80748BF1A60104A5268D10744BF0122D3
S2140056701A600E4A5268D20744BF02221A6007F028
S2140056804BF90B4B186809F07AFC0023C3E700BF00
S214005690850E00200000044000800044200000200A
S2140056A0840E00200080055000C005500000065003
S2140056B0880E002070B50024A36AB3F5804F13D27D
S2140056C00B4E337813F0FD050CD10A48FFF70EFF9A
S2140056D0AB6ADB69984704460648FFF795FF0CB9A6
S2140056E001233370204670BD4FF48174FAE700BF83
S2140056F0840E0020780E002038B50024A36AB3F587
S214005700804F12D20A4D2B78012B0CD10948FFF797
S214005710EDFEA36A1B6A9847044608B902232B705D
S2140057200448FFF771FF204638BD4FF48174FAE74E
S214005730840E0020780E002037B50025AB6A04469C
S214005740B3F5804F01910ED20848FFF7CFFEAB6A43
S21400575020469B6A0199984704460448FFF754FF81
S214005760204603B030BD40F20224F9E7780E002050
S21400577030B500250446A86A85B0B0F5804FCDE95F
S2140057800221019310D20A48FFF7B0FEDDE901328C
S214005790A86A0399C56A2046A84704460448FFF746
S2140057A033FF204605B030BD40F20224F9E700BFC3
S2140057B0780E00202DE9F0419846002317469A6A95
S2140057C00546B2F5804F0E4686B005D340F2022459
S2140057D0204606B0BDE8F081012203A8CDE90433D7
S2140057E08DF80C20FFF714FE049C230EEED0012B40
S2140057F003D1C4F307440A2CE8D90948FFF776FE1C
S21400580000230C9A9B6A00925C6B3A4643463146EC
S2140058102846A04704460248FFF7F6FED8E700BF32
S214005820780E002038B50024A36A0546B3F5804FED
S2140058300AD20648FFF75AFEA36A28465B6A9847CC
S21400584004460248FFF7E0FE204638BD780E0020EA
S21400585000239B6AB3F5804F05D21B6BB3F5804FD0
S21400586001D29B6818474FF48170704730B5002509
S2140058700446A86A85B0B0F5804FCDE902210193B1
S21400588015D2006BB0F5804F11D20A48FFF72EFEF6
S214005890DDE90132A86A0399006B05692046A8472E
S2140058A004460448FFF7B0FE204605B030BD4FF46E
S2140058B08174F9E78C0E002013B50024A36A0190CA
S2140058C0B3F5804F13D21B6BB3F5804F0FD2094848
S2140058D0FFF70CFEA36A01211B6B01A89B69984782
S2140058E004460448FFF790FE204602B010BD4FF471
S2140058F08174F9E78C0E002037B50025AB6A0446A4
S214005900B3F5804FCDE9002112D21B6B83B10A4854
S214005910FFF7ECFDDDE90021AB6A20461B6B5B6AF6
S214005920984704460448FFF76FFE204603B030BD94
S2140059304FF40174F9E700BF8C0E002037B5002540
S214005940AB6A0446B3F5804F019113D21B6BB3F5D7
S214005950804F0FD20948FFF7C9FDAB6A20461B6B84
S21400596001999B6A984704460448FFF74DFE204677
S21400597003B030BD4FF40174F9E700BF8C0E002071
S214005980002370B59B6A0D46B3F5804FADF50E7DCE
S21400599017D24FF40E726946FFF7AEFF044660B9A1
S2140059A040F2012629466846FFF7C8FFB042F9D004
S2140059B040F20323984218BF044620460DF50E7D9C
S2140059C070BD4FF40174F8E737B50025AB6A04469E
S2140059D0B3F5804FCDE9002114D21B6BB3F5804F91
S2140059E010D20A48FFF782FDDDE90021AB6A2046A7
S2140059F01B6B9B6B984704460448FFF705FE204642
S214005A0003B030BD40F20114F9E700BF8C0E002051
S214005A101FB500239A6AB2F5804F04D340F20110F6
S214005A2005B05DF804FB126BB2F5804FF6D201228A
S214005A3001A8CDE902338DF80420FFF7E9FC039BAB
S214005A40DB03EBD5029B1A0EE8D0012A03D1C3F381
S214005A5007430A2BE2D900239B6A1B6B1B6C9847F3
S214005A60DEE7000037B50025AB6A0446B3F5804F85
S214005A70019113D21B6BB3F5804F0FD20948FFF785
S214005A8035FDAB6A20461B6B0199DB6B98470446D5
S214005A900448FFF7B9FD204603B030BD40F20114BC
S214005AA0F9E700BF8C0E00204FF000531860BFF3DC
S214005AB04F8F0549054BCA6802F4E0621343CB607A
S214005AC0BFF34F8F00BFFDE700ED00E00400FA05CE
S214005AD00A4BD3F8940010F0400008D04FF0005363
S214005AE01868022808D0064BC31A584258414FF08F
S214005AF0005300221A6070470120F8E7004000506B
S214005B0003020FF07FB503466D460E4A02F11006FB
S214005B102C4610685168083203C4B2422546F7D1B5
S214005B205A1E0DF10F010F3311F8010912F8014F3B
S214005B30844204D19A42F7D1012004B070BD0020FF
S214005B40FBE700BFADFF0000F8B5174E306830BB6E
S214005B50164B174C174FE41A174B1C4424F4FF54EB
S214005B6024F01F04FB689BB2B4EB832F16D2656B40
S214005B70B5B1FB689BB2B5EB832F11D2FA6805F17D
S214005B80500392B2B3EB822F0AD82846FFF7BAFF2B
S214005B9030B1EB6933F0080302D034603068F8BDEA
S214005BA004F50054DEE700BF980E00201000002029
S214005BB0840200200080E00F5B4A010010B500F070
S214005BC013F870B103F02AF8FFF7BEFF0446FFF79C
S214005BD0BBFF044B986023689D466368BDE8104091
S214005BE0184710BD00ED00E030B585B001A8FFF7FE
S214005BF00FFCFFF7A9FF68B3456BFFF75BFD039B40
S214005C005B0705D5FFF7A0FFFFF70CFE044601E093
S214005C102DB90024FFF770FD204605B030BD0E4AB2
S214005C20D3689BB2B5EB832FF3D2D26805F150034D
S214005C3092B2B3EB822FECD82846FFF763FF0446F8
S214005C400028E6D06B69002BE4D09DF80430012BC9
S214005C50E0D1D7E70446DFE70080E00F38B50E4B0B
S214005C600E4C0F4DE41A0F4B1C4424F4FF5424F042
S214005C701F04EB689BB2B4EB832F02D300242046AC
S214005C8038BD204602F0C6FE02F0E9FE0028F6D136
S214005C9004F50054EDE700BF100000208402002049
S214005CA00080E00F5B4A010008B5FFF7D7FF28B970
S214005CB0034BD86880B28002A0F5005008BD00BF34
S214005CC00080E00F00232DE9F041264F8AB00293B2
S214005CD03B7804460E46154603F0FF08F3B9FFF777
S214005CE0BDFF214BDB6838B39BB2C0EB8323A3F523
S214005CF0005304931D4B0622059340F26C73CDE9C6
S214005D0006231B4B039009931A4B03A91868CDF87A
S214005D10208002F0D7FA78B901233B7044F4802142
S214005D20144C02AB206803AA019102F0E9FB01992A
S214005D3040B10023984600E0002340462B700AB08E
S214005D40BDE8F081029B2A789A42F2D33246206858
S214005D5002F088FB0028ECD14FF001089DF80830CF
S214005D60EBE700BFCC0E00200080E00F9C0E00206A
S214005D703C0501002C0000207FB500230130CDE952
S214005D80043380B2054BCDE9010169460420009337
S214005D90039200F00FFB07B05DF804FBD20E002064
S214005DA00EB403B0704770471B22014B1A80704731
S214005DB0CE0E0020F7B50346CDE9001207460E4684
S214005DC015464FF48040094A0949FFF7E9FF0022CB
S214005DD0012311460420074C2370677066802571E6
S214005DE003B0BDE8F040FFF7C7BF00BF5E0101008B
S214005DF0BEFF0000D20E0020034610B5094A044636
S214005E0009494FF48040FFF7CBFF0322074B0220DF
S214005E101A700022A3F801401146BDE81040FFF7B3
S214005E20ABBF00BF47010100F2FF0000D20E00200A
S214005E3030B50C4685B004A901E90C0005460346BA
S214005E400A4A4FF480400A490094FFF7A9FF05224A
S214005E500320084B02991A709DF80C205D705C8038
S214005E6005B0BDE83040FFF787BF00BF2C0101003A
S214005E70FEFF0000D20E002037B5034605460C464E
S214005E8000914FF48040094A0949FFF789FF07222D
S214005E90084B04201A7000221146A3F80150A3F8FC
S214005EA0034003B0BDE83040FFF766BF11010100B4
S214005EB022000100D20E002038B5094A05460C46DD
S214005EC00B464FF480400749FFF76AFF0B22064B4C
S214005ED029461A7000202246BDE83840FFF74CBF1E
S214005EE00101010047000100D20E002008B54FF462
S214005EF08040074A0749FFF753FF1322064B1A70E4
S214005F000022BDE8084011461046FFF735BF00BF27
S214005F10F000010056000100D20E002073B50346C3
S214005F20144605460E4600924FF48040084A09493A
S214005F30FFF736FF0922084B31461A70A21C5A702A
S214005F40032022465D8002B0BDE87040FFF714BF14
S214005F50DA0001005C000100D20E00202DE9F341BA
S214005F601C469046CDE9001307460E4603460A4AED
S214005F704FF480400949FFF713FF1123224641469C
S214005F800520074D2B70231D6B706F80AE8002B00E
S214005F90BDE8F041FFF7F0BEBF0001007A00010047
S214005FA0D20E002070B50D4603780C4A04460C4904
S214005FB04FF48040FFF7F4FE00230A4E691E204689
S214005FC089B2738000F010F8024628B171882078F4
S214005FD0BDE87040FFF7EEBE70BD00BFB700010021
S214005FE0A4000100CE0E00202DE9F04704780546F7
S214005FF0122C0E4688B017D8012C18D9A31E102BC9
S21400600015D8DFE813F0160014002F0014005A000D
S21400601014000E0114009F00140014001400140055
S214006020140051011400CC00522C00F0DE8006242F
S2140060303FE0022940F0B681B0F80130B34A4FF491
S2140060408040B349FFF7ACFEB5F80140B4F5007FD9
S21400605028BF4FF400742046FFF7CEFEAD4B1C80E1
S214006060002426E0042924D1B0F80330AA4A00937D
S214006070B0F80130A9494FF48040FFF791FEB5F81B
S214006080017006ADBEB229463046FEF7D7FB044681
S21400609018B1A04B5F800A240BE09DF81C303146F7
S2140060A0022B08BF012095E80C0018BF0220FFF75E
S2140060B0BFFE204608B0BDE8F08702278E1FB6B2A6
S2140060C00196B0F80330964A0093B0F8013095492F
S2140060D04FF48040FFF764FE05F10508EB1D0196BE
S2140060E000938DF81470CDF810804246059BB5F8E5
S2140060F00310B5F80100FEF7AEFB4FF6FF76B04290
S214006100044606D1AA786B7843EA0223814A538074
S214006110C1E70023CDE90033CDF818808DF81C7058
S21400612008AB0130314613E90C0080B2FEF793FB52
S2140061300146B0421CBF00F1FF3189B22046FFF78E
S2140061409BFE8DE7022940F02D81B0F80130764A9B
S2140061504FF480407549FFF723FE3146B5F801003D
S214006160FEF7CBFB6B4E044628B16B78AA7843EA61
S214006170022373809DE733880146013BADF810305B
S214006180B5F8010004AB06AAFEF7C9FB04460028D2
S214006190EBD1BDF810100698FFF78EFE89E78E1E2D
S2140061A0B6B20096B0F80130614A4FF480406149BB
S2140061B0FFF7F6FD0821B5F80100FEF79EFB044642
S2140061C030B1AA786B7843EA0223524A538070E7CC
S2140061D001463346B5F80100EA1CFEF775FB044697
S2140061E00028EED1FFF782FE63E78E1EB6B2009659
S2140061F0B0F80130504A4FF480404E49FFF7D0FDCA
S2140062000421B5F80100FEF778FB044600287FF469
S21400621027AF01463346B5F80100EA1CFEF754FBEB
S21400622047E70E1FB6B2022E02D0102E40F0BA80FC
S2140062300024B5F803304FF480400093B5F80130E1
S2140062403E4A3649FFF7ACFDCDE900446B1D069388
S2140062508DF81C6008AB13E90C00B5F80310B5F810
S2140062600100FEF7F8FA4FF6FF7398420646294FEC
S21400627005D16B78AA7843EA02237B800BE73B883C
S2140062802146043BADF80E3004AA0DF10E03FEF7CE
S21400629046FB044608B17E800BE73046BDF80E206C
S2140062A00499FFF73BFE04E70E1FB6B2022E01D09C
S2140062B0102E77D10024B5F803304FF480400093B9
S2140062C0B5F801301E4A1549FFF76AFDCDE90044CE
S2140062D005F1050AF6B28DF81460CDF810A0524606
S2140062E0059BB5F80310B5F80100FEF7B4FA4FF6B3
S2140062F0FF7948450746DFF81C8023D16B78AA78DB
S21400630043EA0223A8F80230C5E600BF2A020100CD
S214006310F2FF0000CE0E0020170201006F01010000
S214006320040201008D010100FC010100B60101001C
S214006330F30101005C000100EA010100DC0101003C
S214006340C9010100CDE90044CDF818A006AC8DF8CF
S2140063501C60013094E80C00494680B2FEF77BFAD8
S2140063600546B8F800304845A3F1060318BF00F10B
S214006370FF352246ADF80E304FF0000138460DF1DD
S2140063800E0318BFADB2FEF7CAFA044610B1A8F85D
S21400639002708EE629463846BDF80E30069AFFF79C
S2140063A0DDFD86E6042484E60022014B1A60704771
S2140063B0E01000200023F7B501F1080421461A4634
S2140063C0ADF80430ADF8060051F8080C083198B95D
S2140063D00BB1ADF80420042501270DEB05062A466F
S2140063E03146384600F0DEF80028F8D02D1AADB257
S2140063F006445DB10027F2E751F80C3C1A4492B20D
S2140064000123E1E734F8045C35B9083454F8086C25
S214006410002EF7D103B0F0BD2A463146002000F02A
S214006420C1F80028F0D02D1AADB20644ECE7000003
S21400643003291FB51CD90288131D994218D304D806
S2140064404388042B03D0062B06D0012011E011460A
S2140064500430FFF7A7FDF8E70022CDE90222064A3E
S21400646069460092022218460192FFF7A3FFECE766
S214006470002005B05DF804FB2400002037B500229C
S2140064800DF10700114600F06DF89DF807300C4C32
S2140064900BB10023236021680A4DC1F5017292B248
S2140064A029440DF1070000F05DF8216801442846F4
S2140064B02160FFF7BDFF08B10023236003B030BDA5
S2140064C0E0100020DC0E002010B504464FF4807368
S2140064D000210E4A0E4801F067F84FF48073002141
S2140064E00C4A0D4801F060F8204600F05DFB00F015
S2140064F031F900F065FD02F08FFB830705D500F04B
S214006500A3FCBDE8104000F063BA10BD14120020D2
S214006510FC110020FC100020E410002008B51346F3
S2140065200A460146024801F0FEF8C0B208BD00BFA8
S214006530FC11002008B5034801F03FF8003818BFEA
S214006540012008BDFC11002000F0A2BD00F0B2BD85
S21400655008B500F04FFD002008BD08B500F076FE37
S214006560002008BD73B50E460446019208F0FCFCF8
S214006570214605463246019B044801F0D4F80446FD
S214006580284608F0F5FC204602B070BDE410002056
S21400659008B5034801F011F8003818BF012008BDFF
S2140065A0E410002073B50E460446019208F0DCFCA9
S2140065B0214605463246019B044801F07FF8044612
S2140065C0284608F0D5FC204602B070BDFC1100201D
S2140065D0FFF77ABF10B50C460146044801F0CDF827
S2140065E0A04234BF0020012010BD00BFE4100020F0
S2140065F073B50E46114605460192FFF7EBFF0446BB
S21400660028B132462946019B024801F057F8204639
S21400661002B070BDE4100020FDF7E2BEFDF7E6BE56
S21400662010B5034CA07900F023FE0023236010BDB4
S214006630141300201FB50B4C0B4AA37A0B49039387
S214006640637A4FF480500293237A0193E3790093A0
S214006650A379FFF7A5FBA01D00F08EFD00232360A5
S21400666004B010BD14130020EE030100390201002F
S2140066701FB5104C104AB4F80D304FF480500293FA
S214006680B4F809300D490193A3790093B4F80730A4
S214006690FFF786FBB4F80710A07900F09FFDB4F86A
S2140066A00D10B4F8090000F0ADFD0023236004B01F
S2140066B010BD00BF14130020C003010062020100D9
S2140066C0014B998018607047141300200022014B7C
S2140066D01A60704714130020034A13681BB192888F
S2140066E0824200D11847704714130020014B1870DF
S2140066F01846704728130020013100F09BBD0000AB
S214006700162838B503464FF0020514BF0346132378
S2140067100B4C0C4A4FF480500B4963702570FFF702
S2140067203FFB2946204600F085FD00F0E1FE074BC2
S214006730074A05301A60627898809A7138BD00BFA3
S214006740281300208803010099020100141300207A
S214006750216600007047000030B5044603787B4A87
S2140067604FF480507A4985B0FFF71AFB23780C2B3C
S2140067700AD80C2B0BD8DFE803F05A3F790A0A0A2E
S2140067800A0A890A0A0A1600142B00F0A880204676
S21400679000F024F9002867D1072223786D480221EB
S2140067A00270437023E0A3884FF4805001936388FF
S2140067B0694A009363786949FFF7F2FA4FF0FF32AF
S2140067C0644C0C23A2700222E270002223706271D5
S2140067D0012340F2FF2263702371604900924FF458
S2140067E080505F4A0193FFF7DBFA0621204605B08A
S2140067F0BDE8304000F01EBDE3885A4A5A494FF4BF
S2140068008050FFF7CDFAE179A379584A43EA01238D
S21400681093801346564943F8061BD4F80110C2F875
S2140068200610B4F805209A80E2799A711CE0638914
S214006830504A4D494FF48050FFF7B2FAE27AA37AF5
S2140068404A4943EA02238B800B464B4A43F8062B01
S214006850D4F80120C1F80620D4F805205A60B4F810
S21400686009201A81E27A9A7205B030BD6378434AED
S2140068704FF480504249FFF793FA00F039FE3B4B45
S214006880404A05301A6098806278CEE7D4F8053022
S214006890D4F801203C49CDE900234FF480503B4A10
S2140068A0FFF77EFA00F09CFAD4F80130294C03403A
S2140068B003F0FF0320F0FF001843092523460022BB
S2140068C003F8015BC4F801002F495A60CDE90002C5
S2140068D04FF480502E4AFFF763FA294686E7B4F84D
S2140068E007302C4A0293B4F805304FF480500193D9
S2140068F0B4F8033028490093B4F80130FFF750FA93
S214006900B4F80310B4F8010000F08AFC1523114C0B
S2140069106FF0270223700723E2702371E27123725F
S21400692000216FF004004FF4FB62FB236070A1703F
S2140069306071A1714FF48050CDE901321649009282
S214006940164AFFF72DFA092150E700BF7F03010022
S214006950AF0201002813002074030100C0020100EA
S2140069601604010008040100F102010014130020BF
S21400697035660000DA03010071660000B30301000B
S214006980990201002166000001030100A80301002E
S214006990990301006A0301001A0301005C03010069
S2140069A010B5084B4FF480509C79074A2346074998
S2140069B0FFF7F6F9204600F02DFCBDE81040FFF783
S2140069C085BE00BF141300208304010025040100C7
S2140069D00122014B1A70704734130020244B73B504
S2140069E01E7804462EB10378162B05D0182B27D018
S2140069F00026304602B070BD83781E4A0093437866
S214006A001D494FF48050FFF7CBF96378A478172020
S214006A101C4004F00304022C18BF0124FFF766FE96
S214006A2005464470847023464FF48050134A12493A
S214006A300094FFF7B5F902212846FFF75DFED8E778
S214006A40B0F803300E4A019383780E4900934378DA
S214006A504FF48050FFF7A4F9B4F803100A48FFF784
S214006A602FFED4F80120094BC3F80620C1E700BF6B
S214006A7034130020AE04010035040100A304010015
S214006A809604010055040100A169000014130020BB
S214006A9013B50D4B01281B880C4CADF80030ADF833
S214006AA0043002BF02238DF80030042369462068B4
S214006AB008BF8DF8043002F073FC206801A902F0CC
S214006AC085FC02B010BD00BFB504010038130020DD
S214006AD070B5334C11464FF4867086B01E46154688
S214006AE0FFF761F9236933B929464FF48370FFF73E
S214006AF05AF906B070BDA5F10802324321D101AAA9
S214006B000321206802F0D6FC636860615B7A04F1BA
S214006B10180123769DF804300220DA1F53425341B1
S214006B20627E63F30002039B6276E361BDF8063083
S214006B3063832369984701220021206802F0C0FC85
S214006B40D7E705F17F42324305D10021012006B088
S214006B50BDE87040184715F4A04209D04FF4807184
S214006B604FF48170FFF71FF9002103202369EEE739
S214006B7005F4A0631A4308D001214FF48170FFF793
S214006B8012F90021FF202369E1E705F0A042134334
S214006B9019BF012140F2011029464FF48370EEE739
S214006BA03813002000000000F0B58BB0064601F058
S214006BB0B9FF3548354B00210360354B354C4360F3
S214006BC002F0D4F82EA3D3E90023CDE900234FF03A
S214006BD0FF334FF0FF32206002F0FAFB02224FF044
S214006BE0FF31206802F0F9FB3C2394220025CDE912
S214006BF0033205939623206803A9CDE90755099526
S214006C00069302F0ABF9244F234920683D7002F04A
S214006C100CFC10B10135032DF6D1206802F08DFC76
S214006C20B6F900203978206802F030F8014620686E
S214006C3002F0E8FB7568194BD5B9184601F054FF09
S214006C40A37B65F30003A373202310222384144B35
S214006C5083F8212383F8222383F8262383F8252329
S214006C6083F8232383F8202383F824230BB0F0BD76
S214006C702868A060A988AA7999809A71E4E700BF7D
S214006C80085500510000000068130020D16A00007B
S214006C905C1300203813002026000020401300203C
S214006CA000E100E0024B0146186801F0A9BF00BFF2
S214006CB0381300200A46014602484FF40073006865
S214006CC002F0D9BB38130020F0B50446164D174A1B
S214006CD06B68807A5B7A85B0D75C0E46FFF7D8FE85
S214006CE0237AB9B2022B0CD1002328681A4602F088
S214006CF067F8A8B10021FF20334605B0BDE8F04094
S214006D001847002220688DF80C3002900092286800
S214006D1002ABADF80D208DF80F2002F05FF8E8E723
S214006D202E6105B0F0BD00BF38130020B704010087
S214006D302DE9F04104461D4D1D4A6B680E465B7AF0
S214006D4086B0D15C807A0191FFF7A2FE237A4FF0DD
S214006D500108022B02BF0023029301238DF80C309A
S214006D60636818BF226803F164030493637A4FF0E4
S214006D70000418BF029201998DF8143002AA234627
S214006D8028688DF815808DF8164002F04DF80746F5
S214006D9042462146286802F093FB2FB12146FF2089
S214006DA0B04706B0BDE8F0812E61FAE73813002040
S214006DB0B704010008B500214FF48570FEF7F3FF15
S214006DC00022044B03211A6118680122BDE808401E
S214006DD001F0F2BF3813002000487047401300202F
S214006DE0014B188C704700BF381300207FB5022374
S214006DF08DF80A30064B5A8B59690332ADF80820D5
S214006E00186801AA02F05AFB019807B05DF804FB67
S214006E103813002008B5014640F20510FEF7C3FF00
S214006E2008BD0000002313B5064C0093437AD0E952
S214006E3000216060206802F0AEFB00F00DF802B0A2
S214006E4010BD00BF38130020024A138C43F4807331
S214006E50138470473813002038B50D4C238CDB059F
S214006E600CD563680B4D1B7A2A789A4206D0012B04
S214006E7005D0022B07D063681B7A2B7038BD2068BC
S214006E8002F05EFBF7E7206802F060FBF3E700BF66
S214006E9038130020781300201FB5124C1148637A6F
S214006EA00133DBB2272B88BF25236372FFF7BAFFB7
S214006EB00023CDE90233E368627C01930123617D00
S214006EC0D207094801F102018DF80C3048BF8DF851
S214006ED00E30FFF7EFFE054901A8FFF7F5FE04B0F8
S214006EE010BD00BF7C130020901300201D6F000013
S214006EF038B50D460446FFF76FFF8379014603F069
S214006F000103AB4207D10622204608F073FEB0FA12
S214006F1080F0400938BD0020FCE70000022810B5CC
S214006F201BD002D8012805D0FEE7032843D0FF284F
S214006F3041D0F9E7214C637C990707D5FFF73AFF64
S214006F40FFF7AAFF637C6FF341036374637CDA0781
S214006F5030D4BDE81040FFF79FBF4B78DB072AD53B
S214006F604C68217801F00F03032B11D0052B22D19A
S214006F70C90904F10800FFF7BBFFD8B1FFF71AFFF5
S214006F80FFF734FF01462046BDE8104000F0B6BAD1
S214006F90C90904F10800FFF7ABFF58B1074C94F895
S214006FA03D1004F13C000231FFF784FE637C43F0A1
S214006FB00203637410BDFFF7FDFECAE77C130020D2
S214006FC010B5094C00215C2204F1080008F049FEC7
S214006FD042F210730549E360054BC4E9001342F220
S214006FE00153238110BD00BF7C130020D6BE898EBE
S214006FF05555550038B50446FFF7DCFE002C3FD04B
S214007000204C257C627CB5FA85F35B0963F30002AD
S2140070106274FFF7E1FE837905F00F05C3F3000302
S21400702045EA8315237D23F04F031D43637D2575B5
S2140070300BB9062363750368C4F816308288124BB2
S2140070409A80FFF7C9FE837994F83C20C3F30003C7
S2140070509B0143F0040322F04F02134384F83C30B4
S21400706094F83D3013B9062384F83D300368C4F81D
S2140070703E308288054B9A80BDE83840FFF70CBF4B
S21400708038BD00BF7C13002092130020BA130020E6
S21400709020290A4608B509D8054B06315975014618
S2140070A003F11C0008F0B6FD002008BD1220FCE726
S2140070B07C13002020290A4608B50AD8064B06315C
S2140070C083F83D10014603F1440008F0A3FD0020BC
S2140070D008BD1220FCE700BF7C1300200A20D0B5B4
S2140070E00B4CE38C584308F019F90646A08C0F4663
S2140070F008F014F90022074B08F07AF902460B460E
S2140071003046394608F09EFA08F084FB2083D0BD4E
S214007110E01300200000F43F1FB5154C40F60100B8
S2140071202189FEF740FEA37E5A061FD423F00703EC
S21400713043F001032089A376FFF7CEFAA37A04F181
S2140071400C00234493F82A306375FFF76BFED4E9EE
S2140071500032A3EB520103EB520302934FF4803349
S214007160019101A803490393FFF7E2FD04B010BDA7
S214007170E0130020FD7200000022134630B58BB0ED
S214007180D910415C03F007042141CC0742BF02F14D
S2140071902801694401F8283C03F1010348BF013285
S2140071A0252BEDD100230C4CD910415C03F00705CC
S2140071B02941C9075FBFB3FBF2F102FB1131283149
S2140071C069444CBFD9B211F8281C0133252B04F8AA
S2140071D0011BE9D10BB030BD0A14002010B540F2F7
S2140071E0E244074A6043136800F5807004FB0131EF
S2140071F0536801EB500118441160506010BD00BF89
S214007200E0130020024B9884D984FFF767BF00BFC5
S214007210E0130020014B1875704700BFE0130020F4
S214007220C908884228BF0846014B1885704700BF2A
S214007230E0130020044B5A6D22B95865A3F8581085
S2140072400120704700207047E013002010B5044668
S2140072500346054A4FF400600449FEF7A1FD2046A8
S214007260BDE81040FFF74CBA2B050100DF04010013
S21400727010B504460346084A4FF400600749FEF777
S2140072808FFD074A2046BDE81040937E43F040033A
S2140072909376FFF7C3B900BF1C050100DF040100A9
S2140072A0E013002010B5144CA37E5B0623D4FFF732
S2140072B081FD40F2E243A18C226803FB0122A37AFF
S2140072C0226094F84F2013442522B3FBF2F002FB11
S2140072D010332289A372013222810A22636802FBDC
S2140072E001336360238B5A1E228323B9BDE8104006
S2140072F00820FFF7BDBF10BDE013002002282DE9CF
S214007300F74380460E460BD003D8012800F0DC80F9
S214007310FEE7032800F0DE80FF2800F0DB80F7E7BA
S2140073204F78714C17F0010763D14FF0FF3140F6EC
S2140073300300FEF738FD3D46A37E6C4F13F0200F8A
S21400734012D0616D6FF34513A376002900F09E807E
S2140073503B7894F8582043F003033B707A70B81CCF
S21400736008F058FC00236365FFF7E4F8A37E60F39B
S2140073704103C3F30012C3F3C001920042EAC10204
S214007380A37642EA00133A7803F01C0322F01C02AC
S21400739013433B7040F602003988FEF704FD797807
S2140073A052480231C9B2FFF785FCA37E7668D9073A
S2140073B009D56FF30003A37600236360FFF716FD7D
S2140073C02060FFF78BFE002D00F08B80337803F0F3
S2140073D00303022B05D0032B6FD0012B40F08180D6
S2140073E0002528467278B11C03B0BDE8F043FFF7CD
S2140073F0FFB8D1F8049040F60300B9F80010FEF785
S214007400D2FC99F80030A27EC3F3001363F3820225
S21400741099F80030A276C3F3C001C2F3001291427D
S2140074202FD103F00303022B29D0032B08D0012B06
S21400743027D1002099F8011031B3FFF7CBF80746A3
S2140074403D46A27E99F80010C2F3C003C1F3800146
S214007450994208D083F00103DB0043F0200322F0BA
S21400746028021343A376002F3FF466AFA37EC3F330
S214007470001282F0010262F30413A3765CE738463A
S214007480D8E700252F46DCE70D46DAE794F82820F3
S214007490B91C0DF10700FFF741F858B19DF8073009
S2140074A0002B08BF4FF001083B78787068F30103A3
S2140074B03B7059E74FF00108F6E77178B01C03B04F
S2140074C0BDE8F043FFF748B9074B9B7E9A0708D400
S2140074D05B0706D4FFF7E6FE03B0BDE8F043FFF710
S2140074E01BBE03B0BDE8F083E01300203C14002070
S2140074F0014B1889704700BFE0130020F7B5274DF1
S21400750004460E465C220021284608F0AAFB2023EB
S214007510AB7605232B83627E237E012743EA022374
S214007520AB84627F237F04F11E0043EA0223EB84D0
S21400753094F82330C3F3040385F84F3094F82330CF
S214007540C3F3421385F850301B232B85FFF714FE38
S214007550D4F80E30E27CEB60A37C2E6043EA022374
S214007560227D2F7543EA02432B6195F84F30607DEC
S214007570AB72E18A3944FFF731FEFFF7CDFDEB8CA5
S214007580074A084900934FF40060AB8CFEF708FCEE
S2140075902046FFF741F8384603B0F0BDE013002060
S2140075A00F050100F204010083820023C0E90022D7
S2140075B0826081750382C3757047837DDB0701D5C2
S2140075C0808A7047D0E901239B1A44BF828A9B18A1
S2140075D098B27047014608B5FFF7EFFF8B8A181A76
S2140075E080B208BD2DE9F04116460546FFF7E5FFD7
S2140075F0B04228BF304686B20F46B046B8F1000FFC
S21400760009D12EB1AB7DDA0744BF23F00103AB7579
S2140076103046BDE8F0812B68AC8A69681C44641A61
S214007620A4B2444528BF44463846224608F0F2FA3B
S2140076306A682B68A98A224419448A4238BF1346CE
S2140076402744A8EB04041FFA84F86B60D6E72DE9FC
S214007650F041164605460F46FFF7BCFFB04228BF6E
S214007660304686B2B046B8F1000F0BD13EB1D5E930
S21400767001329A4202BFAB7D43F00103AB75304640
S214007680BDE8F0812B68AC8AA8681C44241AA4B212
S214007690444528BF44463946224608F0BBFAAA6845
S2140076A02B68A98A224419448A4238BF13462744C5
S2140076B0A8EB04041FFA84F8AB60D4E7F8B50446D8
S2140076C016461F46F9B1FFF785FF012829D9E37D45
S2140076D063B1E068658A05702D0A07D02268A38A20
S2140076E001301344984228BF1046F4E70023638213
S2140076F0A3680222E360204604F11201FFF7A7FF09
S214007700E37D0133E3753A4631462046FFF79FFF97
S214007710638A03446382E37D13B9238A0344238286
S214007720F8BD0020FCE7F8B51F46038A0446164657
S214007730EBB9C57DDDB10123013D0B700222C57595
S21400774000F11001FFF74EFFE37D9BB1228A314620
S214007750BA4228BF3A462046FFF744FF238A1B1A40
S2140077602382E37D13B9638A1B1A6382F8BD002364
S2140077700B70EBE7638A2382E8E710B50C46FFF749
S21400778029FF24B1022892BF0020023880B210BD23
S21400779070474369406CDA1C1438B2FBF0F203EB16
S2140077A0C203CA1DB2FBF0F20333B3FBF0F301329F
S2140077B0023301EBC20100FB0310704738B50546E3
S2140077C044692146FFF7E5FF6B6CE11D143BB1FBF6
S2140077D0F3F1013104EBC104204438BDF7B5074688
S2140077E00E4600257C6CA819644280EA06031C40FD
S2140077F003D02C46204603B0F0BDFB6B01225B692C
S21400780001A99847019B0133F4D10435EAE713B583
S2140078100446019100F0BCFFE36B0198DB6802B000
S214007820BDE81040184770B50025044686B00562CE
S214007830E369AB4202D8206A06B070BD666C206869
S214007840E36B05225B6901A906FB0500984701A8C2
S21400785001F0E0F801F003F910B1236A0133236266
S2140078600135E5E738B50446456C006804F1400389
S21400787005FB0101E06B01F0FFF805462046FFF727
S214007880D2FF284638BDF0B50546002687B0EC691D
S214007890013CB44203D80C46204607B0F0BD01B107
S2140078A04C1E6F6C2868EB6B05225B6901A907FB11
S2140078B00400984701A801F0ADF801F0D0F80028C0
S2140078C0EAD121460136E2E7F0B504460D46466C9D
S2140078D0E36B006887B005225B6901A906FB05001B
S2140078E0984701A801F096F801F0B9F820B101A870
S2140078F001F067F807B0F0BD29462046FFF7C3FF42
S2140079000646676C2068E36B05225B6901A907FBE6
S2140079100600984701A801F054F8431CEAD0B54287
S21400792038BF0130E6E72DE9F0434FF6FF79D0F88F
S214007930248004460E46C84514BF45460025002749
S21400794087B0E369BB4202D807B0BDE8F083E26BBC
S2140079502368606CD2F814C000FB0530052201A92C
S214007960E04701A801F056F8022806D0C8450CD119
S214007970721C29462046FFF775FFE3690135B5FB03
S214007980F3F2013703FB1255DBE729462046FFF7E3
S2140079909BFFB0F1FF3F14BF024632460132E8E7D4
S2140079A0F0B504680646091B446C0025B1FBF4F4E8
S2140079B087B0F36937685A1E9542706C08D3706CAE
S2140079C0336800FB043007B0BDE8F04001F052B861
S2140079D00134B4FBF3F103FB1144F36B05225B693E
S2140079E001A900FB0470984701A801F013F801F004
S2140079F036F80028E3D10135DBE710B423F00304A2
S214007A0022449B070A44436C18BF04325B4281EA57
S214007A100204234203D05DF8044BFFF7C1BF1046B3
S214007A205DF8044B7047F0B5002504462E4687B037
S214007A30E369B34202D8284607B0F0BD636C2768F6
S214007A40052203FB0677E36B01A95B693846984776
S214007A5001A800F0DFFF01F002F858B1384601F047
S214007A6009F801462046FFF7B9FE636C143B8342D3
S214007A7008BF01350136DBE708B508301346D1E903
S214007A80001200F0B3FD012008BD00002DE9F04F04
S214007A90144607460E469B46C36B89B001225B69B7
S214007AA004A960689847FB6B01225B6905A930460C
S214007AB0984704A800F0ABFE054648B100254FF0F5
S214007AC0FF33A5756575A360284609B0BDE8F08F3D
S214007AD005A800F0A9FE0123A375237E04EBC303CB
S214007AE0DE611D846368B3420ED1206005A800F0F5
S214007AF0BDFE4FF0FF332075A360237D043B022BB1
S214007B0027D80023A375DFE72368834218BFA5752F
S214007B1005A800F0ABFE237D834218BF002305A80E
S214007B2018BFA37500F084FE804604A800F080FE0F
S214007B30804518BF002305A818BFA37500F080FE77
S214007B40804604A800F07CFE80451CBF0023A37579
S214007B50D3E705A800F06CFE78B1FB6B0222304636
S214007B605B6906A9984706A800F071FE237D032BE3
S214007B705ED8DFE803F05D5D040905A8F4E7CC21D4
S214007B80227E04EBC2021184184600F089FE129B86
S214007B90187005A894F8188000F03EFE04EBC8089C
S214007BA088F82200237E05A804EBC303B3F82090D0
S214007BB093F8228000F03CFE039005A800F040FEFB
S214007BC0039B8246002B38D0FB6B022230465B6953
S214007BD006A9984706A800F0FFFD6075637D002B98
S214007BE02FD10023A375A27D12B123694B442361D4
S214007BF03449237E097899425ED901332376BBF156
S214007C00000F5BD0002A59D0E37D002B56D0002D04
S214007C1054D1B8F1030F51D0A1684B1C4ED0129B23
S214007C202246009338460123FFF730FFA07545E053
S214007C30227E04EBC2021084A6E705A800F0B7FD7A
S214007C40CBE7A27D002ACED0B9F1000F0CD1B8F157
S214007C50000F1DD00123617EE37519BB984529D11D
S214007C600D4684F8198015E07B6C06EB0A00594235
S214007C7086EA000C1CEA010F1CBF0021A175591EE4
S214007C8001405B1A9945ACD8A37D002BDFD1AAE74B
S214007C90E37DABB94B46524631463846FFF7ADFE5C
S214007CA0A060A0E7B8F1010F0AD0B8F1030FF1D138
S214007CB0A376EFE71546EDE70023A375A57D03E75A
S214007CC0154690E75805010013B50C4600210093B1
S214007CD02176134661682246FFF7D8FE18B1E37D89
S214007CE003B1A07EA075A07D02B010BD2DE9F04FB7
S214007CF02DED028B0E4600258BB004464FF0FF316B
S214007D001046984617468DF8135000F0B3FDC6F39C
S214007D1013039E42019340F08F80314605AA04F17A
S214007D20080000F049FC451C014600F087803846F4
S214007D3000F0A0FD0122394620460DF11303FFF79F
S214007D40C3FF00287AD09DF8133088F80030002052
S214007D5078E0E56A681C37D12046616AFFF793FD34
S214007D600546B31C18BF012308EE103ADFF8E8906A
S214007D70636A626C0293236805A902FB053AE36B0B
S214007D8005225B695046984705A800F043FE00F0C0
S214007D9066FE504600F06EFE4FF0000B824601462F
S214007DA04A1C05D0636C81EA0A025B42134211D07A
S214007DB029462046FFF767FD029BAB422DD0BBF15C
S214007DC0000F2DD10546D3E720682D1A606CB5FB51
S214007DD0F0F5C6E7484600F04DFD0DF1130318EE2A
S214007DE0102A49462046FFF76FFF034690B1B11CA4
S214007DF003D0D9F80020B2420CD19DF8132003938B
S214007E00134B88F8002049461A68384607F002FFE8
S214007E10039B9B46D9F80810C2E7BBF1000F10D0B1
S214007E20019B9E4293D1314698F800307A6804F15F
S214007E30080000F0DBFB8AE7B31C8AD0237C002B0B
S214007E4087D104480BB0BDEC028BBDE8F08F00BFB5
S214007E505C0501000BE000F0EC1500202DE9F34175
S214007E600446174698460E46184D816AE36A8B42CA
S214007E7001D04B1C02D102B0BDE8F081284600F0CC
S214007E80F9FC0122294620460DF10703FFF71CFFE7
S214007E9038B14346294620469DF80720B8470028B3
S214007EA0E9D0A9684A1C04D169682046FFF778FD26
S214007EB00146012EDAD16B6881EA0302636C5B42ED
S214007EC01A4218BF4FF0FF31D0E700BF1816002047
S214007ED02DE9F04F9B4689B09DF848301646524A29
S214007EE00093136980465B450D46C0F09780D946DF
S214007EF0D2F804A0B9F1000F00F08C80D8F83C301E
S214007F0001225B6905A95046984705A800F08CFC3D
S214007F10454B1B68984240F0848005A800F090FC12
S214007F200428074614D105A800F091FC009B0446DF
S214007F300AEB0700002B3ED1A64212D9361B1C4680
S214007F4051464046FFF72CFDA9EB04098246D1E7CF
S214007F50D8F83C30022250465B6906A9984706A826
S214007F60E2E7A41B5C4528BF5C46032C00EB060733
S214007F70ABEB040B1DD9D8F83C30294638465B6974
S214007F80A208984724F0030304F003061F441D4488
S214007F90002ED5D0D8F83C3001225B6906A93846B9
S214007FA098473246284606A9354407F033FE002691
S214007FB0C6E72646ECE7274604F0030301932B1991
S214007FC0029303190393029BDD1B039BD81B019BA3
S214007FD09F420FD1002FB3D0D8F83C30012206A91B
S214007FE05B6998473A46284606A907F003FE78B923
S214007FF03D44A5E7D8F83C30012206A95B699847BE
S2140080000422284606A907F0F5FD08B9043FDAE77A
S214008010DFF81890484609B0BDE8F08FDFF81090FA
S214008020F8E7DFF81090F5E79415002012E000F06E
S21400803011E000F022E000F008B5C3680020984781
S214008040BDE8084000F0ACBB2DE9F04F4FF0FF3321
S2140080504FF6FF720025044600F10806C0E9092322
S21400806087B0C362056205633046884600F08EFA24
S2140080702046FFF7D8FB68BB20464146FFF753FC77
S2140080802046FFF7D0FB68BB894D2046FFF7CBFCA8
S214008090CFE02368E26B606C576900FB0530052271
S2140080A001A9B84701A800F0B5FC012807460CD185
S2140080B029462046FFF708FC012F024600D1013270
S2140080C029462046FFF7CEFB03E000F0CDFC002853
S2140080D0EED10135E3699D42DBD32046FFF7A3FBD3
S2140080E00028C9D000254FF0FF394FF6FF73CA4667
S2140080F0A846C4E90853E36998450AD3A5EB0905E1
S214008100012D2CD84FF6FF72636A93423CD1694D1D
S214008110BBE72368E26B606C576900FB08300522FA
S21400812001A9B84701A800F075FC834601A800F035
S21400813048FC0746584600F092FC68B1574538BFE1
S214008140C4F82480B94528BFB946BD4238BF3D466D
S214008150BA46236A0133236208F10108CBE74FF6DB
S214008160FF7300256362E3699D42CBD2676C20688B
S214008170E36B052207FB05005B6901A9984701A888
S21400818000F01FFC0135EEE7E26B676C206801A982
S21400819007FB030055690522A84701A800F011FC5B
S2140081A0626A2368606C444D00FB023000F062FC9B
S2140081B04FF0FF33A062E3622A466FF001012046CB
S2140081C00DF10303FFF792FD002836D1AD6829466E
S2140081D02046E562FFF702FB206320B92046E16AED
S2140081E0FFF7DEFBE06229462046FFF7D9FB05468F
S2140081F0A36A9D4223D16369656C2046A5F11402EB
S214008200DD1CB5FBF2F503EBC5050335B5FBF2F552
S214008210FFF709FC0235A84280463ED22046616A36
S214008220FFF731FB0027064604F1400AAF4218D399
S214008230224D284607B0BDE8F08FA56AC7E7294655
S2140082402046FFF7CBFA236B2946034407462363F1
S2140082502046FFF7A5FB0546002FC9D1C4E90B074A
S214008260C6E7474512D3626C236801A902FB0639AC
S214008270E36B05225B694846984701A800F0A1FB1E
S214008280534602464946E06B00F0F6FB3146204670
S214008290FFF7F9FA01370646C8E7304600F076F9E8
S2140082A0002320461946064AFFF7D8FD0025ECE6CF
S2140082B003E000F016E000F0C015002013E000F028
S2140082C0797A00002DE9F04100255E4B0E46D3F882
S2140082D0008004461D6018B95B4D2846BDE8F08155
S2140082E090F8347007B30A6803689A4240F09F809B
S2140082F04A6843689A4240F09A808A6883689A423D
S21400830040F09580CA68C3689A4240F090800A6937
S21400831043699A4240F08B808A69C36B9A4240F068
S21400832086804B698361D8E750223946856B07F013
S21400833098FCD6E90212336804F1080023607368DB
S214008340A5636360336963617369A36100F030F904
S214008350B36904F14000E3639B68984720B9676CF3
S21400836017B16368B3FBF7F794F84330E761002B67
S214008370B2D0656C002D62D0002F60D02368B3FBAE
S214008380F5F205FB1233002B53D16668B6FBF5F306
S21400839005FB1363002B4CD12046FFF70FFAA369A9
S2140083A0043303449E4246D340F634726369CC3BA2
S2140083B0934242D8B5F5007F41D303212046FFF70C
S2140083C026FAD4E90001E36B1B6898470546E36B81
S2140083D00220DB689847DDB941462046FFF734FEA9
S2140083E01A4B0546984204D141462046FFF72CFE1C
S2140083F005466DB9636C266A143B20465E43FFF75C
S214008400DDF9A369124A043303449E4238BF154679
S214008410002D0CBF0123002384F8343003D1D4E9A7
S214008420000100F0C3F9E06BFFF706FE55E7094DC3
S21400843053E7094D51E7064D4FE7084D4DE7084D08
S2140084404BE700BF3C15002009E000F013E000F009
S21400845002E000F008E000F001E000F005E000F0C7
S21400846004E000F02DE9FF410C4616461F4605467F
S21400847090B390F834308BB3C1F3130399422FD1E5
S214008480DFF878800121FFF7C2F9214642462846E8
S2140084900DF10F03FFF72AFC044670B99DF80F3064
S2140084A0012B11D1D8F81030BB4213D102460090F0
S2140084B031462846FFF70CFD0446E86BFFF7BCFD87
S2140084C0204604B0BDE8F081064C0748022B18BFD2
S2140084D00446F2E7054CF0E7054CF1E7054CEFE7FC
S2140084E0054CEDE70CE000F00BE000F011E000F0CA
S2140084F009E000F007E000F00AE000F09415002024
S2140085002DE9F3411E4600230C4617460546336008
S21400851058B390F8343053B3C1F31303994228D1BB
S214008520DFF864800121FFF772F9214642462846AB
S2140085300DF10703FFF7DAFB0446A0B99DF80730F4
S214008540032B10D0022B03BF01233B600423D8F873
S214008550103018BF38603360E86BFFF76DFD2046BB
S21400856002B0BDE8F081044CF6E7044CF7E7044C93
S214008570F5E7044CF3E700BF0BE000F009E000F07D
S21400858007E000F00AE000F09415002000234FF00A
S214008590FF3230B544689C4202D10023037230BDDE
S2140085A0016801EBC30541F833206A600133F2E746
S2140085B0C0E90012FFF7EABF0023F0B545689D4208
S2140085C002D14FF0FF300EE00468DE0054F833406E
S2140085D0671C09D0C4F31307B94205D1240D1470E3
S2140085E0036833445868F0BD0133E8E72DE9F043EB
S2140085F04668002E45D0056898464FF0000CA94600
S214008600AE4655F83C400CF1010CC4F31307013498
S21400861001D0B94217D0B4450EF1080EF1D12F465D
S214008620002403E0B44207F1080712D055F83430AE
S21400863001340133F6D1C1F3130141EA0851C7E909
S2140086400012BDE8F08341EA0851CEE90012BDE809
S214008650F083B8F1030F14D0002303E0B34209F10E
S21400866008090ED055F833400133C4F30754032CE1
S214008670F4D1C1F3130343EA0853C9E90032BDE855
S214008680F08301230372BDE8F08300BF704700004B
S21400869037B5920004460D46019207F0C5FB431C11
S2140086A00BD060B929462046019A07F0A3FA0028A5
S2140086B0044808BF002003B030BD0348FBE703486A
S2140086C0F9E700BF10E000F021E000F024E000F041
S2140086D013B5044601A806F0C1FC9DF80630012239
S2140086E023804FF4807300206380054B9B680A3319
S2140086F003F01F0302FA03F3636002B010BD00BF6D
S2140087000080E00F06F09CBC08B506F08DFC00204B
S21400871008BD10B5044644EA010313F003030846F7
S21400872009D1934201D1002010BD54F8231040F81F
S21400873023100133F5E72146920007F06BFAF2E7C3
S21400874010B5044607F068FB431C15D0B0B90C4BB7
S21400875020469B680A3303F01F020123934023F050
S21400876003032344984201D1002010BD50F8042B87
S2140087700132F7D00348F8E70348F6E70348F4E782
S2140087800080E00F0EE000F021E000F024E000F0B2
S21400879008B506F0E9FB014B186008BD90150020EF
S2140087A0014B186806F0E4BB90150020704713B51F
S2140087B00023044601461B220DF107008DF8073002
S2140087C000F074F922689DF80730B3EBD26F0CBF47
S2140087D00120002002B010BD13B500230446014658
S2140087E020220DF107008DF8073000F05FF90DF13B
S2140087F007001A22211D00F059F962689DF807301B
S214008800B3EB926F0CBF0120002002B010BD0068D1
S214008810431C584258417047006810F07E0F0CBF4A
S214008820C0F3C160002070470068C0F3D3107047E3
S214008830006800F07F0001288CBF002001207047F0
S214008840036813F07E0F0CBF0820042070470368EF
S21400885013F07E0F03D1406820F07C40704713F081
S21400886078001CBF03F07F03D81F7047006800F035
S2140088707F00704738B5094B0D461A68002104463C
S21400888007F0EFF900234FF0FF322361C4E900251B
S214008890A260E3822383A37638BD00BF5C05010097
S2140088A006289ABF014B185C01207047600501003E
S2140088B02DE9F0410746154600240E46596888B053
S2140088C0490A012922464FEA510104F10104F8D869
S2140088D0DC78997824031B88C90201F4006104F44B
S2140088E080540C43C3F30A032344540304F4604443
S2140088F04FF000081C44284B6FEA0444039325F00D
S2140089007843ED4302A90DF107001B2202938DF870
S214008910078000F0CBF89DF80720029B02A943EAE7
S214008920C2630DF107001B2225F0784504930295DB
S2140089308DF8078000F0BAF89DF80720029B6FEAD2
S214008940144443EAC26305934FF0FF33079406933B
S21400895007A9BB69012206F110009847BB6905A963
S2140089600446012206F108009847BB69404518BF37
S214008970044604A90122301D98470122404518BF2D
S2140089800446BB69304603A99847404508BF2046C1
S21400899008B0BDE8F08100BF01009AB237B50546C1
S2140089A001F10C0443696946012220469847BDF848
S2140089B00030012201932046AB6901A9984703B015
S2140089C030BD37B5044600251B22011D0DF10700FA
S2140089D08DF8075000F06AF860689DF80720B2EB43
S2140089E0D06F03D120F0784003B030BD0DF1070002
S2140089F01B2204F108018DF8075000F057F8A06814
S214008A009DF80730B3EBD06F01D1C043EAE74FF0D3
S214008A10FF30E9E74BF29A22036810B5B2EB134F2A
S214008A20044613D19BB2012B13D1FFF7CAFF0130C6
S214008A300CD04FF6FF72E068B2EB104F4FEA1043CF
S214008A4009D180B2C01A18BF012010BD23680133B7
S214008A5003D00420F9E70220F7E70320F5E7012812
S214008A608CBF002001207047033801288CBF0020EF
S214008A70012070471430704730B5046985B005464C
S214008A8008460191CDE90232A0470199044638B95B
S214008A90DDE902322846FFF70BFF0199044610B1C4
S214008AA02846FFF77BFF204605B030BD1F2A0B681F
S214008AB09EBF4FF0FF3191408B43590801F055316E
S214008AC05B1A03F033319B0803F033330B44017811
S214008AD003EB13130A444FF0013103F00F334B43FB
S214008AE0A2EB136303707047074B9A6CDB6C110A9A
S214008AF00270120C82701A0AC2701A0C1B0E417099
S214008B0002714371704700BF0080E00F044B0144C0
S214008B10884200D170471A6E00F8012BF8E700BFB4
S214008B2000C001B8014800F0A1B800BF90050100E0
S214008B3070B58AB0684606F091FA9DF80130012BB0
S214008B4027D1254A936DDB0313D4536B23F4FF031D
S214008B5023F4FE4343F4BC1343F4A0635363136B44
S214008B6023F4704343F440431363136B43F4E0630E
S214008B7013639DF8003063B94FF000531B68174B22
S214008B801B68174B1B68174B1B68174B1B68174B4C
S214008B901B686C46164E174DD6F8803043F003031C
S214008BA0C6F880300FCD0FC40FCD0FC495E8030074
S214008BB084E80300684606F03FF90321002006F02B
S214008BC011F801220C4BC6F880225A600B4A126C30
S214008BD01A660AB070BD00BF00C0005000400020FA
S214008BE00080002000C0002000000120004001207E
S214008BF0008000506805010000C001B80080E00F4A
S214008C00002307B5CDE900338DF80210694600F061
S214008C10E1FB03B05DF804FB032070476FF0010131
S214008C200F4B03F58052116643F6FF715166002123
S214008C300C4AC2F8D010BFF34F8FBFF36F8F0820D7
S214008C400949C1F88000BFF34F8FBFF36F8F4FF411
S214008C50403203F500531A61C1F88001DA607047AC
S214008C600080004400ED00E000E100E038B5044676
S214008C70054D00F0EBFB0FCC0FC594E80F0085E820
S214008C800F00002038BD00BF4416002047F6FF73D3
S214008C909A42F0B563D0032963D8334BCF0003EB79
S214008CA0C10013F831108478012913D10025C37848
S214008CB01B1B9D4202D3E018C0B2F0BD591B46688C
S214008CC0A3EB510136F911609642D4BF0D4601F16F
S214008CD0FF33EEE740680028EFD0B0F9001091426D
S214008CE004DBB0F902109142B8BF114682883B44BB
S214008CF0FF2A19BFC8222826B0F90620B0F9086056
S214008D00A2EB01020CBF0125002592FBF6F25F786C
S214008D102A447B1E934228BF13464FF47A7E00EB0C
S214008D20C305AE68EA88AC4611FB02621E4622EA1C
S214008D30E272013302F5FA729F42B2FBFEF204D9E8
S214008D40BCF80CC008359445EBD200EBC600808812
S214008D50904228BF1046A04238BF2046ACE7FF200E
S214008D60ABE70020A9E700BF44160020F8B50D4683
S214008D7010B900242046F8BD0E4F3E68002EF8D1EC
S214008D8000F090F804460028F3D0386000F0BEF8F3
S214008D90204600F0B0F838B130463E6000F0B6F835
S214008DA0204600F0A3F8E4E7002DE3D02046A847CD
S214008DB0E0E700BF641600200846114600F0B8B889
S214008DC010B501F06FFE044618B9034B01215B682D
S214008DD09847204610BD00BF3C000020F7B5114D57
S214008DE004460F466E6801210020CDE90032B047E8
S214008DF0DDE9003206463946204601F05CFE0446B0
S214008E0018B901202B68984704463EB100F0D6FBFF
S214008E1000B91CB100216B6808469847204603B08D
S214008E20F0BD00BF3C000020F7B5104D04460F46CD
S214008E306B68012100200192984739460646019A40
S214008E40204600F0CCFA044618B901202B68984753
S214008E5004463EB100F0B2FB00B91CB100216B68BD
S214008E6008469847204603B0F0BD00BF3C000020EF
S214008E7070470000431E033306D8044B984228BFB1
S214008E801846642838BF6420704700BF40420F0071
S214008E90431E012B03D9031F584258417047012037
S214008EA070470000F8B5054606F05EF807460E4B1C
S214008EB01E6826B9384606F05BF8344610E0B468FB
S214008EC084B1237C9C46DB070CD44CF0010C95E85F
S214008ED00F0084F810C084E80F00384606F048F803
S214008EE02046F8BD3668E4E7300000204FF4C07234
S214008EF0002106F0B6BE10B50446002100F080FA48
S214008F002046BDE8104001F00DBC000010B5044638
S214008F1018B9054B054A136010BD00F0FFFCD4F8E5
S214008F20C430002BF6D1F4E7718E00003400002028
S214008F3010B50C4600F008FD1CB100F067FD0128D6
S214008F40FBD1BDE81040024B002103205B681847A8
S214008F503C00002000F068BE00F07CBE08B502466B
S214008F600868FFF787FF08604868FFF783FF4860D8
S214008F708868FFF77FFF8860C868FFF77BFF0B698C
S214008F80C860581C03D00B48834228BF03460B61B9
S214008F904B69581C03D00748834228BF034688699C
S214008FA04B61FFF767FFBDE808408861104601F097
S214008FB001BC00BF40420F002DE9F84FD0F8BC308E
S214008FC007460E4613B1038B8B4276D0D7F8B8B05F
S214008FD0BBF1000F42D0DBF80830002B3ED0DBF8A8
S214008FE00C20002A3AD0D7F8CCA0BAF1000F38D01F
S214008FF04FF000094D46C84601E0DBF8083003EBA9
S2140090004514E3890135B34216D8238AB34213D3F5
S214009010B4F91230B7F9241003EAE372994253DD2B
S214009020384697F80811FFF731FE7B7D814683426C
S214009030A04606D9DBF80C209542DED3B8F1000F27
S21400904027D00023424638461946D04700203E83A4
S214009050C7F8BC8087F81191BDE8F88F0320BDE8FB
S214009060F88FD14647F6FF745546514603EB451830
S214009070B8F80E30B3421AD8B8F81030B34216D348
S214009080B8F91220A24202EAE27204D14FF0FF09B8
S214009090DCE70120E0E7384697F80811FFF7F6FD11
S2140090A07B7D81468342D1D94146DBF80C200135D1
S2140090B0AA4205D9DBF80830D8E70020BDE8F88FCB
S2140090C00029E6D08846C1E7A046BAE72DE9F04178
S2140090D082B09DF820C0D0F8CC8004460D461646D7
S2140090E01F468DF807C0B8F1000F2ED000220DF1F4
S2140090F007031146C047D4F8B820194B20461A601B
S214009100184BD4F8BC201A60174B1D6000F034FFD3
S21400911005461EB9284602B0BDE8F081B0FA80F0D8
S2140091204FF44A723321400900F0E2F939462046EE
S21400913001F064FA05460D4B20461B68D4F8BC10B7
S2140091409847284602B0BDE8F081417D90F811317D
S2140091506246994228BF194600F082FECBE700BF60
S2140091606C160020701600206816002034000020C0
S2140091702DE9F04385B005460F4614461E4601F01D
S214009180A7FC01F0AFFC00283BD1DFF82481D8F81B
S21400919000301BB1D5F8B82093421FD000F036FC43
S2140091A0012838D1D8F800308BB31A687AB3D5F8CE
S2140091B0B81009688A4246D0D5F8BC301A682846E6
S2140091C001F010FA38B901243346224639462846BB
S2140091D00096FFF77BFF05B0BDE8F083304B1B68B9
S2140091E0002BDBD0D5F8BC209342D7D12D4B1B6883
S2140091F09F4222D000F00AFC0128E5D04FF001097A
S2140092000BE00022264B1A6001F064FCBDE7D5F89F
S214009210B8301968D0E74FF00009012000F094FB41
S21400922000F0F4FB0128FBD11F4B002103205B68F4
S2140092309847B9F1000FB5D0C6E706B174B900205B
S21400924005B0BDE8F083164A1268D2B11168D5F8A9
S214009250BC2012689142B6D05968B0E70122D5F812
S214009260CC408DF80F2084B10022284611460DF11F
S2140092700F03A0470D4B28461B68D5F8BC1098472F
S214009280DDE7D5F8BC201268E6E7697D95F8113170
S2140092902846994228BF194600F0E2FDEAE700BFDB
S2140092A070160020681600203C00002034000020C5
S2140092B06C160020F8B50E46054605F055FE3146FC
S2140092C007462846FFF778FE044620B1384605F0E4
S2140092D04FFE2046F8BD0346024631462846FFF7B5
S2140092E047FF0446384605F043FE2046F8BD00BF5B
S2140092F0F8B506460C4649B30B6843B11B68013304
S21400930024D0CB681BB18B68003B18BF01231846DE
S214009310CF22412100F0ECF8204602F049F9002364
S2140093204FF6FF7286F81431C6E92E43E768D8B2C6
S21400933087420DD8154600230B4A294613600B4A70
S21400934030461360FFF7B6FF2846F8BD0023DEE779
S214009350A16801EB4011CD89954202D2002DEAD0DA
S2140093602A460133E3E700BF6C1600207016002083
S214009370008B70470A7838B505461046FFF788FD1B
S21400938060B14C782046FFF783FD38B1224353077F
S21400939004D42846BDE8384000F092BC012038BD11
S2140093A0FFF7E8BF10B504460878FFF771FD58B11F
S2140093B04A781046FFF76CFD30B1042A04D02046E8
S2140093C0BDE8104000F0B2BC012010BDFFF7EABFB8
S2140093D000F062BA084601F075BD00F0B3BB37B5C1
S2140093E004460D460192FFF765FF38B92946204628
S2140093F0019A03B0BDE8304004F0E6B903B030BDD2
S21400940001F078BB13B504460020019102F0CEF8B7
S214009410D4F8CC3033B92046019902B0BDE81040EC
S21400942000F062BD022002B010BD38B50446488880
S2140094300D4602F0BBF8D4F8CC302BB929462046AE
S214009440BDE8384000F0BABC022038BD02F0AFB824
S21400945038B505460C4605F087FD296BEB6A0C40CF
S2140094602343EB6205F084FD00200CB9002138BDD3
S2140094704FF40071FBE701F047B801F069B800004F
S2140094804FF4007307B50A490DF10602ADF8063031
S214009490FFF7F3FFBDF80630B3F5007F05D10228CD
S2140094A008BF002003B05DF804FB0120FAE700BF08
S2140094B0F81700200846114601F0BCBF01F010B8AE
S2140094C038B50446154609B101F061F825B12046C5
S2140094D0BDE8384001F05EB838BD0000024B1960A8
S2140094E0024B1860FEE700BF38000020FC19002081
S2140094F008B550B90548064B01601A60054B1A6856
S214009500054B1A601868FFF7E9FF08BD3800002011
S214009510F819002064160020FC190020437C03B1D3
S21400952008470220704710B5044601F0BBFB2046F2
S214009530BDE81040032100F07DBAFFF7F4BF00003D
S2140095400149FFF7EBBF00BF79AC00000149FFF708
S214009550E5BF00BF4DAC000013B5427C0C46C2B15F
S214009560053A012A8CBF002201224968019201F0C7
S214009570D3FB206890FAA0F0000A03F099F9A17ACC
S2140095802089019A81F0010101F0E8FB002002B079
S21400959010BD0220FBE71FB5ADF80C309DF8183063
S2140095A0CDE9011201A98DF80E30FFF7D5FF05B001
S2140095B05DF804FB0020704700207047014B1878C8
S2140095C0704700BF001A0020024BD868C0F3036043
S2140095D0704700BF000002B8034B5B6913F0060F2C
S2140095E014BF01200020704700C001B8704700007B
S2140095F0431C07D06FF0FF02034B10401A62A3F51E
S21400960080531862704700BF00E000B8426B0E4BF4
S21400961002F06002402A11D0602A03D0202A10D11E
S214009620012206E069B10A68012A0AD94A6942F0AD
S21400963001029A648022054B1A61704740F20112BB
S214009640F7E70022F5E700BF001F00B0000002B8F1
S21400965008B5094AFFF7B8FF0B2806D00C2809D032
S214009660092814BF0020022008BD106F10F48030B7
S214009670F0D1F9E70220F7E7000002B80121094B14
S214009680D3F8EC20196352074FF4005148BF042268
S21400969003F50053D96244BFA3F58053C3F8EC200A
S2140096A0704700BF0040005437B50C46204D41B906
S2140096B00A46072104F086FF1E4B6C625C6003B00E
S2140096C030BD0722114604F07DFF07221A4B012108
S2140096D0DA60237901A885F824306379019304F0D1
S2140096E092FF019BC2B2D34000F00F0040EA031085
S2140096F085F82500A27985F82620E27985F82720C6
S2140097002268AA6201932BB102EB430132F8023BB6
S2140097108A4207D12279013A1344084A136204F0B8
S21400972071FFCCE732F8020B834228BF0346EFE70F
S214009730001F00B0241F00B0006000B8004000B852
S21400974000F01803182B074B02D10022DA6470478A
S214009750010701D50122F9E7C206F6D540F201124B
S214009760F4E700BF001F00B03F4B2DE9F3411D6832
S21400977040F2022317460B4000F001021343064650
S2140097800C4645D0880709D5384BD3F8D83E03F0A9
S214009790C003402B02BF0221354B99604FF00008F2
S2140097A062B30023002200210120CDE9008803F0E7
S2140097B0C9FD042002F0ECFB4FF0FF31284603F011
S2140097C023F8414668830120FFF7B2FB294B1B6F45
S2140097D0590208D46B6B13F0800F4FF4001314BFBC
S2140097E0254A264A136226490868FFF701FF4FF00C
S2140097F0FF330B602B7C43F008032B74A20507D5C0
S21400980001212846FFF724FE24F4007406430C4387
S214009810D5E94C233240234052EA030103D01949CC
S214009820284609688847FB070FD51749174A08686E
S2140098300021136811600121154A117003B1984781
S214009840144B002102205B68984717F00E0F08D0D3
S21400985040F27D123B21002002B0BDE8F041FFF748
S21400986047BE02B0BDE8F08164160020001000B0CC
S214009870001002B8000002B8005001B8006001B83D
S2140098804800002044000020201A00201C1A002057
S214009890181A00203C000020F7B5D0E94CC7044653
S2140098A0DDE908658CEA060087EA050110401940E4
S2140098B080EA0C007940C4E94C0123F4004105EA33
