:02000004000AF0
:20E0000000400220CDEF0A00F7EB0A00EBE80A003BEA0A003BEA0A003BEA0A000000000082
:20E020000000000000000000000000003BEA0A003BEA0A00000000003BEA0A003BEA0A0024
:20E040003BEA0A003BEA0A003BEA0A003BEA0A003BEA0A003BEA0A003BEA0A003BEA0A0048
:20E060003BEA0A003BEA0A003BEA0A003BEA0A003BEA0A003BEA0A003BEA0A003BEA0A0028
:20E080003BEA0A003BEA0A003BEA0A003BEA0A003BEA0A003BEA0A003BEA0A003BEA0A0008
:20E0A0003BEA0A003BEA0A003BEA0A003BEA0A003BEA0A003BEA0A003BEA0A003BEA0A00E8
:18E0C0003BEA0A003BEA0A003BEA0A003BEA0A003BEA0A003BEA0A002E
:20E0D8002DE9F04FADF1640D00F06EFA002808BF4FF0FF3000F089804FF0FC0800244FF070
:20E0F800FE0BC14678E0260334216A46304600F027FD9DF81020FE2A6CD19DF80C000328F2
:20E1180068D19DF80D00012864D19DF81100FC2860D00B98069905464919B1F5801F59D84F
:20E13800FE2A57D18DF860902C210DAA00F008FD1399284600F058FE0746B7F1FF3F49D05D
:20E1580014998F4246D81398C019884242D3169928463A46C91B491C139100F04BF91036A4
:20E178005FFA80FA18A9304600F0F0FBBAF1000F30D11399780BC6B2304600F039F80F9901
:20E19800814219D160038DF860B018A9113000F0DDFB304618A900F0ADFE9DF8461031F01A
:20E1B800010003D0032918BF07290CD100F092FB149800F02AFF06E08DF8608005F11100CF
:20E1D80018A900F0C3FB8DF8608005F1100018A900F0BCFB641C64B2E0B200F08FFD0446F7
:20E1F800002880D500F076FB002019B0BDE8F08F2DE9FE4F01903D4800680C46611EB1F5C4
:20E21800302F824628BF00206DD2019D684300F081FE641EB4FBFAF7B4FBFAF04119C9B231
:20E23800029107FB0AF1641A641C1FFA84F92C4600194FF0FF35C0B2A04252DB001B00F117
:20E25800010B0298A04207D15FFA99F619F0FF0F1CBF761CF6B201E05FFA9AF6002E3BD02F
:20E278000AFB04F0B04600270090B81BB0F1FF3F05D10298A04202D119F0FF0001D14FF4EC
:20E2980080700199A1420ABF002F00220C22904217DD1849801A5118491E11F8012F4FEAAE
:20E2B800152C554005F0FF0508226B0832BF6D080F4B83EA5505521EF7D1401E85EA0C053D
:20E2D800EBD1009800EB072000F5807000F022FE7F1CB8F10108C8D1641CBBF1010BE4B217
:20E2F800AFD185F0FF30BDE8FE8FC046000400202083B8ED000300202DE9F047344F814684
:20E3180057F80C0C15468846800824BF31483860334E3149DFF8C4A0002034680860DAF8AD
:20E338000000A169272088472F4C2E4804F13002116823460840106003F17800006820F40B
:20E358008070A0673068016B4FF4806088473068016B4FF4816088473068016B4FF4C0605A
:20E378008847224901200860C4F88081206057F80C0C800805D2B5F1FF3F08BF4FF0404550
:20E398003D60DAF80000E0698008FCD3072000F0ADFB0228FAD1B9F1010F13D0306A144D0A
:20E3B8008168284688470428F8D0012804D1306A4268032128469047D4F8180220F0030087
:20E3D800C4F818023068806B8047BDE8F087C0461C000940FD0000400C4009402C20094017
:20E3F800B8010010FFFFFEFE0C20084028200860004003402DE9F04F15460F46064615F045
:20E41800030FADF5827D52D12E480268EC19B5FBF2F1601EB0FBF2F0884248D3582846D808
:20E43800CBB2B7FBF2F0B7FBF2F1C0B251437C1A1CBF401CC0B24FF000081C4604EB000938
:20E45800B8B1DFF884B000F099FC40901F483038006841696003884782464098CBF80080E5
:20E4780000F090FD5FFA8AF008BB641CE4B2A145E9DCB8F1000F1AD107B34FF48074BC421E
:20E4980088BFBCB230466A46214600F059FB70B100F074FC824622462946684600F056FDCD
:20E4B8008146504600F06EFDB9F1000F02D04FF0FF3004E03F1B26442544E0D1404641B05A
:20E4D800BDE8F08F0004002084046042D80100102D4A2DE9F04180462E4C5068800806D2B3
:20E4F800106804F14D01000C40F0F000087028484FF001214FF08057C0F8041407F5F87684
:20E518000088D7F8F0019568204F016828468847A80E03D2680E24BF0220207030684268B1
:20E538002946404690471F48F4300068C0F305313970410A39BF402184F823104021E17469
:20E55800800900F0380040F46050A7F85C0030688168284688471049104A0AE0105C947840
:20E57800131D844299BF184410F8010C18444078086008684B689842FCD10228EED1084944
:20E5980001200860BDE8F081AC4F00500EB00C4000A00C400962084000600C4084F00A00A6
:20E5B8009404604218130050FEB52C4D6868416906208847062000F013FB0128FAD168680B
:20E5D800C1694FF4A06088470127254E254C376020688008FCD36868C1694FF48070884769
:20E5F800376020688008FCD34FF08046706920F00F0070610327376228691C4904681A4838
:20E61800002208271346009030460197A0472868394609224FF0FF330A27446C009730461A
:20E63800A047706840F0020070602869026902A9304690470028F8D12868C16B142088475D
:20E6580000F0C0FC00F0A4FA041C02D100F042F902E000F0E7F904462046FEBDB401001068
:20E67800282008602820084000093D00006CDC022D4870B5001D0468B4F1FF3F08BF0024C1
:20E6980000F056FC052838D128481C4E002510380560306C806C80471948006820B11948F4
:20E6B80000682046FFF714FF174818490560184C0A686FF35B4244EA02000860154908680B
:20E6D800C0F30130012806D10A681348104040F400320A600860114D0124EC613068016A16
:20E6F800142088470E49086840F4E02008600D492C6008680028FCD170BDFEE7B001001082
:20E7180080012843800520438C210840482003400000390128000940EFFFFCFC0000244375
:20E73800002009400C0068421813005094046042002A4AD05FEA000C8B071CD1830722D158
:20E75800102A08D370B4103A78C978C0103AFBD270BC103238D0042A2CD3082A05D30C2AAB
:20E7780024BF08C908C008C908C008C908C092072AD0920F22E00B780370491C401C521E76
:20E7980022D08B07F7D1C30714D18307D8D0121F12D308C903801B0C4380001D121FF8D2C8
:20E7B8000AE008C903701B0A43701B0A83701B0AC370001D121FF4D2121D05D00B780370BD
:20E7D800491C401C521EF9D16046704730B5ADF13C0DFFF7E9FE002839D0002034216A46CA
:20E7F80000F0AEF99DF81100FE2830D10B98069905464A19B2F5801F29D800F0F5FA04463D
:20E81800B4F1FF3F23D00798844220D806990A1982421CD328462246FFF7ECFDA8B9069983
:20E83800600BC4B22046FFF7E3FCFC21029D8DF83410854209D1FE208DF834000DA920468B
:20E8580000F058FB079800F0E0FB00F043F80FB030BD30B50025ADF12C0D6C0369460822F3
:20E87800204600F0F3FA684600F01EFB012829D1204669462C2200F0E9FA9DF8120001285D
:20E8980003D0032818BF07281CD10699D1B1B1F5302F17D80798844214D80919814211D340
:20E8B8009DF80C1003290DD19DF80D10012909D19DF81110FC2905D0FF2918BFFE2901D127
:20E8D80000F0A3FB2846411C5728CDB2C5DB0BB030BDFEE7F8B5B9208DF8000000F07AFB2C
:20E8F8000121684600F09AFA00F06CFB0A2400F099F8002818BFB4F10104F8D14FF0805025
:20E9180000F5DC75D0F8B801016A4FF48070884701270C4E0C4C376020688008FCD32868CB
:20E93800016A4FF4A0608847376020688008FCD32868816906208847062000F051F90228D3
:20E95800FAD1F8BD28200860282008402DE9FC410F46054601264FF0020800F097F850BBF2
:20E9780000F08CFA38BB05F0FF04C4F58074B44288BF341C8DF800808DF80350280C8DF84E
:20E998000100280A8DF8020000F024FB6846042100F044FA361B2D1920B93846214600F050
:20E9B8003DFA18B100F00EFBBDE8FC8100F00AFB3F19002ED1D1BDE8FC81F8B5844640F638
:20E9D800FF741CF8013B002210E0481B401E10F8015B7F1E01F8015BF9D103E01CF8010B66
:20E9F80001F8010B521C5B08082AEADA5808F5D21CF8010B1CF8015B05F00F07FF1CC5F39E
:20EA18000315122F45EA001508D11CF8016B300A24BF1CF8010B60F3DF16BF19AC42D4D1F8
:20EA3800F8BDFEE7BCB5184DD5F80200009000F0D1FA0421684600F0F1F9F0B9114C02215E
:20EA5800204600F03BF9024600F0BCFABAB905F10800214607683FB102790B789A420AD13A
:20EA780042794B789A4206D148600068002100B101210846BCBD0830ECE700F0A3FA0020CA
:20EA9800BCBDC0460404002044F00A001FB5154800788DF8040000F09DFA134C206802696E
:20EAB80069464FF0804090470028F7D100F08AFA00F090FA01A8012100F0B0F902A80121AB
:20EAD80000F0FCF8024600F07DFA002A18BF6FF0010004D19DF808004008E9D20020009005
:20EAF8001FBDC04644F00A00C40100100246134898B570300168476D01F00103002007F050
:20EB180004071F4318BF0120930802EA000006D301F002040023204318BF01231846D20868
:20EB380006D301F004010022084318BF01221046002814BF0120022098BDC046D020084060
:20EB58007CB515460E460446FFF7A0FF98B903208DF800008DF80340230C8DF80130200A0E
:20EB78008DF8020000F036FA6846042100F056F918B100F027FA00207CBD2846314600F0BC
:20EB98009DF8024600F01EFA002002B901207CBD1CB5AB208DF8020000F01CFA01210DF1FA
:20EBB800020000F03BF9002400B9012400F00AFA9CB14FF4C870ADF80000BDF8000004E01B
:20EBD800BDF80000401EADF80000BDF800000028F6D1FFF75BFF00B1002420461CBDFEE778
:20EBF8001149C8B570310A684E6D410806D302F0010106F0040600270E4300D00127810849
:20EC180005D3002117B1930828BF01210F46C00805D3002017B1D10828BF01200746002F3D
:20EC380014BF01200220C8BDD020084010B54FF0805000F5DC74D0F8B801416904208847B2
:20EC58000420FFF7CDFF0128FAD12068C1694FF4A060884701210548054A016010688008DF
:20EC7800FCD3044801604160816010BD2820086028200840141A4442B0B50C480C4DA842C1
:20EC980010D00C480C4CA0420CD0001B083CC71054F8080F017855F821206168401C904776
:20ECB8007F1EF5D100BF00BFB0BDC0469CF00A0090F00A00C0F00A00B0F00A00BCB50F1CC8
:20ECD800054617D00C4C2068826800214FF080409047002808BF4FF0FF300CD02068C2683E
:20ECF80069464FF0804090479DF800007F1E05F8010BE8D10020BCBDC401001010B5044606
:20ED1800ADF1300D200308216A46FFF719FF684600F0DEF8012808BF60B20DD0684600F005
:20ED3800C3F8012808BF4FF0FF3005D0641CE4B2582CE7DB6FF001000CB010BD10B50D486E
:20ED58000D49006800F00F0080020860FFF7B8F9041C01D1FFF77DFDFFF738FDB4F1FF3FDD
:20ED780003D000F01DF9002010BDFFF75FFF00F053F9FEE73024034000040020B0B54FF0E1
:20ED9800805000F5EC74D0F8D801094D816828468847C7B257B12068426800212846904700
:20EDB80020688168284688470028F9D13846B0BD004003400B4880F308880949086840F4E1
:20EDD8007000086000BF00BF00F02CF908B1FFF753FF0020FFF7B2FF012000F025F9C046B3
:20EDF80088ED00E000400220FEB50D4606464FF0FF372C2430190C216A46FFF7A1FE50B171
:20EE18009DF80000012805D0019820B12418A542F0D800E0029F3846FEBD00007CB50C1CDF
:20EE380006460FD0084D286816F8011B42684FF0804090472868C26869464FF080409047C1
:20EE5800641EF0D100207CBDC4010010F8B517460D46044600F0CDF8002600B101260020AF
:20EE7800311C08BF012014F8011B7F1E05F8011BF9D108B100F0C3F8F8BD0000094808B576
:20EE980000788DF8000000F0A5F801216846FFF7C5FF024600F096F8002A14BF6FF0020022
:20EEB800002008BD45F00A00084910B508300822083911F8013D10F8014DA34218BF0020E4
:20EED80002D1521EF5D1012010BDC04684F00A0010B5074C0821083014F8012D10F8013DA6
:20EEF8009A4218BF002002D1491EF5D1012010BD84F00A0070B50D460446FFF73FFF064679
:20EF1800610301221131284600F020F8304600F039F870BD054B4FF4807101E0425C5A5425
:20EF38000A46511E002A89B2F8D1704700030020054800684BF677310001B1EB104F14BF85
:20EF58004FF0FF30052070471813005008B5054B303B1B689B699847014A0021116008BD54
:20EF780084046042D8010010D0F80300401EB0F1FF3F06D00022401E01F8012BB0F1FF3F04
:20EF9800F9D1704708B528B103480068426803480121904708BDC046D8010010004003406A
:20EFB80008B500F026F800204FF0FF320146FFF7A3F908BD08B5FFF75BFBFFF7FBBEFFF792
:20EFD80088FC08BD02494FF4801008607047C0469020024002484FF4801110300160704725
:20EFF80090200240D0F80320C31D08461946FFF79FBBEFF3108072B6704700207047EFF335
:20F01800108062B670470020704708B5D0F800D04068804708BD0000014940200860704750
:0CF03800902002400120704700BFFEE75E
:20F04400050690FFFF00000000002000C215000000001000C214000000000800EF1200002D
:20F0640000000400EF110000000000000000000043433236783252314F4144204E564D3157
:08F08400010200030200010378
:20F09000D3E90A00FDEF0A0081EF0A000000000002000000040100000001000004FFF0002F
:10F0B000A0F00A0000030020A8F00A0004040020C9
:20FFA80000008001100080FFFDFF58003AFFBBF3FFFFFFFFFFFFFFFFFFFFFFFFFFFFFFFFFE
:20FFC800FFFFFFFFFFFFFFFFFFFFFFFFFFFFFFFFFFFFFF00FFFFFFFF00FFFFFF00C5C5FFAA
:18FFE800000000FF00E00A00FFFFFFFFFFFFFFFFFFFFFFFFFFFFFFFF28
:00000001FF
