:1000000000400220594C020039FB021039FB02105B
:1000100039FB021039FB021039FB021039FB0210C8
:1000200039FB021039FB021039FB021039FB0210B8
:1000300039FB021039FB021011FB0210A62AC92A53
:100040000A05808A7047060301488068704700BF30
:10005000E41000201200018301000143C5A70D63D5
:10006000EFD215B00701000C150020C5A7000161F3
:1000700010911813780C0B3001D83F02501007E094
:1000800047020000480200200443404814122004A4
:1000900010034838020068041385D6121103F001DA
:1000A0000C99B00001F20A111F1003AB8C0000C1C3
:1000B0000410075D8F0000DD4D0200FF01212F12AB
:1000C000060570050C22111D2222223E1010081276
:1000D000002070350200703D020064490200984320
:1000E0000C1114D20360F319FF0001F369FF000142
:1000F0005302600414022000200167711081044043
:100100000120000204F1021CF12C041405ECC804C7
:100110000000EECA6713F1CD051005F4CF0A000008
:10012000F6D1051BF7D303100AFA92120000FB93D5
:10013000160000FD97051401005926E9135C2C3BBD
:1001400010095F32000003643A0000041705340709
:10015000051F7000007FFFFF3F463005612702004A
:10016000192E020C1027D388F30083860500054062
:100170000140303C18382853000064403C00E387BD
:10018000E70003089500F387F40023082A012120E3
:100190003022005F0041410104C044DD0700738C40
:1001A0000D002460202E63022801A3880100738BB8
:1001B0001F00610304C0556411801500D0510E006A
:1001C000B38BFF00C30B4404410308C0BF29383080
:1001D000112053C003A3025301D450F900E050870B
:1001E00000F8501418400A473002029860FB75A4CA
:1001F00060007D24E3F1002441183003A9079C60CE
:100200002110FA0EFF191E045003210461261A9DC5
:100210009029883001FF00141312241C2104522C51
:100220000483C010504DAC03100101004818F206C1
:10023000481C1264182104526C04527404527C0449
:10024000472043682130129010210452980443A49F
:100250001004211CAD18043001A3DF026A22C0740F
:10026000110452C80452D00452D80452E00452E897
:100270000470013DC502A2D40305000000201B4309
:100280004016131218082104522004522804523038
:10029000045238045240045248045250048300006F
:1002A000B0620464155543B82A1C8339EC88610197
:1002B000D20111129C48210452A40452AC0452B43D
:1002C0000452BC0452C404217810046B1800000BC3
:1002D000196BF30008000147684D68E101D2342C26
:1002E000F00110100A000121AC214E4F7C414C0559
:1002F00012705C21105288101F6C1BE803110883D8
:100300009C4174210A4B8C415C43FC4920A1401064
:10031000015000A00AA3E80318D27858526D585231
:10032000901043044A106120526E20529410C3F67C
:100330004C20526F20529810C38C172052702043CB
:100340003C00E4C3711B20527210523E20F003FFA8
:100350000D4D00200001F11201A9ECF60E01411E25
:1003600091700512F104435B53292C0A1C00A00173
:10037000BC281C44BC06200CA204F048FF1AFD1542
:10038000FF1A11FBFFE69D350E480103CCDBFDF49F
:10039000AC1191F4EFB9A5F9E9A7832C5E2CBE97B7
:1003A000F2D203B0208BD28915D08E1C742430ED8C
:1003B0008FC24563765C15525ABF9A32636DEB2A41
:1003C00065499C80DC010001F131011001FF001B37
:1003D000042D8606000B0101200A0A020201020711
:1003E000FE2001520001100790110020E8150020A6
:1003F0000111C301000112A0182104D2000153FF12
:100400007F1260016CDC021C12502852030DF004B4
:100410000193D20000D9D250210143181650A11CDB
:10042000A10CF3019C167052CC141234AC2104526E
:100430003C04D20829F00800224400204C49002046
:1004400050494413200165F30174485C2500000203
:10045000001000000002C013000000028010002005
:1010000001000000000000000000000000000000DF
:10101000FFFFFFFFC01500200400000000000000DB
:101020000000000014000000D04A02001800000078
:10103000104D0200C01000002C150020040000001C
:10104000000000000000000024000000B84A020078
:101050001800000095D1000008000000B011000049
:1010600074100000C1C8021001BB021091EB021005
:10107000DDE5021081E00210B9E5021071E5021011
:101080002E0000000100000001000000A84D020039
:1010900000000000FFFFFFFF981500200400000083
:1010A0000000000000000000280000004045020091
:1010B00024000000210000001800000000000000D3
:1010C00028130000D41000009BEC021025E202104F
:1010D00005EB021025DE0210FDE10210E1E4021032
:1010E000330000003400000025002900000000004B
:1010F0000C150020FFFFFFFFE0150020040000009A
:10110000000000000000000038000000484302001A
:101110002800000001000000100000000000000096
:1011200000000000F7F1021000001A00100000009B
:1011300004000000C04B0200BAF9000008000000E3
:1011400036000000A0150020E8150020090020004E
:10115000DBA6000034150020010000000000120092
:10116000FFFFFFFFD015002004000000000000007A
:101170000000000010000000E84A02001800000013
:101180000000000000001300FFFFFFFF48160020D2
:1011900004000000000000000000000054000000F7
:1011A000183B02003C00000000000100310000007C
:1011B000041000008BC600002D000000000000009D
:1011C000B0110000D81100007D300200D9DB021000
:1011D00059EC0210CDD6021085DE02104DE502104A
:1011E00029E502102D00000000001600000000009C
:1011F00000000000FF7F000050160020FFFFFFFFEF
:10120000C8150020040000000000000000000000DD
:10121000580000003C3D02003400000039FB021081
:101220000100330006000000000000002000000064
:10123000010000001BF80210280000002813000025
:101240005012000093EC02106DEB02104DEC0210F6
:1012500029E00210BDE4021099E402103100000000
:1012600000000000741500200400000000000000D1
:101270000000000010000000484102002C000000A7
:10128000000000000000030000000F003C00000010
:1012900000000000000000002FF902101000000004
:1012A00008000000484B0200FFFFFFFFD815002098
:1012B0000400000000000000000000001C0000000E
:1012C00064450200240000003C12000024150020A8
:1012D0000400000000000000000000000C000000FE
:1012E000884A0200180000006BCF000000000000D8
:1012F00000000000080000000100000004000000E1
:10130000000000000000140000000000004B02007C
:10131000000019000000180024000000CD4D02005C
:101320000040000000020000041000000000100057
:1013300055F002100C000000CBD1000000000000AE
:101340000415002004000000000000000000000060
:1013500020000000A83F020030000000184B0200EF
:10136000010000008BD20000DFA60000000000009A
:1013700000001700000200002E0000000000230003
:101380000000150001000000C011000090150020B1
:101390000400000000000000000000002000000029
:1013A0001C4502002400000070D4000084150020B9
:0E13B00020000000704302000603040200004B
:1013C0000DD100001FD3000023D3000027D300005D
:1013D0002BD300002FD3000033D30000952602004A
:1013E0000D3E020079370200453F02000D49020020
:1013F0007D4202009D49020051420200314B020031
:10140000854B02002134020070B504460D4603F0FE
:1014100032FA2968002631B10A69A24208BF0E4695
:1014200009680029F8D103F052FA304670BDDFF8A0
:10143000101791F833000022030604D4582010FB43
:1014400002F28818704791F88B0001220306F5D547
:1014500091F8E30002220306F0D591F83B01032244
:101460000306EBD591F8930104220306E6D591F823
:10147000EB0105220306E1D591F84302062203069B
:10148000DCD591F89B0207220306D7D500207047D0
:101490002DE97043064614461D4603F0ECF96EB183
:1014A000D6E90A2322432B43C6E90A23D6E9088951
:1014B00048EA040449EA0505C6E90845BDE8704361
:1014C00003F005BA30B581B004460D4602F00BFDBD
:1014D000A04231BF241A641E241A641CA40805F516
:1014E0007A70A04238BFB4F1405F06D2641B012C71
:1014F00098BF0124204601B030BD002001B030BDAE
:10150000F0B5DFF83C3604460025D3F85003012936
:1015100081B024D100E00068002852D0C668377B33
:1015200007F00F07022F1AD00068002849D0C668BC
:10153000377B07F00F07022F11D00068002840D03A
:10154000C668377B07F00F07022F08D00068002815
:1015500037D0C668377B07F00F07022FDBD180B387
:10156000012502B11060C268167B06F00F06022E3C
:1015700027D1012904D10169CA68898D511813E066
:10158000118840F6030291421CBF40F60406B142A6
:1015900007BF01694A6901690A69498B561893F8BE
:1015A0002213192212FB0161406BFFF78BFF2060B1
:1015B00003F0EFF92168B1FBF0F0206001B028469C
:1015C000F0BD0020206001B02846F0BDF0B581B02C
:1015D000044603F050F90546002C1CBFA07A0028F1
:1015E00033D0DFF8603594F909001E680122F7074F
:1015F00002FA00F10ED5DFF850351B681E0609D53A
:10160000DFF848355E68113002FA00F0C04306404A
:101610005E6018600020A072207220606060C4E9E3
:101620000400DFF81C35A06194F9090093F82063E9
:101630008240324393F8220383F8202310B1401EE6
:1016400083F82203C8B200F062F9284601B0BDE871
:10165000F04003F03CB900002DE9F04700261124CA
:10166000DFF8E854DFF8D8944FF00108F0B203280F
:1016700048DA09EB401000F53077B97A012941D1F9
:1016800097F90900113008FA00F0C14329606A682F
:101690001043686097F9090008FA00FA03F0EBF8C4
:1016A00099F894134AEA010189F8941303F00FF9A9
:1016B00099F88403022817D107F1100003F08CF980
:1016C00000F0FF0001280FD1B86948B199F88413E0
:1016D000022909D103F080F900F0FF00012803D1AD
:1016E0000220B8720EE000BF99F8210397F90910A3
:1016F00004FA01F1084389F82103002109F5826009
:1017000003F04DFA761C032EB0D3BDE8F08730B558
:10171000042881B020D1DFF8284404F58D6003F05F
:101720003DF9C8B103F035F9054604F58D6003F0C5
:1017300033F94543B5F5967F0ED204F58D6003F07D
:1017400040F9052003F093FB012084F89103042164
:1017500004F56E7003F023FA002001B030BD70B5BF
:10176000044603F088F8DFF8D863054696F84C0382
:1017700020EA040486F84C430024D6F8280320B15C
:10178000B83003F00BF900B10124D6F82C0320B1D6
:10179000B83003F003F9044319D196F84C0300283C
:1017A00008BF002C13D1D6F8480380B190F8281058
:1017B0008A070CD5446A284603F089F8D6F848030E
:1017C00000220221A0470020C6F8480370BD284629
:1017D000BDE8704003F07BB8F0B400290CBF0123D2
:1017E0000023002A0CBF01250025002839D02C0039
:1017F00004BF90F84440002C33D000291CBF91F85E
:101800004440002C12D0446B0E6C07690969A4088F
:10181000A4EB96040026B94218BFFE68A41B04F18D
:101820008054B4F1805F88BF012301D8190018D01B
:10183000BAB1D1680C7B04F00F04022C11D1516BAA
:10184000046C126900698908A1EB9401002490429C
:1018500018BFD468091B01F18051B1F1805F88BFC6
:10186000012503EA0500F0BC7047F0B581B01E46C3
:101870006FF002078DF80070054634682246FFF7C6
:10188000ABFF10B101208DF800009DF90000B842B7
:1018900001BFE968087B00F00F0002280CD100E0CE
:1018A00024684CB1226821462846FFF795FF00289E
:1018B000F6D002208DF800009DF90010B94204D145
:1018C000E86B10B104218DF800109DF90070012F14
:1018D00006D12946304603F092FE384601B0F0BDED
:1018E000022F09D12268002A2946304608D003F089
:1018F0005EFE384601B0F0BD042F03D129463046C4
:1019000003F068FE384601B0F0BD0020704730B5E6
:1019100081B0044602F0AFFF0546894890F8941361
:1019200021EA040480F8944390F89423110704D426
:10193000082100F56E7003F032F9284601B0BDE8C9
:10194000304002F0C4BF2DE9F04FDFF80CAC81B09D
:101950009AF88413022905D101B0BDE8F04F19208F
:1019600002F096BF9AF8840301281CBF9AF88403FA
:10197000042800F0878002F07EFF00900024DAF84F
:101980005003002518B3C1680A7B012502F00F023D
:10199000022A1CD10A88192140F603039A421CBF6F
:1019A00040F60406B24219BF02691369026953691D
:1019B000528B406B9A189AF8223311FB0321FFF7E0
:1019C00081FD064602F0E5FFB6FBF0F800E0A04618
:1019D00000264FF0FF390027F8B203281EDA0AEB81
:1019E000401101F53072907AC0B1107A01260228B8
:1019F0001DD0DAF898030169408B9AF82233091850
:101A0000192010FB03115069FFF75CFD834602F0BB
:101A1000C0FFBBFBF0F0484598BF81467F1C022FFA
:101A2000DAD9354205D044464C4507D905E0A146F0
:101A3000F7E70DB1444601E006B14C46354317D0F7
:101A400064B12146012998BF01210AF58D6002F099
:101A5000B4FF0AF58D6002F0B2FF0DE00AF58D606B
:101A600002F0AFFF04210AF56E7003F098F803E06E
:101A70000AF58D6002F0A5FF009801B0BDE8F04FB7
:101A800002F025BF01B0BDE8F08F30B585B001464A
:101A90000022039201920492029240F602058C68A1
:101AA000487E628023885B1B09D041F21E055B1BC8
:101AB00005D041F6E6755B1B012B0FD91CE0238A8C
:101AC0004FF6FF3213402382002819BF4FF60F4014
:101AD00003402D2060F3091323820DE0238B4FF682
:101AE000FF3213402383002819BF4FF60F400340F5
:101AF0002D2060F3091323830020487602AD009562
:101B000004AB01AA03A9204601F0CDFE50B1039811
:101B100001884FF6FF72914204D10299019801F0B9
:101B200034FE03E00299019801F075FEDFF8280AFF
:101B3000D0F8AC1309B10198884705B030BD00005A
:101B400030240020402108400000044008100440D8
:101B50002DE9F04784B00025DFF8FC890395D8F81B
:101B600050630295002E68D0D8F86403002804BFA3
:101B7000D8F86003002840D1012585F0010903AAA7
:101B8000494602A8FFF7BCFC040058D1DFF8CC0995
:101B90004768002F18BF002C00F009830298002826
:101BA00040F00583D8F8641303980190CDF80090B5
:101BB00008F55673D8F8600308F55472B847012841
:101BC00000F0C881022840F0F282D8F86003D8F80B
:101BD0006013B0F930400D6902F04DFE4FF0FF3157
:101BE0008C4201904BD1D8F8600300283BD00069AB
:101BF000A84238D1D8F8606397E0D8F8600300288D
:101C0000BBD0D8F86003016930698142B5D196F83C
:101C10003310CA06B1D5D8F864030028ADD1012528
:101C2000D8F86003C16848880028F9D0D8F8600364
:101C3000C16848880128F3D09FE702213FE3002DC7
:101C4000A4D102980028A1D00146022938BF012161
:101C500008F58D6002F0B1FE08F58D6002F0AFFE70
:101C600004B0BDE8F087D8F8640328B10069A84241
:101C700008BFD8F8646358D0D8F8506355E0B8F975
:101C800030000021A04202BFD8F810300093AB42D0
:101C900046D0B8F988000121A04202BFD8F86830C8
:101CA0000093AB423CD0B8F9E0000221A04202BF51
:101CB000D8F8C0300093AB4232D0B8F938010321D4
:101CC000A04202BFD8F818310093AB4228D0B8F92F
:101CD00090010421A04202BFD8F870310093AB42BA
:101CE0001ED0B8F9E8010521A04202BFD8F8C831DA
:101CF0000093AB4214D0B8F940020621A04202BFC3
:101D0000D8F820320093AB420AD0B8F998020721E4
:101D1000A04202BFD8F878220092AA4240F018816F
:101D2000582010FB01F108EB0106002E00F0108195
:101D300096F83300010640F10B81D8F86003864223
:101D40001CBFD8F864138E426AD0D8F850434FF0C5
:101D5000000A00E02468002C00F0FA80B44211D0A0
:101D60002468002C00F0F480B4420BD02468002CCE
:101D700000F0EE80B44205D02468002C00F0E8802A
:101D8000B442E7D120692768A84234D102F073FD3C
:101D9000D4E90A2343F08051C4E90A210AF1010A77
:101DA000D4E9082343F08051C4E9082102F08FFDF3
:101DB00002F061FDD4E90A2343F08071C4E90A21ED
:101DC000D4E9082343F08071C4E9082102F07FFDC3
:101DD00098F84C133069C8F8480341F0010188F8BD
:101DE0004C1308F55470214603F01EFC214608F5FB
:101DF000567003F0EFFB3C00C4D1BAF1000F1FBFD7
:101E000098F88403012898F88403042800F0A0803F
:101E1000DFF8281908F56E7002F0C1FE0198F1E1B3
:101E2000D8F8600300224FF00053FFF731FBD8F8D9
:101E3000640300224FF00053FFF72AFBDFF800098C
:101E400002F0CAFDD8F8604302F015FD5CB1D4E998
:101E50000A2343F08071C4E90A21D4E9082343F03E
:101E60008071C4E9082102F032FDD8F8644302F021
:101E700002FD5CB1D4E90A2343F08071C4E90A2170
:101E8000D4E9082343F08071C4E9082102F01FFD62
:101E900098F84C133069D8F85063C8F8480341F0FB
:101EA000010188F84C13344600E02468002C4FD020
:101EB000B4420ED02468002C4AD0B44209D0246821
:101EC000002C45D0B44204D02468002C40D0B44249
:101ED000EBD1002C3CD020692768A84236D102F013
:101EE000CAFC0246D4E90A0141F08053C4E90A035E
:101EF000D4E9080141F08053C4E90803104602F018
:101F0000E6FC02F0B8FC0246D4E90A0141F0807315
:101F1000C4E90A03D4E9080141F08073C4E9080365
:101F2000104602F0D4FC98F84C133069C8F8480306
:101F300041F0010188F84C1308F55470214603F074
:101F400073FB214608F5567003F044FB3C00C2D1F8
:101F5000019857E1039800B10646B6F9304035695B
:101F600002F089FC4FF0FF318C42074614D1D8F8BB
:101F7000600328B10069A84208BFD8F8606361D047
:101F8000D8F8640328B10069A84208BFD8F8646390
:101F900058D0D8F8506355E0B8F930000021A0427D
:101FA00002BFD8F810300093AB4246D0B8F9880091
:101FB0000121A04202BFD8F868300093AB423CD068
:101FC000B8F9E0000221A04202BFD8F8C030009367
:101FD000AB4232D0B8F938010321A04202BFD8F891
:101FE00018310093AB4228D0B8F990010421A042E7
:101FF00002BFD8F870310093AB421ED0B8F9E801A7
:102000000521A04202BFD8F8C8310093AB4214D0DA
:10201000B8F940020621A04202BFD8F8203200934E
:10202000AB420AD0B8F998020721A04202BFD8F803
:1020300078220092AA4240F0B880582010FB01F1AB
:1020400008EB0106002E00F0B08096F83300010680
:1020500040F1AB80D8F8600386421CBFD8F8641307
:102060008E4261D0D8F8504300E02468002C00F084
:102070009C80B44211D02468002C00F09680B442B9
:102080000BD02468002C00F09080B44205D0246866
:10209000002C00F08A80B442E7D12069A84240F0C9
:1020A000848002F0E8FBD4E90A2343F08051C4E9BC
:1020B0000A21D4E9082343F08051C4E9082102F041
:1020C00006FC02F0D8FBD4E90A2343F08071C4E98E
:1020D0000A21D4E9082343F08071C4E9082102F001
:1020E000F6FB98F84C133069C8F8480341F0010139
:1020F00088F84C1308F55470214603F095FA2146F0
:1021000008F5567003F066FA98F8840301281CBF9E
:1021100098F88403042848D0DFF8201608F56E707C
:1021200002F03DFD38466DE0D8F8600300224FF024
:102130000053FFF7ADF9D8F8640300224FF00053C5
:10214000FFF7A6F9DFF8F80502F046FCD8F860437F
:1021500002F091FB5CB1D4E90A2343F08071C4E939
:102160000A21D4E9082343F08071C4E9082102F070
:10217000AEFBD8F8644302F07EFB5CB1D4E90A23DD
:1021800043F08071C4E90A21D4E9082343F0807147
:10219000C4E9082102F09BFB98F84C133069C8F899
:1021A000480341F0010188F84C1338462AE0002D1D
:1021B00000F089803069D8F89813884218BF4FF42E
:1021C00080617CD1002C1CBF029800281FD0D8F859
:1021D0006003002804BFD8F86403002817D102F078
:1021E0004AFB044698F8940300F0F70088F894033B
:1021F00098F89403010704D4082108F56E7002F0E2
:10220000CEFC204602F063FB04B0BDE8F08702F08C
:1022100032FB98F8941341F0080188F8941302F007
:1022200056FB96F83300C10608F5547004D503F048
:10223000AAF9C8F8640303E003F0A5F9C8F860033D
:10224000D6E90601DFF8A048C043A060E268D6E9FD
:1022500006010243E260D6E90623DB432360676898
:10226000D6E906010F436760DFF880787D68F4687F
:102270002B46180007D0387A010704D5D8F8980300
:10228000324608219847204602F0A6FB208840F6F7
:102290000201401A08D041F21E01401A04D041F652
:1022A000E671401A012808D83DB1387AC10704D533
:1022B000D8F8980322460121A8474FF0804108F53D
:1022C0006E7002F06CFC04B0BDE8F0872DE9F04FB1
:1022D000DFF88492DFF8180881B0D9F8608302F043
:1022E000FAFB0646DFF8E4090468076804F02004F6
:1022F000344018BFB8F1000F07F4602716D0C9F8B2
:10230000688302F0B8FAD8E90A232343C8E90A230C
:10231000D8E908AB4BEA0405C8E908A502F0D7FAEA
:102320004FF4804109F56E7002F039FC3E400DD04B
:1023300099F8211341EA564089F8210301B009F5C3
:102340008260BDE8F04F002102F029BC01B0BDE879
:10235000F08F2DE9F043DFF8009281B099F8210366
:10236000002400284CD099F821030026C1073DD550
:1023700099F821031021B140084218BF012402F04E
:102380007AFA99F821131122B240914389F8211366
:1023900002F09DFA032E33DA09EB461101F5307293
:1023A000907A68B392F90980DFF8241901EB88016B
:1023B000002C0D681668576804BF107A022803D1F4
:1023C000D2E90401C30009D41046FFF7FFF82CB18D
:1023D0000020009000224FF0007303E000950022DF
:1023E0004FF0006341463046B84709E099F82103B1
:1023F00001268107BCD499F8210302264107B7D4EE
:1024000099F8210338B109F5826001B0BDE8F043C5
:10241000002102F0C4BB01B0BDE8F0832DE9F04318
:102420000FF23C1285B0D2E90034CDE900344FF40C
:10243000804002F0CBFA4FF00008F0B1DFF89408CA
:10244000D0F813100078C1F31501800841EAC0717B
:102450004148D0F89833986802AA01F0B7FA3E488C
:10246000DFF88816D0F898034B6882681C0004D007
:102470000C7AE10744BF012198476E464FF00209EC
:1024800037683868002855D03868D0E9060102F06E
:102490009DFA3D680021CDE90201044602F0EBF906
:1024A00084467DB1D5E90A23DDE9020110431943D1
:1024B000C5E90A01D5E90823DDE902011043194302
:1024C000C5E90801604602F002FA14F00A0F2AD0AA
:1024D0003868DFF8F817DFF800388A68DFF8EC476B
:1024E000D0E9060118408243A26038682368D0E929
:1024F00006018B4323603A68DFF8F0054368190052
:1025000007D0017AC80604D5134CD4F898031021DB
:1025100098473968DFF8C40703F05CF8002038609A
:1025200048F0020806E02CB138680B49C1F868038E
:1025300048F48048361DB9F10109A1D15FEA0801CC
:102540001CBFDFF89C0702F02AFBFFF785F8FFF7B6
:10255000FFFA05B0BDE8F08330240020D01600203B
:10256000902700209427002030B5DFF8784781B00D
:10257000B4F96C03B4F96E13884217D102F07BF9F9
:10258000054694F8940300F0F70084F8940394F857
:102590009403010704D4082104F56E7002F0FFFAD9
:1025A000284601B0BDE8304002F091B901B030BD1D
:1025B0000720FFF7D4B82DE9F041074682B0D7F8DD
:1025C000A860884614461D4606B1B047D7E92801E1
:1025D0002040294008BF002800F08E80DFF8045713
:1025E000B5F930600024464502BF2A690092BA421C
:1025F00003D195F83320160663D4B5F98860012419
:10260000464502BFAA6E0092BA4203D195F88B20CC
:10261000160656D4B5F9E0600224464502BFD5F847
:10262000C0200092BA4203D195F8E320160648D4A0
:10263000B5F938610324464502BFD5F81821009248
:10264000BA4203D195F83B2116063AD4B5F9906108
:102650000424464502BFD5F870210092BA4203D146
:1026600095F8932116062CD4B5F9E8610524464562
:1026700002BFD5F8C8210092BA4203D195F8EB21E8
:1026800016061ED4B5F940620624464502BFD5F8A9
:1026900020220092BA4203D195F84322160610D4A4
:1026A000B5F998620724464502BFD5F87822009212
:1026B000BA4203D195F89B22160602D4C7E92C0131
:1026C00010E0582616FB04F4C7E92C012C44D4E989
:1026D000082322EA000023EA0101C4E90801D7F82F
:1026E000A850A5600020C7F8A80002B007F150006C
:1026F000BDE8F04103F01BB802B0BDE8F0817047BF
:1027000000B581B002F040FADFF8D8250146D2F8D2
:102710009803D2F8882301B05DF804EB1047DFF886
:10272000C4050FF2D152D0F88813914208BFFFF7C9
:102730000AB9042100F56E7002F031BA02000040BF
:102740000100010430B581B04FF0FF3002F03EF9D6
:10275000DFF890550FF29D510446D5F88803884262
:1027600032D10022DFF8881505F57D7002F092F86D
:10277000022085F88403D5F898138A6801F138039C
:1027800000E00246506890B198421EBF0246506871
:1027900000280CD098421EBF02465068002806D080
:1027A00098421FBF0246506800289842E9D1507BEA
:1027B00010F00F0F02BF488F40F60901884203D086
:1027C000FEF74AFFFFF7C4F9DFF8BC0C044208D05B
:1027D00005F56E7001B0BDE830404FF0005102F0D9
:1027E000DEB901B030BD00B581B04FF0FF3002F06E
:1027F000EDF8800708D501B05DF804EB4FF40061F7
:10280000DFF8DC0402F0CBB901B000BD2DE9F041E6
:10281000DFF8D074D7F85863002E00F0AB80F06872
:10282000082140F6040240F6030301E04068491E17
:1028300068B1CCB25CB104889C4218BF9442F5D117
:10284000316901F138021AC81AC21AC81AC2D6E987
:102850000A450022C6E90A22B068D0B115F0E24369
:1028600010D024F00F0235F0E24308BF002A05D053
:10287000B6F930103069D6F808C0E04704F000041B
:1028800005F0E245B6F9301030692246B4682B46AF
:10289000A04701F0F0FF0446B7F86E03401CC0F3F8
:1028A0000B00A7F86E036FF00201002086F83300DA
:1028B000318607F5567002F066FE204602F007F8F2
:1028C000B7F96E03B7F96C13884253D1D7F8982340
:1028D000D7F82863D7F82C5392F8FC100024A046B0
:1028E000052001B10720FEF73AFF2EB196F8FC0053
:1028F00000B9346886F8FC803DB195F8FC0008B951
:10290000D5F80080002085F8FC00444538BF4446D7
:10291000E4B9B7F96C03B7F96E1388422AD101F014
:10292000AAFF044697F8940300F0F70087F8940391
:1029300097F89403010704D4082107F56E7002F09C
:102940002EF92046BDE8F04101F0C1BF14F1010F9E
:1029500010D002F01EF8B4FBF0F1012998BF01215C
:1029600007F2AC4002F029F807F2AC40BDE8F041B4
:1029700002F025B8BDE8F081DA4A92F8841300200D
:10298000022904BFD2F86013002903D1D2F86413DE
:1029900001B90120704770B5DFF8F01A0446D1483C
:1029A000D0F89C6308682568026B9047864231BF67
:1029B000861B401E861B761C360BAE423CBFAD19F3
:1029C0006E0840F6C410864288BF064604D8B6F5A5
:1029D000967F38BF4FF49676266070BD30B50D46B1
:1029E000A80781B0BF4C12D5FFF710FFD4F85803E9
:1029F00040B145F0020104F56E7001B0BDE8304011
:102A000002F0CDB801B0BDE83040FEF79CBF6807CA
:102A100067D5012184F89613042002F028FADFF824
:102A20006C0A01680A6B9047C4F89C03D4F8500301
:102A300098B10569D4F89803002818BFA8420AD0B5
:102A400095F82800410704D56B6A00220421284626
:102A5000984701206876C4F89853D4F898034168E1
:102A6000DFF82C0A0A780260022002F000FA112036
:102A700002F012FA012084F884031C49887810B906
:102A80000E2002F009FAD4F89803416888680028FB
:102A900004BFC868002806D0DFF8B80CDFF84C2C5B
:102AA0000021C16102600720DFF8441C086000219A
:102AB000DFF8A00C4269416182698161426942F09C
:102AC000402242F0020242610FF22900C4F888035A
:102AD0001A2001F0D2FE01B0BDE83040192001F00B
:102AE000CCBE01B030BD000008100440744C0200A0
:102AF00020000E002DE9F0430446880081B040F12B
:102B0000B180DFF8E081D8F89803416848688E68A2
:102B1000CF68010018BF80473000DFF8385C01D172
:102B200038000ED0E8690028FCD00021E9613000AF
:102B300018BFB047380018BFB847DFF81C0C01F0C9
:102B40004BFF0020E86140F60A09DFF8101C2960FD
:102B5000A8F87093A8F8720398F87C1301F0F001BC
:102B600088F87C13C8F87403204698F87D1301F0A8
:102B7000F00141F0010188F87D13FEF786FFA66899
:102B8000374640F6040140F6030200E00746786845
:102B900028B103884B451CBF93428B42F6D17B7B07
:102BA00008F55C70786003F0F0037B73D8F850038D
:102BB00028B1C0680088904218BF88421CD0208F7E
:102BC000D0B100216187E16394F8450094F8441086
:102BD00000F0F00040F0010084F8450001F0F00141
:102BE00084F8441004F13800C8F8740398F87D1391
:102BF00001F0F00188F87D13E8690028FCD000217D
:102C0000E9610FF2F10298F89103C8F8882330B116
:102C100002F0FBFA0028FBD002F014FB10E032496E
:102C20000A68136801209847012809D0787B00F0D2
:102C3000F00040F0010078730FF23100C8F888030B
:102C40000021E9612E602948436819000AD0007A02
:102C5000C10707D5D8F89803324601B0BDE8F04364
:102C60000121184701B0BDE8F0830000DFF8F02A29
:102C7000114200D1704710B51B490A681368012042
:102C8000984701280DD1DFF8DC0A0FF26901C0F87E
:102C900088130022DFF8BC1ACA6100F55C70086076
:102CA00010BD01F076FE3221B1FBF0F10129DFF811
:102CB000B44A98BF012104F58D6001F07EFE04F551
:102CC0008D60BDE8104001F07ABE00000C10044099
:102CD0009430044085030021FDBFFFFF88270020BA
:102CE000E827002030240020E0010010744C02008E
:102CF0001D2400002DE9F04F04460E46700483B0F9
:102D0000DFF8608A2CD501F0B6FDD8F8687317B3E8
:102D1000D7E90A2302F00A0413F0E04508BF002CAB
:102D200019D1D7E90A45D7E90A23A243AB43C7E93A
:102D30000A2301F0CCFDB86878B1002D08BF002C43
:102D40000BD0B7F9301038692246BC682B46A04733
:102D500026F4804623E301F0BAFD26F480461EE304
:102D6000B00040F18580DFF8540CD0F88C1041F0B1
:102D70008001C0F88C1098F8960328B1042002F066
:102D80000BF8002088F8960301F075FDDFF8FC16BB
:102D90004A6D1368054604209847D8F8B4230146C5
:102DA00091421DD1207E00281CBFD8F89C0300282A
:102DB00016D0D8F8600370B1C1680A8840F60303E2
:102DC0009A421FBFC068018840F60402914208BFC2
:102DD00004F1140001D004F11000FFF7DCFD05E060
:102DE00040F6C41020616061C8F8B413284601F0B1
:102DF0006EFDD8F898138A6801F1380300E00246A6
:102E0000506890B198421EBF0246506800280CD00E
:102E100098421EBF02465068002806D098421FBF45
:102E20000246506800289842E9D1507B10F00F0FFD
:102E300002BF488F40F6090290420FD1256A002256
:102E40004FF000736FF480712046A847D8F8500304
:102E500010B1FEF778FD01E046F002062046E46975
:102E600000224FF080630021A04726F0005696E232
:102E7000B00709D5FFF7CAFCD8F85803002840F07E
:102E80008E8226F002068AE2700540F1BA8001F0D7
:102E9000F2FC0546FFF770FDD8F85043012840F0DA
:102EA000AA80002C00F0A780042088F88403002268
:102EB000DFF80C1B08F57D7001F0ECFC284601F0F2
:102EC00006FD08F2AC4001F07CFDDFF8C0050168AA
:102ED0000A6B9047C8F8A003012088F896030420E5
:102EE00001F0C5FF2069C8F8980390F828104A0738
:102EF00003D5436A002204219847D8F89803DFF8E5
:102F0000545841688F68D1F80C904868002F08BF6A
:102F1000B9F1000F04D00021E961DFF8D0272A6061
:102F200008B1C046C046002F08BFB9F1000F0ED04F
:102F3000E8690028FCD00021E96107B1B847B9F180
:102F4000000F18BFC847DFF8100801F045FDD8F89A
:102F500098030121417640F60A07FEF796FDD8F85E
:102F600098339A68114640F6040C40F6030E00E0D0
:102F70000146486830B1B0F80090B9451CBFF14532
:102F8000E145F5D1002048604F7B07F0F00747F09E
:102F900001074F73E0680088704518BF604503D192
:102FA0000020C8F8A00315E0188F98B103F138008D
:102FB000002444804460047B04F0F0040473447BE8
:102FC00004F0F00444F0010444734860487B00F0CE
:102FD000F00048730020E8612A60DFF8E8094468DF
:102FE00021000BD0007AC10708D501211846A0475F
:102FF00026F48066D3E1284601F069FC26F4806659
:10300000CDE1310564D598F8960328B1042001F08C
:10301000C3FE002088F89603D8F8984304F108010D
:1030200004F138050B6800E00346586890B1A842E7
:103030001EBF0346586800280CD0A8421EBF034696
:103040005868002806D0A8421FBF034658680028C9
:10305000A842E9D1587B10F00F0F02BF488E40F60E
:103060000902904207D12046246A00224FF00073E3
:103070006FF48071A047D8F8A00398B1DFF80C1462
:103080000868026B9047D8F8A013814231BF401AFC
:10309000401E401A401CD8F89813000BC86000204E
:1030A000C8F8A0030022DFF8201908F57D7001F0B0
:1030B000F1FB022188F88413D8F8580318B108F5F9
:1030C0006E7001F06CFDFEF73EFC26F4006666E1D2
:1030D000300740F15E8101F0CEFB0190FFF74CFC20
:1030E000002800F04E8198F89403010700F149810F
:1030F00098F89403010600F14481D8F850030024A5
:10310000002520B3C1680A7B012502F00F02022AC4
:103110001DD10A88192140F603039A421CBF40F6CC
:1031200004039A4219BF0269136902695369528BF9
:10313000406B9A1898F8223311FB0321FEF7C2F96D
:10314000074601F026FCB7FBF0F1009100E0009487
:1031500000274FF0FF39A2465FFA8AF002281FDCF1
:1031600008F5307101EB4012907AC8B1107A01274E
:10317000022820D0D8F898030169408B98F82233B0
:103180000918192010FB03115069FEF79BF98346BB
:1031900001F0FFFBBBFBF0F0484598BF814600BF44
:1031A0000AF1010ABAF1030FD6D33D4205D0009CC3
:1031B0004C4507D905E0A146F7E70DB1009C01E0B9
:1031C00007B14C463D4302D0002C00F0DA8098F85D
:1031D0002103002840F0D58000270125F8B20228FD
:1031E0001FDC08F5307101EB4011887AC8B191F904
:1031F00009008D7205FA00F901F03DFB044698F8CC
:10320000940320EA090088F8940398F894130807B7
:1032100004D4082108F56E7001F0C1FC204601F0CD
:1032200056FB7F1C032FD9D3032088F8840308F2B0
:10323000AC4001F0C6FB0198DFF8184501F047FBF0
:103240006069002161610022E068E16008F57D703D
:10325000DFF8381B01F01EFB8C4801680A6B9047B1
:10326000D8F89C13814231BF401A401E401A401CBE
:10327000D8F88C134FF0FF32A2EB10328A4234BFE1
:103280004FF0FF3001EB1030C8F88C0398F8900332
:1032900030B1D8F8A403D8F88C13C00288422FD2DA
:1032A000DFF818070268D10725D5DFF8E40A0068BF
:1032B000010620D540F60900A8F870030021A8F8FF
:1032C000721398F87D0300F0F00040F0010088F8D8
:1032D0007D0398F87C0300F0F00088F87C03C8F8C0
:1032E0007413E16108F55C71216000BFB8F87203E6
:1032F00010F4406FFAD0002188F89053C8F88C136E
:1033000001F077FBDFF8E813DFF8B846002008602B
:103310006368180007D0207A810704D5D8F898038D
:10332000002202219847022001F036FD112001F011
:103330004CFD98F8950320B9D8F89803503002F066
:10334000F6F9A07810B90E2001F03FFD98F891032E
:1033500028B1002188F89113052001F01DFDDFF848
:10336000E80BC8F88803002188F884130220B8F914
:103370006E13B8F96C23914208BF0720FEF7EFF9EE
:1033800002E0019801F0A3FAFEF7DDFA26F0080644
:1033900005E0700003D5FEF7D6FA26F080463EB170
:1033A000314608F56E7003B0BDE8F04F01F0F7BB91
:1033B00003B0BDE8F08F00002DE9F54CDFF8A4A3C1
:1033C000DAF8504381B09B4600250E4600E02468A1
:1033D000002C55D0B4420ED02468002C50D0B442FA
:1033E00009D02468002C4BD0B44204D02468002CAF
:1033F00046D0B442EBD1002C42D020690199276815
:10340000884237D101F037FAD4E90A2343F08051DA
:10341000C4E90A21D4E9082343F08051C4E9082112
:1034200001F055FABBF1000F18D001F024FAD4E9ED
:103430000A2343F08071C4E90A21D4E9082343F048
:103440008071C4E9082101F042FA9AF84C133069FE
:10345000CAF8480341F001018AF84C1321460AF5E5
:10346000547002F0E1F821460AF5567002F0B2F805
:1034700015F101059DF80800002818BF3C46BAD197
:10348000284603B0BDE8F08C020000408C0100101B
:10349000D02108402DE9F04792460326BAF1000FEB
:1034A00084B081461D4614BF4FF080474FF000574F
:1034B0000C4601F0E0F94FF0FF318C420190DFF84B
:1034C000A48256D1D8F86003002846D00069484548
:1034D00043D1D8F86043002C00F0018194F8330008
:1034E000010640F1FB808DF800500C9ED8F8600377
:1034F00084421CBFD8F864138C4240F0D880D8F8BE
:10350000605301F0B8F984464DB1D5E90A01394359
:10351000C5E90A01D5E908233B43C5E9082360460C
:1035200001F0D5F9D8F8645301F0A5F984464DB1FE
:10353000D5E90A013943C5E90A01D5E908233B4326
:10354000C5E90823604601F0C2F9BAF1000F14BFC3
:10355000DFF8F809DFF8F80967E0D8F8640328B164
:103560000069484508BFD8F86443B4D0D8F8504340
:10357000B1E7B8F930100020A14202BFD8F81030EE
:1035800000934B4505D1582111FB00F008EB0004D6
:10359000A1E7B8F988100120A14202BFD8F868302D
:1035A00000934B45EFD0B8F9E0100220A14202BFD2
:1035B000D8F8C03000934B45E5D0B8F93811032056
:1035C000A14202BFD8F8183100934B45DBD0B8F9BF
:1035D00090110420A14202BFD8F8703100934B45EE
:1035E000D1D0B8F9E8110520A14202BFD8F8C831FE
:1035F00000934B45C7D0B8F940120620A14202BF44
:10360000D8F8203200934B45BDD0B8F99812072066
:10361000A14202BFD8F8782200924A455FD15821D2
:1036200011FB00F008EB000455E701F0D5F996B363
:10363000D8F8605301F01FF902465DB1D5E90A01DF
:1036400041F08073C5E90A03D5E9080141F08073B0
:10365000C5E90803104601F03AF9D8F8645301F0BF
:103660000AF902465DB1D5E90A0141F08073C5E966
:103670000A03D5E9080141F08073C5E90803104643
:1036800001F025F998F84C132069C8F8480341F077
:10369000010188F84C139DF80000E8B10246D8F803
:1036A000501333464846FFF787FE832617E033461C
:1036B0002A4621464846FFF77FFE78B198F88403F2
:1036C00001281CBF98F88403042805D0DFF8DC1B10
:1036D00008F56E7001F063FA832600E00426019875
:1036E00001F0F5F8304604B0BDE8F0875100070658
:1036F0000000046010B50C461A4991F88423022A90
:103700000BD101F069F904B1206000F0FF0001283D
:1037100001D1812010BD022010BD012010BDF0B5E7
:1037200081B004460D46164601F0A5F807460D483F
:10373000D0F898138C4218BF032404D13146284690
:10374000FFF7D8FF0446384601F0C1F8204601B023
:10375000F0BD0000001004400100070601010E0446
:10376000040000203024002030B5144681B0054606
:10377000502340F2FF3201F059F924B1014655F8C7
:103780002110890A216001B030BD002942D00A0E03
:10379000202A08BF10221AD0212A08BF202216D0C2
:1037A000A02A08BF302212D00AB940220FE0102A06
:1037B00008BF50220BD0112A08BF602207D0402A30
:1037C00008BF702203D0502A0CBF802290228901AA
:1037D000090A42EA012141F00F0100E0001D0268E0
:1037E00012F1010F18BF8A421CBF50F8042F12F1CA
:1037F000010F0ED08A421CBF50F8042F12F1010FA6
:1038000007D08A421EBF50F8042F12F1010F8A42DE
:10381000E4D101607047002944D00A0E202A08BF75
:1038200010221AD0212A08BF202216D0A02A08BFB1
:10383000302212D00AB940220FE0102A08BF5022CD
:103840000BD0112A08BF602207D0402A08BF70227F
:1038500003D0502A0CBF802290228901090A42EA33
:10386000012141F00F0100E0001D026812F1010F7B
:1038700018BF8A421CBF50F8042F12F1010F0ED05E
:103880008A421CBF50F8042F12F1010F07D08A4260
:103890001EBF50F8042F12F1010F8A42E4D14FF0FD
:1038A000FF31016070472DE9F04381B01E46089D4D
:1038B000DFF83C3B1B685B0E13F00108038840F601
:1038C000020765D0BB4207D0B3F5C15F10D043F605
:1038D0000607BB4218D022E000F112030B604169D9
:1038E000116082693260C1692960C77B047C22E073
:1038F00000F112030B6041691160426A3260816A13
:103900002960C77B047C16E000F11A030B600027D6
:10391000C1691160026A3260416A29600AE000F1FF
:103920001A030B60C1691160826A3260C16A296042
:1039300090F82470047E306804F0070488B10523F1
:103940004FF6FF7240F2037101F070F88146B9F151
:10395000050F06DA2146384601F080F8316841F853
:103960002900286830B305234FF6FF7240F2037137
:1039700001F05CF80646052E1CDAFF21384601F0FE
:103980006DF8296841F82600404601B0BDE8F08393
:10399000BB4218BFB3F5C15F04D100F112030B6045
:1039A000406903E000F11A030B60C0691060002059
:1039B00030602860404601B0BDE8F08340210840F7
:1039C000E7270000744C02001D2400002DE9F0419F
:1039D00086B015460C460022029204920392019290
:1039E00001A9009103AB04AA02A9FFF75CFF83269B
:1039F000E20F30D130B3039800281CBF0198002893
:103A00001AD00298048040F22B28039F4146384682
:103A1000FFF7AAFEFF281CBF48EA842147F82010C0
:103A200001990498FFF7F7FE152028803046039986
:103A3000696006B0BDE8F081029801884FF6FF7218
:103A4000914249D002980480102129806C80304630
:103A500006B0BDE8F08100283ED0039800281CBFC6
:103A6000019800281CD002984FF6FF7101800022B7
:103A7000019F2B213846FFF777FEFF2804D0A402D0
:103A800044F02B0447F8204001990498FFF77DFE8D
:103A90001520288030460199696006B0BDE8F081A4
:103AA000049F00222B213846FFF75EFEFF2804D03A
:103AB000A10241F02B0147F82010FF280CD00299F9
:103AC0004FF6FF70088014222A80C4F315046C603E
:103AD000304606B0BDE8F0810326304606B0BDE8AA
:103AE000F0812DE9F04391B00D460021DFF8048A02
:103AF00008910191079106910646D8F8089014465E
:103B00001F4601F02DFE262803D001F029FE2528AE
:103B100026D1208843F60701884212D194F8240068
:103B200002281DDD2069DFF8B42A20F060419142AF
:103B300016D020F06040DFF8A81A884240F02181BA
:103B40000EE040F60202904203D1E07B022807DD3E
:103B500017E1B0F5C15F03D1E07B022800F31181CA
:103B6000002D18BF002C00F00C81287829FA00F0F5
:103B7000C10740F10681002120460020C046756043
:103B8000B460DFF87058D5F8AC0388B106A900918D
:103B900007AB01AA08A92046FFF785FE019850232C
:103BA0004FF6FF720B2100F041FFFF2800F0E98083
:103BB00000F061FE814695F89503022880F2DE80D0
:103BC000002840F0868001F018F8DFF8180ADFF8C6
:103BD000184A016841F002010160DFF8100AC8F8D4
:103BE000000002A800F09AFF6078DFF8041A049041
:103BF00002AA05F56E7000F099FF02AADFF8F41929
:103C000005F5826000F092FF02A800F058FE2078CF
:103C10005E4A039002AB192105F57D7000F008FEA5
:103C200002ABDFF8D4291A2105F24C4000F000FE67
:103C300000230022DFF8C41905F58D6000F082FE34
:103C400000230022DFF8B81905F2AC4000F07AFE3C
:103C5000DFF8B0090168C1F3814038B10023DFF813
:103C60001C2A042105F59E6001F080F8A078012847
:103C700004BF0E2001F010F905F5567001F078FC34
:103C800005F5547001F074FC002085F88403C5F834
:103C90008C030021072085F8901385F8911385F88F
:103CA0002003C5F89C1300200521C5F8A003C5F822
:103CB000A41385F89403A449C5F888136368180011
:103CC00007D0207A410704D5D5F8980300220421B3
:103CD000984795F8950305EB8002401CC2F82863CD
:103CE00085F895033C46484600F0F1FD3CB90FF2DB
:103CF0002C6191E8BC5109A880E8BC5109AC20684E
:103D000030604FF4FA71F160A069B0620120218A3D
:103D100071837076E1693163606828B13061002198
:103D200060687061317605E040F6C4103061706102
:103D300001203076DFF8480930627062F061E06897
:103D400000B13062606900B17062A06800B1F061DA
:103D5000C82106F1380001F037FD002106F15000BE
:103D600001F0A4FC00230022DFF83C1A06F1B800A1
:103D700000F0E8FD304611B0BDE8F083484600F0A1
:103D8000A6FD002011B0BDE8F0830000452700002B
:103D900000000440F0B5DFF85C4694F89513002964
:103DA00081B000F09E80B4F96C13B4F96E23914297
:103DB00005461BD004F55471FDF726FB68B9D4F80D
:103DC000600328B10069A84208BFD4F8600304D09A
:103DD00004F556712846FDF717FB38B1B0F93010DD
:103DE0000A224FF0E043284600F0A2F900F043FD1C
:103DF0000646D4F82803854207BF0021C4F82813DB
:103E00000020C4F82C0394F89503401E84F8950311
:103E1000C0B2002850D1C4F8985394F88403022803
:103E200020D100F028FD074694F8940300F0F70035
:103E300084F8940394F89403010704D4082104F54A
:103E40006E7000F0ACFE384600F041FD304600F0E8
:103E50003EFD4FF0FF3105F1500001F05DFC00F038
:103E60000AFD064604F56E7000F08AFE04F57D70CA
:103E700000F0FFFC04F5826000F082FE04F24C408A
:103E800000F0F7FC04F58D6000F07FFD04F2AC401B
:103E900000F07BFDD4F8B01311B104F20450884750
:103EA00004F59E6001F08FF9DFF83C078178012965
:103EB00004BF0E2000F089FFD4F89803A84204BF85
:103EC0000021C4F89813304600F001FD05F15000C0
:103ED00001F020FC05F1B80001B0BDE8F04000F0B1
:103EE00054BD01B0F0BD2DE9F04D00F0C4FCDFF889
:103EF000044594F8841302291CBF94F88413042900
:103F000007D1DFF8A828146800F0E1FC2046BDE8DE
:103F1000F08D00F0DCFCDFF89808DFF8BC88016861
:103F20000A6B904710F5003641F1000AD4F880136F
:103F3000A8FB067B002008FB0ABB3C184BEB0105E5
:103F40002C462046BDE8F08DDD290000010002046A
:103F5000010001042DE9F04F83B081460F4615465C
:103F60009B4600F088FC01906FF00106DFF8848426
:103F7000D8F82803814508BFD8F82C0330B1B830F1
:103F800000F00CFD10B16FF00206AAE0FDF74FFA49
:103F9000040000F0C680DDE90C6A08F2AC4000F0D5
:103FA00010FDB8F86C03401CC0F30B00A8F86C03BC
:103FB000E760002084F83200C4F808B02021B8F887
:103FC0006C23DFF818082286C4F8109030400AEA03
:103FD0000101C4E90601002284F83320C4E9082263
:103FE000EE6826642A7C84F844202B6863632A796F
:103FF00084F83820AB68E3636A69A264AB69E36460
:104000002A7F84F850206B7F84F851302A7C22B9B3
:10401000EA6812B1012384F844302A79002A02BFE9
:104020003A7B02F00F02022A04D1012284F83820E0
:10403000BB686363082301E017465B1E7A68002AA9
:1040400018BF002BF8D13A8802F47C42B2F5305FF9
:104050000AD194F8332042F0100284F8332040F063
:104060000800C4E9060103E040F00202C4E90621A9
:10407000D8F84803484507D198F84C03C10744BF16
:1040800000F0FE0088F84C03DFF8540706686FF074
:1040900002050EB92E461DE0D8F8642308F55670C7
:1040A000009008F55473D8F860132046B0470646D0
:1040B000AE420FD0B8F96C03B4F93010884206D084
:1040C000B8F86C03411EC1F30B01A8F86C1316F18C
:1040D000020F0FD1B8F86C03411EC1F30B01A8F811
:1040E0006C13C8F8489398F84C0340F0040088F823
:1040F0004C0316E0B4F9306094F8330040F08000CF
:1041000084F83300002189F8FC10D8F85003A0424D
:104110001FBFE168087B00F00F00022808BFFDF711
:1041200012FC019800F0D3FB304603B0BDE8F08FDD
:10413000F0B506460F46380081B014461D4603D53B
:104140000020002101B0F0BD00F01CFDDFF8A4222A
:10415000B2F930300021BB4202BF13690093B34271
:1041600003D192F833301B0660D4B2F988300121B4
:10417000BB4202BF936E0093B34203D192F88B30DF
:104180001B0653D4B2F9E0300221BB4202BFD2F881
:10419000C0300093B34203D192F8E3301B0645D4FC
:1041A000B2F938310321BB4202BFD2F81831009373
:1041B000B34203D192F83B311B0637D4B2F99031A8
:1041C0000421BB4202BFD2F870310093B34203D145
:1041D00092F893311B0629D4B2F9E8310521BB428C
:1041E00002BFD2F8C8310093B34203D192F8EB3149
:1041F0001B061BD4B2F940320621BB4202BFD2F8E3
:1042000020320093B34203D192F843321B060DD4FF
:10421000B2F998320721BB4202BFD2F878720097F8
:10422000B7420BD192F89B723B0607D5582313FB7C
:1042300001F1571897F833100A0605D400F0B1FCC5
:104240000220002101B0F0BDD7E9082344F00A04A0
:1042500045F0E04522402B4008BF002A0ED000F078
:10426000A0FCD7E9080120402940C6E92C01D7E984
:10427000082382438B43C7E9082312E0BA68DFF8BA
:1042800064158A4203D0BA68C6F8A820B960C6E9A6
:10429000284500F086FC4FF0FF3106F1500001F098
:1042A0003BFAD6E92C0101B0F0BD0000020000404D
:1042B000D0B582B00446DDE90667CDE90067FFF7B7
:1042C00049FE0146204602B0BDE8D0400A224FF028
:1042D000E0432DE700B581B0930803F0010300939C
:1042E000530803F0010302F00102FFF7D3F801B015
:1042F00000BD00B581B0930803F00103009302F004
:1043000001020123FFF7C6F801B000BDF0B500BF00
:1043100002A191E8FC5080E8FC50F0BDFFFFFFFFD8
:104320000000000000000000000000003A013A0117
:104330000000000000000000000000000022FFF765
:10434000EEB90022FFF7EBB900B581B06A46DFF89D
:104350009C14FFF7E4F9812803BF009800020016BF
:104360006FF07F0001B000BD70B50E46154600F03D
:1043700082FA8324052E36D8DFE806F0030F1535C0
:104380001F28DFF86424D2F8601321B1D2F860133B
:104390000A8E2A8028E0802426E0DFF84C1491F869
:1043A00020232A8020E0DFF8401491F88423022A99
:1043B0000CBF01210021297016E0DFF82C14D1F880
:1043C00028232A60D1F82C1369600DE0DFF8182447
:1043D000D2F8281301B1C9682960D2F82C1301B1B1
:1043E000C968696000E0032400F071FA204670BDDE
:1043F000941200503024002070B4DFF8EC33B3F98D
:104400003040002281B08C4202BF1E690096864275
:1044100003D193F833502C0660D4B3F988400122BD
:104420008C4202BF9E6E0096864203D193F88B5059
:104430002C0653D4B3F9E04002228C4202BFD3F8D9
:10444000C0600096864203D193F8E3502C0645D411
:10445000B3F9384103228C4202BFD3F818610096A9
:10446000864203D193F83B512C0637D4B3F99041DF
:1044700004228C4202BFD3F870610096864203D1B9
:1044800093F893512C0629D4B3F9E84105228C42C4
:1044900002BFD3F8C8610096864203D193F8EB516E
:1044A0002C061BD4B3F9404206228C4202BFD3F83B
:1044B00020620096864203D193F843522C060DD415
:1044C000B3F9984207228C4202BFD3F878120091C8
:1044D00081420BD193F89B02010607D5582010FBAF
:1044E00002F29818C06801B070BC704701B070BC8F
:1044F00000207047CC2108402DE9F04B0E4682B0D9
:1045000096F9048034688346174600F0B4F9DFF862
:10451000D82292F8201300906FF001094FF0000CA0
:104520005FF0010303FA0CFE11EA0E0F50D04FF0BA
:10453000FF35A84518BFE0454AD15FFA8CF0032843
:1045400046DA02EB401505F53075A87A00283FD110
:1045500021EA0E0082F82003AB7285F809C00A2117
:1045600092F82203401C82F82203C5F800B02B7297
:10457000002343486860298295F90900401DA8740A
:10458000B06868617FB13B7878785B0143EA80036B
:1045900095F90900401D43EA00234FF6FC710B40DA
:1045A000DFF84C020343AB6104B16C60D2F89803AE
:1045B00010B92968C2F89813FDF7C5F995F9099063
:1045C000009800F084F9484602B0BDE8F08B00BFC7
:1045D0000CF1010CBCF1030FA4D3F1E70F000001B3
:1045E0000F00000500200940744C0200110000E09B
:1045F0000127000053230000CD2200001F270000E8
:1046000069250000B44F0050F0B581B006460F4652
:10461000802400F030F9FFB2032F054627DADFF8D7
:10462000C83103EB471101F53077B87AF8B1396832
:10463000B1421CD193F88403022812D197F90910D2
:10464000D3F89803491D0906090C41F08161002245
:1046500041F00101FFF763F804463846FCF7B6FF66
:1046600005E03846FCF7B2FFFDF76DF981242846D6
:1046700000F02DF9204601B0F0BD00000F1700003A
:10468000FF2600002DE9F04107460D46164683241B
:1046900000F0F1F8092D804600F27F80DFE805F098
:1046A00005081114171D42546A6F3068386075E0B0
:1046B00038696030386101217869797660307861D5
:1046C0006CE03068788369E03168B98566E030680D
:1046D000DFF81411C1F8A40360E0306848B900F0B5
:1046E000CAF8414991F8942342F0800281F894235A
:1046F00015E0012851D100F0BEF806463A4890F87E
:10470000941301F07F0180F8941390F894130A0732
:1047100004D4082100F56E7000F041FA304600F034
:10472000D6F83BE0304991F88403002804BFD1F863
:104730005003002811D13168192000F0BEF831680B
:104740001A2000F0BAF829E0274F97F884030028D0
:1047500004BFD7F85003002801D000241EE03168C0
:1047600007F56E7000F01FFA316807F5826000F0FF
:104770001AFA13E030781C4981F820030EE01D4836
:10478000436819000AD0007A810607D51648D0F888
:10479000980332462021984700E00324404600F069
:1047A00096F82046BDE8F081B125000004300440B1
:1047B0008C01001030B5044683B0A0686A46FFF74C
:1047C00005F98328054604D1002269462046FEF7F4
:1047D000A6FF284603B030BD00093D00FFEFFF9F54
:1047E000D0160020B725000030240020010003046B
:1047F00001000406744C0200DFF800F055EB0210D3
:10480000DFF800F047EC0210DFF800F095EA021044
:10481000DFF800F049EB0210DFF800F075E4021059
:10482000DFF800F01DD90210DFF800F019E90210DE
:10483000F0B51C008DB005460E46174604D1002386
:1048400000F0CAFF0DB0F0BD0823302200216846F9
:10485000FFF7DEFF206805906B46606808903A46D7
:10486000207AADF818003146284600F0B5FF0DB0AB
:10487000F0BDFFF7D1BFFFF7BFBFFFF7D1BF00B556
:1048800081B0FFF7C1FF401E8041C00F01B000BDE5
:1048900000F0C2BFF0B581B004460D461646FFF7E2
:1048A000ABFF0746324629462046816042603846C3
:1048B00001B0BDE8F040FFF7A3BFFFF7B5BF00218F
:1048C00001604FF0FF320123426003727047FFF72F
:1048D00097BF30B4002513E050F8042BD30744BF32
:1048E000A9F101039A18091F042942F8045BFAD2BE
:1048F00013468C0744BF15809B1CC90748BF1D7019
:1049000050F8041B0029E7D130BC7047DFF800F0F5
:104910009DEB0210DFF800F0C5E20210DFF800F0B6
:10492000C3EC0210DFF800F0E7E90210DFF800F056
:104930008DDD0210DFF800F049E60210DFF800F02C
:10494000FDE90210F0B51C0089B005460E46174679
:1049500005D10023FFF7EAFF284609B0F0BD082380
:10496000242200216846FFF7D1FFA16806916B461B
:104970002278ADF810203A46606805903146284606
:10498000FFF7D4FF284609B0F0BDFFF7D3BFFFF70C
:10499000D5BF0D480068704700F04CBF00B581B02E
:1049A000FBF74FFB401E8041C043C00F01B000BD6C
:1049B00000218160017041607047FFF7AFBFFFF7D2
:1049C000B1BFFFF7A7BF0000A44D020045490A6828
:1049D0001040C2430A607047434A11680029FCD165
:1049E0000023D3611060D0690028FCD0D1615068E9
:1049F00070473E48016821F0020141F408710160EE
:104A000003213B48016041F23002C2600123436050
:104A10005021C16043604FF4CA61C16043604FF4EC
:104A20008651C160436033490B60704770B40446DF
:104A3000002000E0401C98420BDA256815F1010FB8
:104A400007D054F8046B16408E42F3D170BCC0B24C
:104A5000704770BCFF207047000000001E281DD862
:104A6000DFE800F0101C131C1619161C1C1C191C66
:104A7000161C1C191C1C1C1C1C1C1C1C1C1C1C1C7F
:104A80001C1C190040F2025209E04FF4817206E04A
:104A90004FF2011203E041F2011200E00022FF296F
:104AA00009D14FF6FF30024042F0C00240F20370DD
:104AB00040EA02407047080008BF42F0300205D0CB
:104AC000C8074CBF42F0100242F0200240F20370CF
:104AD00040EA0240704708490A681040C2430A6031
:104AE00070470000101004400010044000000460F3
:104AF000546004400041044008100440DFF800F016
:104B000025EA0210DFF800F061DB0210DFF800F0A8
:104B1000F1EB0210DFF800F0BDE8021000210160A7
:104B20004160C1604FF0FF318160704770B5140083
:104B30008AB005460E4604D1002200F099FE0AB064
:104B400070BD1E49A0680A68904204D310F1010F9D
:104B500018BF002012D10823282200216846FFF741
:104B6000D5FF206804906A46606805903146E06889
:104B70000790A0680690284600F07AFE0AB070BD43
:104B8000FFF7C8BFFFF7BABFFBF75EBA00B581B049
:104B9000FFF73AFE012818BF002001B000BD00F069
:104BA00077BEFFF7AFBF054A1368994202D311F1F0
:104BB000010F01D100F07CBE7047000024120000FC
:104BC000DFF860098068704702460020022904D19E
:104BD000012A06D140F2EE207047012A08BF4FF4A7
:104BE0007A707047DFF83C1991F8410120B1D1F893
:104BF0006C01002818BF004770472DE9F041DFF82D
:104C0000244994F84201002884B040F0AB8001218F
:104C1000DFF81469DFF8145984F84211307B84F806
:104C200041017168C4F86C11A868C0F38140B8B93B
:104C30003069A8B12F68FFF7ACFEC7F306626421A4
:104C400011FB02F2B2FBF0F200230FF6C10104F1F6
:104C50009400FFF777FEDFF8D8184FF000400860A7
:104C600001A8FFF7A5FE002002908DF804000022A5
:104C7000039201AB0FF2E161DFF8B87804F10C00A8
:104C8000FFF760FE01A8FFF793FE002002908DF869
:104C90000400039001AB0822DFF89C1804F15000D7
:104CA000FFF750FE00230FF2F552322104F1D80035
:104CB000FFF7BEFD002038600023DFF880282C219C
:104CC00004F1F400FFF7B4FDA968707BC1F38151D2
:104CD00028B1032903D1012084F8390121E00329F7
:104CE00018BF02291DD001291AD1DFF85468DFF856
:104CF0005478032000901C23D6F800C0DCF8048010
:104D00004FF0405200213846C047012000903846FD
:104D10003668776809234FF400720021B84711E024
:104D200081B9386840F040003860FFF7A4FDA16801
:104D300041F00401A16094F84511491C84F8451123
:104D4000FFF7C5FD686840070CD4FFF794FDA16824
:104D500041F00101A16094F84311491C84F843110A
:104D6000FFF7B5FD002004B0BDE8F08130B581B09B
:104D7000002408B1150004D16FF00204204601B0F0
:104D800030BD8160C26003610146DFF8980700F022
:104D900021FC204601B030BD10B50446FFF76BFD85
:104DA000DFF880170A1992F843315B1E82F843310D
:104DB000DBB233B98A68012303FA04F422EA04045B
:104DC0008C60FFF784FD002010BDF0B581B0054672
:104DD000FFF751FD0446DFF84C17481990F84A21B7
:104DE000521E80F84A21D2B232BBDFF85C0700EBDA
:104DF000850210F825505688280623D5DFF84C7711
:104E000039680A6A3046904739688A6A304690475E
:104E100039680A6B30469047DFF834170120086084
:104E2000DFF8300701688907FCD505F03F05152D2F
:104E3000BCBF2846FFF7C9FF2046FFF748FD00200A
:104E400001B0F0BD680606D501EB86010020D1F85F
:104E500060219047E9E7DFF8F4160B689A6930465D
:104E60009047304600F040FD0228FAD1DDE710B54A
:104E70000446FFF700FDDFF8AC168A680123A34063
:104E80001A438A60214491F84321521C81F843213E
:104E9000FFF71DFD002010BD2DE9F0410646FFF78C
:104EA000EAFC0446DFF87C56A81990F84A114A1C1F
:104EB00080F84A2139BBDFF8908618F8260000F008
:104EC0003F001428D8BFFFF7E7FF08EB86004788AC
:104ED00018F8260001061CD5DFF870562A68D1693B
:104EE000384688472A68516A384688472A68D16A0E
:104EF00038468847DFF8582601201060DFF854064E
:104F000001688907FCD52046FFF7E1FC0020BDE8D9
:104F1000F081400606D505EB87010120D1F860211C
:104F20009047F0E7DFF824160B685A693846904737
:104F3000384600F0F6FC0128FAD1E4E72DE9F04FFD
:104F40000025012881B0AA46A94618BF6FF00108C4
:104F500040F03581DFF8CC75D7F83401012844D111
:104F60000221C7F8341100F05FFD012000F0F7F9CD
:104F70005FEA00083FD197F85B0108B14FF0010AE2
:104F800097F85A0108B14AF0020A97F8590108B196
:104F90004AF0040ADFF8B445A16A0A680120904784
:104FA00001281CBF97F83801012851D100F0ACFD51
:104FB000DFF878B5DBF808000125C0F3814040BB7D
:104FC000DFF8640501690091080022D007F1940020
:104FD000FFF7F7FCDBF80000DFF88015C00F14BF07
:104FE0004FF441504FF482500EE06FF004084046F9
:104FF00001B0BDE8F08F0120C7F8340100F01DFDBD
:10500000404601B0BDE8F08FC1F880000020009953
:10501000884797F83801D8B1DFF84405D0F88412F2
:1050200021F08001C0F884128022C0F88C22FFF7A2
:1050300022FC97F84611491E87F84611C9B219B9E2
:10504000B96821F00801B960FFF741FC87F8389191
:10505000387AC10748BF4FF0010907D4216ADFF849
:1050600004058A6890470646042EF7D04FF0FF32B9
:105070000021484600F0A4FDB9F1000F0FD1012E28
:1050800005D1226ADFF8DC04536801219847DFF874
:10509000D004D0F8181241F00301C0F8181250469D
:1050A00021684A69904797F8550120B12168CA6A7A
:1050B0004FF48060904797F8540120B12168CA6A84
:1050C0004FF481609047DFF88814DFF89494012052
:1050D00008600022C9F800200320C7F834015046B8
:1050E00000F01FFC0128FAD1DFF86C64306804205E
:1050F00000F035F98246DFF8701401200860002DB9
:1051000032684DD0A16A0A689047012848D097F8C4
:105110003801002844D1DFF81444A068C0F381406E
:10512000C0B9DFF804040569A5B12068DFF82C14C4
:10513000C00F19BF4FF4405008604FF480520A600E
:10514000502000F0BFFD0120A84707F19400FFF7B1
:1051500036FC01E000F09EFC012087F83801A068D1
:10516000C0F3814018B9DFF8C013086958B9387A1C
:10517000810608D48020C9F88C02D9F8841241F045
:105180008001C9F88412FFF776FBB96841F0080185
:10519000B96097F84611491C87F84611FFF797FB4D
:1051A00000F08CFD082000F0DAF840EA0A04012043
:1051B000C7F8340100F041FC0CB14FF0FF38404615
:1051C00001B0BDE8F08F30B581B00446FFF753FB66
:1051D00005462146DFF84C0300F026FA284601B0C8
:1051E000BDE83040FFF773BB10B50024022802D0A1
:1051F000032805D008E000F069FD0446204610BDF4
:1052000000F0EEFE204610BDFEE7F0B581B0FFF7DE
:1052100032FBC449054691F83801012460B1DFF83A
:105220002063DFF820033768D7F80CC00023012281
:105230003C21E04700B900242846FFF748FB204600
:1052400001B0F0BD30B581B0FFF715FB044600F0AA
:1052500030FCB44D002085F83801FFF70CFB95F8C1
:105260004611491E85F84611C9B219B9A96821F03D
:105270000801A960FFF72BFB2046FFF728FBAA488F
:1052800084680220A0470546102000F068F8012D30
:1052900004BF0320A04701B030BD00002DE9F0415C
:1052A000A44C82B06568206820EA050105406A06C2
:1052B000216049D5A24EF16B0A680420904702286C
:1052C00018BF032819D001283ED1032000901C23C9
:1052D000D6F800C09B4FDCF804804FF0405200210C
:1052E0003846C04701200090384636687768092361
:1052F0004FF400720021B84726E0032000901C23E1
:10530000D6F800C08F4FDCF804804FF040520021E7
:105310003846C04701200090384636687768092330
:105320004FF400720021B847FFF7A5FA7D4991F8C4
:105330004521521E81F84521D2B21AB98A6822F05D
:1053400004028A60FFF7C3FA280648BF00F022F87B
:10535000A56002B0BDE8F08170470020704730B50D
:1053600005467048046881B05CB1A068284205D049
:105370002269E36800212846984728B92468002C50
:10538000F3D1002001B030BD4FF0FF3001B030BD8F
:105390000020704730B581B0FFF76DFA4FEA000486
:1053A00000F087FB0028FBD0FFF765FA5D4D95F80C
:1053B0004611491E85F84611C9B219B9A96821F0EC
:1053C0000801A960FFF783FA002085F8380120461C
:1053D000FFF77DFA544884680220A0470546102054
:1053E000FFF7BDFF012D04BF0320A04701B030BD72
:1053F00070B501284CD15D490A68136898470128A7
:1054000000F08180474D95F8380100287BD1474E48
:10541000B068C0F38140B0B9434804699CB13068BA
:105420004E49C00F19BF4FF4405008604FF48052EE
:105430000A60502000F046FC0120A04705F19400CE
:10544000FFF7BDFA01E000F025FB012085F83801E7
:10545000B068C0F3814010B93349086948B9287A67
:10546000810606D4334880228260016841F08001C1
:105470000160FFF700FAA96841F00801A96095F8FA
:105480004611491C85F84611FFF721FA002070BD2E
:10549000002838D100F038FB244E224DB068C0F30C
:1054A0008140A0B9204804698CB105F19400FFF750
:1054B00088FA30682949C00F19BF4FF44150C1F82C
:1054C00080004FF48252C1F880200020A04795F858
:1054D0003801C0B11748016821F0800101608021C6
:1054E0008160FFF7C8F995F84611491E85F8461105
:1054F000C9B219B9A96821F00801A960FFF7E7F955
:10550000002085F83801002070BD000000B5134967
:1055100081B04020086000F0BDFA01B05DF804EBF6
:1055200038E70000441800205C4B0200AC4F0050EC
:1055300000A10C40902208404D6100003D5D00003C
:10554000A401001000A00C4014320200B8010010A9
:1055500028200860282008402C200940A8A00C40E2
:105560000C200840004003400C400940E0010010BE
:1055700010B50446FFF77FF9002161602160BDE8A6
:105580001040FFF7A4B930B581B00546FFF773F9B5
:105590002C683CB121682960216800291ABF0022CB
:1055A0004A606960FFF793F9204601B030BD70B5DD
:1055B00004460D461646FFF75EF92E607168696075
:1055C0007168002914BF0D6025607560BDE87040EA
:1055D000FFF77DB930B581B004460D46FFF74BF9B2
:1055E0000021296062686A606168002914BF0D604B
:1055F0002560656001B0BDE83040FFF768B930B59F
:1056000081B004460D46FFF736F921682960002273
:105610006A602168002914BF4D606560256001B093
:10562000BDE83040FFF753B930B581B004460D46B0
:10563000FFF721F929686A6800290CBF62604A6097
:1056400069682A6800290CBF22600A6001B0BDE8C1
:105650003040FFF73CB970B54A1ED2B2002305E0D6
:10566000D51AC45C465DC65444555B1CB3EB510F60
:10567000F6DB70BDDFF800F0E5EB0210DFF800F0BC
:10568000C1DD0210DFF800F049DC0210DFF800F0A5
:10569000DBEC0210DFF800F0FDE60210DFF800F0AE
:1056A000B1BF0210DFF800F021CD021030B589B093
:1056B00004460D460823242200216846FFF7DAFF3E
:1056C00001218DF818106A4629462046FFF7D6FFBB
:1056D000204609B030BD10B58AB004460823242204
:1056E00000216846FFF7C6FF01218DF818102046FB
:1056F000034A6946FFF7C6FF0AB010BD000000006C
:10570000E414002000B581B000906846FFF7BEFFAA
:1057100001B000BDFFF7BEBF00B581B0FFF7BEFF0F
:1057200000280CBF4FF0FF30002001B000BDFFF794
:10573000B9BF00001E480068000C00F007000728F1
:1057400028BF4FF0FF3070471A490968C1F30F3185
:105750004BF677324FF0FF30914208BF052070477B
:1057600010B5FFF7F1FF12490B6805284FF0FF3421
:10577000C3F3C052C3F3406117D11B0B03F00F03F7
:10578000082B02D00F2B06D00FE081F001010A4256
:105790000BD0172409E022B100290CBF19241A24C8
:1057A00003E0002914BF1C241B24204610BD000068
:1057B000941200501813005080B5FFF7C5FF05285C
:1057C00000D101BDFEE70000002200F0F7BC0000A0
:1057D000DFF800F021D40210F8B504460B480C4F56
:1057E0000668F8690D4650F82510B1420AD10948FB
:1057F000009029462046FFF7EBFFF86950F8251086
:10580000B14201D10020F2BD2046F2BD1C120000C1
:1058100050110020E4140020102803D3024910384E
:10582000C1F8000F704700BF00E000E0DFF800F0B3
:1058300011DC021070B5044600F0CEFC0646A08ACA
:10584000002501280AD1FFF7F1FF0546E068A168AD
:10585000451BA9423EBF2069A8420025304600F002
:10586000BCFC284670BD0000DFF800F019D702101C
:1058700010B50446034BFFF7F7FFA06800B90024FA
:10588000204610BDE4140020DFF800F091D802108B
:1058900038B504460D4600F0ADFC616A0D43656203
:1058A00000F0A9FC2046BDE83240FFF7EDBF000044
:1058B00070B50D4615F1010F044608BF052500F02F
:1058C00099FC06460120A840A06165612946054A69
:1058D000506900F08DFCA0623046BDE8704000F0D9
:1058E0008ABC00BFE410002030B51C4B1A685B6D09
:1058F0000021C50704D5D40701D45B0700D50121D9
:10590000830703D5540804F001042143400703D55D
:10591000920802F00102114309B1012030BD0220BA
:1059200030BD30B50D4B1A685B6D0121C50704D53C
:10593000D40702D45B0758BF0021830703D554085E
:1059400004F001042140400703D5920802F001024F
:10595000114009B1012030BD022030BD4021084076
:10596000DFF800F04DEA0210DFF800F045DF02102A
:1059700030BF704770B500F09DF9354C2069416823
:105980008847FFF71DF9054605F00C000C2804D1E7
:10599000AFF30080FFF7ECFF40E0680725D400F08C
:1059A00055FC064601210120FFF70EF92949096837
:1059B00001FB06F2904218D2F020B0FBF1F0264C29
:1059C000311A04F10C00FEF7A9FF04F10C00FEF7F8
:1059D000A9FFAFF300800120FFF7B0FAAFF300801A
:1059E00004F10C00FEF796FF1AE0AFF300802807E1
:1059F00012D4216819488A6890470428F9D0E9062A
:105A000000D408B9012000E0002000F0C5F81448D7
:105A100001210160006801E0FFF7AAFFAFF30080F9
:105A2000BDE8704000F04AB910B50E4CFFF798FF82
:105A30002060FFF763F8606010BD10B5094C606826
:105A4000FFF760F82068BDE81040FFF78DBF000049
:105A5000D8010010A44D020044180020004003406B
:105A60002C200940284B002038B5DFF80801DFF86A
:105A70000851048814F0010403D14FF0012129607A
:105A80000088DFF8F8201168884714B14FF0807063
:105A9000286031BD10B5DFF8F82013685C6801217B
:105AA0000120A047DFF8DC00DFF8DC100068886028
:105AB00010BD38B5DFF8C840E16B0A680120904797
:105AC00001281FD02468DFF8AC00E568002301221C
:105AD0003C21A847B8B1FFF7C7FFDFF8A800DFF8FF
:105AE000A83002689968DFF8A4001C68DA60A4EBAB
:105AF0009404521A4243120C1A6019688C4238BF3F
:105B00000C461C60012032BD38B5DFF884402268A5
:105B1000536800210120984721680A6801209047B6
:105B200008B1FFF7A1FFDFF85C00DFF85C50006808
:105B30006860E06801688847286131BD70B5154C20
:105B4000A268E5681B3800FB00F100FB01F681FB51
:105B50000223C6FB05236568C0FB052320681209E4
:105B600042EA0372C117101841EB2311000C40EAFE
:105B7000014070BD00A00C4004A40C408000001047
:105B8000A401001030200940F04B002040420F00DB
:105B9000E0010010044C002010B53B493B4C08606C
:105BA0003B48026842F003020260202021688A69B3
:105BB0009047384801682268906BBDE81040004764
:105BC0002DE9F047344D334F304C344E8146286830
:105BD0008A46810744BF3248E86032480021904637
:105BE000016027203A6821688A699047316B2E4806
:105BF000014031634FF48060B16F21F48071B1676F
:105C000021680A6B904721680A6B4FF481609047C6
:105C100021680A6B4FF4C060904724491A4A01205A
:105C20000860C2F800A030602868810707D418F126
:105C3000010F06BF4FF04040E860C5F80C8038689F
:105C4000F0698007FCD50720FFF74EFE0228FAD145
:105C5000B9F1000F12D1216A154D8A682846904784
:105C60000428F8D0012804D1226A53680321284669
:105C70009847074801688908890001602068816B9E
:105C8000BDE8F047084700008C210840B80100102B
:105C9000242208402C200940100009400C20084014
:105CA000FD0000400C400940FFFFFEFE2820086078
:105CB00000400340EFF3108072B67047EFF310809E
:105CC00062B670470138FDD17047704730B5DFF8D4
:105CD000AC5495F83901002481B0002802BFDFF8E8
:105CE000A014887B00280CD0FEF7C5FD95F83B1169
:105CF000002906BF012285F83B210124FEF7E7FDBC
:105D000014B1002001B030BD0220FFF7B0F80E2022
:105D1000FFF7C2F8DFF86C14086810B1012001B079
:105D200030BDDFF864044022026042600120C86197
:105D3000002185F83A11002001B030BD2DE9F04175
:105D4000DFF8481482B000200860DFF8304494F88F
:105D50003A01002800F0408101283FD1DFF83014DB
:105D60000D68DFF830140A684BF2F52045432D0A20
:105D700002F44022B2F5802F13D1DFF81C04016831
:105D80008A030ED4DFF81464B06C01688847FFF70B
:105D9000D5FEF16BCA6890472F09C010474305EB49
:105DA000E73594F8400118B1002184F8401106E06D
:105DB000DFF8EC03006820F07F402D186D08DFF855
:105DC000E403DFF8BC23056001212D0C45608160F0
:105DD000907B002800F0B8800221FBE0022840F010
:105DE000B980DFF8AC030568DFF8BC03C16AC1F312
:105DF0000721C4F814110168C1F38441C4F81811D3
:105E0000B5F5C061C069C4F81011C0F38120C4F8B1
:105E1000280103D1002084F8300191E094F830018A
:105E200068B9D4F81801D4F81421C4F82001C4F8D2
:105E30001C21C4F82C11D4F82801C4F82401D4F88A
:105E40002C0100284CBF6FF00101022100EB400043
:105E50000818D4F82011421000EB9270D4F81421E5
:105E6000C4F81C2101EBA0010029C4F8201115DCA5
:105E7000D4F82401032805D11531D8BF0121C4F875
:105E8000201124E00B31D8BF0121521E48BF00224F
:105E9000C4F82011C4F81C21032019E01E2919DDC3
:105EA000D4F8240138B915391E29C8BF1E21C4F8F9
:105EB000201103200CE00B391E29C8BF1E21521CE3
:105EC0003F2AC8BF3F22C4F82011C4F81C2100207B
:105ED000C4F824010823B14ED4F81C01B34F80B29A
:105EE00000904FF47F42D6F800C0DCF804803021E7
:105EF0003846C047012000901123D6F800C0DCF8D6
:105F000004804FF4003204213846C047D4F8200101
:105F100080B200901223D6F800C0DCF804804FF461
:105F2000F80204213846C047D4F8240180B200901A
:105F30003846366877680A234FF440622021B84714
:105F4000A5F2FF55032D03D20620C4F83C0143E01F
:105F500004213FE003283FD18D480068D4F8101198
:105F6000A0F5C0600029C4F82C0148BF49420028B0
:105F700048BF40428142A8BF002028DA874DD4F8AC
:105F800014018A4E80B2009008232F68D7F804C00D
:105F90004FF47F4230213046E047D4F8180180B2F8
:105FA000009012232F68D7F804C04FF4F8020421A0
:105FB0003046E047D4F8280180B2009030462D6882
:105FC0006E680A234FF440622021B047012084F814
:105FD00030010621C4F83C1102B0BDE8F04100BF19
:105FE0002DE9F04782B0724C6C4DDFF8C081714EE4
:105FF000DFF8889142F62A2709E000BFC9F83C0182
:10600000032121600020706070688107FCD4D9F8FA
:106010003C01062800F29980DFE800F0048A6F77DF
:106020004C542F00012131600F22E26027610220D1
:1060300000900723D5F800C0DCF804A04FF4C0722C
:1060400000214046D047D5F800C0DCF80CA007235B
:106050004FF4C07200214046D047012030603168C3
:106060008807FCD50121E16199F8390100281DBF9D
:106070000021316301200320C0E7002131607160FD
:1060800031688807FCD471688807FCD400213F4A36
:106090003C4B1160012018600E20FEF796FE022096
:1060A000FEF77AFE0020C9F83C0189F83B0102B0F6
:1060B000BDE8F0870520C9F83C01002171607068D7
:1060C0008107FCD400210091032089F83A010423C0
:1060D0002C68676870224046B8472C68E5687023D2
:1060E000702200214046A8470120706002B009F1EB
:1060F0005000BDE8F047FEF762BC0320C9F83C0140
:106100000021716070688107FCD400210091022099
:1061100089F83A0104232C68676870224046B84722
:106120002C68E5687023702200214046A847DBE711
:106130000120022189F83A01009104232C68656846
:10614000702200214046A847CEE7FEE71A480168C2
:106150008A07FCD509491648D1F83C21012A07BF16
:10616000202181610122826100210160082206490B
:106170000A604A6001210160704700004418002055
:106180005C4B020004800C4038500C403C500C40EA
:1061900008400C40B44F00508C130050A401001074
:1061A000102009407C600C4004A00C4000A00C4072
:1061B00000400C4054600C4058600C404018491C92
:1061C0001CBFB1F1010100F8012DF9D170470000A9
:1061D000DFF800F07DE8021000E006E0EFF3118048
:1061E000202181F311887047000080F311887047E7
:1061F000FFF7EEBFF2E7F8E7F0E7F6E70000EDE7BC
:10620000F3E70E49C20744BF01230B60820744BF76
:106210004FF480730B60400744BF4FF480320A6034
:10622000704710B5064AC30748BF1160840748BFCE
:106230005160400748BF916010BD00000420094034
:1062400018200940DFF800F0C5EA021070B5FFF72A
:10625000C3FF094E0446B0680021FFF7F3FF05466F
:106260007069B169451BA94238BF00252046FFF778
:10627000B4FF284670BD00BF80100020DFF800F09A
:1062800015540210DFF800F07DF40110DFF800F083
:106290001D430210DFF800F0ED500210DFF800F0AF
:1062A000E16D0210DFF800F0D56D0210DFF800F0AC
:1062B000CD690210DFF800F0ED410210DFF800F0C8
:1062C000C96D0210DFF800F019510210DFF800F07C
:1062D000556C0210DFF800F0496C0210DFF800F096
:1062E0003D6C0210DFF800F0C1500210DFF800F042
:1062F000095D0210DFF800F025060210DFF800F05B
:10630000A90C0210DFF800F07D670210DFF800F042
:1063100049600210DFF800F0AD670210DFF800F00E
:1063200045290210DFF800F0F5D70110DFF800F082
:10633000ED5A0210DFF800F0295D0210DFF800F0DE
:10634000AD640210DFF800F0115B0210DFF800F01E
:10635000F5130210DFF800F0AD570210DFF800F07F
:10636000E1690210DFF800F0296E0210DFF800F09A
:1063700019610210DFF800F0FD600210DFF800F094
:10638000B9690210DFF800F0556A0210DFF800F07A
:106390005D6E0210DFF800F0216E0210DFF800F0F1
:1063A000596E0210DFF800F0C5640210DFF800F04B
:1063B000556E0210DFF800F0B56B0210DFF800F048
:1063C000456A0210DFF800F0B5330210DFF800F084
:1063D000196E0210DFF800F081330210DFF800F0D0
:1063E000B9630210DFF800F095640210DFF800F0E6
:1063F000A56B0210DFF800F0956B0210DFF800F0DB
:1064000065670210DFF800F041FC0110DFF800F0D2
:10641000C56B0210DFF800F0D120021010B5414C1E
:106420006060A160E2602370194601F08FFC0246B3
:106430003D4901F077FC217801F088FC02463B4998
:1064400001F070FC217801F081FCBDE810400246AB
:106450003749102003F0CAB81CB58DF804208223F8
:106460008DF802108DF80300120A8DF80030062412
:106470008DF805208DF801400621684601F037FEB1
:1064800013BD3EB50C460021217015460121C207FF
:106490002AD5684602F0F9FE217841F00101217009
:1064A000012060700099A1700E210098000AE07030
:1064B0000098000C20710098000E60710198A07186
:1064C0000198000AE0710198000C20720198000EFA
:1064D00060720298A0720298000AE0720298000CA2
:1064E00020730298000E6073297037BD114A12683C
:1064F0000146002012F1010F00D1704770B5002352
:106500000D4C0C255D43665B8E4201BF65196D68BD
:1065100025F00045954203D05B1C872BF1D370BD5D
:10652000012070BDBC2E00202D6D0210F16C0210F8
:10653000B14C02005C12002000C201002DE9F84FAE
:10654000B6B00178932941F0778200218DF80C10C4
:10655000406810F8011B02784378801C02EB03248A
:1065600009290C9405D10178427801EB0229851C98
:1065700002E090F80090451CA9F10303ADF8043047
:106580001FFA89F20C9BDFF8904CDFF8901C2478FE
:10659000901E0B901B04DB0D0C98AE1C5B1E042B95
:1065A00005F1040800F07F00A9F102070ED8DFE82A
:1065B00013F0EE09E60690046A00050000270128A2
:1065C00042D002282DD0042809D0072841F00A82A1
:1065D0002878DFF84C1C03AAFFF753FF1CE26A4639
:1065E000DFF8401C102003F001F8DFF83C1C009895
:1065F000009A8871120A0098CA71000C08724F73D1
:10660000CF73BDF804004872000A88729DF8060036
:10661000C872BDF808000873BDF80A0088730A2024
:106620006DE229786878367801EB00243146A0B213
:1066300002F0F4FA002814D1E81C00903346A2B20C
:10664000DFF8E81B1020A4E02878697800EB01242B
:1066500031780D46642D80F2A782A0B202F0DEFAF6
:10666000002840F0A182DFF8B80BDFF8C41B0090CF
:106670002B46A2B201F05DFB0746C0B2002841F0F4
