:04000005000AEFDD21
:020000040000FA
:1000000043433236783252312EC450030301FEFF8F
:10001000FFFF0700FFFFFFFF902D02009000000090
:10002000303030318F2D02002C00FFFF03FEFFFF28
:1000300055000000018BC4EA61B0177D511DEC1022
:100040008BF5F9333CB8FF653552561CF3C935BC06
:10005000BE9A724C2357A45DAF7ADF092A01642748
:10006000EBFFA62A27328E35B624C13CE648DD5781
:100070008952F20D2C32AFB5C84558D20DA205F108
:10008000E701FEFFFF0F2D0200000000000000004E
:1000900050540020C91D020039FB021039FB021028
:1000A00039FB021039FB021039FB021039FB021038
:1000B00039FB021039FB021039FB021039FB021028
:1000C00039FB021039FB021011FB0210FFFFFFFF8A
:1000D000FFFFFFFFFFFFFFFFFFFFFFFFFFFFFFFF30
:1000E000FFFFFFFFFFFFFFFFFFFFFFFFFFFFFFFF20
:1000F000FFFFFFFFFFFFFFFFFFFFFFFFFFFFFFFF10
:10010000FFFFFFFFFFFFFFFFFFFFFFFFFFFFFFFFFF
:1010000001000000000000000000000000000000DF
:10101000FFFFFFFFB82400200400000000000000D4
:101020000000000014000000CC15000018000000B3
:1010300038140000C0100000242400200400000028
:10104000000000000000000024000000B8140000B0
:10105000180000007DE4000008000000B01100004E
:1010600074100000C1C8021001BB021091EB021005
:10107000DDE5021081E00210B9E5021071E5021011
:101080002E0000000100000002000000E415000036
:1010900000000000FFFFFFFF90240020040000007C
:1010A000000000000000000028000000A41500005F
:1010B00024000000210000001800000000000000D3
:1010C00028130000D41000009BEC021025E202104F
:1010D00005EB021025DE0210FDE10210E1E4021032
:1010E000330000003400000025002900000000004B
:1010F00004240020FFFFFFFFD8240020040000008C
:101100000000000000000000380000005C16000035
:101110002800000001000000100000000000000096
:1011200000000000F7F1021000001A00100000009B
:1011300004000000C01600008AA2010008000000A0
:101140003600000098240020E02400200900200040
:101150005FFA00002C2400200100000000001200B3
:10116000FFFFFFFFC8240020040000000000000073
:101170000000000010000000201600001800000011
:101180000000000000001300FFFFFFFF40250020CB
:1011900004000000000000000000000054000000F7
:1011A000841600003C000000000001003100000037
:1011B00004100000372601002D0000000000000090
:1011C000B0110000D811000041BC0100D9DB0210B1
:1011D00059EC0210CDD6021085DE02104DE502104A
:1011E00029E502102D00000000001600000000009C
:1011F00000000000FF7F000048250020FFFFFFFFE8
:10120000C0240020040000000000000000000000D6
:1012100058000000EC1500003400000039FB0210FB
:101220000100330006000000000000002000000064
:10123000010000001BF80210280000002813000025
:101240005012000093EC02106DEB02104DEC0210F6
:1012500029E00210BDE4021099E402103100000000
:10126000000000006C2400200400000000000000CA
:101270000000000010000000D01400002C0000004E
:10128000000000000000030000000F003C00000010
:1012900000000000000000002FF902101000000004
:1012A00008000000D0160000FFFFFFFFD024002040
:1012B0000400000000000000000000001C0000000E
:1012C00038160000240000003C1200001C240020FE
:1012D0000400000000000000000000000C000000FE
:1012E0004014000018000000BB4C0100000000008A
:1012F00000000000080000000100000004000000E1
:101300000000000000001400000000006037000032
:101310000000190000001800240000003520020021
:101320000040000000020000041000000000100057
:1013300055F002100C000000B3E4000000000000B3
:10134000FC2300200400000000000000000000005A
:101350002000000008140000300000007837000072
:101360000100000073E500003F03010000000000E1
:1013700000001700000200002E0000000000230003
:101380000000150001000000C011000088240020AA
:101390000400000000000000000000002000000029
:1013A000801500002400000058E700007C24002085
:1013B00020000000E4160000FFFFFFFFFFFFFFFF1B
:1013C000F5E3000007E600000BE600000FE6000072
:1013D00013E6000017E600001BE600002DBB01002D
:1013E000DDBB0100E9BA0100D11F0200B31F0200FA
:1013F000B5BB0100C1BB01000320020011BC01000C
:1014000091BD0100A5BD01003000000000000000FA
:101410000000000030140000040000000000000084
:1014200001000000FFFFFFFFFF00000001000000BF
:1014300008000000000000000000000000000000A4
:101440001800000000000000000000005014000020
:101450000800000000000000100000002813000039
:101460007014000031200200F9E7000081E700005D
:101470003DE6000091E6000021E600003200000099
:101480005C14000064240020040000000000000040
:101490000000000020000000A01400001800000060
:1014A000180000000000000000000000B014000060
:1014B000080000000000000018000000000000000C
:1014C00000000000C8140000080000000000000038
:1014D0002C0000000000000000000000F4140000D8
:1014E000040000000000000001000000FFFFFFFFFB
:1014F000FFFFFFFF0800000000000000B011000027
:101500001415000041BD010051BD01006DBD010079
:1015100061BD0100D3E60000FDE60000B1E6000079
:101520002F000000FC1400007424002004000000C0
:10153000000000000000000014000000441500003E
:101540001C0000001C000000000000000000000063
:101550005815000000000000080000000000000016
:1015600001000000654700002D200200DDE90000B9
:10157000694700006D4700005947000077470000A9
:101580002400000000000000000000009C15000086
:101590000000000000000000000000000800000043
:1015A0000000000024000000000000000000000017
:1015B000C015000000000000000000000000000056
:1015C00008000000000000000A00000018000000F1
:1015D0000000000000000000DC1500000800000012
:1015E0000000000025520000F16F000034000000F0
:1015F00000000000000000001816000000000000BD
:1016000000000000010000000000000001000000D8
:1016100000000000000000000800000000000000C2
:10162000180000000000000000000000301600005C
:10163000080000000000000024000000000000007E
:10164000000000005416000000000000010000002F
:10165000000000000800000000000000280000005A
:1016600000000000000000007C16000000000000E8
:1016700000000000FFFFFFFF000000000800000066
:10168000000000003C00000000000000000000001E
:10169000B81600000000000000000000010000007B
:1016A000000000000000000000000000000000003A
:1016B0000100000000000000080000000000000021
:1016C000EFE5000025DD0210C1BA010075DF021050
:1016D0000100000000000000000000000000010008
:1016E0000000010015F9021001E602102DDA0210C7
:1016F00045E7021041D10210C9D30210A5DF021044
:101700002DE4021061EA0210FDBC0100202200203D
:101710000F09000033930100E5950100F14200003C
:10172000F1420000F1420000259B0100439B0100B3
:10173000F14200005D9B01008D9B0100939B010025
:10174000499D0100F1420000599E010037970100B8
:10175000999B0100B99B0100499C0100D59E0100A5
:10176000F142000005A00100F1420000F14200003A
:10177000A5970100019B0100F1420000ED66010008
:101780000B66010047670100F96501001966010059
:10179000AF680100B3680100CB6901000D69010069
:1017A000456A0100ED680100FF6801009B6A0100C5
:1017B0009F6A0100B1FE0000BDFE000025EA021094
:1017C00061DB02100205000308100A001C3E002025
:1017D000203E00203A010000000000000000000050
:1017E000E41D0020981A0020000000000000000006
:1017F0000000000001000000141700000C1D000094
:101800007C1700002C1D0000BC1700000000000029
:10181000243E00200000000080220020D82200206A
:10182000F0220020142300200C170000000000000C
:10183000000000001400000000000000526567690D
:1018400073746572656420736572766963652C20B4
:101850002564206174747269627574657300000098
:10186000526567697374657265642063616C6C624C
:1018700061636B7320746F206170706C6963617455
:10188000696F6E2E2053747275637420257000008A
:101890004E756C6C20706F696E7465722067697626
:1018A000656E20666F72206170702063616C6C627F
:1018B00061636B732E000000536574506172616D3B
:1018C000657465723A20506172616D65746572204D
:1018D000232564206E6F742076616C69642E00008D
:1018E000547279696E6720746F2073656E64206E20
:1018F0006F74692F696E643A20636F6E6E48616E13
:10190000646C652025782C20257300004C656E677B
:101910007468206F75747369646520626F756E6496
:10192000733A204C656E3A202564204D696E4C65F3
:101930006E3A202564204D61784C656E3A2025640E
:101940002E00000052656164417474724342203A73
:1019500020257320636F6E6E48616E646C653A205B
:101960002564206F66667365743A202564206D6572
:1019700074686F643A2030782530327800000000B7
:10198000416E20696E76616C6964206F666673656E
:101990007420776173207265717565737465642E48
:1019A00000000000577269746541747472434220EC
:1019B0002843434344293A20706172616D3A2025DF
:1019C0006420636F6E6E48616E646C653A202564B6
:1019D0002025730000000000000000B0004051040A
:1019E000201100F010000000D41900000097B92E5B
:1019F000E5725CCB5DCAE473B82F0196BA2D0394EF
:101A00005FC8E671E7705EC90295BB2CE3745ACDDE
:101A10000691BF28BE2907905BCCE27559CEE077CE
:101A2000BC2B05920493BD2AE17658CF51C6E87FBE
:101A3000B4230D9A0C9BB522E97E50C7EB7C52C5AE
:101A40000E99B720B6210F9853C4EA7DB2250B9C9E
:101A500057C0EE79EF7856C10A9DB324089FB1268E
:101A6000ED7A54C355C2EC7BB027099EA2351B8C7E
:101A700047D0FE69FF6846D11A8DA334188FA1366E
:101A8000FD6A44D345D2FC6BA037198E41D6F86F5E
:101A9000A4331D8A1C8BA532F96E40D7FB6C42D54E
:101AA0001E89A730A6311F8843D4FA6DF3644ADD3E
:101AB0001681AF38AE3917804BDCF26549DEF0672E
:101AC000AC3B15821483AD3AF16648DF1087A93E1E
:101AD000F5624CDB4DDAF463A83F1186AA3D13840E
:101AE0004FD8F661F7604ED91285AB3C52656769F5
:101AF00073746572656420736572766963652C2002
:101B000025642061747472696275746573000000E5
:101B1000526567697374657265642063616C6C6299
:101B200061636B7320746F206170706C69636174A2
:101B3000696F6E2E205374727563742025700000D7
:101B40004E756C6C20706F696E7465722067697673
:101B5000656E20666F72206170702063616C6C62CC
:101B600061636B732E000000536574506172616D88
:101B7000657465723A20506172616D65746572209A
:101B8000232564206E6F742076616C69642E0000DA
:101B9000547279696E6720746F2073656E64206E6D
:101BA0006F74692F696E643A20636F6E6E48616E60
:101BB000646C652025782C20257300004C656E67C9
:101BC0007468206F75747369646520626F756E64E4
:101BD000733A204C656E3A202564204D696E4C6541
:101BE0006E3A202564204D61784C656E3A2025645C
:101BF0002E00000052656164417474724342203AC1
:101C000020257320636F6E6E48616E646C653A20A8
:101C10002564206F66667365743A202564206D65BF
:101C200074686F643A203078253032780000000004
:101C3000416E20696E76616C6964206F66667365BB
:101C40007420776173207265717565737465642E95
:101C50000000000057726974654174747243422039
:101C60002843434344293A20706172616D3A20252C
:101C70006420636F6E6E48616E646C653A20256403
:101C80002025730057726974654174747243422051
:101C90003A20257320636F6E6E48616E646C652810
:101CA000256429206C656E28256429206F6666737B
:101CB000657428256429206D6574686F6428307800
:101CC0002530327829000000496E76616C69642005
:101CD00076616C7565206C656E67746820776173DA
:101CE0002072656365697665642E0000000000005F
:101CF000000000B000405104301100F0100000005E
:101D0000EC1C00000200000006430000C9C20100F4
:101D1000DBC20100B9BE010033C30100C9BE01002E
:101D2000D5BE01008BC3010045C4010033FC000097
:101D3000C7F6000049FD000035FD0000394B0000EA
:101D4000D34A0000D74B00001B4C00003B4C000066
:101D50006D4A0000ED4B00007F4B0000C74C0000B7
:101D6000C54A0000F14C0000E54C0000D34C0000D7
:101D7000314B0000334B00000B4F0000374B00008D
:101D8000354B000052656769737465726564207332
:101D90006572766963652C202564206174747269AC
:101DA00062757465732C2073746174757320307858
:101DB00025303278000000005265676973746572DF
:101DC00065642063616C6C6261636B7320746F2067
:101DD0006170706C69636174696F6E2E20537472E8
:101DE00075637420257000004E756C6C20706F69EF
:101DF0006E74657220676976656E20666F72206109
:101E000070702063616C6C6261636B732E00000004
:101E1000536574506172616D657465723A205061EA
:101E200072616D6574657220232564206E6F742065
:101E300076616C69642E00004C656E677468206F73
:101E400075747369646520626F756E64733A204CB3
:101E5000656E3A202564204D696E4C656E3A2025EA
:101E600064204D61784C656E3A2025642E00000098
:101E700052656164417474724342203A2025732094
:101E8000636F6E6E48616E646C653A202564206FE6
:101E900066667365743A202564206D6574686F64A6
:101EA0003A2030782530327800000000416E2069F9
:101EB0006E76616C6964206F666673657420776105
:101EC00073207265717565737465642E000000007F
:101ED0005772697465417474724342203A202573C5
:101EE00020636F6E6E48616E646C652825642920DE
:101EF0006C656E28256429206F66667365742825D5
:101F00006429206D6574686F6428307825303278D4
:101F100029000000496E76616C69642076616C75F9
:101F200065206C656E6774682077617320726563E5
:101F300065697665642E000000000000000000B0B6
:101F400000405104101100F010000000381F000084
:101F50003E3E3E535441434B20415353455254203F
:101F6000436175736520307825303278207375624F
:101F700043617573652030782530327800000000A9
:101F800000000000000000B000405104C0FF00F05D
:101F900000000000000000B000405104C1FF00F04C
:101FA00000000000000000B000405104C2FF00F03B
:101FB00000000000000000B000405104C5FF00F028
:101FC00010000000801F0000496D67204964656EA5
:101FD0007469667900000000496D6720426C6F6388
:101FE0006B0000004F414420457874656E64656461
:101FF00020436F6E74726F6C000000004F414420EC
:102000004E564D31000000000000000000000000AE
:1020100000000000000000000000000000000000C0
:1020200000000000000000000000000000000000B0
:1020300000000000000000000000000000000000A0
:102040000000000000000000000000000000000090
:102050000000000000000000000000000000000080
:102060000000000000000000000000000000000070
:102070000000000000000000000000000000000060
:1020800000000000000000000000000045A3010067
:1020900005D101005DD10100B9A101100DCF0110E2
:1020A000817E01102D230210D5B00100F9CD010071
:1020B00091A10100546869732069732061207072D6
:1020C00065747479206C6F6E6720737472696E67C3
:1020D0002C2069736E277420697421004572726F19
:1020E0007220696E697469616C697A696E672062D1
:1020F0006F617264204C45442070696E730000006B
:102100004572726F72207265676973746572696E69
:102110006720627574746F6E2063616C6C626163BA
:102120006B2066756E6374696F6E00004F414420CA
:10213000444C20436F6D706C6574652C2077616929
:102140007420666F7220656E61626C65000000002D
:1021500047415020697320737461727465642E2046
:102160004F757220616464726573733A201B5B3330
:10217000326D25731B5B306D000000004E616D6594
:1021800020696E20616476446174613120617272ED
:1021900061793A201B5B33336D25731B5B306D0017
:1021A0004C696E6B2065737461626C69736820653D
:1021B00076656E742C207374617475732030782585
:1021C0003032782E204E756D20436F6E6E733A203C
:1021D00025640000436F6E6E65637465642E205045
:1021E00065657220616464726573733A201B5B33AA
:1021F000326D25731B5B306D000000005048592084
:102200004368616E6765206661696C7572652C2034
:102210007065657220646F6573206E6F74207375CE
:1022200070706F7274207468697300004164762066
:102230005365742025642064697361626C65642051
:10224000616674657220636F6E6E20256400000005
:10225000426F6E644D677220526571756573746567
:10226000642070617373636F64652E20576520610D
:1022700072652025732070617373636F6465202518
:1022800030366400436F6E6E656374696F6E2065EF
:1022900076656E7420646F6E6520666F7220636F62
:1022A0006E6E48616E646C653A2025640000000023
:1022B0005570646174656420706172616D7320662D
:1022C0006F722025732C20696E74657276616C3A8A
:1022D0002025642E2564206D732C206C6174656E3E
:1022E00063793A2025642C2074696D656F75743AA2
:1022F000202564206D73000056616C75652043686D
:10230000616E6765206D73673A2044617461205384
:102310006572766963652053747265616D3A202534
:102320003032783A253032783A253032782E2E2ED7
:102330000000000043524320537461747573206998
:102340006E76616C6964617465642E205265626F9B
:102350006F74696E6720696E746F2042494D2E005C
:1023600043524320496E76616C69646174652077DD
:1023700072697465206661696C65642E20537461AE
:1023800074757320307825780000000042757474ED
:102390006F6E2070696E73206E6F74206F70656E43
:1023A000656420666F7220626F6F74206368656376
:1023B0006B2E00004C65667420627574746F6E201D
:1023C0006E6F742068656C6420756E64657220623F
:1023D0006F6F742C206E6F742072657665727469ED
:1023E0006E6720746F20666163746F72792E0000CF
:1023F00052696768742B4C65667420627574746FDB
:102400006E206E6F742068656C6420756E646572F2
:1024100020626F6F742C206E6F7420657261736917
:102420006E672065787465726E616C20666C61738E
:10243000682E000052696768742B4C6566742062D0
:102440007574746F6E2068656C6420616674657263
:102450002072657365742E00486F6C6420666F721D
:102460002035207365636F6E647320746F2065720E
:102470006173652065787465726E616C20666C614D
:1024800073682E004E6F74652074686174207468E0
:1024900069732077696C6C20616C736F2072656D55
:1024A0006F7665207468652022666163746F727947
:1024B00020696D616765222E000000005468657216
:1024C00065206973206E6F77206E6F20666163747C
:1024D0006F727920696D61676520696E2065787417
:1024E00065726E616C20666C61736820746F207217
:1024F000657665727420746F000000005265736524
:1025000074207468652064657669636520746F2043
:102510006D616B65207468697320746865206661FD
:1025200063746F727920696D6167650052696768CD
:10253000742B4C656674206E6F742068656C642023
:10254000666F722035207365636F6E64732C206331
:102550006F6E74696E75696E6720626F6F742E009E
:10256000486F6C6420666F722035207365636F6EF0
:10257000647320746F20696E76616C696461746540
:1025800020696D61676520616E64207265626F6F9E
:10259000740000004C656674206E6F742068656C72
:1025A0006420666F722035207365636F6E64732CD0
:1025B00020636F6E74696E75696E6720626F6F74E9
:1025C0002E00000028434229204C454420537663C6
:1025D0002043686172616374657269737469632012
:1025E00076616C7565206368616E67653A2070611D
:1025F00072616D4944282564292E2053656E6469F3
:102600006E67206D736720746F206170702E0000FC
:102610002843422920446174612053766320436833
:102620006172616374657269737469632076616C49
:102630007565206368616E67653A20706172616DCF
:102640004944282564292E2053656E64696E6720ED
:102650006D736720746F206170702E0028434229CB
:1026600020427574746F6E205376632043686172E4
:1026700020636F6E666967206368616E67652070AE
:102680006172616D4944282564292E2053656E646A
:10269000696E67206D736720746F206170702E0003
:1026A00028434229204461746120537663204368A3
:1026B000617220636F6E666967206368616E67652B
:1026C00020706172616D4944282564292E2053656C
:1026D0006E64696E67206D736720746F206170701F
:1026E0002E0000004F70656E696E67206578746516
:1026F000726E616C20666C61736820666F72206D0B
:1027000061737320657261736500000045787446DB
:102710006C61736820726567696F6E426173653AB8
:1027200020307825782C20726567696F6E53697A3E
:10273000653A20307825782C20736563746F725366
:10274000697A653A20307825780000004572726F0A
:102750007220696E697469616C697A696E6720625A
:102760007574746F6E2070696E7300004F41442061
:102770006661696C656420746F206F70656E00001F
:1027800052656769737465726564204F41442053D4
:1027900065727669636500004F414420496D616749
:1027A00065207625730000004F4144204572726F0A
:1027B000723A202564000000446576696365204410
:1027C0006973636F6E6E6563746564210000000059
:1027D0004E756D20436F6E6E733A202564000000C5
:1027E000557064617465204661696C656420307859
:1027F000253032783A20257300000000436F6E7454
:10280000696E75696E6720626F6F74004C656674DF
:1028100020627574746F6E2068656C6420616674E4
:1028200065722072657365742E000000394F0020B8
:102830003C4F00203B4F00203D4F00203A4F0020EE
:1028400068380000CC4C0020102B00202B4F0020BB
:102850002C4F00208F2B0020902B00203C8000006C
:10286000408000006080000048800000448000003C
:1028700065260200E75001007126020069BA0100D6
:10288000C5CF000031D000000563010011C3000076
:1028900029CE00001BD00000C3D100002DD20000C3
:1028A000A1D30000B5A1010041D00000E9EB010077
:1028B000392602004BD20000E7D10000FDCF000016
:1028C000C1620100FDAE010069EC01008DA20100B2
:1028D00069D1000085D10000291E020039200200C4
:1028E000E5D101003D580100B145010091620100B0
:1028F000BFD300000DD10000D56A02102D92011047
:10290000A1F101104D0A0210495E021039D10100F7
:1029100049AA0110D52A021075D4011045D1010031
:10292000794B0110154B021005150210E74E0100FE
:10293000217A0110514D0210F5E2011031D8010049
:10294000010A021051D10100A523021081CF01100C
:1029500045FB0110994B021095510210C53702102A
:102960009137021065D80100A10E02102D38021017
:10297000796E0210816E0210756E02105D450210B4
:102980007D6E02102553021061590210AD520210E3
:10299000FD520210D5520210895E02101955011025
:1029A000A5D6011089F90000756D02102D6902107D
:1029B000493F021099C501101BFA000023FA0000DC
:1029C0009DC4001089F9000089F900001FFA000079
:1029D00081AF0100D9CA0110ED26021021A101101A
:1029E00035AD010005550210E13E0210D96D011010
:1029F00061500110F117021089F90000ED7F0110FC
:102A0000756602107DAC01007D4D021089F9000051
:102A100089F900009DD8010059E30110659A011061
:102A200065A70110D9AA011039BF011011F30110D7
:102A3000515C0110155A021089F9000089F9000053
:102A400005560110156B02104D5F0100DD54021098
:102A5000056B0210AD460210FD4702103D2D02101D
:102A6000F159021065270210CD470210310F0210F4
:102A7000111F0200E9DA0110F9B0011021DE011086
:102A800069B60110E9C90110B5F20110790F021001
:102A9000295F0210418A011085EC01102D540110AC
:102AA000292702102DA80100A163010089F9000067
:102AB00089F9000089F9000095040210D131011054
:102AC00045ED011001AB010089F9000089F9000012
:102AD00089F90000D53C0110B5540210BDAB0100CE
:102AE00061CA011091FD01103DFD01101D62010040
:102AF00049BE0100F1BD0100ED66021055690210EA
:102B0000A15B0210D961010039F700003D2F0210CE
:102B1000696002102D4E0210956E0210996E02101F
:102B20005D5A021011B00100E52D021089F9000074
:102B300089F9000089F90000A96E0210ED8A0110E0
:102B4000AD6E0210A56E021089F9000089F900002F
:102B500089F900005D480210395A0210B16E021066
:102B6000014E0210E9FC011045F10110A55A0210B6
:102B7000AD170210A16E02108DA80110256B021076
:102B80008D6602109D6E0210C9AF0100815A0210BD
:102B9000E56B021081A3011055550210A127021008
:102BA00059510110B9110210F5550210011202100D
:102BB00039D20110DD4E0210BD620210DD49021053
:102BC000459C0110EDF70110D5F90000616C021071
:102BD00051340210656E0210696E0210DD4302105E
:102BE0006D6B01102D480210C10F0210F9A70110E2
:102BF000FDAD010089DE0110696202107D43021003
:102C0000511B0210BD18021089E90100816D0210EC
:102C1000059B0110E110021015C60110BD1E020037
:102C20001D620110711E020029440110B1E501105E
:102C30002DEB010091EA0100A11A0110C13B011026
:102C4000418E011019690210E5EC0110752D02107A
:102C50006DAE01003DAF0100559F0110E50A021065
:102C6000752F0210B9CC0110B14E0210310B0210B9
:102C700055DB0110CDB401106DF301100D68021089
:102C8000DD670210056702102911021019400210B9
:102C9000D11F0210AD2F0210854E021079390100AC
:102CA000F146010061D801108D5A01107DE6010046
:102CB000199401108D2E0210AD49021089AC01103B
:102CC000C55B0210DDD00110513F0100892F0110BA
:102CD000D1450100293E010085620210C95F021042
:102CE000E53D010029E001102DE101001928021045
:102CF000791802103518021039C00110ED48021081
:102D0000416902107D550210ED6D0210CD55021083
:102D1000695F02107D1D011089F9000059DB010077
:102D200089F90000395E01001D3A01002FFA000008
:102D3000B9C0011059E00100E53F0210513E010009
:102D4000C14501008942021027FA00006D390100D7
:102D5000E95F0210F9E0010089F90000856B0210BB
:102D6000A5ED01104DE5011081010210A95F0210CF
:102D7000DD27021021420210BD480210E5040210B6
:102D8000656B0210450D010049E401001D49021068
:102D900055420210D56602102DE2011037FA0000EC
:102DA000A5660210511F0210CD19021025930010C4
:102DB000F9AB01100D9A0010D9E8010029B30110F8
:102DC000A555021015AA01008DA70100E1E501003B
:102DD000E1F900005D3E0100394B010051CB0110CB
:102DE00095F7011005EE0110B560010021E4011016
:102DF00089F90000AD43021089F90000117D01102E
:102E0000C97D0110D5E901002D7701105581011010
:102E100033FA0000AD470100ED68011009520100CE
:102E200099D900102DF9001099BA0110B9BF0110FD
:102E300089F900001D34021089F9000029410100C0
:102E4000E9E40110C9CB0110557C011091E001109B
:102E5000F9E0011025E301003505021051D1011000
:102E600089F90000C1EE01105110021085E4011033
:102E700041CC0110C1DF01109DB201107D85011010
:102E8000F1B60110B13F0210F93D0100416E021090
:102E90001DC5011041B4011001190210B5B3011094
:102EA00021A901103521020025EC0110390701107C
:102EB00069D001105D6602103D540210911E02108F
:102EC00045660210CD5902108D540210952C021047
:102ED00065540210F1D70100516D0210D54D02105A
:102EE00015540210D1200210A5310210C56B02103A
:102EF000C95E021069AB0110E95E0210A93D021023
:102F0000396D021085590210211302107D5B0210E9
:102F100045290210DD46021085B101102517021067
:102F2000DD6802104504021035D60110C5EB011012
:102F3000D56B0210A94D021005690210D56301106E
:102F4000B99E0110113E0210B12602105D2C021034
:102F50006D470210F56A021035F60110A1C4011088
:102F6000A5EA01105916021025C401109567021038
:102F7000F1680210FDF1011079070110F92201102A
:102F8000D192011015BA011051A20110DDF5011006
:102F9000EDFB01101D840110A95902104D620210B1
:102FA000ED5302103D4702109D160210E11602106B
:102FB000DD3D021065EB0110111E0210759301102A
:102FC000FD650210511E0210A121011069130210AB
:102FD00059F20110595B0210990A02103147011091
:102FE000355B02101566021031480110793E02105F
:102FF000F5CF011011DA01103D670110453E0210B6
:10300000E9A20110DD31021005EB01102D6602105E
:1030100065670210A56B0210196E0210B9630210E9
:10302000E169021019610210596E0210556A02100E
:10303000456A02105D6E0210556E0210F5D7011040
:10304000E9330210E95C0210111A02104551021016
:10305000C95C0210E16002104D210210511A0210E9
:10306000695C0210610C02104D4302104D330210D6
:1030700019330210496002107D640210CD690210FC
:10308000ED5A021025060210AD570210C1DB0110E7
:103090001D430210115B0210F5130210295D02108E
:1030A000AD640210ED50021015320210E53202102C
:1030B000A95C02107D320210ED420210D11A0210FA
:1030C000BD420210911A021089210210B132021081
:1030D000895C021049320210316C0210256C02101A
:1030E000F529021065EE0110C5600210CD22020024
:1030F000111B02105D3702106DB00110295E021025
:10310000C90D021005D40110BD820110819D01106E
:10311000F9C801103D590210C16102105565021035
:1031200009B20100ADB301006D21020085980110C4
:10313000A5030210D1580210990C01103D44021051
:103140009D440210DD6102109DFA0110F536021057
:10315000D9A50110E1B501106D6E0210716E02105B
:1031600059360210252D0110F50302108D3602107C
:1031700001220200B9BD0110657901106D650210D0
:103180009122020023220200216D0210156D02100F
:10319000F9610210E94A021025990110293702103D
:1031A000F5580210F50F011015620210E95D0210CA
:1031B0008565021019590210095E0210A5610210FE
:1031C0001134011045A501100DB9011039D90110B4
:1031D0002D25020051DD0110B1C201109D720110B8
:1031E000958901108DF0011055AF011085F5011082
:1031F000C114021069090210CDD8011089A0011074
:1032000085080210D10802101D090210253602108F
:103210003DA6011045B90100F1B80100D1A6011089
:10322000E5650210CD4402109D6502100D6D011080
:10323000B9B1010071C90110111C011065660110BE
:103240003DB40100998D011055B201004DB6010049
:1032500049240110F18C0110C1B7010031B80100FF
:10326000551F0200C5990110911B02100DD30100DA
:10327000C5210210316E021021BD0110D11B0210B8
:103280006D610210C56A0210B9C1011005E8011094
:1032900025E9011039140210ED340210D95701103C
:1032A000452002006DDD0100BDDE0100111D021090
:1032B00091240200F9230200B56C02109D6C0210EB
:1032C000A96C0210396E0210496E021021350210ED
:1032D00025F40110A1BB011025230200895D021015
:1032E000D5710110654A0210390D02107D380110A8
:1032F00095D301108991011035C201103D220210B1
:10330000C16C0210CD6C02100503021055070210AB
:1033100021BC0110BD0602105BFA0000394A021000
:103320002143011099CE011065E80110AD5802103B
:10333000A5E70110756A0210956A0210856A0210ED
:10334000A56A0210F564021089350210D12302002B
:10335000E9DC0100A1BC01108123020043FA000056
:10336000B164011047FA00000D410110DD86011023
:103370000140011005C801104D40021085D7011011
:10338000F5F80110E52B01109DF8011009710110ED
:103390001D670210F562021081290210D962021025
:1033A00069690210B540021081400210150C02102C
:1033B00079480110A5140110754C01103509011050
:1033C000592E0110714D011089FF0110256802105E
:1033D0007D6902100DED0100354F021085000210CD
:1033E00089C701108D870110ADEC01001D3002105E
:1033F000458C011057FA00005530021061950110FC
:103400004556021011200210C90B02101DBB0110FD
:1034100011630210E94002102D630210FD3002100A
:1034200049630210F1320110F15E011061E10110F7
:10343000A56D021009F700108D300210C530021082
:10344000094F0210CD280210D5050210DDE601104B
:103450002960021091280210512002103100021040
:1034600049360110911202106D4E0110A9CD0110C4
:10347000D900021041E70110D912021021CE01102B
:1034800019A4011001B801104BFA0000A52A01107F
:1034900079ED010045F80110B94F021011500210EA
:1034A000E54F021085410210614F02109550021045
:1034B00035670210092902108D4F02108163021036
:1034C000098201109D6302103557021069500210E5
:1034D000BD5602103D500210E5560210A5690210BB
:1034E000B94102106D560210C95A021089600210CB
:1034F000353102101D56021095560210C1580110A8
:103500005D5702100D570210C9F30110A1ED010023
:1035100011EE0100ADD20110C9ED010089F90000E2
:10352000E5FD011021D301104912021079E60110C6
:1035300039FE011039C101100DC7011045FB001003
:1035400053FA0000B1F20010616001104FFA000060
:10355000996D02107D0B0210115E011085E90110BA
:103560002DDF0100810D02103D8801102D2A02106F
:10357000ED7701108D65011069DC001091DF01000D
:10358000914A021031F00110A95D02106529011065
:103590005535021001220210694F0110B934021092
:1035A00065020210695D0210603F0020AAB80100A8
:1035B000783F0020ABB80100BC3F002082BA010078
:1035C0001440002083BA0100000002400A29FF00D5
:1035D0003C400020C83500005C400020DE140200A2
:1035E000A42100207C400020F8400020FFFFFFFFC6
:1035F00000800400004000000000000000001000F7
:103600000010000074410020400000000000000095
:103610000000000000093D001400000064000000EC
:10362000203A0000264F0020F0350000483A000004
:10363000B4410020F8350000FF0000000000000049
:10364000000000009D5E00002958000001010100FB
:1036500000000000FF00010000000000000000006A
:103660000000004017FF0000000000000400FFFF02
:103670000800000010000000401800203018002052
:10368000401A0020301A00200A0000000900000043
:103690000C0000000B00000009080AFF0A000000EF
:1036A000703A0000C041002060360000FF000000BA
:1036B0000000000080A90300C0420020AC360000DA
:1036C00000B000401400000034000000FF000000C3
:1036D000000000000302FFFFF04400202000000073
:1036E0000103000000000000883A0000444300206D
:1036F000C03600001B5B33313B316D4552524F5297
:103700003A201B5B33303B316D2825733A25642901
:10371000201B5B306D0000001B5B33333B316D576A
:1037200041524E494E473A201B5B33303B316D28A6
:1037300025733A256429201B5B306D001B5B3332F7
:103740003B316D494E464F3A201B5B33303B316D68
:103750002825733A256429201B5B306D000000008A
:103760007B7374617469632D696E7374616E6365D4
:103770002D6E616D657D00007B656D7074792D69BE
:103780006E7374616E63652D6E616D657D00000002
:1037900096C298D84539A1F4A033EB2D817D0377EB
:1037A000F240A463E5E6BCF847422CE1F2D1176B86
:1037B000F551BF376840B6CBCE5E316B5733CE2B59
:1037C000169E0F7C4AEBE78E9B7F1AFEE242E34F88
:1037D000FFFFFFFFFFFFFFFFFFFFFFFF00000000F5
:1037E000000000000000000001000000FFFFFFFFDC
:1037F000FCFFFFFFFFFFFFFFFFFFFFFF00000000D8
:10380000000000000000000001000000FFFFFFFFBB
:103810004B60D2273E3CCE3BF6B053CCB0061D6584
:10382000BC86987655BDEBB3E7933AAAD835C65A0D
:10383000512563FCC2CAB9F3849E17A7ADFAE6BC52
:10384000FFFFFFFFFFFFFFFF00000000FFFFFFFF84
:103850000061620050380000010000000000D0024A
:10386000EC0000215F0000000000000000000000EC
:10387000603800005C380000000000006680000036
:10388000728700008ABD00000EBF0000CEBF00009E
:10389000C61D0200C71D0200643800008AC2000075
:1038A000D6C20000D42500200200000038800000AD
:1038B00000000000831F020000000000303132339E
:1038C000343536373839616263646566000000005C
:1038D0008F0000008F0001008F0002008F000300A6
:1038E000900000018F000101900000029000000391
:1038F0008F0001048F0000058F0008048F00000472
:103900008A000006510000007F0001003F00040013
:103910003F0002003F0001007F0002008F00020410
:103920008F0001020200000000000000FFFFFFFF07
:103930000000000000000000FFFFFFFFFFFFFFFF8F
:1039400000000000000000000101010100C20100B0
:1039500003000000000000000200000034800000AE
:1039600049200200E9D50100000000000C08021700
:103970000D010102090901010602091818030101DC
:103980000909030305030201000000000000000014
:10399000FFFFFFFF0000000000000000000000002B
:1039A0000000000000000000000000000000000017
:1039B000FFFFFFFF0000000000000000000000000B
:1039C000000000000000000099E30100FF0000007B
:1039D000000000004DE50100FF00000000000000B5
:1039E0000000000000000000FFFFFFFF00000000DB
:1039F00000000000000000000000000000000000C7
:103A00000000000000000000FFFFFFFF00000000BA
:103A100000000000000000000000000000000000A6
:103A20006DEE010075EE01007BEE0100ABEE0100D2
:103A3000C5EE010013EF01002BEF01009FEF010025
:103A4000DDEF0100E5EF010075F2010009F301006F
:103A50007FF30100AFF30100C1F30100F7F30100B0
:103A60000FF4010035F5010079F5010085F501003D
:103A700009FB01008BFB01007FFE010089FE0100B4
:103A800069000200890302003F0E0200F10E0200ED
:103A9000A70C0200AF0C02000D11020099120200E7
:103AA0009F120200530F0200591002005F10020023
:103AB000F54300217940002195400021694400210F
:103AC000A5440021C5400021D1400021DD40002156
:103AD000F94000214F45002141410021DB0705D07D
:103AE00000F003F80249087070BD70B5014D284719
:103AF000E00400211D240200074C657900F009F85C
:103B000061796940490703D50121044A890311609D
:103B100070BD70B5024908478003002108110440B8
:103B20002D59000070B5004700F016FA0048004714
:103B3000577F000000F016FA004800471B8800007D
:103B40000599880A802805D1134988788007800F55
:103B500000F020FA00480047D96E00000FB40F486B
:103B6000C188002902D0104600F014FA079B9B0A76
:103B7000084D832B08D1084C23899B0604D500F0FF
:103B800005F8002800D042350FBC284770B504481E
:103B9000004700001F0B020060010021800300218C
:103BA000EB0902000848094A03689A420AD108480A
:103BB0000289084BD21A01D0012A03D1406E06496E
:103BC00088470399054B1847A8020021BD0302004E
:103BD0006001002121180000F1350000BD06000041
:103BE00070B51F4D2878C4B21E4880472878032836
:103BF00034D1032C32D01C488068400DC2071A48CB
:103C0000014660318030002A03D01F240C574588BC
:103C100002E01E240C570588002C1FD01348154ABB
:103C200041690079414348101149496940181049D8
:103C30004039497F904740054015694288420DDB75
:103C4000A8420BDC0C4B996988B20246090C62430E
:103C500009045212801880B20843986170BD0000B8
:103C6000E4020021794100002800002180030021A6
:103C700000030021CB8100004040044010B5864C79
:103C800021464031087D012834D18448C07D400858
:103C9000C0072FD02046603042795208D20729D081
:103CA0004089800B012825D1087E4109C9070CD025
:103CB000A16F00070988C00F40020904084360662D
:103CC000A06F801C00F080F913E0744820308069F8
:103CD000406800280ED0724A00230178D356591A42
:103CE00008D4C90008184178C90703D00168616683
:103CF0004068A0666B48804710BDF8B5664C6A49BD
:103D000026462036707B2546403500902F79B80036
:103D1000401880688047002828D16049C97D09097A
:103D2000C90723D022466432152F20D0297E0023D4
:103D30004F09FF0703D06D7D002D00D00123009FA8
:103D4000A56FBB4312D0737B002B0FD0237D5B0686
:103D50000CD5D288920B012A08D1C908C90705D011
:103D6000A988890B012901D100217173F8BDAB7EAF
:103D7000E97D012BE3D00023E1E770B5464C2546F1
:103D8000606A803500281DD15420005D0022002883
:103D900017D06420005D8008C00712D0A968888809
:103DA000800B01280DD13D48C07D4008C00708D0D8
:103DB0003A48203080690068002802D02962A86053
:103DC00000E02A6239488047616A002903D1296AE4
:103DD000002900D0A96070BDF8B52F4C34492046A9
:103DE0004030027D002A2FD0807E25468035032872
:103DF00002D0042803D027E00120E87524E06420E5
:103E0000005D8008C0071FD0A8688088800B01284B
:103E10001AD12248EA7DC07D002A13D0C008C0070D
:103E200012D026462036777B88470146394308D191
:103E3000217D090605D56988890B012901D1002159
:103E40007173F8BD8008EAE78847F8BD12488030F2
:103E50000021C175174800470F49403108712628D5
:103E600014D006DC152813D01B280BD01F2804D132
:103E70000AE03D280ED047280AD00B4980004018A0
:103E8000806870470C4870470C4870470C48704772
:103E90000C4870470C48704760010021C8000021A1
:103EA000E004002159490200005502008F3D020044
:103EB00075300200152A0200E943002175430021F4
:103EC00017430021974200211942002110B50C49E7
:103ED00088470C4A0621515E002907D0022905D0E7
:103EE000092903D0102901D0112907D17721C9430D
:103EF000884201DD002801DD7F20C04310BD0000A5
:103F0000A96500008003002110B51048C188104841
:103F1000052918D00F4C21684A0852002260A26B74
:103F200052085200A2632160FFF7FCFDA06B00075E
:103F300008D40120206060600020401C0C28FCDBBD
:103F40001420206210BDFFF7EDFD10BD800300219D
:103F50003F5B000000600440806B0C490007000FCD
:103F600048717047094A0A4918235079CB56497E4F
:103F7000C018814201DD084602E00F2800DD0F2055
:103F8000D189090909010143D1817047E00200216B
:103F9000880000210849C979CA08D20708D0C14061
:103FA0000648C90701D0064900E00649491CC1601E
:103FB0007047002070470000E80000212800002121
:103FC0008801000050010000820881079200C90E9C
:103FD0000CCAC078CA40494220318B401A431102B2
:103FE000090A0006084370473960EE2DCE2DC22D18
:103FF000540FEF2FEF0F975F9D17005040020040C6
:104000000C00000088140900F905010000808B00F5
:104010008000500F00001D0A9005000005000004FC
:10402000207BC10000000F00277F7F0100800C0073
:10403000000098140900F905000000808B00800042
:10404000700F00001D129005000005000004207B89
:10405000C10000000F00267F7F010D720E720F72EB
:1040600010725DA3E5A44A65D0B00071D0A010B174
:104070001B72628120106239300620003016011157
:104080000114016C5C605C605C605C605C605C6046
:104090005C605C605C6065608360CD6020125D6028
:1040A0001012117312731373B1811000B09170B0BC
:1040B000406021C2FBC502C360C42018136F236E89
:1040C000111612166A68EB94A378839C7081001E07
:1040D0005C4430C0B092F0C1D09232C6C0C9201842
:1040E00081400312236E12167E683CB65C6005B0F8
:1040F000917200C1F09128B120B113B111B1E8B0B3
:10410000007128B1E8A030B210B9808C309911B19B
:10411000A284B484F3C0D1B0007112B002B011B166
:10412000D1A091722C7230B613B003B0E0B0007120
:1041300020B17081C09290814096007120B1C392ED
:104140004296007120B14496007120B1E0A030A6E3
:1041500033B6D3B0007113B1D3A030C0109920C0D2
:104160003099D1B0007111B1D1A0917203A002A019
:104170006E65057306739173917230A2C0C710907B
:104180005C60F36460782465F0C5D1682A65D5B0B9
:1041900015B131C0007190805022344574B010A91F
:1041A000937310B90F72137331B2D5A05DB3408B06
:1041B000203900973F6534B261C25865F322ED445F
:1041C000666578B0A3C2466530C074655C60B08433
:1041D000A095709980890E10A0849095709980891F
:1041E0000E1480C00E1880C00E18518381392139F9
:1041F0006106311600111014006C1E311E318E3113
:104200008E392E97408230221645D5B0007115B1F7
:10421000D5A00E6100C1E09110781099E7139A784B
:10422000E5B440C5109002B004B006B000705078FC
:1042300050903090707860904090007035B26CB0C3
:1042400011B089B0E5B4D1A0D0A03DB1FDB00070EF
:10425000319A438A548A3331533D3431543D9396D5
:10426000A49653B0D460E5A444A064B08381031E37
:104270003F4100703399179100715DA323729173D0
:104280009172037204726E6530D00090C0FF10907E
:1042900008A00573067300705B894089B01823314C
:1042A000A88C831803181318339910A911B110B9E9
:1042B000D1B00070081E6C41007144B711B138993B
:1042C00000710070308601C85131100430960070C2
:1042D000009AF08900227545E0B9007001020003E0
:1042E000020001030149086070470000BC1A002069
:1042F00081B001208DF800009DF800000028FBD15E
:1043000001B0704770470A18DFF800F0E56A021044
:104310002DE9FC41040000F0C2802668F0788DF899
:104320000000684631798DF80110FFF7EDFFB068A5
:1043300008B15D490160F06808B15C4901605C4FFB
:104340003078387007F13C0871785A4879700288E3
:1043500059490A80707988F80000B17988F801100D
:1043600096F83000554987F8600091E82C105448C1
:1043700080E82C10A1680878F870A16891F82000F6
:1043800088F81C00A068416879608268BA60C168DA
:10439000F96002693A61C169C8F818108269C8F801
:1043A0001420416AC8F820104069007900EB4000F1
:1043B00080B200F0BDFB0546062000F0B9FB002DE1
:1043C00018BF002823D000223E490FE002EB820CE8
:1043D00002EB420311F80CE005F803E02B4401EB7B
:1043E0000C0E521CDEF801C0A3F801C0A368D3F87C
:1043F00014C09CF804309A42E8DB0560A1684A6961
:1044000011790171A26851694A79427178616068D5
:104410000168B9613269FA6271693963B2697A63B4
:10442000F169B963326AC8F80420806810B9C046DF
:10443000C04600E038626068C06810B9C046C04637
:1044400000E078626068006910B9C046C04600E0CC
:10445000B8626068406810B9C046C04600E0F861C4
:104460003069F862716AC8F80810B06AC8F80C00C0
:10447000F16AC8F810100121E0688268106800F045
:1044800097FDE068C06810B9C046C04601E00E491B
:104490000860E0684168006800F098FD01E0C046EF
:1044A000C046BDE8F38100BFE11D0200171E0200F7
:1044B000D4250020642B0020662B002070220020D1
:1044C000084B0020202200200C390020DFF800F0EB
:1044D00009EC0210DFF800F025EA0210DFF800F026
:1044E00055EB0210DFF800F047EC0210DFF800F0A7
:1044F00061DB0210DFF800F0B5DE0210DFF800F03B
:104500004DEA0210DFF800F029D50210DFF800F0C4
:1045100045DF0210DFF800F0F5EA0210DFF800F0E6
:1045200095EA0210DFF800F0A5C00210DFF800F0F5
:10453000B3CF0210DFF800F011DC0210DFF800F05A
:104540009DEB0210DFF800F025DB0210DFF800F031
:10455000C5E20210DFF800F0C3EC0210DFF800F053
:10456000E7E9021020B108233C220021FFF7AEBF8B
:10457000704780B5FFF7AEFFADF80000FFF7AEFF64
:10458000ADF80200009802BD01B5BDF80200FFF7CA
:10459000A9FFBDF80000BDE80240FFF7A7BF38B58E
:1045A000DFF8D049207801282DD0DFF8CC09DFF8DA
:1045B000CC2980088000121AA261012121700246D4
:1045C00002E0002342F8043BA3691D18AA42F8D375
:1045D0009B0800EB8302002142F8041CE8230360DF
:1045E000A16989088900EC39C0F8E810606100F120
:1045F000E801A160002000F007F8E060A1696069AF
:10460000A060091F216131BDF8B500260027051DF6
:1046100015F003001CBF291D0D1AFFF7AAFFDFF8D4
:104620005429112D34BF9468D468014620680028AD
:1046300003D580F0004000271AE03B0014D0336817
:10464000D4F800C06344AB42336011D334461846FB
:10465000ECB1401B042811D3605145F000402060AC
:1046600013695D1B156111E0A842F1D201272646AE
:10467000044420680028DAD1002408E01369206887
:104680001B1A1361256845F000452560241D516003
:1046900000F0C4FB2046F2BD10B50446FFF769FFE9
:1046A00054F8042CDFF8CC1822F0004244F8042C13
:1046B0000B69D2180A61221F8B689A4238BF8A6040
:1046C0004860BDE810405FE72DE9F041FFF751FF7A
:1046D000DFF8A028D368002400250026002709E081
:1046E0000E4601251C4604E011D581F0004100254D
:1046F00047460B441968B046BE4238BFB846002949
:10470000F2D15060FFF740FF4046BDE8F081002D38
:10471000E6D0D4F800C08C44C4F800C08E19E8E795
:1047200010B50446DFF84C088169216000696060BB
:10473000FFF7CAFF09282CBF08380020A06010BD71
:10474000DFF830180A69121A40F22D139A4228BF76
:10475000FFF75ABF0020704780B5FFF720FF4BF6E8
:10476000BE2002BD08464FE7084695E702B56846F9
:10477000FFF7D6FF01BD0120704738B50446FFF7AB
:10478000F8FE00220C23DFF8F8175343CD18A96C6C
:1047900021B18C4206D0521C032AF3D3FFF7F4FE5A
:1047A000002032BDFFF7F0FE05F1480032BD70B5C4
:1047B0000546FFF7DEFE044600210C22DFF8C007A5
:1047C0004A438618B06C48B1854210D0491C032971
:1047D000F3D32046FFF7D8FE002070BD3065B564E6
:1047E0000021FFF787FEF06408B900F0FDFB2046CA
:1047F000FFF7CAFE06F1480070BD38B50446FFF762
:10480000B8FE0025DFF878270C216943515A21B101
:104810008C4206D06D1C062DF6D3FFF7B5FEFF20A7
:1048200032BD1CE310B504462088FFF7E6FFFF28E1
:1048300002D14FF0FF3010BD0C21DFF84427484370
:104840001044816811B96FF0010010BD2046BDE829
:104850001040084702460FF24C70104738B5002050
:104860000C21DFF81C270024002501FB00F3134472
:10487000401C03289C641D65F7D30020002301FB26
:1048800000F4401C13530628F9D3BDE8314086E6F6
:104890002DE9F8478FB006468946FFF72FFE804680
:1048A0000027DFF8E05603E05046FFF76DFE7F1C5F
:1048B0004F451DD26846FFF755FE06EB07114A68C3
:1048C00006928A68089200220B680493C8680590D3
:1048D00069462846FFF716FE040007D0FFF749FE99
:1048E00082462046FFF763FF0028DDD100F07CFB05
:1048F0004046FFF70BFE10B0BDE8F087F8B56846FC
:10490000052141604FF480528260DFF87C16DFF8A9
:104910007C260091C2600121FFF7BAFF05B000BDFF
:1049200038B504460D46FFF724FE002145F80C1C5F
:10493000226812B9256006E00A4652F80C1C0029CC
:10494000FAD142F80C5CBDE832401DE680B5FFF7B5
:10495000E1FDFFF712FF10B96FF0040002BD81689E
:1049600009B9022002BD4068ADE006280ADA0C222F
:10497000DFF80C365043185A00281CBF4FF6F87267
:10498000904202D14FF0FF307047088000207047FE
:1049900030B5DFF8FC552A680C464FF47A71A1FB5C
:1049A0000001002300F024FB002902D8B0F1004FE1
:1049B00002D36FF0020030BD2060002030BD014600
:1049C000886849680847F8B505460E46FFF7A2FD16
:1049D000FFF7EDFE04000DD0FFF7CBFD01460022EE
:1049E0000C27DFF89C3557433B44188820B1521CF4
:1049F000062AF5D300F0F8FA4FF6F8700027188071
:104A00005C609F602A7000F007FA0020F2BD0C384D
:104A100042E670B5044615461E460846FFF7EDFE11
:104A20000146FF2902D14FF0FF3070BD33462A46C0
:104A30002046BDE870407FE07CB50546164600F094
:104A40009EF8040010D128886946C0B2FFF78DFF98
:104A500028B13068FFF7DBFF6FF0050076BDBDF8C9
:104A600000002880FFF772FF204676BD38B5054666
:104A7000FFF750FDFFF781FE0446FFF74FFD0028CA
:104A800018BF012800D014B96FF0040032BD65B919
:104A900000200090009B60684FF000420021FFF76B
:104AA00041FD401E8041C00F32BD15F1010F08BF0E
:104AB0004FF0FF30EDD069462846FFF769FF002828
:104AC000E8D032BD80B54FF00041FFF72FFD002048
:104AD00002BD2DE9F8430546894617461E46FFF7F5
:104AE00019FDFFF764FE04006FF0020802D1404692
:104AF000BDE8F283FFF73DFD014600220C23DFF8FD
:104B0000800453430344188830B185420DD0521CB1
:104B1000062AF3D300F068FA1D805C60C3F80890A1
:104B20003A7000F079F90020E2E700F077F9DEE76B
:104B30006AE5B1E504E6F3E52DE9F8430D462F46B5
:104B4000062FBCBF04460628164699466FF0020899
:104B500006DAFFF70EFD00F005FA19B9FFF714FDAC
:104B600040460AE0FFF710FD00F0F2F9786840686F
:104B70004FF00041FFF7DAFC0020BDE8F2832DE999
:104B8000F04106460F469046FFF7C4FCFFF7F5FDDF
:104B9000050008BF6FF004001BD0FFF7EAFCA9680E
:104BA000002441B10C46A4F10C0100230A68AA605C
:104BB000FF250B608D72FFF7E7FC0CB9022008E0BF
:104BC000A4F10C000179317040793870C8F80040C8
:104BD0000020BDE8F08182B001208DF800009DF832
:104BE00000000028FBD100F0FFF900BFFFF7A2BCD6
:104BF00000B5DFF89C2313686FF00040A0FB0301B1
:104C00004FF47A72002300F0F3F9002902D8B0F1D2
:104C1000004F01D36FF0004000BD7CB50C46154637
:104C20001E466946FFF7B4FE30B9009833462A465F
:104C3000214600F002F8002076BD2DE9F0431D4624
:104C400089B02C6880460E4617462CBB0C20FFF717
:104C5000DBFC04006FF0030918D008232422002194
:104C60006846FFF76BFC0020ADF810000590069435
:104C700000236A464146DFF81C03FFF763FC20600F
:104C800030B9FFF7A8FF2046FFF706FD484617E0BA
:104C90006660A7602C600BE0DFF8FC62306880473C
:104CA00005462068FFF752FCA760284671688847D0
:104CB00020684146FFF74EFC2068FFF74FFC0020BC
:104CC00009B0BDE8F08300281CBF0068FFF73EBCB8
:104CD0007047E0B58DF80400684600F039FA9DF899
:104CE00005000EBDE0B50190684600F067FA0EBD04
:104CF000E0B50190684600F06BFA0EBD2DE9F8436F
:104D000084B004460E4617469846FFF703FCFFF7AB
:104D100034FD054600200290FFF700FC002818BF74
:104D2000012800D015B96FF0040072E044B90020EA
:104D30000190FFF7FFFB814601980124814425E0A3
:104D400014F1010F08BF4FF0FF30F1D001A9204648
:104D5000FFF71EFE0028ECD05BE0039902A8FFF7E6
:104D6000DFFD68684FF00051FFF7E0FB0198012478
:104D700010F1010F18BF002808D0FFF7DBFBB9EBDB
:104D8000000031D0019981422ED30190019B6868C7
:104D90004FF000520021FFF7C5FB28B303AA694674
:104DA0000DF10100FFF7EBFE0400DFD19DF80100DB
:104DB0000DF10201FFF7D9FD0028CED1039A9DF82D
:104DC0000010BDF80200B0470028C6D017B1BDF8EA
:104DD00002003880B8F1000F1CBF9DF8001088F861
:104DE00000100C9803990160FFF7B0FD029EFFF7D9
:104DF000C0FB014656B1324600E0024652F80C0CA8
:104E00000028FAD1A86842F80C0CAE6000F006F851
:104E1000204605B0BDE8F083606830600846FFF7C3
:104E2000B3BB38B5FFF776FB0446FFF777FB0028E6
:104E300018BF012811D0FFF79CFB0025504A0C2316
:104E40006B43D15A39B1D11849680B68A34206D0D7
:104E50006D1C062DF3D3FFF797FBFF2032BDFFF744
:104E600093FBE8B232BDE0B5ADF800008DF8061056
:104E700000204A490A68ADF802006846904710B918
:104E80009DF807000EBDFF200EBD1078422801D10D
:104E900001207047002070470CB478B504460E46D8
:104EA00087B0FFF73BFB0CAD002814BF0128FFF7CC
:104EB00092FE14200021FF22ADF8100002918DF81F
:104EC000122006960595FFF7ACFF05AB032221469D
:104ED000FFF79FFD002001A901900091002300220F
:104EE0002F4941F28830FFF709FF012805D020B98A
:104EF000019820B1FFF78BFD01E0FFF76CFE0598EC
:104F0000006808B070BC5DF80CFB2DE9F8430D4655
:104F10002F46062FBCBF04460628164699466FF05A
:104F2000020806DAFFF725FB00F01CF819B9FFF7B5
:104F30002BFB40460AE0FFF727FB00F009F87868F2
:104F400040684FF00051FFF7F1FA0020BDE8F2830E
:104F5000A9F10800047045708670494678680830E9
:104F6000FFF7DEBC0C22064B12FB07F7DF1979684E
:104F700070470000003E002053540020FF3F0220F5
:104F8000943D00205548000085BA01005C1E0020B9
:104F9000C8150000BF490000D81D0020E01D0020FA
:104FA0008B4E000025480000734500008945000035
:104FB0000200034A117008BF0248034908607047A5
:104FC0008B2B00202FD00000D0250020024A10603B
:104FD00002480160704700BF004B0020044B0020D6
:104FE000DFF800F0BD6D02100120FFF7F9BF232AA2
:104FF000D3BBD9B1B2F5803F5BD2022A1ED98C4611
:10500000B1FBF2F102FB11C31B0443EA1043B3FBF3
:10501000F2FC02FB1C3380B240EA0343B3FBF2F024
:1050200002FB103240EA0C4000237047022A05D9E7
:105030008446B0FBF2F002FB10C270474AB105D1C2
:1050400000F0010249085FEA3000704700220023A7
:10505000704700F0CDB80B0002000021002070471F
:10506000F7D3002200237047904271EB030CF2D378
:1050700070B5B1FA81F4B3FA83F52C1BA340C4F1E7
:10508000200532FA05F63343A2405FF00046E640C1
:1050900002E05B085FEA3202841A71EB030524BF69
:1050A000204629467641F4D302000B00300000214F
:1050B00070BD70B5B1FA81F4B2FA82F5C4F1200482
:1050C0006419B4F12006DAD3B2405FF00044F44032
:1050D000002502E052085FEA3303C61A71EB020EA4
:1050E00024BF3046714664416D41F3D302000B008A
:1050F0002000290070BD242A10B5044601E000F00C
:10510000D6F9B4FA84F0C0B2202806D000F018F81E
:10511000F5DB401F00F0E0F9F3E710BD10B50446E1
:1051200001E000F059F9B4FA84F0C0B2202806D0AA
:1051300000F006F8F5DB401F00F067F9F3E710BD5B
:10514000C0F11F00C0B2012181404C4005287047CA
:1051500038B5044601206071244D2079A8B1FFF7CD
:1051600008FA04462878FF2805D12046FFF70CFAF4
:105170006FF0060032BD401C2870C0B2012804BF89
:105180006868FFF7B9FF204614E0FFF7F2F92978C5
:1051900021B9FFF7F9F96FF0070032BD491E2970F8
:1051A000C9B239B9FFF7F0F96868FFF7B7FF002017
:1051B000607101E0FFF7E8F9002032BD80B540687A
:1051C00010F07F4F00D00DE0FFF796FF002002BDEA
:1051D00080B5406810F07F4F00D003E0FFF79EFFDE
:1051E000002002BD6FF0020002BD0000E81D00209B
:1051F0007047252ADFF86C0980687047DFF864196A
:10520000084490F84A01704702460020022904D160
:10521000012A06D140F2EE207047012A08BF4FF460
:105220007A707047DFF83C1991F8410120B1D1F84C
:105230006C01002818BF004770472DE9F041DFF8E6
:10524000244994F84201002884B040F0AB80012149
:10525000DFF81469DFF8145984F84211307B84F8C0
:1052600041017168C4F86C11A868C0F38140B8B9F5
:105270003069A8B12F6800F0D2FCC7F30662642140
:1052800011FB02F2B2FBF0F200230FF6C10104F1B0
:10529000940000F09DFCDFF8D8184FF00040086043
:1052A00001A800F0CBFC002002908DF80400002241
:1052B000039201AB0FF2E161DFF8B87804F10C0062
:1052C00000F086FC01A800F0B9FC002002908DF8E7
:1052D0000400039001AB0822DFF89C1804F1500091
:1052E00000F076FC00230FF2F552322104F1D800D1
:1052F00000F0D0FC002038600023DFF880282C214B
:1053000004F1F40000F0C6FCA968707BC1F3815180
:1053100028B1032903D1012084F8390121E00329B0
:1053200018BF02291DD001291AD1DFF85468DFF80F
:105330005478032000901C23D6F800C0DCF80480C9
:105340004FF0405200213846C047012000903846B7
:105350003668776809234FF400720021B84711E0DE
:1053600081B9386840F04000386000F0B6FCA168B0
:1053700041F00401A16094F84511491C84F84511DD
:1053800000F0D9FC686840070CD400F0A6FCA168C6
:1053900041F00101A16094F84311491C84F84311C4
:1053A00000F0C9FC002004B0BDE8F08130B581B048
:1053B000002408B1150004D16FF00204204601B0AA
:1053C00030BD8160C26003610146DFF8980700F0DC
:1053D000E6FC204601B030BD10B5044600F07DFC6F
:1053E000DFF880170A1992F843315B1E82F84331C7
:1053F000DBB233B98A68012303FA04F422EA040415
:105400008C6000F098FC002010BDF0B581B005461E
:1054100000F063FC0446DFF84C17481990F84A2165
:10542000521E80F84A21D2B232BBDFF85C0700EB93
:10543000850210F825505688280623D5DFF84C77CA
:1054400039680A6A3046904739688A6A3046904718
:1054500039680A6B30469047DFF83417012008603E
:10546000DFF8300701688907FCD505F03F05152DE9
:10547000BCBF2846FFF7C9FF204600F05CFC0020B7
:1054800001B0F0BD680606D501EB86010020D1F819
:1054900060219047E9E7DFF8F4160B689A69304617
:1054A0009047304600F0BCFC0228FAD1DDE710B589
:1054B000044600F012FCDFF8AC168A680123A34012
:1054C0001A438A60214491F84321521C81F84321F8
:1054D00000F031FC002010BD2DE9F041064600F03F
:1054E000FCFB0446DFF87C56A81990F84A114A1CC8
:1054F00080F84A2139BBDFF8908618F8260000F0C2
:105500003F001428D8BFFFF7E7FF08EB8600478865
:1055100018F8260001061CD5DFF870562A68D169F4
:10552000384688472A68516A384688472A68D16AC7
:1055300038468847DFF8582601201060DFF8540607
:1055400001688907FCD5204600F0F5FB0020BDE886
:10555000F081400606D505EB87010120D1F86021D6
:105560009047F0E7DFF824160B685A6938469047F1
:10557000384600F072FC0128FAD1E4E72DE9F04F3B
:105580000025012881B0AA46A94618BF6FF001087E
:1055900040F03581DFF8CC75D7F83401012844D1CB
:1055A0000221C7F8341100F0D3FC012000F0F7F914
:1055B0005FEA00083FD197F85B0108B14FF0010A9C
:1055C00097F85A0108B14AF0020A97F8590108B150
:1055D0004AF0040ADFF8B445A16A0A68012090473E
:1055E00001281CBF97F83801012851D100F020FD97
:1055F000DFF878B5DBF808000125C0F3814040BB37
:10560000DFF8640501690091080022D007F19400D9
:1056100000F01DFBDBF80000DFF88015C00F14BFA1
:105620004FF441504FF482500EE06FF004084046B2
:1056300001B0BDE8F08F0120C7F8340100F091FC03
:10564000404601B0BDE8F08FC1F88000002000990D
:10565000884797F83801D8B1DFF84405D0F88412AC
:1056600021F08001C0F884128022C0F88C2200F062
:1056700034FB97F84611491E87F84611C9B219B98B
:10568000B96821F00801B96000F055FB87F838913E
:10569000387AC10748BF4FF0010907D4216ADFF803
:1056A00004058A6890470646042EF7D04FF0FF3273
:1056B0000021484600F018FDB9F1000F0FD1012E6E
:1056C00005D1226ADFF8DC04536801219847DFF82E
:1056D000D004D0F8181241F00301C0F81812504657
:1056E00021684A69904797F8550120B12168CA6A34
:1056F0004FF48060904797F8540120B12168CA6A3E
:105700004FF481609047DFF88814DFF8949401200B
:1057100008600022C9F800200320C7F83401504671
:1057200000F09BFB0128FAD1DFF86C64306804209C
:1057300000F035F98246DFF8701401200860002D72
:1057400032684DD0A16A0A689047012848D097F87E
:105750003801002844D1DFF81444A068C0F3814028
:10576000C0B9DFF804040569A5B12068DFF82C147E
:10577000C00F19BF4FF4405008604FF480520A60C8
:10578000502000F033FD0120A84707F1940000F0FD
:105790005CFA01E000F012FC012087F83801A068F3
:1057A000C0F3814018B9DFF8C013086958B9387AD6
:1057B000810608D48020C9F88C02D9F8841241F0FF
:1057C0008001C9F8841200F088FAB96841F0080134
:1057D000B96097F84611491C87F8461100F0ABFAFA
:1057E00000F000FD082000F0DAF840EA0A04012089
:1057F000C7F8340100F0B5FB0CB14FF0FF3840465C
:1058000001B0BDE8F08F30B581B0044600F065FA14
:1058100005462146DFF84C0300F0EBFA284601B0BC
:10582000BDE8304000F087BA10B50024022802D04D
:10583000032805D008E000F0DDFC0446204610BD3A
:1058400000F062FE204610BDFEE7F0B581B000F02A
:1058500044FAC449054691F83801012460B1DFF8E3
:105860002063DFF820033768D7F80CC0002301223B
:105870003C21E04700B90024284600F05CFA2046AD
:1058800001B0F0BD30B581B000F027FA044600F059
:10589000A4FBB44D002085F8380100F01EFA95F8FD
:1058A0004611491E85F84611C9B219B9A96821F0F7
:1058B0000801A96000F03FFA204600F03CFAAA482F
:1058C00084680220A0470546102000F068F8012DEA
:1058D00004BF0320A04701B030BD00002DE9F04116
:1058E000A44C82B06568206820EA050105406A067C
:1058F000216049D5A24EF16B0A6804209047022826
:1059000018BF032819D001283ED1032000901C2382
:10591000D6F800C09B4FDCF804804FF040520021C5
:105920003846C0470120009038463668776809231A
:105930004FF400720021B84726E0032000901C239A
:10594000D6F800C08F4FDCF804804FF040520021A1
:105950003846C047012000903846366877680923EA
:105960004FF400720021B84700F0B7F97D4991F873
:105970004521521E81F84521D2B21AB98A6822F017
:1059800004028A6000F0D7F9280648BF00F022F828
:10599000A56002B0BDE8F08170470020704730B5C7
:1059A00005467048046881B05CB1A068284205D003
:1059B0002269E36800212846984728B92468002C0A
:1059C000F3D1002001B030BD4FF0FF3001B030BD49
:1059D0000020704730B581B000F07FF94FEA000435
:1059E00000F0FBFA0028FBD000F077F95D4D95F848
:1059F0004611491E85F84611C9B219B9A96821F0A6
:105A00000801A96000F097F9002085F838012046C8
:105A100000F091F9544884680220A0470546102000
:105A2000FFF7BDFF012D04BF0320A04701B030BD2B
:105A300070B501284CD15D490A6813689847012860
:105A400000F08180474D95F8380100287BD1474E02
:105A5000B068C0F38140B0B9434804699CB1306874
:105A60004E49C00F19BF4FF4405008604FF48052A8
:105A70000A60502000F0BAFB0120A04705F1940015
:105A800000F0E3F801E000F099FA012085F8380110
:105A9000B068C0F3814010B93349086948B9287A21
:105AA000810606D4334880228260016841F080017B
:105AB000016000F012F9A96841F00801A96095F8A9
:105AC0004611491C85F8461100F035F9002070BDDB
:105AD000002838D100F0ACFA244E224DB068C0F353
:105AE0008140A0B9204804698CB105F1940000F010
:105AF000AEF830682949C00F19BF4FF44150C1F8C2
:105B000080004FF48252C1F880200020A04795F811
:105B10003801C0B11748016821F08001016080217F
:105B2000816000F0DAF895F84611491E85F84611B3
:105B3000C9B219B9A96821F00801A96000F0FBF801
:105B4000002085F83801002070BD000000B5134921
:105B500081B04020086000F031FA01B05DF804EB3C
:105B600038E700009C26002040360000AC4F005073
:105B700000A10C409022084075660000656200009C
:105B8000A401001000A00C40D0380000B8010010A3
:105B900028200860282008402C200940A8A00C409C
:105BA0000C200840004003400C400940E001001078
:105BB000DFF800F001CE0210DFF800F049E6021035
:105BC000DFF800F08DDD0210DFF800F0FDE90210D3
:105BD000F0B51C0089B005460E46174605D10023D6
:105BE000FFF7EEFF284609B0F0BD0823242200216C
:105BF0006846FEF7A3FCA16806916B462278ADF8D3
:105C000010203A466068059031462846FFF7D8FFD5
:105C1000284609B0F0BDFFF7CFBFFFF7D5BF114849
:105C20000068704700F05EBD00B581B000F073FD04
:105C3000401E8041C043C00F01B000BD0021816003
:105C4000017041607047FEF785BCFEF787BCFEF728
:105C50007DBC0449096800EB5100B0FBF1F0FFF78F
:105C6000A7BF0000C8150000DFF800F049EB0210E4
:105C7000DFF800F075E40210DFF800F0D9D8021068
:105C8000DFF800F01DD90210DFF800F019E902106A
:105C900000F044BDF0B51C008DB005460E46174619
:105CA00004D1002300F050FD0DB0F0BD08233022D8
:105CB00000216846FFF7D8FF206805906B466068B2
:105CC00008903A46207AADF818003146284600F090
:105CD0003BFD0DB0F0BDFFF7CBBFFEF7FFBBFFF7FD
:105CE000CBBFFFF7CDBF00B581B0FEF717FC401E5C
:105CF0008041C00F01B000BD00F046BDF0B581B0DD
:105D000004460D461646FEF7E9FB0746324629468D
:105D1000204681604260384601B0BDE8F040FEF7A1
:105D2000E1BBFFF7B1BF002101604FF0FF3201235B
:105D3000426003727047FEF7D5BB10B50446FFF70B
:105D4000CCFF002161602160BDE81040FFF7F3BF88
:105D500030B581B00546FFF7C0FF2C683CB1216823
:105D60002960216800291ABF00224A606960FFF794
:105D7000E2FF204601B030BD70B504460D46164620
:105D8000FFF7ABFF2E60716869607168002914BF6E
:105D90000D6025607560BDE87040FFF7CCBF30B581
:105DA00081B004460D46FFF798FF00212960626824
:105DB0006A606168002914BF0D602560656001B0EC
:105DC000BDE83040FFF7B7BF30B581B004460D469F
:105DD000FFF783FF2168296000226A60216800299B
:105DE00014BF4D606560256001B0BDE83040FFF72D
:105DF000A2BF30B581B004460D46FFF76EFF29689B
:105E00006A6800290CBF62604A6069682A680029D4
:105E10000CBF22600A6001B0BDE83040FFF78BBFC5
:105E200030B51C4B1A685B6D0021C50704D5D4073B
:105E300001D45B0700D50121830703D5540804F082
:105E400001042143400703D5920802F001021143E7
:105E500009B1012030BD022030BD30B50D4B1A68AC
:105E60005B6D0121C50704D5D40702D45B0758BF79
:105E70000021830703D5540804F0010421404007A2
:105E800003D5920802F00102114009B1012030BD92
:105E9000022030BD4021084030BF704770B500F08F
:105EA0009DF9354C206941688847FFF7A3F90546FD
:105EB00005F00C000C2804D1AFF30080FFF7ECFFD5
:105EC00040E0680725D400F06DFC06460121012062
:105ED000FFF79AF92949096801FB06F2904218D2A6
:105EE000F020B0FBF1F0264C311A04F10C00FEF763
:105EF00031FB04F10C00FEF731FBAFF30080012011
:105F0000FFF73CFBAFF3008004F10C00FEF71EFB33
:105F10001AE0AFF30080280712D4216819488A6874
:105F200090470428F9D0E90600D408B9012000E020
:105F3000002000F0C5F8144801210160006801E06C
:105F4000FFF7AAFFAFF30080BDE8704000F04AB948
:105F500010B50E4CFEF7D2FA2060FEF7BBFA606077
:105F600010BD10B5094C6068FEF7C0FA2068BDE8A6
:105F70001040FEF7CBBA0000D8010010C815000091
:105F80009C260020004003402C200940504D00205A
:105F900038B5DFF80801DFF80851048814F001046F
:105FA00003D14FF0012129600088DFF8F820116843
:105FB000884714B14FF08070286031BD10B5DFF80C
:105FC000F82013685C6801210120A047DFF8DC009D
:105FD000DFF8DC100068886010BD38B5DFF8C84015
:105FE000E16B0A680120904701281FD02468DFF880
:105FF000AC00E568002301223C21A847B8B1FFF7B7
:10600000C7FFDFF8A800DFF8A83002689968DFF85A
:10601000A4001C68DA60A4EB9404521A4243120CE8
:106020001A6019688C4238BF0C461C60012032BDD2
:1060300038B5DFF884402268536800210120984772
:1060400021680A680120904708B1FFF7A1FFDFF837
:106050005C00DFF85C5000686860E06801688847B1
:10606000286131BD70B5154CA268E5681B3800FB8E
:1060700000F100FB01F681FB0223C6FB05236568E6
:10608000C0FB05232068120942EA0372C1171018E9
:1060900041EB2311000C40EA014070BD00A00C4010
:1060A00004A40C4080000010A4010010302009401E
:1060B000184E002040420F00E00100102C4E00203E
:1060C00010B53B493B4C08603B48026842F0030274
:1060D0000260202021688A69904738480168226858
:1060E000906BBDE8104000472DE9F047344D334F29
:1060F000304C344E814628688A46810744BF324876
:10610000E860324800219046016027203A68216803
:106110008A699047316B2E48014031634FF48060AB
:10612000B16F21F48071B16721680A6B90472168D3
:106130000A6B4FF48160904721680A6B4FF4C0608E
:10614000904724491A4A01200860C2F800A0306034
:106150002868810707D418F1010F06BF4FF04040AF
:10616000E860C5F80C803868F0698007FCD5072026
:10617000FFF756FE0228FAD1B9F1000F12D1216AB9
:10618000154D8A68284690470428F8D0012804D184
:10619000226A5368032128469847074801688908FE
:1061A000890001602068816BBDE8F0470847000066
:1061B0008C210840B8010010242208402C200940FE
:1061C000100009400C200840FD0000400C40094030
:1061D000FFFFFEFE2820086000400340EFF3108020
:1061E00072B67047EFF3108062B670470138FDD188
:1061F0007047704730B5DFF8AC5495F8390100248A
:1062000081B0002802BFDFF8A014887B00280CD0E2
:10621000FFF763FD95F83B11002906BF012285F8C1
:106220003B210124FFF787FD14B1002001B030BDF0
:106230000220FFF73CF90E20FFF74EF9DFF86C144F
:10624000086810B1012001B030BDDFF864044022BD
:10625000026042600120C861002185F83A110020E7
:1062600001B030BD2DE9F041DFF8481482B00020C4
:106270000860DFF8304494F83A01002800F04081CB
:1062800001283FD1DFF830140D68DFF830140A68B8
:106290004BF2F52045432D0A02F44022B2F5802F3F
:1062A00013D1DFF81C0401688A030ED4DFF81464EC
:1062B000B06C01688847FFF7D5FEF16BCA6890475C
:1062C0002F09C010474305EBE73594F8400118B19A
:1062D000002184F8401106E0DFF8EC03006820F0AC
:1062E0007F402D186D08DFF8E403DFF8BC2305605C
:1062F00001212D0C45608160907B002800F0B88062
:106300000221FBE0022840F0B980DFF8AC03056809
:10631000DFF8BC03C16AC1F30721C4F81411016896
:10632000C1F38441C4F81811B5F5C061C069C4F85F
:106330001011C0F38120C4F8280103D1002084F893
:10634000300191E094F8300168B9D4F81801D4F81C
:106350001421C4F82001C4F81C21C4F82C11D4F86D
:106360002801C4F82401D4F82C0100284CBF6FF098
:106370000101022100EB40000818D4F8201142105E
:1063800000EB9270D4F81421C4F81C2101EBA00199
:106390000029C4F8201115DCD4F82401032805D104
:1063A0001531D8BF0121C4F8201124E00B31D8BF2A
:1063B0000121521E48BF0022C4F82011C4F81C213C
:1063C000032019E01E2919DDD4F8240138B9153944
:1063D0001E29C8BF1E21C4F8201103200CE00B3970
:1063E0001E29C8BF1E21521C3F2AC8BF3F22C4F825
:1063F0002011C4F81C210020C4F824010823B14E48
:10640000D4F81C01B34F80B200904FF47F42D6F80D
:1064100000C0DCF8048030213846C04701200090DD
:106420001123D6F800C0DCF804804FF400320421B8
:106430003846C047D4F8200180B200901223D6F825
:1064400000C0DCF804804FF4F80204213846C0474D
:10645000D4F8240180B200903846366877680A2361
:106460004FF440622021B847A5F2FF55032D03D217
:106470000620C4F83C0143E004213FE003283FD15B
:106480008D480068D4F81011A0F5C0600029C4F848
:106490002C0148BF4942002848BF40428142A8BF62
:1064A000002028DA874DD4F814018A4E80B200907B
:1064B00008232F68D7F804C04FF47F4230213046BC
:1064C000E047D4F8180180B2009012232F68D7F863
:1064D00004C04FF4F80204213046E047D4F8280104
:1064E00080B2009030462D686E680A234FF44062F7
:1064F0002021B047012084F830010621C4F83C1166
:1065000002B0BDE8F04100BF2DE9F04782B0724C07
:106510006C4DDFF8C081714EDFF8889142F62A2772
:1065200009E000BFC9F83C01032121600020706030
:1065300070688107FCD4D9F83C01062800F29980E4
:10654000DFE800F0048A6F774C542F00012131609E
:106550000F22E2602761022000900723D5F800C0D7
:10656000DCF804A04FF4C07200214046D047D5F8B3
:1065700000C0DCF80CA007234FF4C0720021404695
:10658000D0470120306031688807FCD50121E161E6
:1065900099F8390100281DBF002131630120032033
:1065A000C0E700213160716031688807FCD47168F0
:1065B0008807FCD400213F4A3C4B11600120186041
:1065C0000E20FEF722FF0220FEF706FF0020C9F88A
:1065D0003C0189F83B0102B0BDE8F0870520C9F80D
:1065E0003C010021716070688107FCD4002100919A
:1065F000032089F83A0104232C686768702240461A
:10660000B8472C68E5687023702200214046A847EF
:106610000120706002B009F15000BDE8F047FFF7BB
:1066200014BB0320C9F83C01002171607068810728
:10663000FCD400210091022089F83A0104232C683F
:10664000676870224046B8472C68E568702370225E
:1066500000214046A847DBE70120022189F83A01E2
:10666000009104232C686568702200214046A847E9
:10667000CEE7FEE71A4801688A07FCD509491648A3
:10668000D1F83C21012A07BF2021816101228261CA
:1066900000210160082206490A604A600121016068
:1066A000704700009C2600204036000004800C400B
:1066B00038500C403C500C4008400C40B44F005047
:1066C0008C130050A4010010102009407C600C4085
:1066D00004A00C4000A00C4000400C4054600C4052
:1066E00058600C4070B5044600F078F80646A08A61
:1066F000002501280AD1FDF71DFF0546E068A168C5
:10670000451BA9423EBF2069A8420025304600F043
:1067100066F8284670BD808A7047262A10280CD358
:10672000A0F110020549520901EB82031038012142
:1067300000F01F008140C3F88012704700E000E0C5
:10674000DFF800F021D40210F8B504460B480C4FD6
:106750000668F8690D4650F82510B1420AD109487B
:10676000009029462046FFF7EBFFF86950F8251006
:10677000B14201D10020F2BD2046F2BD1C12000042
:1067800050110020DC230020102803D302491038C8
:10679000C1F8000F704700BF00E000E0DFF800F034
:1067A000C5EA021070B500F019F8094E0446B06849
:1067B0000021FFF7F3FF05467069B169451BA94247
:1067C00038BF0025204600F00AF8284670BD00BFFB
:1067D00080100020DFF800F07DE8021000E006E005
:1067E000EFF31180202181F311887047000080F3BE
:1067F00011887047FFF7EEBFF2E7F8E7F0E7F6E73A
:106800000000EDE7F3E70E49C20744BF01230B6028
:10681000820744BF4FF480730B60400744BF4FF4BE
:1068200080320A60704710B5064AC30748BF11603E
:10683000840748BF5160400748BF916010BD000009
:106840000420094018200940F0B5DFF89863DFF80C
:1068500098430546307885B08000FEF769F901005D
:10686000A1600AD04FF6FF77384600F05BFA307827
:106870008000FEF75DF9E06008B913201EE00146D4
:10688000384600F04FFA0FF280400190102100913D
:10689000072304F11402DFF854131020FEF7FCFA6A
:1068A000064600F0B4F9072000900122D04B0FF209
:1068B0006C30E62100F057FB2570F0B205B0F0BD5A
:1068C00018B5010085B00FF25430CA4B0DD0CA4A3A
:1068D0000091116000240494039402940194012215
:1068E000F82100F040FB002008E000F08DF8009156
:1068F00030330222FD2100F036FB012006B010BD2E
:106900002DE9F84787B00C4692460026DFF8EC8266
:106910000FF208390FF21833B34D10B1012821D00E
:1069200031E005F11001AA1C059106920122AF6821
:10693000049003960296019440F22111C3A00090A6
:1069400000F062F9022C4DDA20004BD00598514638
:10695000224600F005FC0698048097F80200F8B97A
:10696000BEA023E005F111012A1D05910692012226
:10697000D5F80C70B7A00496039602960194009087
:106980004FF49671DCE70090049603960296019608
:10699000434603224FF4987100F036F9022030E0AC
:1069A00001280CBF0FF2D0200FF2E42001900496D2
:1069B0000396029608F128033888009001224FF4CC
