:200000004343323678325231FFFFFFFF0301DFFFFFFF0100FF000000FFFFFFFF00010000EC
:200020003030303138D603002C00FFFF03DFFFFF550000000100000000000000000000008E
:200040000000000000000000000000000000000000000000000000000000000000000000A0
:20006000000000000000000000000000000000000000000000000000000000000000000080
:0E0080000001DFFF0000000000000000000093
:20010000003C012091E7020039FB021039FB021039FB021039FB021039FB021039FB021064
:1C01200039FB021039FB021039FB021039FB021039FB021039FB021011FB021001
:200140002DE9F04F0746A848ADF1940D1F900FB1386810B91F9801F04CBA00241C94A34E83
:200160000F9621460B911E911D911B911991179118911A91159116910C9112911391149152
:200180002046109011907868102801F031823E68002E01F02C82BF49BF4D2091BF4C219503
:2001A000BF4B2294706D2393410880F0F6843E6B002E00F0EE8438462CF018FA041C40F084
:2001C000E5843868406D80080AD3386B90F85005012805D1384612F077FC041C40F0D684E8
:2001E00078680F2800F2AE84DFE810F0CE04D802D700C904A2008E006500C5042B00100014
:20020000C104BD04B904B504B304AF04386C046838460CF043F8002840F0B484A07A0528DC
:2002200000F0B780072800F0B480082800F0B180062800F0AE800B2800F0AB80209C00F0AD
:20024000A5BC396C09683868897A0B2931D181690091C0690190D7F8B410386B4FF43F72EF
:2002600002AB091D20F078FC002840F08B843968386BC96900F5DE62009100F234712AF0D3
:2002800091FA002840F07E8416260298D7F8B450C7F8B860001DC7F8BC00102129707868B7
:2002A000401C7860384616F063FF002840F06A84EDE0406D61E0384603F09EFA002840F0C2
:2002C0006184F86E162840F06582396854310868800834BF04200C20D7F8902090420FD1EC
:2002E000786E00780E280BD17868401C78600868810818D338462FF0F4F83868406D12E0CE
:200300000F9C3222803CE5E1386C00683968807A5431401E032809D90838012806D978689D
:20032000401C786008681E9C00F034BC086824E0386C0468384603F05FFA002840F0228433
:20034000F86E162840F021827A6E10780C2817D13868406D81082CBF0C210421A37A0B2B34
:200360000BD1D7F89030386B5118521AD21829F09DFD70B10F982F22ABE1209C00F00ABCE6
:20038000A07A052818BF072840F0FF810120C7F898007868401C786079E07D6E384603F01F
:2003A0002BFA002840F0EE83F86E162840F0ED813868406D4608700874D32878032817D001
:2003C000386BD0F8440538F02DFB386B1099C0F84415386B0E4680F848653868406D460805
:2003E00070085FD30C205EE0008FFFFF0085FFFF16F001020CBF04200C207B6E04A9C61841
:200400001B1803A835F08EF803980328C0F2AF81049B022BC0F2AB81396891F850208242A3
:20042000C0F2A58191F8511018468142C0F29F81B61C786E396F16F8014B801B4018844294
:2004400000F39C81386BD0F8440538F0EBFA0120214638F0DFFA396BC1F844053D6BD5F827
:200460004405002808BF219C00F090833146224626F082FC05F5B76685F8484501201E9918
:20048000786030462FF064FF38462FF02AF81E9878E3C0460094FFFF0081FFFF8091FFFF96
:2004A000808FFFFF0420D7F890102630884200F265812878022840F0618107F10C0107F1CB
:2004C000080016F001060CBF04220C22AD182B46324635F027F83868B96890F852208A426F
:2004E00000F34581FA6890F85330934200F33F8190F850308B42C0F23A8190F85100904261
:20050000C0F23581386BA91C202200F2147026F033FC95F82260202E00F230813868406DC1
:20052000410848082CBF0C220422D7F890009219273282420CD349082CBF0C210421401AF5
:20054000801B262840F01A811E9C05EB060B16E0AA1992F8263092F8274005EB060B54EA63
:20056000032402D0042CC0F0098149082CBF0C210421401A801B001B282840F0FF809BF8E8
:2005800025809BF823009BF82490B8F1000F49EA002940F0E580484636F044FB396C086010
:2005A000386C0368002B00F0D480587A072803D0386B7949C0F8E016D7F830A0DAF85437DA
:2005C000CBB1C6B1F86A0168894514D14168884511D181688E420ED10C3005F123013246EC
:2005E00035F03EFE38B90C20786038460BF056FEB0B150226DE07868401C7860129BCAF835
:200600005437F86AC0F80090F86AC0F80480F86A8660F86A2335324629460C3026F0ACFB25
:20062000FD6AFB683868296850F82300001F4668002E00F08C80B14200F10400F7D108465F
:2006400036F0F0FA39461A4633F0B9F800287ED1B8F1000F7BD1C5F80480002C0BF12805C6
:2006600064D0A878EE7846EA0026301D8442C0F0858028786B7843EA00235B1E44D00A3BFD
:200680002DD0F53B0CD04FF601601B1A48D1012E58D12B79002B55D10120C7F8DC003FE035
:2006A000386C0068807A0B283AD1386BD0F8300538F0B8F9386B1399C0F83015386B0B463D
:2006C000C0F83435386B3246291D2DF023FB38B3282204463846022133F07EFB56E2002E3B
:2006E0004CD02B79981BB0F1FF3F47D1681D4BB3401E10F8011F31F0010202D05B1EF8D14F
:2007000020E0386B81600BE03868406D10F4E07F18D0012E16D12979C0F38210884211D129
:20072000A41BAD19241F05F104050DD1D7F8DC0000287FF4ACAE3868406DC0F30110022839
:200740007FF4A5AE28221AE0032C8AD81BE02F2215E038460221502233F03EFB1F9C15E29C
:20076000384602212F2233F037FB239C0EE238460221462233F030FB229C07E232223846B3
:20078000022133F029FBA64C00E2384602210A2233F022FBA14CF9E10B9103003868866919
:2007A00000F15401002E00F0CA8190F85220BA6090F85320FA6090F85060002E00F0BD818D
:2007C00090F851C0D7F8B43008681C46C0F340020D94614630461B1D37F00DFC3B68DDF868
:2007E00078B0386B596D241DA41C5E4600F2F465890802D3D0F8442582B9D8699B692946F2
:200800000422984738B93B68D8699B692D1D1C222946984710B1002840F0B481386B2022F1
:2008200000F2F461204626F0A7FAF86A85682034102D05D3202D03D8386BD0F8543703B9C2
:200840005D4604F8015B4DB15846F96A0918097B6D1E00F1010004F8011BF6D13868416D4F
:20086000890819D3386BD0F84455002D04BF584604F8010B0FD090F8480504F8010B386B02
:20088000D0F8441590F84825204626F075FA386B90F8480524183868F96850F82150A24601
:2008A000A41CD846D5F80090B9F1000F40F027813246FF2004F8012B08F1010504F8010BA6
:2008C000E9090AF8011B68008AF80000012304F8013BBBF1000F04F8012B5FD03868D7F841
:2008E000B4A0066CA51C04F10809934690460AF5407A307880BB554533D8AAEB050008F1E8
:20090000060181422DD83868D0F840805E4698F8000098B92EB358460A2305F8010BB21CD8
:2009200005F8013B110A05F8011B05F8012B330A05F8013B06F1060B2E7012E036F052F9A2
:200940004188091209F80610807806EB0903B61C08F101085870DAE736F044F9002840F08F
:20096000CA80D7F8B4201E995E46A019801C02F54072904211D8121A062A0ED300F8011B25
:200980000B2200F8012B00F8011B022500F8015B012300F8013B017006217618D7F8B42056
:2009A000DDF87880386B36F00DF9A519AD1C02F5407200284ED1501B04284BDB012005F849
:2009C000010B434605F8013B386BD0F8303513B1D0F8343533BB386881690091C0690190C1
:2009E000386B521B05AB921EA91C12F089FF05F1020978BB0599012038F00CF8396BC1F8BC
:200A00003005D7F830A0DAF8300518B3059A494626F0B2F90598CAF8340511E00089FFFF31
:200A20008086FFFF396BD1F83435501B801E1A46059382420ED8D1F83015A81C26F09CF9B4
:200A40009DF8150005F8010B9DF814002870059800F104083A681E99526D4644A019801C11
:200A600012F4E07F19D0D7F8B42002F54072904213D8121A052A10D30A4600F8012B01214B
:200A800000F8011B00F8012B0D4600F8015B3968496DC1F3821101700521761805D0300AA5
:200AA00004F8010B2670A419641C16260D98D7F8B450C7F8B860241AC7F8BC40012129701C
:200AC0003B687868401C7860586D800802D3384632F05AFE384616F04BFB002852D1386890
:200AE000406D8008FFF409AC384611F0EDFF00283FF403AC46E008F10208761CF9E648467C
:200B000036F090F8396891F8513091F853200E90394632F054FE70B90E9837F061FA4FEA65
:200B200029234BEA000004F8013B8346287808F1010804F8010B2D1DB4E61F9C00E0BA4C04
:200B4000086827E03868406D23E038462DF0D0FE1CE00F2019E0384623F062F912E03846E5
:200B60002BF030FA0EE038461EF0A6F80AE0384635F064FB06E0384634F05AFF02E03846EB
:200B800034F042FF044601E0012078603868406D00E01F9C4008C0F026857868102800F039
:200BA00021853E6B002E00F01D8538462BF01EFD041C40F018853868406D80080AD3386B30
:200BC00090F85005012805D1384611F07DFF041C40F009857868122800F20485DFE810F004
:200BE000FF04D804CA003C02930081005B00380222001300340230022C0228022602220224
:200C0000020502052002386C0068807A052876D0072874D0082872D0062870D00B2840F075
:200C2000A5846CE0386C0468384602F0E5FD002840F0F4813868406D800834BF04230C23F2
:200C4000F86E162824D1796E0878102820D1A07A0B2840F08B84D7F89020386BC918D21AF0
:200C600029F024F990B93968386BC96900F5DE62009100F2347129F095FD002840F0CE81D0
:200C800038460BF00BFB002839D0C7E10F98C5E1C24C00F0A8BC04201626C7F8BC00D7F8A3
:200CA000B450C7F8B8600E21297078683C68401C7860606D800802D3384632F065FD38462F
:200CC00016F056FA002840F0A9813868406D8008C0F0A381384611F0F7FE002800F09D81E9
:200CE0009CE1386C0068807A052808D0072806D0062804D0082818BF0B2840F03784786860
:200D0000401C786089E1386C04210068C7F8BC10807A0B281DD115983E680690B1690091CA
:200D2000F0690190D7F8B410386B4FF43F7206AB091D1FF011FF30B110F5CA4F1CBF169920
:200D4000C7F8BC106AE10699D7F8BC004018C7F8BC001620D7F8B460C7F8B8000C21317062
:200D60007868401C7860384616F002FA002800F0548153E13868416DC1F340022AB1396BFB
:200D800091F84865002E40F00B818669002E00F00281D7F8B430B868F96898461B1D37F032
:200DA0002AF93B68D8699B6908F10404A41C042221469847002840F031813B68D8699B6909
:200DC000241D1C2221469847002840F02781386B08F10601202200F2147025F0CDFF386B6F
:200DE000D0F854671C340EBBF96A8E684EB13868066A36B1806AB04718B9386B0121C0F8D9
:200E00005417386BD0F8546786B97868FE6A401C78602021B1603B68F96AD8699B692022A7
:200E20000C31984750B1F9E0008CFFFF0C20786038460BF033FA002840F0F080F86A007AE4
:200E400004F8010BF86A826800F10C01204625F093FFF86A81684078641804F8010BF86A4A
:200E6000007804F8010BF86A007904F8010BD7F8DC00A51C012810D1FF2005F8010B01264A
:200E800005F8016B179B05F8013B314605F8011B05F8013B2D1BAE1E00E01E9EF96A91F899
:200EA0006050A019801C002D08BF1E9810D0189900F8011B012200F8012B00F8011B154628
:200EC00000F8015BF96A91F860100170F96A05203618086835F0A6FE37F082F8C8B1396B24
:200EE000D1F86017A019801C490838BF1E980FD3199900F8011B0B2200F8012B00F8011B52
:200F0000022500F8015B012300F8013B017006203618386CD7F8B4200068DDF87890807A93
:200F2000A519AD1C02F540720B281CD1012005F8010B4B4605F8013B386881690091C06929
:200F40000190386B521B08AB921EA91C12F0D8FC48B99DF8210005F8010B9DF820002870E5
:200F6000089800F1040916EB090605D0300A04F8010B2670A419641C1620A4EB0804D7F839
:200F8000B460C7F8B8000221C7F8BC403846317016F0EEF863E0D04C25E3C0460084FFFFEE
:200FA000D7F8B430B868F9681B1D079337F023F8079C3868A41CC66A0794002E00F0D682A5
:200FC0002146491C0791D7F8D8500095D7F8A010406BD7F8D43001F22D3207A9B047E8B98A
:200FE00007981626001B0325401E2070D7F8B4100798C7F8B860401AC7F8BC0012230D7055
:2010000038467B6016F0B4F840B93868406D800803D3384611F058FD00B91E988046A8E18F
:20102000D54CE0E238462DF063FCDCE20F20D7E238461DF041FE12E0384635F0FFF80EE0E9
:20104000384622F0EDFE0AE038462AF0BBFF06E0384634F0D9FC02E0384634F0E9FC0446C9
:20106000C1E2891C0A6807F1C600026089888180384623F063FC002840F0868238461FF0A7
:20108000A1FFF96D08784E7846EA0026B6F5407F00F2DD813868406D800834BF05210D21D8
:2010A0003846891915F0A6FF041C40F09C823868406D800839BF1B98786706F10D00F86736
:2010C000386B7C6ED0F8E03632462146384698473868406D450868082CBF0C200420B04232
:2010E00000F2B5812078012840F0B1816378002B40F0AD8168082CBF0C200420A278E17823
:2011000041EA0221711A884240F0A181680821D3786E01793D6B407940EA0120C5F83C056C
:20112000396B431CC1F84035796E8D7985B9CD7975B90D7A65B9481C0322093135F090F8CA
:2011400030B93868406D4508680803D30C2002E0239C48E20420241815F001020CBF042078
:201160000C20361A262EC0F0728107F1080007F10C01234634F0D6F9B868396BC1F85807BF
:20118000F868396BC1F85C073868B96890F852208A4200F3F281FA6890F85330934200F30D
:2011A000EC8190F850308B4204DB90F85100904204DA02E0BB6090F85100F860386BA11CF7
:2011C000202200F2F46025F0D7FD94F82250202D00F2388105F124008642C0F03381F86A00
:2011E00085601E99F86A20220C3028F096FFFA6A02F10C00926804F1230125F0BDFD3868E1
:20120000416D890827D305F123082D1995F8235008EB0501C91C8E421BD3D0F830C0BCF12D
:20122000000F01D195B112E1D7F8D8100091406BD7F8D4302A4608EB0401491CE0470028B2
:201240000CBF1C990121386B80F8481545446D1C02E04622F7E0233528192919027849782B
:201260000D9041EA022102290E91C0F0EB804919C81C8642C0F0E6800E98400880F0E280BA
:20128000881C09198A78511E0F2900F2DB801118491C8E42C0F0D680F96A0B9B4B603968D9
:2012A000496D890824BFF96A4B608018411CB14214D2C21CB24200F2C58022189578507810
:2012C00055EA002502D0042DC0F0BC80761A761B022E04D0B6E0C046008CFFFF1D46641891
:2012E000002D04F1020400F0C980042DC0F0AA80A078E67846EA0026301D8542C0F0A280D0
:201300002078637843EA00235B1E00F0A280093B52D05B1E32D0F53B0FD04FF601601B1AB4
:2013200040F0A280012E40F0C8802379002B40F0C4800120C7F8DC0096E03A6B104635F027
:2013400041FC002840F090801046211D32462CF0E1FC5FEA000807D1386BD0F8601741F0A7
:201360000201C0F860177FE0384602212F2232F033FD404673E6C0468095FFFF386BD0F835
:201380006017002E41F00101C0F860175AD02379981BB0F1FF3F55D1002B04F1050063D070
:2013A000401E10F8011F31F0010202D05B1EF8D15AE0386B816057E0022E04F1060A41D331
:2013C0002179607940EA0128A8EB060010F1020F38D15FEA580035D2386BD0F838358BBBCD
:2013E0004FEA580000F10109B9F10C0F88BF4FF00C090421484637F00DFB5FEA000B06D1F4
:2014000038460221502232F0E7FC219CEBE0386BC0F838B5B8F1000F26D0B9F1020F23D385
:201420009AF800109AF8010040EA012035F041F918B14BF8040BA9F10109A8F102080AF170
:20144000020AE7E732223846022132F0C5FC6A4CC9E0012E06D120790428DCBFF96A81F839
:20146000600001DD2F22EEE7AD1BA4192D1F04F1040403D0032D3FF63BAFE3E7DDF834A0A5
:201480000E980AF1020A401CAAF10201400811F8026F36B94A78FF2A04BF0120C7F8DC008A
:2014A0000DD0401EF3D1D7F8DC00012807D03868406DC0F30110022801D12822C3E7D7F8B2
:2014C0000090FD681E9A59F825800D92D8F8006076B932B938460221282232F07DFC474C67
:2014E00081E038460221282232F076FC444C7AE00E98AAF10204C6F3072B401C430814F83D
:20150000020F834534D1617806F0FF0088422FD1304635F087FB48B3016901228D4212DBF4
:2015200081698D420FDCD9F85410890802D3017FC90808D2817A0B2904D1396BD1F8601759
:20154000890800D30D900D9991B1F86A0660386C0D4605603C687868401C7860606D800871
:20156000FFF45BAD38462DF0BCFF56E5209C3AE05B1EC4D108F10408A8E73846022146225E
:2015800032F02AFC229C2EE01E98F86706467E673846052115F02EFD041C24D1BB6D187850
:2015A00016287FF454AF3868406D5B1C0AA9C0F3400209A833F0B6FF09980328FFF647AFCB
:2015C0003868406D8008FFF45CAD796D087800287FF43DAF487800283FF443AD37E7012003
:2015E000786000E01F9C002C3EF4CDAD00E01F9C204625B0BDE8F08F0087FFFF808CFFFF17
:201600008096FFFF2DE9F04FADF1840D199318920E461790B18B1C912B9B1B932A9A1A9214
:2016200014CA04A880E814004FF4C04028221F78ADF8280030460DF12A0324F0C9FD4FF0F9
:201640000008282840F03384B3480DF1320106AA834628F0F3FF444618B99DF81E0000B1DD
:201660000124A246BAF1010F04D05846414606AA29F0C4FF58460DF1420108AA28F0DEFF97
:20168000444618B99DF8260000B10124A146B9F1010F04D05846414608AA29F0AFFF0498AF
:2016A000059A811C8A4238BF032502D3801C45460490002D40F0FC839DF825109DF81D30EB
:2016C00051EA030516D0BDF82840451C41EA0311AA42CBB244F08004ADF8284038BF0325D7
:2016E00003D3411C049145460370002D40F0E083059A04989DF82A109DF82B409DF82B306A
:201700003C2505EA81059DF82B1014F00F0445EAA1154FF0040113FB01F303F0C0012AD132
:201720009DF82CC0BCF1000F25D19DF82DC0BCF1000F20D103F0C00355EA030414D0BDF8B2
:2017400028300D43411C8A4243F48053ADF8283038BF032503D3411C049105704546002D9D
:2017600040F0A683049858E0BDF8281041F4C051ADF8281052E015BBBDF82830214343F482
:201780000063ADF82830431C9A4238BF032504D304930170059A04984546002D40F0888382
:2017A000811C8A4238BF032506D30BA90988018004984546801C0490002D2ED078E30D43D5
:2017C000411C8A4238BF032504D304910570059A04984546002D40F06B839DF82B10431CA0
:2017E0009A4201F00F0138BF032504D304930170059A04984546002D40F05A83811C8A42A5
:2018000038BF032506D30BA90988018004984546801C0490002D40F04B83059A9DF8301014
:2018200021B1113918BFB1F1180101D1022F10DA9DF83030411C8A4238BF032503D3411C9D
:20184000049145460370002D40F03283059A049805E0BDF8281041F48061ADF828109DF84E
:2018600031502946491E19D03F3912D0BF390BD0431C29469A4238BF032503D3421C049268
:201880004546017085B113E3BDF8280040F4407008E0BDF8280040F4007003E0BDF8280036
:2018A00040F48070ADF828000DF1320035F03AFB002833D10DF1320036F024FBF0B9049CC3
:2018C000BAF1010F14D0059804F11001884238BF032509D30DF132012046102225F04CFADD
:2018E000049C454610340494002D40F0E1821CE0BDF8280040F04000ADF828000AA804ADA8
:20190000189900900DF1320206AB019520F0C6FB051C40F0CD8207E07C5B0020BDF82800E1
:2019200040F04000ADF82800049C9DF84200059DFF2830D00DF1420036F0E4FAE8B90498A9
:20194000B9F1010F13D0059900F11002914238BF032508D30DF14201102225F00DFA049851
:20196000454610300490002D00F0CF80A0E2BDF8280040F00400ADF828000AA804AD199927
:2019800000900DF1420208AB019520F0EEFB051C00F0BB808CE2BDF82800C14640F008005D
:2019A000ADF8280002200DEB000191F842301BB9401C1028F7D39FE09DF84310022902D1AD
:2019C0000E2800F287800C2861D80A2840D85846414602AA29F012FE68BB9DF845009DF895
:2019E0000C10884227D102980DF14601082234F037FC00BBBDF82800A31C9D4240F004003F
:201A0000ADF8280038BF032005D30DF1430000882080A41C40465FEA000972D1201D8542BF
:201A200038BF032005D30DF14E0000682060241D404681460AE004F1100085423ED30DF12D
:201A400042012046102225F097F9103448463FE0BDF828009DF84310631C9D4240F00100C1
:201A6000ADF8280038BF032003D32046641C017040465FEA000944D1601D85421ED30DF132
:201A80004D000168216000792071641D1FE0BDF828009DF84310631C9D4240F00200ADF88B
:201AA000280038BF032003D32046641C017040465FEA000925D1E01C854201D2032007E049
:201AC0000DF14F00018821808078A070E41C404681460FE0BDF828009DF85110631C9D421A
:201AE00040F00300ADF8280038BF032003D32046641C017048468146B9F1000F04BF049436
:201B000005955FEA090540F0D3813046282134F089FF9DF83000022F1D90B8BF4FF0010883
:201B2000C0F2C681CDF88080CDF87C807F1E1597012016901D99049C0598002900F0FE808C
:201B400011391BD0183940F0AF81DDF85880611C884238BF032504D3601CEE270490209DD3
:201B60002770002D40F0A48104A80090189A199B1798314631F081FD054699E1B18BDDF80F
:201B800058800546082202AB3046894624F020FB082840F0CC80BDF80810BDF80A70080621
:201BA000000C40EA212082B222F00F034FF2B001380699424FEA104040EA272080B222D12C
:201BC00020F00F0399421ED1611C8D4238BF032705D32746F3233B70209F491C641C002FD3
:201BE00040F0A680120700F00F008D4240EA126038BF032703D3209F2146641C0870002FC8
:201C000000F0828094E002F47F41B1F5704F4ED000F47F41B1F5704F18D0601C854238BFEA
:201C2000032704D3209F2046F021641C0170002F7ED1201D854238BF032704D302A80068F0
:201C40002060209F241D002F5ED071E0611C8D4238BF032705D32746F1233B70209F491CC1
:201C6000641C002F64D113128D4238BF032704D327463B70209F491C641C002F58D1D2B2FC
:201C80008D4238BF032704D3209F2346491C641C1A70002F4CD1C0B28D4238BF032703D362
:201CA000209F2146641C0870002F2DD040E0611C8D4238BF032705D32746F2233B70209F89
:201CC000491C641C002F33D1D2B28D4238BF032704D3209F2346491C641C1A7047BB0212F4
:201CE0008D4238BF032704D3209F2346491C641C1A70EFB9C0B28D4238BF032703D3209FE7
:201D00002146641C08709FB9A01C854238BF032705D30DF10E0000882080209FA41C3FB9E5
:201D20003046082134F07EFE0494059504E006273046494636F036FE38461DE7B18B81463D
:201D4000022202AB30461E9124F042FA022840F09D803046022134F065FE9DF80830DDF804
:201D600080801F46113F12D0183F10D0601C814538BF032506D32046E02101709DF80830B6
:201D80004546641C002D40F08280184600E0E12004F1010AD14538BF032505D321460AF12B
:201DA000010A4546641C0870002D70D19DF80910062000EBC10087B2B7F5807F64DA4046FF
:201DC0004346B58B8DF80C00002F8DF80D30284608BF42461BD003AB30462946022224F045
:201DE000F7F9022852D19DF80C203AB9B18BB08B6D1CADB2691A8F42EDDC08E09DF80D00EC
:201E00004019801C85B2B08B291A8F42E3DC9DF808303AB1012A07D19DF80D10891C5FFA1D
:201E200081F801E04FF00108718BA7EB0807BFB2C0194044814229DB5FFA87FB1D93D1452D
:201E4000584638BF032503D3209D2146641C0870EDB90BEB040081450BD3B18B30465A463D
:201E6000234624F0B5F9834504BF5C44209D01D0FEE703255DB947443046394634F0D2FDE8
:201E80000494CDF8149006E0012500E006251E99304636F087FD3DB91698159F401C1690F9
:201EA000781E15907FF446AEDDF8588000E006251B9880F80080F5B91A9842680168481C46
:201EC000824208D31A984A1CBDF8287002603A120A7042680168481C824206D31A9A0846C0
:201EE000491C11609DF8287007701A9904A805C881E8050003E01C99304636F053FD2846DC
:201F000021B0BDE8F08F70472DE9F04FADF5967D4490469210464591103035F012F800289C
:201F200000F065844598022102AA33F07DFA18B1173807D000F05BBCBDF8081044980022C1
:201F400033F075FE45980A2140F2011203AB31F02EF8002840F0468446989DF80DB0C18B0B
:201F6000002635460DEB0B078DF80A6008068DF80B50000C40EA212081B207F10E00489051
:201F8000D7484791891235F06DFA002800F02A84DDF81C810DEB0B00BBF1000F0DF10E041D
:201FA00000F10E0900F02D81A01C8145C0F01A8460780019801C8145C0F014842078471021
:201FC0007F1E00F0A0803F1F40F0158122465778002F00F00784967836F07F060CBF0420A7
:201FE0000020801CB84200F2FD83957835F07F050DD1D2F8033003F47F4118061E0A40EA01
:20200000012006F47F41014341EA136101E04AF6AA71002D14BFD078D0794AF6AA728A420D
:202020000CBF00210421BF1C0918091D88B2B84200F2D883A37833F07F030DD1D4F803205F
:2020400002F47F411006170A40EA012007F47F41014341EA126000E010462146002B14BF11
:20206000C91CC91D2246002B01F1010114BFD278D279CDF800B00DF10E0325F0C1FBA0426F
:2020800040F0B0832246234650789F784146801837F07F0700F1020004F102020CBF042581
:2020A00000259F7837F07F070CBFDB79DB78062600275B199B1CDBB2D21801E001271A4667
:2020C000904203D80FB10020064619E0931C984216D353789B189B1C984211D31578B44642
:2020E000BCEB650FEBD1012F0AD05578012D07D955882A06120C42EA252292B29142DDD0C2
:20210000002E78D06EE36078012840F26B83E178CA1DD210931C834200F26483112A80F0BD
:202120006183201D0DF10E025B462FF005FCA04240F05883E07861780027C01D09194FF02C
:20214000060AC5103B463A46BC46891C60192D19001D2D1DA94243D9851CA94247D3457862
:202160002D1805F1020E714541D305786E101CD0B61E32D105786D0803D2012A37D0012270
:2021800004E0BCF1010F32D04FF0010C4578861C4519AD1EB5422AD145882806000C40EAA5
:2021A000252080B2804518D021E005786D0803D2012F1CD0012702E0012B18D00123457818
:2021C000861C45196D1EB54211D145882806000C40EA252080B2804509D170468142BBD848
:2021E00042EA0C0213431F431CBF002082465FEA0A0640F0F78260780019841CA1453FF67C
:20220000D3AE002E40F0EE82CDF800B00DF10A0001904498414600220DF10E0309F046FD91
:20222000489F0DF10E000DF10E0147908F4240F2D48200784010401E00F04C81001F40F03C
:20224000C382479C4498A77890F8FEC037F07F070DD1D4F8032002F47F401106170A41EA83
:20226000002107F47F40084340EA126001E04AF6AA70A77837F07F070CBFE11DE11C002FA0
:2022800001F1010114BFE278E279449BCDF800C025F0B6FA061C40F09C80172700254498EC
:2022A000294633F04DFB18B16D1C102DF7DB01E049950027002F40F00481A07830F07F035F
:2022C00010D1D4F8032002F47F411006170A40EA012007F47F41014341EA126104E0C0466F
:2022E000F45400204AF6AA71002B14BFE278E2794AF6AA7088420CBF002004208018001D80
:2023000081B2449834F03CFD061C00F0D980A37833F07F030DD1D4F8032002F47F4110068D
:20232000170A40EA012007F47F41014341EA126001E04AF6AA702146002B14BFC91CC91D2A
:20234000002B01F1010114BFE278E279374600231D463B70DDF824C17D7033783D464AF613
:20236000AA7703F0010343F00A0387422B700CBF80230023B370B57887420CF00F0343EABC
:202380000503B37004BFF270301D0FD000F47F450306070AF27143EA052307F47F451D4318
:2023A00045EA1065C6F8035006F1080024F0E4FC3046877837F07F070CBF04210021877843
:2023C00037F07F070CBFC079C07837464018801C787020468778A21C37F07F070CBF0421FB
:2023E0000021877837F07F070CBFC079C07840186178801CC0B209191218891C1046062226
:2024000033F05EF9071C5AD078783946801CC5B230462AF0EFF94FF0000800284DD1449892
:2024200090F8FE004019FF2845DA34466078241844982A46A41C214631F06AFD78787988FD
:2024400042462346801E5FFA80F91A704046587020780A0600F0010040F00C001870100CCA
:2024600040EA21204A4681B20806000C40EA2120391D6080201D24F07FFC214609F1020044
:2024800048703878400803D3207840F00100087070784FF0010C37466346401978709DF845
:2024A0000B708DF80A301FB92078400838BFC4468DF80BC001E04FF00308474601E0FEE75B
:2024C00003271EB14498314633F00EF9002F00F07B8187E14799449A8946081D92F8FE3099
:2024E000C9782FF029FA0024061C2BD14846C0780421C01D01EBE001449889B234F040FC0B
:20250000061C08BF032400F0598120462746307099F80320777099F80210F2703078B17005
:20252000D21D09F1040100F00100D21040F002003070301D24F020FCF1780220C91D00EB2F
:20254000E100707099F80300C01D09EBE0052D1D02E068784019851C494648784018801C27
:20256000A84240F22B812878471000F0C680BF1EEFD12978304601F0010135F06DF80746E8
:20258000304635F0FFF905F1020B4FF0000A041C1AD14498B0F8023117210120012282405C
:2025A000134203D0401C1028F8DB09E0449BB3F802210121824681401143A3F80211002128
:2025C0005FEA010801D093E0D04667BB002C14BF00200420449F801D81B297F8FE00401852
:2025E000FF2880F28380374678783F1844980222BF1C394631F08CFC70783146801C4870C5
:2026000000233B701A467A703878194600F0010040F00400387028787970400803D338786F
:2026200040F00100387014BB449890F8FE00F7285CDA34466078241844980422A41C214684
:2026400031F066FC707831460022001D4870F3782270114661702078022200F001006270FD
:2026600040F0060020700AF00F01A170E3702878400803D3207840F001002070A07840F0C7
:202680001000A070A178449801F00F0136F08CFB3846594631F06EFC50BB449890F8FE0062
:2026A000FB2823DA797844980422C919891C31F02FFC7878001D7870707834464FF0010C91
:2026C0006346001D607078789DF80B40DBF800108DF80A303818801E016024B938784008CE
:2026E00038BF4FF0000C8DF80BC001E04FF003085FEA08043FF42DAF60E02978304601F071
:20270000010134F09CFF05F102080024071C22D1449890F8FE00FA284CDA374678783F1850
:2027200044980222BF1C394631F0F2FB70783146801C487023463B7022467A703878214601
:2027400000F00100387028787970400803D3387840F0010038703846414631F0F2FB50BB92
:20276000449890F8FE00FC2824DA797844980322C919891C31F0CCFB7878C01C78707078D8
:202780003146C01C4870787843463818401E1A88997802804FF0010C817062469DF80B301D
:2027A0008DF80A201BB93878400838BFA4468DF80BC000E00324002C3FF4CBAE1EB14498E3
:2027C000314636F0B5F96CB947994878489F4018801C479087423FF62CAD44980DF10A017B
:2027E00036F0DCFA03484599469A34F05FFB4BB0BDE8F08F644800202DE9F04FC84BC74DEF
:20280000046899461968C74EC74FDFF824B3DFF82483DFF824A3607B2A68C44BADF1140DBC
:20282000401E0493352800F2CE81DFE810F0360039003C003F004200D8004500D5004C00D4
:20284000C503B20024025900B0035F00A50366000D026D00F100770098039B00CF01A300D2
:202860007003A8005F03CC00AD014303B2009501B9000803CC00DF02D500D002D800AA0237
:20288000DB003701DE00E1009402F300840219015D02F700400203011501216948680DE064
:2028A0002169C868D4E02169886807E021690869CEE02169486901E02169886909682A4628
:2028C00023F016FEA3E32069C168022008702169096908702169C96908702169096A96E0E4
:2028E000206933680168DB68006941E04FF480703168C9F8000008684DE04FF48070316888
:20290000C9F80000C86B46E0206933680168DB6889690069984721690A694CE021698868F0
:20292000049D096840688A69401C294625F0A8F92069016880688A69406859468018401C61
:2029400025F09EF9206901683768CA68786D00920A6901928A6902928B684A6804462846A7
:20296000594663E0206933680168D86803464046896913E0206935680168E86927E0206984
:20298000016837688B69F86945460446591940464CE030680069034649463846984746E085
:2029A00020693368416A0568DB684868A969984721694A6A5268054608688169104634F0E0
:2029C0005CFF284633E020693568016868698B6904463846D91929E02169086A38E0216966
:2029E000C86935E02169886A32E02169086B2FE02069C169022008702169096A08702169AB
:202A0000496A08702169896A08702169096B08700020FCE220693468E46902E020693468A9
:202A20006469016840698B694068C118A0472FF0A8FEECE2206931680368CE6940699B6957
:202A40004068C118491C401CB04721692A68486909682FF083F9EAE7206941690220D6E781
:202A60002069016837688B694069C9F800304068F96BC0180B464946984705462069016857
:202A8000D9F8003089698B429BD2406932684468926DCF18C91A3819904792E74FF080569B
:202AA0002169D6F80022C86A0968526C40688969904706F5007768BB2169C86A0968406860
:202AC0008A69514625F0DCF82169086A096840688A690499401C25F0D3F820690168006A46
:202AE0008A69406859468018401C25F0C9F8216938680A68C06A11699269034650469847D9
:202B00003868406A80470828FAD0386840688047062813D06FF0060079E2C046247A002006
:202B2000849E0020000200100064024060620240C0620240006502400062024020690168F6
:202B40003C688A68206A0092CA6801928A69029203954B68049975E0206900688369994282
:202B60000AD23068826D5B1AC8191946904720690068D9F8001083694FF080568B4206F5CB
:202B80000072C0F08F808CE02069C1680268486892694146401C25F073F820690168C06854
:202BA0008A694068454651198018401C25F068F82069006880693946420040462FF04DFC93
:202BC00000287FF425AF4FF0FF3020E2206901688A694069514625F053F8206947687FB921
:202BE0004FF080560368D6F800029968006A0091D96801919969029103951A6AD9696FE074
:202C000079680268049F9269481C394625F038F82069016840688A69406859468018401CDB
:202C200025F02EF820694FF080560168D6F800428A68206A0092CA6801928A690292039550
:202C40004B6839465A464CE020690068836999420AD23068826D5B1AC81919469047206946
:202C60000068D9F8001083694FF080568B4206F5007217D315E020690068836999420AD25D
:202C80003068826D5B1AC8191946904720690068D9F8001083694FF080568B4206F5007214
:202CA00000D319461268546B00950269C5E020690169026848689269514624F0E1FF4FF032
:202CC00080562169D6F800020B68006A49699C689A6949680094DC68019402928A18039542
:202CE0005B680446504683E121698868049F096840688A69401C394624F0C2FF2069016802
:202D000080688A69406859468018401C24F0B8FF4FF080562069D6F8002201689269406937
:202D20008B694C6840680094896814460191C11802935B46BCE022694FF080561068D6F841
:202D400000128369096C00955269406852680C461946D2184CE121694868096840688A6940
:202D6000514624F08DFF2169049FC868096840688A69401C394624F083FF20690168C06828
:202D800014E02169486A096840688A69514624F077FF2169049F086A096840688A69401CCF
:202DA000394624F06DFF20690168006A8A69406859468018401C24F063FF4FF08056206976
:202DC000D6F800420168206A04465046BCE02169C868DDF81080096840688A69401C414666
:202DE00024F04EFF20690168C0680DE021694869DDF81080096840688A69401C414624F0C8
:202E00003FFF2069016840698A69406859468018401C24F035FF20694FF080560268D6F88D
:202E2000004253689169A069009392685B46019242460291C919039504463846D8E0216932
:202E40008868DDF81080096840688A69401C414624F016FF2069016880688A6940685946F1
:202E60008018401C24F00CFF21690869096840688A69401C394624F003FF206901680069EC
:202E80008A694068D1198018401C24F0F9FE20694FF080560168D6F800424A688B69A069E8
:202EA0000092896804464046019159460293DB1903959CE020694168026848689269514613
:202EC00024F0DEFE206981698A684868394624F0D7FE4FF08056D6F800022169806B009596
:202EE0000B688A69996993683A46FAE620694FF080560168D6F800424A688B69A0690092B7
:202F0000896842460191D91902939B1893E721698868049F096840688A69401C394624F0DA
:202F2000AFFE2069016880688A69406859468018401C24F0A5FE4FF080562069D6F8004277
:202F40000168206A044640468A680092CA6801928A69029203954B685A46394648E02069C3
:202F600001688A690069514624F08AFE4FF08056D6F80002406B18E04FF08056D6F80002EC
:202F80002269006C009513689B69126954E721692069096880688A694068514624F070FE50
:202FA0004FF08056D6F80002806A216909688B6900950A69194694E6206941680268486826
:202FC0009269514624F05CFE206901688A69C068394624F055FE4FF080562169D6F800028F
:202FE0000968806B8B6904465046009519463A46A047D6F8B001006A014613208847D6F846
:20300000B00100690146132088476FF01F0005B0BDE8F08F2DE9F04F05460846ADF5B67D33
:2030200036F043FA89460146484636F03CFA4FF00008401A87B2A868ADF85881C2A134F03E
:2030400085F9DFB14446102F2CBF10263E1C484636F02BFA0DF5AD723346001981B24846D1
:2030600035F007FE28460DF5AD71F2B232F010FFBF1BBFB2A3199CB2002FE4D1A868B7A122
:2030800034F064F933E39DF800000FF2103B0FF2103AC5A4132800F22A83DFE810F01B0345
:2030A00098028E028B028E010601D000C700A8005500280328032803280351004F001800CB
:2030C000160028031400A6A175E2ABA1AFE0A868AEA134F03BF944469DF80400A04240F333
:2030E0000683284604212CF08FFBA868594634F02DF90DEB8406B71D3988A868C1F34812E0
:20310000DCA134F023F9284606212CF07DFBA868F288DDA102F01F0234F018F928460621E4
:203120002CF072FBA868514634F010F928460A22B91C20F0D1FE641CA4B2CDE7D6A147E2BA
:203140009DF80420DAA1ACE0A868DFA134F0FEF8284604212CF058FBA868019ADEA134F0B5
:20316000F5F8284604212CF04FFBA868029AE0A134F0ECF8284604212CF046FBA868039A97
:20318000E0A134F0E3F8284604212CF03DFBA868049AE1A134F0DAF8284604212CF034FBC4
:2031A000A868059AE1A134F0D1F8284604212CF02BFBA868069AE3A134F0C8F82846042171
:2031C0002CF022FBA868079AE3A134F0BFF8284604212CF019FBA868089AE5A134F0B6F8D9
:2031E000284604212CF010FB099AE8A159E0A868EBA134F0ABF844469DF80400A04240F315
:203200007682284604212CF0FFFAA868594634F09DF80DEB04112846491D22F039FFA8686B
:203220004EA134F093F8671CBCB2E5E7EAA1A86834F08CF89DF804200DF1050150E2A868F1
:20324000E9A134F083F8284604212CF0DDFAA868019AE9A134F07AF8284604212CF0D4FA77
:20326000A8689DF80820EAA134F070F8284604212CF0CAFAA8689DF80920E9A134F066F81D
:20328000284604212CF0C0FAA8689DF80A20E9A134F05CF8284604212CF0B6FAEBA19DF874
:2032A0000B20A86834F052F821E2A868EEA134F04DF8284604212CF0A7FAA8689DF8042041
:2032C000214634F043F8284604212CF09DFAA868E8A134F03BF844469DF80500A04240F3B9
:2032E0000682284608212CF08FFAA868594634F02DF80DEB4406A868B279E2A134F026F8D0
:2033000028460A212CF080FAA868F279E2A102F0030234F01BF828460A212CF075FAF179C4
:20332000A868C1F38102E2A134F010F828460A212CF06AFAF179A8680A11E2A134F006F844
:20334000641CA4B2C8E7C046444941475F4745542E7273702F616E733A2000C00D0A00C0A9
:203360004D6178204368696C642054696D656F75743A2025750D0A004368616E6E656C2038
:2033800050616765733A202700C046C04368696C64205461626C653A0D0A00C02D2000C0EC
:2033A0004D6F64653A0D0A00496453657175656E63653A2025750D0A00C0A868D6A133F0DC
:2033C000C5FF284604212CF01FFAA8689DF90420D5A133F0BBFF284604212CF015FAA86876
:2033E0009DF80520D6A133F0B1FF284604212CF00BFAA8689DF80620D6A133F0A7FF28469C
:2034000004212CF001FAA8689DF80720D6A133F09DFF284604212CF0F7F9A8689DF8082002
:20342000D6A133F093FF284604212CF0EDF9A8689DF80920214633F089FF284604212CF03C
:20344000E3F9A8689DF80A20D1A133F07FFF284604212CF0D9F9A868BDF80C20D1A133F0A7
:2034600075FF284604212CF0CFF99DF80E20D2A117E7C0464368696C6449643A203078256F
:203480003034780D0A00C04654696D656F75743A2025750D0A00C046537570706C79205638
:2034A0006F6C746167653A2025756D560D0A00C042617474657279204C6576656C3A202590
:2034C0007525250D0A00C0464D414320436F756E746572733A0D0A004966496E556E6B6E79
:2034E0006F776E50726F746F733A2025750D0A004966496E4572726F72733A2025750D0AF8
:2035000000C046C049664F75744572726F72733A2025750D0A00C0464966496E556361737E
:2035200074506B74733A2025750D0A004966496E42726F616463617374506B74733A202550
:20354000750D0A004966496E44697363617264733A2025750D0A00C049664F757455636181
:203560007374506B74733A2025750D0A00C046C049664F757442726F616463617374506BBC
:2035800074733A2025750D0A00C046C049664F757444697363617264733A2025750D0A0054
:2035A0004950362041646472657373204C6973743A0D0A008F49019A73E6A868514633F0B3
:2035C000C5FE01A92846042220F086FC8FE080A1BDF8042065E6C0464E6574776F726B2094
:2035E000446174613A2027004C656164657220446174613A0D0A00C0506172746974696F8C
:203600006E49643A203078253038780D0A00C046576569676874696E673A2025750D0A00BA
:203620004461746156657273696F6E3A2025750D0A00C046537461626C6544617461566589
:203640007273696F6E3A2025750D0A004C6561646572526F7574657249643A203078253062
:2036600032780D0A00C046C0526F7574653A0D0A00C046C0526F757465446174613A0D0AC3
:2036800000C046C0526F75746549643A203078253032780D0A00C0464C696E6B5175616C69
:2036A0006974794F75743A2025750D0A00C046C04C696E6B5175616C697479496E3A2025FE
:2036C000750D0A00526F757465436F73743A2025750D0A00A86843A133F038FE01A908228A
:2036E000284632F0D5FBA8680AA133F02FFE484656A96A4603F039F800283FF4C4AC1728F4
:2037000008BF4046014628462FF0A2FB5BB0BDE8F08FC046270D0A00436F6E6E6563746945
:20372000766974793A0D0A00506172656E745072696F726974793A2025640D0A00C046C0E0
:203740004C696E6B5175616C697479333A2025750D0A00C04C696E6B5175616C697479324B
:203760003A2025750D0A00C04C696E6B5175616C697479313A2025750D0A00C04C65616495
:203780006572436F73743A2025750D0A00C046C0416374697665526F75746572733A202519
:2037A000750D0A0053656442756666657253697A653A2025750D0A00536564446174616764
:2037C00072616D436F756E743A2025750D0A00C0526C6F6331363A203078253034780D0AC4
:2037E00000C046C045787420416464726573733A202700C0883400002DE9FE4F0546D5F874
:203800009800002840F0D9833CE010F5C94F05D010F5CE4F29D00020686732E02F6B2C6FFD
:203820000D3417B3E86E16281FD1D7F8A805E0B9D7F87005C0F50040A04216D3B5F87800BB
:203840002146401CC7F8B0050120C7F8AC1535F0E1F8C7F8A80540B1A96D224623F08CFA1E
:20386000D7F870050019C7F870052968286F496D890834BF05210D21401802E0002007465A
:203880006F67E867D5F89070A86EDFF8EC92DFF8EC82DFF8ECB21FB9A8B90020286716E033
:2038A000002840F07A83286FB8429CBF0020286706D9686E2A6FC119D21B2A6732F00AFF47
:2038C0000020C5F89000286F002840F035812868406D800844D3284635F0C4F800283FD173
:2038E0002E6B002E3CD0686800270A2821D00C281FD006F5AF62106800EA900040081BD384
:20390000D6F87C154B788878CE7840EA032346EA03200C30B0F5407F22D828671621E966ED
:203920000346C5F89030686E51681A4623F024FA13E096F8744514B94FF0FF370DE0142004
:203940000124E8666B6E2C67214619703A466A673C46EC673B4686F87435002F00F0EC803F
:203960002868406D430880082BD3286B28B3D0F8A875D0F8AC45D0F8B065F7B1284635F015
:2039800071F8012819D0B5F87800B04215D1A86D296D40F22D36421AB11AA142C0F0FD8236
:2039A0003946224623F0E8F96C670020E867284631F0E2FD2868406D4308580828BF0D217F
:2039C00000D20521284613F015FB002840F0AD80AB6DEF6D18782E68E8663978787840EA36
:2039E00001202867706D5B1C01A9C0F34002684631F098FDEC6E173CB4F1FF3F12D014F149
:203A0000020F0FD014F1030F0CD05CB12868406D4708800880F08580284602210A2230F050
:203A2000DBF97BE0A8680099884277D12868019A90F85110914272DB2A6D696E2E6F40F22B
:203A40002D37891A791AB14269D3406D4708800811D3686D0178407840EA0120B5F87810AF
:203A6000814254D1284620F069FF002852D114B9686810284ED1686B28B9701E40F2FF21A5
:203A800081420AD24DE08068B0424AD8E968002903DD00F58060B04243D378082CBF0D208F
:203AA00005203118284613F0A5FA00283DD12868406D800805D3286F696F0D30E8678142F7
:203AC00001E000206867686B38B128460CF0CEFC60B9286FB0F5407F07D82868406D80086E
:203AE0002AD328461DF06EFA26E040462968496D89081AD310F5E44F18BF10F5E34F14D16A
:203B000069680B2911D00D297FF4B8AE0DE0401A012801D0CC4805E0584603E02868406DB8
:203B2000470840467908BFF470AE10F5CB4F00F0B380002840F04582E86E16284DD12B68B8
:203B40002E6F54331868410880082CBF0C200420B04200F2998048082CBF0C2404242846B7
:203B600034F0F6FD0019C5F890001968890809D2B04232D9B54888E00094FFFF008EFFFF5B
:203B8000809BFFFF6C6E2079637943EA0023284634F0DEFD8246284634F0D1FD074628461D
:203BA00034F0C4FDBA456FD3AAEB070181426BD30C30864268D32F6B57B16868103804D074
:203BC000D7F8401599424AD110B92078012846D1284630F04FF9012854D0E86E14280FD195
:203BE000296F012938D1696E0978012934D12968496D890804D369680A2918BF0C2925D1BE
:203C000015280DD02868406D80084CD3286B002849D06868102846D1284631F081FF42E082
:203C2000286F022818D1686E017802290BD001297FF428AE407818B164287FF423AE32E0AF
:203C4000D748BDE8FE8FD748BDE8FE8F286B00285FD17D48BDE8FE8F4046BDE8FE8FD7F859
:203C6000400598420ED3D7F860051B1AB3F1FF3F06D12078032803D0284635F008FC20B91C
:203C8000D14802E0584600E0404610F5C94F40D010F5CD4F3FF4F6AD10F5CB4F3FF4F2AD10
:203CA000002840F08E81E86E162840F0898168682F6B102807D037B1D7F8E036696ED5F8E5
:203CC0009020284698472868406D8008C0F07881286B002800F07481D7F840050021401C48
:203CE000C7F8400528462DF071FF07F5AF670021491C07F10C004E1C0DC8042E87E80D003C
:203D000007F10C07F4D3384600210C2226F005FA56E1D5F830805FEA08023FF4B3AD002035
:203D2000EF6E0290143F00F03F81BF1E40F03F81D5F89000696EA0F10C0A0B794F79D2F8D3
:203D4000400547EA0327B84200F227813F1A032F00F22D81B80000EBC70014188018D0F80E
:203D6000780504F5AF64400872D2284630F082F84FF0000B012808BF4FF0010B20680AF11E
:203D80000C06B6F5407F20F0020040EA4B00206000F20D81D8F87015B1F5004F00F2FD8067
:203DA000800807D300201AF0070F18BF0120361806EBDA06C1F50041B1421DD2002F40F012
:203DC000F680D5F83090284631F0D6FBD9F87005C0F50040B0420FD20327F9B228462DF012
:203DE000F5FED9F87005C0F50040B04204D27F1EF3D576490291DAE00120314634F00AFE98
:203E00006060002804BF724B029300F0D080A660696E0A688988026003228180801D0021BF
:203E200026F07BF96068411C0A880930028089788170206840F001002060D8F8700580197D
:203E4000C8F870050BE0C0460099FFFF808FFFFF6068042232F004FA002840F0A880206882
:203E6000C00880F0A4806668284634F068FC0746284634F05BFC696E0C3680464246B819B4
:203E80000C3122F079FF20688108C0F081803A4641460AEB060902F007074FEADA0812F071
:203EA000070FCC46C7F1080723D08F424FEAD20311D300293CD003EB0A00305C7A1A4FF0D1
:203EC000010E491E0EFA02F240EA0200C0B2F5D10CF803002BE063441878D219C91B7F1E57
:203EE0004FF0010606FA07F640EA0600C0B2F6D1187011F0070F01F0070011D05318091A10
:203F0000DF0868B167443B78C0F108064FF0010E401E0EFA06F643EA0603DBB2F4D13B70A1
:203F20000CEBD20CCA086046FF2126F0F6F82068B8F1000F4946524608D04B1E474613F8D0
:203F400001CFBCF1FF0F17D17F1EF8D112F0070F10D0D308CB5C02F007020021C1F10706B3
:203F60004FF0010C0CFA06F6334205D0521E01F10101F3D1002701E04FF0FF374FF0000CB9
:203F80000FB94FF0010C20F0040040EA8C0002E0206840F00400206009E04846BDE8FE8F7C
:203FA0008087FFFF8088FFFF012088F87405029800283FF467ACBDE8FE8F0020C5F898002D
:203FC0000020BDE8FE8FC046809AFFFF0096FFFF0081FFFF2DE9F04F064614460F46ADF56C
:203FE000AA7D0AA8529434F051FF606A002800F0D683204690F82800FF2840F0D083B98B4F
:2040000038460C220DF5937322F0E2F89DF82621FF2A07D0002A40F0C2839DF8271115297A
:2040200040F0BD83012500F0BA83002A14BF00210A21891CC9B28842C0F2B183AE4CFF2A81
:2040400000F0288396F90950002D00F0A883002A40F0A5834B9B03F47F4118061D0A40EA07
:20406000012005F47F4143F238350143605941EA136943F2BB55484505F10E0511D043F22F
:20408000DC30B438494604EB00083430221840462AF09AF99DF82621CDF8448108F1340836
:2040A00008E043F2DC30B43804EB0008CDF8448108F11408B98B002A14BF00200A207B8BC4
:2040C000801CC0B24018001D8342C0F06883002A14BF00200A20801CC1B23846491E32F0A0
:2040E000A1FC788B04220DF59973001F81B2384622F06EF8788B001F81B2384620F014FAB3
:20410000002840F04C83529808A91030509033F025FB4A9908A805220DF58B7332F0D2FBD1
:204120008B460AA8414635F001F90DF58B700090B88B7A8B2A210423121A0AA812F0FEF938
:20414000002840F02C8350990AA8102223F0CAFF52990AA8102223F0C5FF0DF227110AA820
:204160000A2223F0BFFFB98B4FF000085391788B884200F371824FF0040A0AA80DF59B7113
:204180000DF59D728DF83AA12CF024F80DF599700DF59B71524632F063F8002840F0FF826F
:2041A00043F238302058484503D25198494628F07DF85399384634F0F5FBB98B0DF23B1374
:2041C0003846012222F004F83846012132F02AFC96F90900401E012810D9801E01280BD896
:2041E0009DF83B010C2809D043F2BB5008A9153020182DF0E7F905E043461CE0304608A9E5
:2042000029F074FC031C16D0987E00F00F00072811D15869484507D0484580F0C082C3F8CB
:2042200014904046D86003E01869584500F2B7820BF1010018619DF83B010F2800F2AF824F
:20424000DFE810F00302F801F601AD02F001AD02AD02E9019101E201DB01D301CE017F0146
:20426000BE00100038461421052206AB2EF09FFE002840F094829DF819000328C0F08F8222
:20428000BDF81B0016210A2202AB051238462EF08EFE002840F083829DF809000828C0F024
:2042A0007E82384615210DF1D20231F0BDF8002840F0758243F23830CC38201834F034FE24
:2042C000071C1BD00DF10A0120F090FC002815DC38460DF10A0120F089FC002840F15F82BC
:2042E00030462946424632F0A5FD509B3046294642461BF097FA52E23018002096F9090065
:2043000001280CD143F2DC30205C854207D143F2DA30BDF8D270215A8F4200F0408296F978
:204320003500012820D1BDF80A10039C0806000C04F47F47002240EA212080B203002106FF
:2043400041EA0720270A07F47F41014306F5887741EA1461891842EB030297E81800944201
:2043600008BF8B4280F01B82BDF80A10039C86F80B510806000C04F47F47250A40EA2120E2
:2043800080B20300210641EA072005F47F41BDF8D250002206F588770143A6F80C5141EA59
:2043A00014613046891842EB030287E80600012134F027FC06F13C00FA2133F014FDEEE110
:2043C000304634F08FF9002840F0B28096F90900401E0ED0401E40F0AA8006F10C009842C8
:2043E00040F0DD8196F8260000F00F00072811D0D5E1394602AA34F0D3FE002840F0CF81EE
:2044000096F8702006F1680102A833F0C8FD002800F0C581384611214FAA32F0D3FA00286E
:2044200074D0384601210DF23D1232F0CBFA002840F0B58196F834009DF83D11884240F036
:20444000AE8196F90900401E02D0401E27D05CE03846052131AA2EF01DFF002840F09F81A3
:204460003846082132AA2EF015FF20B1173840F09681319832903198329BB06196F826201A
:20448000F36102F0F00040F0070086F8260034F045FD014630460EF02FFA01203072384680
:2044A000414634AA30F0C0FF002840F0788134F035FDBDF8D0108912B1EBA02F26D1529A93
:2044C000304639460BF098FA002840F068813846022133AA2EF0DEFE10B1173803D05EE17F
:2044E0003398C6F8F80096F8340000090AD2193D4146601931F09AFFC83D414660192BF064
:2045000033F906E0E13D0121F8E7FEE730462AF037F896F97A00022840F04181404686F89D
:20452000790086F87A0030462BF00EFA37E1FEE7529A0093ED1D39464B46601915F064FEFB
:204540002DE1304634F0CEF828B9529A304639460BF030F823E1529AED1D39464B46601985
:2045600009F072FD1BE1002B00F01981987E00F00F00072840F01381529A304639460BF03E
:204580003BFA96F97C00002840F0098196F83400000980F0048143F2BB50215C31F0030058
:2045A00000F0FD80FC2980F0FA8001F0FC0001F00302FC3043F2BB5100F0FC001043C0B27E
:2045C000605430F0030040F0EA80605DA5F11907012100F00F006055E01923F098FBDEE0C4
:2045E000304639460CF050FBD9E0529AED1D39464B46601908F0A0FED1E0529A304639461F
:204600004B4603F0C1FFCAE0529AED1D3946601908F0DCFBC3E0529AED1D394660191BF053
:2046200001FFBCE0529A3046394614F055F8B6E001208046529A00934046ED1D39464B4610
:204640000190601906F08EF9A9E0529AED1D3946601916F054FBA2E0384640220DF1D603CE
:2046600021F0B6FD8246CDF800800DF1D6010DF1D6020AA8534617F03BFAB98B38460DF177
:20468000D603524620F0A4FE3846514632F0CAF9B98B6CE53846022132F0C4F99DF826012C
:2046A000FF2814BF9DF931019DF92701103802D0401E6FD073E043F2D05004EB000840469E
:2046C00033F068FA00286AD0002338461A2135AA00931FF0D1FE002861D1BDF8D41007AB22
:2046E0003846022221F074FDBDF8D4009DF81D60801C81B27018ADF8D410801C85B28D4279
:2047000041DD44F24C3943F2E436BDF8D41006AB3846022221F05CFD9DF81800801E16D0EA
:204720007E3825D1BDF8D41005AB3846042221F04FFD9DF81500012831D99DF816000009F2
:2047400016D304EB09002EF031FE88B927E0BDF8D41038460A2202AB21F03AFD9DF809000D
:2047600007281CD9A0190DF10A0133F0A9FFB0B9BDF8D4109DF819004018801C80B28542EB
:20478000ADF8D400C1DC5299FA8C4046103111F083F804E0529A3046394609F09BFD0AA847
:2047A00034F07AFB55B0BDE8F08F70472DE9F04F8246ADF5FE7DADF1400D9898DAF8004019
:2047C0008790DAF800001F4616460D4634F0B6FF8697859601468D95002089908390849002
:2047E000829009198891204601E0DAF800008899814240F2B5830778849C4FF0FF36252F9E
:20480000A34613D0002F00F0AB83DAF80010869A0078491CCAF8001085999047DAF8000007
:2048200089990778491C252F8991EBD1DAF800008D9D5146401CCAF8000010E044F010045F
:204840000AE044F0010407E044F0020404E044F0080401E044F004040868401C086008682F
:2048600000782038F6D0C01EF1D00838ECD0801EE7D0C01EE2D00F46386801782A2917D07A
:20488000302901AA0ADB3A2908DA0146401C3860097802F8011B01783029F4DA584610705A
:2048A0009DF80430B3B101A82BF006FD834611E0ED1C25F003052D1D55F804BCBBF1000F12
:2048C00044BFCBF1000B44F00104386829468D91401C3860386801782E2929D1401C386056
:2048E00001782A291AD0302901AA0ADB3A2908DA0146401C3860097802F8011B0178302930
:20490000F4DA839810709DF80400002808BF849802D001A82BF0D0FC064609E03868ED1C4A
:2049200025F003052D1D401C8D9555F8046C3860DAF800100878683814D0801E26D0801E25
:2049400004D008381FD0801F1AD026E0491C0878CAF800106C2818BF44F040041DD144F405
:20496000807415E0DAF80010491C0878CAF80010682818BF44F020040FD144F4007407E083
:2049800044F4805404E044F4005401E044F40064DAF80010491CCAF800100F78DAF80000AC
:2049A0006E2F00F10100CAF8000000F0A082732F00F0FA810DF20120819020214FF4FF7261
:2049C00001A825F0AAFBDDF8109281980DEB0B010DF5007CCDF828924A46CDF82C9201F1DE
:2049E00004080270B7F12500CDF804C200F0CB8133380FD00B3800F02681401E0AD0401FEA
:204A000008D0801F012805D9801F18BFB0F1030040F02B81002E54BF24F010040126B7F1EA
:204A2000580007D0173807D0401E03D0083818BF0A2202D1102200E00822702F8C9200F0F1
:204A4000AC8043F66072484649462240203A00F08780203A76D0C03A5ED0B2F5807246D0D8
:204A6000B2F5C06235D0B2F5006224D0B2F5805213D0B7F1580200F090800C3A00F08580D2
:204A8000521F00F08280921F00F08780921F00F08480D21E00F0818087E0B7F158027CD0D0
:204AA0000C3A72D0521F70D0921F76D0921F74D0D21E72D079E0B7F158026ED00C3A64D08C
:204AC000521F62D0921F68D0921F66D0D21E64D06BE0B7F158022DD00C3A2BD0521F29D04A
:204AE000921F27D0921F25D0D21E23D05DE0B7F158020AD00C3A48D0521F46D0921F04D002
:204B0000921F18BFB2F103024FD1ED1C25F003052D1D15F8040C46E0B7F158020AD00C3A70
:204B200008D0521F06D0921F04D0921F18BFB2F103023AD1ED1D25F007050835A5F1080090
:204B400003C831E0B7F1580227D00C3A1DD0521F1BD0921F21D0921F1FD0D21E25D11CE0CD
:204B6000B7F158020AD00C3A0FD0521F0DD0921F04D0921F18BFB2F1030216D1ED1C25F02C
:204B800003052D1D35F8040C0DE0ED1C25F003052D1D55F8040CC11706E0ED1C25F00305E8
:204BA0002D1D55F8040C00218D95F31751EA030540EA060308BF002B01D1230955D3642FE0
:204BC00018BF692F08D1002906DA012540424FF000038B9563EB010181AB8C9A00933B46C4
:204BE0001FF040FB401C86420ADB361A761C8198302101708198761EA0F101008190F6D18E
:204C0000782F03D0582F18BF702F0FD120090DD3702F0CBF7820381C819908708198401ED5
:204C20008190302606708198401E81906F2F1CD120091AD381984178302916D0302101709B
:204C4000DDF804C20EE0ED1C25F0030516462D1D15F8043C8D9503B9012624F00204B1469C
:204C60008DF800326046401E81908198752F00F1010122D06F2F20D0782F1ED0582F1CD030
:204C8000702F1AD004F002028B9E8A921EB9A20807D32B2200E02D2202708198491E401E27
:204CA00081908A9D2E4308D1E00806D38198202202708198491E401E819060080CD2819D91
:204CC000ADEB050000F20120834505DB01A82D1A4544A5F5FE7500E001AD849A28464FF499
:204CE000FF7332F03DFCB9F1000F819004D0829901708198401C8190804509D3A8EB000201
:204D00002021401E521C25F008FA829888F8000060092BD301A8A8422FD001A82A1A30219E
:204D200001A825F0FAF98B9E8A9B04F0040006431E4308BF0DF1050007D0287830218DF8BB
:204D400004000DF1060005F8011B782F03D0582F18BF702F01D1210903D2612F18BF412F13
:204D60000BD16978017030276F7006E001A82D1A20212A4601A825F0D0F901A834F0DEFC1A
:204D800002464A4404E079A00188012201AF3980879B859901A89847B0F1FF3F00F09E8076
:204DA000899909188991D6E0E00949D2DDF81492ED1C25F003052D1D55F8048C8D95B8F149
:204DC000000F3BD0002E06D4404634F0B7FCB04288BF301C02D8404634F0B0FC05465D45B2
:204DE000B4BF5F46071C8998AF42384489900ADD600808D27E1B002E05DD869A2020494610
:204E00009047761EF9D1002D07DD2E46869A18F8010B49469047761EF8D1AF4240F39B809A
:204E20006008C0F098807F1B002F40F39480869A2020494690477F1EF9D18CE0494652E0D8
:204E4000DDF81482ED1C25F003052D1D55F8047C8D95002F46D0002E06D4384633F081FC1D
:204E6000B04288BF301C02D8384633F07AFC05465D45B4BFD94681468998A94548448990C2
:204E80000BDD600809D2A9EB0506002E05DD869A202041469047761EF9D1002D0BDD2E4693
:204EA000BF1E37F8021FC8B2884213D1869A41469047761EF5D1A9454DDD60084BD3A9EB93
:204EC0000507002F47DD869A2020414690477F1EF9D140E034F0D1FA582101604FF0FF30F7
:204EE00089903DE04146869A8498904733E043F660702040203825D0E0380ED0B0F580708E
:204F000017D0B0F5C06008D08999ED1C25F003052D1D55F8040C01601CE08999ED1C25F081
:204F200003052D1D55F8042C0846C91782E8030010E08999ED1C25F003052D1D55F8040C28
:204F4000017007E08999ED1C25F003052D1D55F8040C01808D958998B0F1FF3F7FF445AC03
:204F600089987FB010B0BDE8F08FC046250070472DE9F04F89468046B9F804001F461646BB
:204F8000ADF1240DF8B10846002569468DF8085029F08CFE9DF90800012805D1BDF80000A5
:204FA0004FF6FF71814200D06DB198F80500401CC0B288F8050020B908F13C0031F0E2FC96
:204FC0001DE388F8055098F90200401E00F00C83801E00F0FD82984D401E00F02B82401E41
:204FE00000F0A980401E03D0801E00F0F682EEE2B9F8040028B1D9F8000000788009C0F081
:2050000099808FB986B198F8000040080CD330680078400908D308F17400642132F0E3FE18
:205020004046072127F0DAFED8F8A000401CC8F8A000404634F06BF942F2D05343F2C856EF
:20504000EC180020725D8DF808005008C0F0C882B9F8040058B14846694629F027FEA6F1AE
:20506000E0003A4649466B46281822F07FF9A6F118002B1832F012FA807E10F00F0F51D069
:205080000020B7B10B3F42D03F1F40D094F8F91F01F0F002491C01F00F01114384F8F91FE9
:2050A00001F00C01042925DA94F8F81FCA081ED22FE094F8F91F31F00F0714D001F00F0291
:2050C00001F0F001F03101F0F0011143CFB284F8F97F37F00F0706D194F8EB0F00F0030095
:2050E00084F8EB0F012094F8F81FC90802D2012813D075E294F8F80F00F0FB0084F8F80F6D
:2051000094F8F90F00F0F00084F8F90F05E094F8F81F41F0040184F8F81F1846012122F0B4
:20512000F6FD5DE218462EF04FFC0836A81929F027FA55E2FEE7D8F89C00401CC8F89C00FD
:2051400027B1D8F8B800401CC8F8B800404634F0DEF843F2A85A5246AE1833685AF80540D4
:20516000002B00F04081AE180020002C30600CBF062004F136000078C00980F01881381CF7
:205180005CD00B380ED0C01E02D0401E0AD0FEE794F8360000F0E001401C00F01F000843AC
:2051A00084F83600002C14BF04F1360006200078C3112BD1002C14BF04F1360006200078DD
:2051C00000F01C0004281CDAB9F80430CBB1D9F80000807884F83500D9F800000078000974
:2051E000C0F00181484603A92EF08EFD039804A92063484630F0CCFB9DF8100084F8340005
:20520000F1E094F8360000F0E0001FE094F83600002C00F07F0084F8360000F0E00084F8D1
:20522000360014BF04F12D0005200078C71100F0DA80121FD3E0C0463018002094F8360070
:2052400000F0E00084F8360000F07F0084F83600A06A43F2AC530690E818028810F8080C31
:20526000002800F0C08087B10B3F03D0FF1E012F00F29C80069F94F82D10002F01F0BF01D8
:2052800084F82D1075D039464A8B069F002F70D03946498B914264DC0023601B43F2EC7112
:2052A0007C278DF808301A46002CA0EB0100A26290FBF7F080B2079014BF04F12D0105211B
:2052C000097804F124008022C1F3801131F00AFB43F2AC5021460122C01F2818059028F0A0
:2052E000D5F9B9F804701FB14846694629F0DEFCDDF818B00BF1280B9BF8009019F0030FB1
:205300000ED1002C14BF04F12D0005200078C00934BFAAF14C00AAF154004159491C4151CD
:205320000698079931F092F948B10698079931F089FB059821462CF083FB9BF800905FEA9D
:20534000D91016D2069832F04AFA90B9069FAAF1A4003946281829F028FC384633F054FF5B
:2053600007E0A18DC2F30D0201F440410A43A28508E043F2AC572146083FE8192CF03FFB45
:205380002846385C78B36846052232F021FDAAF10404029939B3C88D6FF39F3010B1281919
:2053A0001FF01EFE68462BF093FAF2E7FEE794F83600002C00F0BF0084F8360000F07F00F0
:2053C00084F8360000F0E00084F8360014BF04F12D0005200078C01105D0AAF10402A81800
:2053E00021462CF00CFB6846012232F0F1FC0EE090F83610890907D3376827B1BA68816899
:20540000891A090800D3306068462BF061FA02980028EDD13068002800F0E28090F83610F1
:2054200043F2D43701F0DF0180F83610E81932F020F9D5E0D8F89C00401CC8F89C0027B1B0
:20544000D8F8B400401CC8F8B400404633F05FFF00208DF808000646059637B10F2F04D063
:205460000B2F18BF0E2F40F0B18043F2395B314605EB0B00C67A0170002E00F0B180B9F891
:2054800004002C4660B14846694629F00FFCABF151003A4649466B46201821F067FF059033
:2054A000ABF11D0904EB09010868002800F0838000F128021378DB09C0F0878047B190F8E5
:2054C00029C00CF0F70C80F829C0438B21F8023CABF11F056319418B1E88B1422ADC10782F
:2054E00000F0BF001070D3F80200002133F05AFA059848B1D3F8021091F8291024308022ED
:20550000C1F3C00131F0EEF9484621180E6896F8287017F0030F14D196F82900000903D218
:20552000086C401C08640CE005F13A010859401C085106E0314633F035FA4846065996F8D2
:205540002870C7F3830ABAF1020F2BD0F80932D2304632F044F970BBBAF10A0F12D1F81100
:2055600010D005F1EB00201890F90010062909D1012105F1B60780F84810E01913F05EFD94
:2055800048460659163D3146601929F00EFB4F46E619306833F038FE00203851054626F822
:2055A000025C08E0174801212E3D01704FF49671601932F018FC13480B30007880B10BF114
:2055C0000300201830F0BCFD0AE0FEE7FEE7FEE7D8F8A400401CC8F8A400404633F097FEAC
:2055E000404616F0D3F80AE0D8F8A800B8F82A10401CC8F8A80008F1740032F0F4FB09B00D
:20560000BDE8F08F694D00202DE9F0410F1C04464FF0000600F00C8115688CA1284632F0D8
:2056200061FB0FF22C28002840F0B680012F13D0022F40F0FB802846414632F053FB0028AF
:2056400040F0F480D4F8200143F2584188224018314624F062FDF3E0D4F82021A06843F2E2
:20566000584155188A587CA131F070FEA0686A687DA131F06BFEA068AA6880A131F066FE54
:20568000A068EA6883A131F061FEA0682A6988A131F05CFEA0686A698AA131F057FEA06849
:2056A000AA698FA131F052FEA068EA6991A131F04DFEA0682A6A95A131F048FEA0686A6A28
:2056C00097A131F043FEA068AA6A9CA131F03EFEA068EA6A9EA131F039FEA068AA6BA1A128
:2056E00031F034FEA0682A6CA3A131F02FFEA0686A6CA8A131F02AFEA068AA6CA9A131F02E
:2057000025FEA068EA6CACA131F020FEA0682A6DAFA131F01BFEA0686A6DB2A131F016FEEC
:20572000A068AA6DB5A131F011FEA068EA6DB8A131F00CFEA0682A6EBCA131F007FEA068B6
:205740006A6EBFA131F002FEA068AA6EC3A131F0FDFDA068EA6EC9A131F0F8FDA0682A6FD0
:20576000CCA131F0F3FDA0686A6FD0A131F0EEFDA068AA6FD6A131F0E9FDA068EA6FDCA1D0
:2057800031F0E4FDA068D5F88020DEA131F0DEFDD5F88420E0A145E02846E5A132F0A2FA4E
:2057A000002843D1012F0DD0022F3FD12846414632F098FA002839D1D4F82001122200F56E
:2057C0005C5045E7D4F820114FF45C52A068525A01F55C55D7A131F0B9FDA0686A88DAA1E4
:2057E00031F0B4FDA068AA88DCA131F0AFFDA068EA88DFA131F0AAFDA0682A89E1A131F033
:20580000A5FDA0686A89E4A131F0A0FDA068AA89E7A131F09BFDA068EA89ECA131F096FD70
:20582000F4A12A8AA06831F091FD09E0072607E0A068F6A131F08AFDA068F6A131F086FDE1
:20584000204631462DF004FBBDE8F0816D616300726573657400C0465478546F74616C3AD5
:205860002025640D0A00C046202020205478556E69636173743A2025640D0A0020202020C5
:20588000547842726F6164636173743A2025640D0A00C04620202020547841636B52657126
:2058A0007565737465643A2025640D0A00C046C020202020547841636B65643A2025640D8A
:2058C0000A00C0462020202054784E6F41636B5265717565737465643A2025640D0A00C034
:2058E000202020205478446174613A2025640D0A00C046C020202020547844617461506F9D
:205900006C6C3A2025640D0A00C046C0202020205478426561636F6E3A2025640D0A00C0A1
:20592000202020205478426561636F6E526571756573743A2025640D0A00C046202020206A
:2059400054784F746865723A2025640D0A00C04620202020547852657472793A2025640D27
:205960000A00C0462020202054784572724363613A2025640D0A00C02020202054784572DE
:2059800072427573794368616E6E656C3A2025640D0A00C05278546F74616C3A2025640DC1
:2059A0000A00C046202020205278556E69636173743A2025640D0A002020202052784272BE
:2059C0006F6164636173743A2025640D0A00C046202020205278446174613A2025640D0A2A
:2059E00000C046C020202020527844617461506F6C6C3A2025640D0A00C046C02020202046
:205A00005278426561636F6E3A2025640D0A00C0202020205278426561636F6E526571758B
:205A20006573743A2025640D0A00C0462020202052784F746865723A2025640D0A00C046CE
:205A40002020202052784164647265737346696C74657265643A2025640D0A00202020208D
:205A60005278446573744164647246696C74657265643A2025640D0A00C046C020202020E2
:205A800052784475706C6963617465643A2025640D0A00C02020202052784572724E6F460D
:205AA00072616D653A2025640D0A00C02020202052784572724E6F556E6B6E6F776E4E65B4
:205AC000696768626F723A2025640D0A00C046C0202020205278457272496E76616C696451
:205AE000537263416464723A2025640D0A00C0462020202052784572725365633A20256492
:205B00000D0A00C02020202052784572724663733A2025640D0A00C0202020205278457264
:205B2000724F746865723A2025640D0A00C046C06D6C6500526F6C652044697361626C658D
:205B4000643A2025640D0A00526F6C652044657461636865643A2025640D0A00526F6C6597
:205B6000204368696C643A2025640D0A00C046C0526F6C6520526F757465723A2025640D3E
:205B80000A00C046526F6C65204C65616465723A2025640D0A00C046417474616368204140
:205BA0007474656D7074733A2025640D0A00C046506172746974696F6E2049642043686121
:205BC0006E6765733A2025640D0A00C042657474657220506172746974696F6E20417474D5
:205BE00061636820417474656D7074733A2025640D0A00C0506172656E74204368616E67E2
:205C000065733A2025640D0A00C046C06D61630D0A00C0466D6C650D0A0070472DE9F04F3D
:205C2000888B864D0024ADF58E7DA2464FF00108801C4593A346449286B2439150464690D2
:205C40001BE000018DF801004498694602222EF027F858B939460F6847B14498394610224A
:205C60002EF01EF810B97F69002FF6D1041C40F0A082761C0AF1010AB6B2459840785045AD
:205C800040F2978243983146424642AB20F0A0FA012840F08D829DF8080109280AD90E38E8
:205CA0000128E6D9801E4CD0401E00F05282801E0CD07DE2DFE810F0380222021002EC0123
:205CC000DA01C001950178016D02C400E64843F2D051401832F006FD0028CAD068465A46D5
:205CE00032F076F85F464FF017090AE0817E890904D2006F874238BF071CD94668462AF086
:205D0000E7FD02980028F1D1B9F1000FB1D1132007F47F413B063A0A8DF80000042443EA93
:205D2000012002F47F41014341EA1761CDF8021044998DF80140684630F0E4FE041C98D0F3
:205D400037E2C94843F2D051401832F0CBFC00288FD010218DF8041058468DF802008DF887
:205D60000500C14FADF800B043F2E871781830F042F80446542C88BF5424032014FB00F096
:205D80008DF80500449801A902222DF089FF071C4FD102A85A4632F01BF802E002A82AF0C2
:205DA00097FD049A002A44D02346581E002B84B23FD017463A6F594601E0491CC9B208FABC
:205DC00001F08242F9D8BDF8002002F0F9004FF40053000202F47F4280B242EA202290B24C
:205DE00003EBC122010202F4784201F4E06100F47F400A4340EA222080B2ADF80000398BE2
:205E0000000280B2C0F34E20420201F4807010430906090C41EA2021ADF80010B87E001125
:205E20008DF802004498032269462DF039FF071CB4D03C1C3FF41DAFBBE1C046C04C00200A
:205E400068465946262224F068F9242705F1280209208DF80170136857698DF800001C0AC8
:205E600003F47F41180640EA012004F47F411469014341EA1361E0199369D769146AC0185F
:205E8000536ACDF80210C0190019C01805F138040106070A00F47F4241EA022107F47F429B
:205EA0000A4342EA1062CDF8062054F8382C2F4602F47F41130A100640EA012003F47F41FC
:205EC000014341EA12613B463A69CDF80A1002F47F411006140A40EA012004F47F410143AC
:205EE00003F11000436841EA126107F11400C769CDF80E1019061C0A03F47F4241EA0221EB
:205F000004F47F4284690A4342EA1362E119036ACDF812202C46C818010600F47F42070A70
:205F200041EA022107F47F420A4342EA1062A74FCDF8162004F12C0050F8602C02F47F41D0
:205F40001006130A40EA012003F47F41014307F1460041EA12613B464268CDF81A1002F4DC
:205F60007F411006140A40EA012004F47F41014303F14A0041EA1261826BCDF81E1002F434
:205F80007F411006170A40EA012007F47F41014341EA1261CDF822104499684630F0B2FDD1
:205FA000041C3FF466AE04E10720FF278DF800003C4659460DF102020DF209138DF801708F
:205FC0007E488DF809412DF08EFB9DF8090144998DF80100684630F095FD041C3FF449AEDA
:205FE000E7E0774832F044F908278DF8017006218DF8001003681C0A03F47F42190641EA48
:20600000022104F47F420A4342EA1362CDF8022001798DF8061041798DF8071081798DF8E5
:206020000810C07944998DF80900684630F06AFD041C3FF41EAEBCE0052048278DF800009B
:20604000594608228DF801700DF1030024F065F85B48694617F04CFF4499684630F052FD71
:20606000041C3FF406AEA4E03018002004200A278DF80000694652488DF8017011F0ACFA6D
:206080004499684630F03EFD041C3FF4F2AD90E04C4890F8340F0009BFF4EBAD494C03204D
:2060A000D4F8F82F8DF80000042702F47F41130A100640EA012003F47F41014341EA126170
:2060C000CDF8021044998DF80170684630F01AFD041C3FF4CEAD6CE0022047468DF80000E3
:2060E000394C8DF80170207844998DF80200684630F008FD041C3FF4BCAD5AE040468DF855
:20610000000002278DF8017032F008FF0106090C41EA2021ADF802104499684630F0F2FC5F
:20612000041C3FF4A6AD44E0584608278DF8000026498DF801700A680DF102042260496835
:2061400061604499684630F0DDFC041C3FF491AD2FE0112047465A468DF8000008218DF8C9
:206160000170104608FA02F35B0804D30DEB0003401C9A70C0B2491E02F10102F2D1449957
:206180008DF80100684630F0BDFC041C3FF471AD0FE00F4F08208DF801B039688DF80000B0
:2061A000584600293FF44DAD4969401CC0B2F8E70624204647B0BDE8F08FC0467C5B0020E4
:2061C000004E0020003F0020344E0020464C0020C84700202DE9F04F8346ADF1340D154617
:2061E000002616980A930F1C0B9000F0A3812C68AAA1204631F076FDDFF8A892DFF8A88269
:20620000002867D1022FACBF2D1D351C484600780724012840F0C580022FC0F2C280286863
:20622000B5A131F05FFDDFF8DC9200282ED1032F07D16868B2A131F055FD374600B9012721
:2062400000E037464D462878022802D02878012812D1444629782069022904D1B4F906108F
:2062600033F07CF82069394623F05EFE608110F1020F08BF012600E00D26341C40F091808B
:20628000002F14BFB3A3B6A3B8A286E02868AFA131F028FD002840F084804D4628780228AE
:2062A00002D0287801280CD144462069B4F90A1033F054F82878022804D1206929F084FC5C
:2062C00000E00D26341C6CD10A980B99AFA22AF0B1F866E02046B4A131F004FD002862D146
:2062E000022FACBF2D1D351C0724A846022F58DB4D46D8F8000095F800907FA131F0F2FC3B
:2063000000BBB9F1000F1BD06878C8B9A878B8B9032F07DBD8F8040005A930F037FF041C20
:2063200001D03EE0059633466B81BDF81470AF81012068706B829EA22B823446EB812CE040
:206340000D242EE0D8F8000080A131F0CBFC40BBAB89B9F1000F24D06F8A7BB92A8AEC89F3
:20636000002F08BF642010D0B81802EB040C6421001901FB0CF191FBF0F006E02A8AEC89E4
:20638000D91B6420484390FBF3F06E7000970192029493A20390344604940A980B992AF0B4
:2063A00049F8264660E02046B3A131F09BFC00287CD1022FACBF2D1D351CA7F1010A072404
:2063C000A846022FC0F2AE804D46D8F8000095F8009049A131F086FC002847D1B9F1000FB8
:2063E00059D0AC78002C56D16C78002C53D1032F07DBD8F8040006A930F0C8FE041C02D05A
:2064000090E01E200690BAF1020F07DDD8F8080007A930F0BBFE041C02D083E064200790C7
:20642000BAF1040F07DBD8F80C0008A930F0AEFE041C01D076E008960120A870BDF8187008
:20644000EF80079C6C61BDF820302B81AE802EF0D3FE01462246584626F0FCF889A2334694
:206460000A980B9929F0E6FF34465BE0D8F8000036A131F037FC002854D1B9F1000F0AD048
:20648000A87840B134465846AC702FF0F9FA0094AB8888A2E4E70D2444E0C046746F6E65D8
:2064A00000C046C0D09D002058970020204693A131F018FC002837D1022FACBF2D1D351C44
:2064C000032F2ED1686809A930F060FE041C29D12D6809A1284631F005FCA8B128461BA11F
:2064E00031F000FCE8B940469DF82410067020F0F5FB84A210E0C046737461727400C046C9
:206500006D6F6400D57E00209DF8241020F0E6FB0121404680A201700A980B9929F08AFFEB
:2065200000E00724264605E00A980B997FA2234629F080FF2EB10A980B9986A2334629F0B8
:2065400079FF30460DB0BDE8F08FC04673746F7000C0C0466D6F64756C6174656400C04615
:20656000756E6D6F64756C6174656400636F6E74696E756F757320257320746F6E65207301
:206580007461727465640D0A00C046C0636F6E74696E756F757320746F6E652073746F7087
:2065A0007065640D0A00C04672656365697665007061636B657420726563657074696F6E41
:2065C00020697320737461727465640D0A737461747573203078253032780D0A00C046C049
:2065E0007061636B657420726563657074696F6E2069732073746F707065640D0A726563CE
:206600006569766564206672616D653A203078253034780D0A7265636569766564204F4B27
:206620003A203078253034780D0A7265636569766564206E4F4B3A203078253034780D0AB7
:206640006C6F73743A203078253034780D0A5061636B6574204572726F7220526174653AF6
:2066600020256425250D0A737461747573203078253032780D0A00C07472616E736D69745C
:2066800000C046C07061636B6574207472616E736D697373696F6E20697320737461727428
:2066A00065640D0A737461747573203078253032780D0A007061636B6574207472616E73B8
:2066C0006D697373696F6E2069732073746F707065640D0A7472616E736D69747465643A9D
:2066E000203078253034780D0A737461747573203078253032780D0A00C046C073686965C9
:206700006C6400C0536869656C642073746F707065640D0A00C046C0536869656C642073A8
:206720007461727465640D0A00C046C0646961672066656174757265202725732720697355
:20674000206E6F7420737570706F727465640D0A00C046C06661696C65640D0A73746174AD
:206760007573202523780D0A00002DE9F04FADF58A7D439144900988808B16460627401817
:2067800084B2A5E29DF90801132800F29C82DFE810F07802640243022702E8019A017F0139
:2067A00062013E01BF009A029A029A029A02AE009D00350023009A021400449821463A46F2
:2067C0006B461FF005FD062840F06F829DF801000428C0F06A820FE29DF80951FE2D00F24D
:2067E0006482A01C81B24498731D2A461FF0F0FC854240F05A829DF809012AE19DF8095181
:206800009DF809C10320B5FBF0F141436D1A40F04C829DF80911B1FBF0F1C9B2542900F236
:2068200044824FF0000881464FF6E07B4CF21F0A454643E0284600EB4000ADF800800019F8
:20684000801C81B244988DF802804A466B461FF0BFFC032840F0298206EB8502BDF8001038
:20686000D08809020BEA000089B240EAE120BDF800109DF809C183B20802D38000F48070C0
:2068800040EA21210AEA030040EA41109DF80230D080107A6D1CEDB2C3F3C00100F0F000FA
:2068A0000143581000F002000843590001F004010143D80000F0080008431072BCFBF9F01F
:2068C000C0B2A842B6DC30714746EFE14498214604226B461FF07CFC042840F0E6819DF8D3
:2068E00001000228C0F0E181BDF80200C7E14498214603226B461FF06BFC032840F0D581BC
:206900009DF80100002800F0D0819DF80200A0E04498214626226B461FF05AFC262840F042
:20692000C4819DF801002428C0F0BF81DDF80620DDF80A5002F47F411006170A40EA0120DE
:2069400007F47F41DDF80E702B0A014341EA12612806B16005F47F4140EA012003F47F4118
:20696000DDF812303A0A014341EA15613806F16007F47F4140EA01201D0A02F47F41014321
:2069800041EA17611806DDF81670316103F47F4140EA012005F47F41DDF81A503A0A0143C7
